:020000040000fa
:080000000002040000000000f2
:020000040000fa
:04000800a40300004d
:020000040000fa
:04000c00a403000049
:020000040000fa
:04001000a403000045
:020000040000fa
:04001400a403000041
:020000040000fa
:04001800a40300003d
:020000040000fa
:04001c00a403000039
:020000040000fa
:04002000a403000035
:020000040000fa
:04002400a403000031
:020000040000fa
:04002800a40300002d
:020000040000fa
:04002c00a403000029
:020000040000fa
:04003000a403000025
:020000040000fa
:04003400fa020000cc
:020000040000fa
:04003800a40300001d
:020000040000fa
:04003c00a403000019
:020000040000fa
:04004000a403000015
:020000040000fa
:04004400a403000011
:020000040000fa
:040048001a03000097
:020000040000fa
:04004c00a403000009
:020000040000fa
:04005000a403000005
:020000040000fa
:040054007203000033
:020000040000fa
:04005800a4030000fd
:020000040000fa
:04005c004e0300004f
:020000040000fa
:04006000a4030000f5
:020000040000fa
:04006400a4030000f1
:020000040000fa
:04006800a4030000ed
:020000040000fa
:04006c00a4030000e9
:020000040000fa
:04007000a4030000e5
:020000040000fa
:04007400a4030000e1
:020000040000fa
:04007800a4030000dd
:020000040000fa
:04007c00a4030000d9
:020000040000fa
:04008000a4030000d5
:020000040000fa
:04008400a4030000d1
:020000040000fa
:04008800a4030000cd
:020000040000fa
:04008c00a4030000c9
:020000040000fa
:04009000a4030000c5
:020000040000fa
:040094002203000043
:020000040000fa
:04009800a4030000bd
:020000040000fa
:04009c00a4030000b9
:020000040000fa
:0400a000a4030000b5
:020000040000fa
:0400a400a4030000b1
:020000040000fa
:0400a800a4030000ad
:020000040000fa
:0400ac00a4030000a9
:020000040000fa
:0400b000a4030000a5
:020000040000fa
:0400b400a4030000a1
:020000040000fa
:0400b800a40300009d
:020000040000fa
:0400bc00a403000099
:020000040000fa
:0400c000a403000095
:020000040000fa
:0400c400a403000091
:020000040000fa
:0400c800a40300008d
:020000040000fa
:0400cc00a403000089
:020000040000fa
:0400d000a403000085
:020000040000fa
:0400d400a403000081
:020000040000fa
:0400d800a40300007d
:020000040000fa
:0400dc00a403000079
:020000040000fa
:0400e000a403000075
:020000040000fa
:0400e400a403000071
:020000040000fa
:0400e800a40300006d
:020000040000fa
:0400ec00a403000069
:020000040000fa
:0400f000a403000065
:020000040000fa
:0400f400a403000061
:020000040000fa
:0400f800a40300005d
:020000040000fa
:0400fc00a403000059
:020000040000fa
:04010000a403000054
:020000040000fa
:04010400a403000050
:020000040000fa
:04010800a40300004c
:020000040000fa
:04010c00a403000048
:020000040000fa
:04011000a403000044
:020000040000fa
:04011400a403000040
:020000040000fa
:04011800a40300003c
:020000040000fa
:04011c00a403000038
:020000040000fa
:04012000a403000034
:020000040000fa
:04012400a403000030
:020000040000fa
:04012800a40300002c
:020000040000fa
:04012c00a403000028
:020000040000fa
:04013000a403000024
:020000040000fa
:04013400a403000020
:020000040000fa
:04013800a40300001c
:020000040000fa
:04013c00a403000018
:020000040000fa
:04014000a403000014
:020000040000fa
:04014400a403000010
:020000040000fa
:04014800a40300000c
:020000040000fa
:04014c00a403000008
:020000040000fa
:04015000a403000004
:020000040000fa
:04015400a403000000
:020000040000fa
:04015800a4030000fc
:020000040000fa
:04015c00a4030000f8
:020000040000fa
:04016000a4030000f4
:020000040000fa
:04016400a4030000f0
:020000040000fa
:04016800a4030000ec
:020000040000fa
:04016c00a4030000e8
:020000040000fa
:04017000a4030000e4
:020000040000fa
:04017400a4030000e0
:020000040000fa
:04017800a4030000dc
:020000040000fa
:04017c00a4030000d8
:020000040000fa
:04018000a4030000d4
:020000040000fa
:04018400a4030000d0
:020000040000fa
:04018800a4030000cc
:020000040000fa
:04018c00a4030000c8
:020000040000fa
:04019000a4030000c4
:020000040000fa
:04019400a4030000c0
:020000040000fa
:04019800a4030000bc
:020000040000fa
:04019c00a4030000b8
:020000040000fa
:0401a000a4030000b4
:020000040000fa
:0401a400a4030000b0
:020000040000fa
:0401a800a4030000ac
:020000040000fa
:0401ac00a4030000a8
:020000040000fa
:0401b000a4030000a4
:020000040000fa
:0401b400a4030000a0
:020000040000fa
:0401b800a40300009c
:020000040000fa
:0401bc00a403000098
:020000040000fa
:0401c000a403000094
:020000040000fa
:0401c400a403000090
:020000040000fa
:0401c800a40300008c
:020000040000fa
:0401cc00a403000088
:020000040000fa
:0401d000a403000084
:020000040000fa
:0401d400a403000080
:020000040000fa
:0401d800a40300007c
:020000040000fa
:0401dc00a403000078
:020000040000fa
:0401e000a403000074
:020000040000fa
:0401e400a403000070
:020000040000fa
:0401e800a40300006c
:020000040000fa
:0401ec00a403000068
:020000040000fa
:0401f000a403000064
:020000040000fa
:0401f400a403000060
:020000040000fa
:0401f800a40300005c
:020000040000fa
:0401fc00a403000058
:020000040000fa
:04020000a403000053
:020000040000fa
:04020400a40300004f
:020000040000fa
:04020800a40300004b
:020000040000fa
:04020c00a403000047
:020000040000fa
:04021000a403000043
:020000040000fa
:04021400a40300003f
:020000040000fa
:04021800a40300003b
:020000040000fa
:04021c00a403000037
:020000040000fa
:04022000a403000033
:020000040000fa
:04022400a40300002f
:020000040000fa
:04022800a40300002b
:020000040000fa
:04022c00a403000027
:020000040000fa
:04023000a403000023
:020000040000fa
:04023400a40300001f
:020000040000fa
:04023800a40300001b
:020000040000fa
:04023c00a403000017
:020000040000fa
:04024000a403000013
:020000040000fa
:04024400a40300000f
:020000040000fa
:04024800a40300000b
:020000040000fa
:04024c00a403000007
:020000040000fa
:04025000a403000003
:020000040000fa
:04025400a4030000ff
:020000040000fa
:04025800a4030000fb
:020000040000fa
:04025c00a4030000f7
:020000040000fa
:04026000a4030000f3
:020000040000fa
:04026400a4030000ef
:020000040000fa
:100400000f0521000eff2d000e01880000000000e6
:10041000000020000000e000020032000001200087
:100420002002880014000700c90007000000e00057
:1004300003003a00c09821000100200002003700ac
:100440000000200001002000810f70000100320038
:100450000f000700000020000000e0000200320052
:10046000000002000000000008120200000000006e
:100470000040da000000fe00200020000000e00044
:1004800002003200100020009001880000000600e9
:10049000a1028800800478000000eb001f003700f4
:1004a000e284440054a0b4009905ba00e2844400f8
:1004b00054a0b4009906ba00e284440054a0b400e9
:1004c0000006eb00476fde00fd07b200ae018800ba
:1004d000636ce10003003a000ad801000000eb0061
:1004e0000e003700606ce10008003a00004deb00a0
:1004f0000a05e800020039003420ec000af0a000f0
:100500008b05e900f9ff3e00040037006168e10057
:10051000010032000086eb000b00070019c7ba008b
:100520000e04e0001905ba0003003a000a00e000da
:10053000dbff3a0000000600fe07b200ae028800b2
:100540008a047800f5ff37000cd0a300e20f4d00bd
:100550001c003b0089027800354dba000a05e8000e
:10056000020039003420ec000af0a0008b05e900fd
:100570000f003200254dba000a05e80002003900dc
:100580003420ec000af0a0008b05e90008003200de
:100590000c00e0000600320015cdba000a05e800a4
:1005a000020039003420ec000af0a0008b05e900bd
:1005b0008984e80054a0b4000b00e000e2ff3a0098
:1005c000000006009902ba00055d78008b05e9007d
:1005d000f7ff3200c82ade00055d78008b05e900d0
:1005e000f3ff32000c00e000f1ff320019ddba0029
:1005f000eeff37003600f800809fbe00829fbe00ed
:10060000849fbe00869fbe000000fa000068a9001b
:10061000c50a0700b90807000080fa004f03be00b2
:100620004f02be004f01be004f00be003600f90071
:10063000004006000000fa000108a9000080fa004e
:10064000004006003600f800809fbe00829fbe007a
:10065000849fbe00869fbe000000fa000368a900c8
:10066000b0808000c180800061004000e0804800d0
:10067000b0808800c1808800570507000806070081
:100680000080fa004f03be004f02be004f01be00c3
:100690004f00be003600f90000400600801f7800c1
:1006a0000000fa0001a8a90000188000308288002c
:1006b0001018800040828800201880005082880036
:1006c00030188000608288004018800070828800a6
:1006d00010c0b3001df0b7000080fa004f00780092
:1006e00000400600801f78000000fa000168a900a1
:1006f00010118000640060000000e0000100320082
:100700002242a90010118000620060000000e00099
:10071000050032002222a9000400370030118000b9
:100720002011880001003700000000001011800037
:10073000610060000000e000f8ff3a000080fa006d
:100740004f007800004006000040da000000fe0084
:100750000000050014002000ad033700f4ff2f0057
:10076000ab0337000001be003f0007000470a70084
:1007700003f0a1006509b100160032000d0035003c
:100780006828e10006003500f0ff2f00f1ff270088
:100790000300e00013003b000100280000000500fa
:1007a00000004000818048008502e900fcff3a001b
:1007b00008003700f88f420002003c008000eb0088
:1007c000000005008100d1000080d3008502e80010
:1007d000fcff3a000300e00002003b006000100054
:1007e000e0801800000006000001be001e000700a7
:1007f0000470a70003f0a10003f8a30013003a005f
:100800006509b10010003200090035006928e100d7
:100810000200350001002800000005000000400033
:10082000818048008502e900fcff3a0000000600d4
:10083000f88f4200050035008100d1000080d30010
:100840008502e800fcff3a00000006008000eb0093
:10085000000005004f89de00820178008703370021
:100860006011b80095033700c70ade00f107b20037
:10087000f50fb20008003200e1cf42000200320062
:100880000170a00024000500810f700001003200fb
:100890000408050044000500810f700002003a00c2
:1008a000140005008502e9000000400081c04800f6
:1008b000fcff3b000170a0002400050007f82700a2
:1008c000078361000638e10004003a00f7072000c2
:1008d000878361008703710001003a0003f0a200e2
:1008e000889fbe008a9fbe008c9fbe00470ade0024
:1008f0000480a100c71ade000580a10007002800bf
:100900000785600087856100f70f20000720e10060
:100910009e0032000728e1009c00320001067800aa
:100920000400e000b4003200f70720008780600078
:100930000170a0000500e000c0003200f7072000b1
:10094000878161000370a000050652000f003a0085
:100950000b50e1000b0032000308e10002003a00f6
:100960000200e1007e00320002045000838458003f
:10097000040031000001fd008101fd008402fd0042
:100980008a05fd006044b800210037000520e10021
:1009900005003d000001fd008101fd008402fd0015
:1009a0008a05fd00050652007a60e1000500350069
:1009b0000170a1004722dd00848070008a807000f1
:1009c000630037006044b800ef02660007ff2f00a5
:1009d000070666000500e00006003400f083120000
:1009e0008714dd000511de00071bdd000601710024
:1009f0008519de007060e10005003500090478000b
:100a000082047800030178008001eb007006560034
:100a10000b50e10003003a000200400083804800d0
:100a20000400370060041400e0841c000200580039
:100a3000838058000188a300060032008100d100a5
:100a40000080d3008984d3000884d3000402e80026
:100a5000270037000178a30025003a000100e000dc
:100a6000030032008186cf00698656000a003700f5
:100a70008c0020000000e00004003a00090078002b
:100a8000880478000004eb00700252008086cf00da
:100a90000d0646000c06e9007060e1000600350016
:100aa0008000780009007800880478000004eb00da
:100ab00070065600700252000c00e0000c0034007a
:100ac0008c08dd00f00316000703de00868070004e
:100ad0000c00dd00074bde00060070008c4cdd00d2
:100ae0000743de00868474000c44dd000c025200d3
:100af0006120e1002000350061016000070028004e
:100b000087816400f7ff2700878364000703740070
:100b10000300e0000600320082037300040032008c
:100b20000000e800e08048000188a3000e003a00c1
:100b3000f70f20000720e1004a003d000170a100ee
:100b40004722dd00810072008a8070000000be0034
:100b50004f06be004f05be004f04be000000060059
:100b60006000b800faff37008100d1000080d30098
:100b70000402e800eeff37000401780089017400e8
:100b8000a10107008a807000f1ff3700f70107001c
:100b9000070278000001fd008101fd00f30107005c
:100ba00087027800850372000778a30004003200f2
:100bb0000001fd008101fd0006020700e4ff37008f
:100bc000850362000768a300080032000b50e100b3
:100bd00003003200f0ff2f00f1ff2700dcff370099
:100be0000001fd008101fd00d9ff37000468a3006a
:100bf000d7ff3200faff3700f8ff27008883600034
:100c00000b003a000000e00009003a008303640092
:100c100082837300020032000200be00ccff370066
:100c20000b50e100ceff3a000200be00c8ff3700c3
:100c300014002000810064003eff3700f8ff270009
:100c40008883610004003a000200e00002003a00dc
:100c50008c007800beff370015002000830164007f
:100c600039ff370001f827000000200081007500df
:100c7000b7ff3700889fbe008a9fbe008c9fbe00d2
:100c80001b0020000202be00058668000600280046
:100c9000060666004709de00f20fb200820032004d
:100ca0000243e80080003200c729de00f30fb200e3
:100cb0007d0032000343e8007b003200f107b20000
:100cc0000170a000f507b2000570a000c708dd00a4
:100cd0004903de00868070004700dd00c72add0082
:100ce0004923de00868272004722dd0003055100a1
:100cf00004035000858358000300310000004000c9
:100d0000818048000a05e9008c1f78008a9fbe0098
:100d100004005000858058000402420085824a0089
:100d200000004000818048000005eb000004be0088
:100d30006033b8000406be000d48e10056003100e3
:100d4000110009004dccd8000c01b8000d02b8000c
:100d50008481410060824a008283530003045c0066
:100d600084845c0060055d000a00e00025003a0014
:100d7000800578000d40e1004900310088007800ce
:100d800007007800110009004d88d8000c01b80058
:100d90000d02b8008481410060824a0060031100a6
:100da00083835b0004045c00e0845c000900e000d5
:100db00021003a004f01be000300e0002b0032008a
:100dc000e3016000070673008c81710001003200ae
:100dd000640070004200de004e5edd000c0070001a
:100de000c258de0001e0a00083010700cf017800b7
:100df000818071004f06be004f05be004f04be004b
:100e0000000006008c8343000d044c00e0844c007d
:100e100060054d000000e9000a00e000d4ff320048
:100e20008c8343000d044c00e0844c0060054d00b1
:100e30000000e900ceff37000c0343008d834b0018
:100e400060044c00e0844c000000e9000900e00070
:100e5000d8ff32000c0343008d834b0060044c002c
:100e6000e0844c000000e900d2ff37004200de00c1
:100e70004e5edd000c007000c258de0001e0a000f4
:100e8000cf0178000300e000daff320060001000bc
:100e9000e0801800d7ff3700f0ff2f00aaff3700cf
:100ea000f0ff2f00b9ff37000404be002f01070038
:100eb000870678000004fd008104fd002b01070077
:100ec000078366000678a300030032000960a700cc
:100ed0000800be002c0037000d78a300020032008d
:100ee0000800be00280037000778a30026003a005b
:100ef00001f0a10009f0a1000668a3000300320080
:100f0000f1ff2700f0ff2f00baff37000d68a300a4
:100f1000030032000800be008c807000b5ff37006f
:100f20000768a30007003a000648a3000300320048
:100f3000f1ff2700f0ff2f00aeff37000d48a300a0
:100f4000030032006000b8008c807000a9ff3700f9
:100f50000748a3000400320001f827000000200029
:100f60008c807000a3ff3700760107000004fd00ad
:100f70008104fd0002057800720107000802be002e
:100f80008a01780059ff37000160a000120220009a
:100f9000f280880097ff37000100e0001200320065
:100fa0000500e00010003200889fbe008a9fbe004e
:100fb0008c9fbe000006eb0001f8a3000300320086
:100fc00060001000e08018000cf0a00005f8a300fd
:100fd0000300320060021200e0821a000cf0a2004e
:100fe0008005eb0041ff37006000b80002000500fb
:100ff000038368000700280007036300470ade0038
:101000000480a100c71ade000580a100f70f2000b0
:101010000720e100420032000728e10040003200d2
:10102000889fbe008a9fbe008c1f7800f107b20027
:10103000f307b2000400e000640032000170a00079
:101040000500e000680032000370a0008505420042
:10105000eb07b1000204b8000302b8008484440026
:1010600060854a00020ab800848444000a854a0068
:10107000030ab80004054500040033000804d0004a
:101080008984d2000a85d2008b05e9006158e1000d
:101090003d00350002102000090161000308200016
:1010a00089816100f7072000878364000886730048
:1010b000c84cde00c853dd00878474004855de004c
:1010c0000300e000060032008203760004003200d4
:1010d0008904e80060054d000a88a3000c003a006e
:1010e000f70f20000758e10044003d000a70a100fe
:1010f000c75ddd000a8575008a007300090078006d
:101100004f0678004f05be004f04be0000000600e9
:101110000a05d1008984d3008b05e800f0ff370071
:10112000881f780006047800900007000702780006
:101130000001fd008101fd008c000700870278009e
:10114000850372000778a300050032000001fd004e
:101150008101fd009f0007004f0478000000060099
:10116000850372000748a30003003200f0ff2f0040
:10117000f1ff2700f8ff37000000200001f82700ea
:1011800088807000f4ff3700880178004848dd004f
:10119000808171004848de00c850dd000100700009
:1011a000c850de00060478000b0178001600070026
:1011b00088807000d2ff37000500e0000500320093
:1011c000170020003a0007009dff370081037000e0
:1011d000f9ff3a00860078004f0678004f05be0000
:1011e0004f04be000000050083037100f9ff3200c8
:1011f000270020002e00070094ff370001f8270089
:1012000086807000f4ff37000100e0002600320005
:10121000610111007810e10023003c006022b80059
:101220007010e100040035008002780001007800b1
:101230008000eb00700151000200e0000900340062
:1012400070031100062add00822ade008603dd001d
:10125000878272000200de00860bdd00070070004e
:101260008208de0084817100f4ff2700048262009e
:1012700084817100040028008482620061026000a1
:1012800005f0a6000000060004827100070032008d
:101290000000e800e0804800000006000002be00f8
:1012a0006000b800efff37006000b80000000600e3
:1012b000889fbe000004eb006138e10016003a0090
:1012c0000100e00008003a00c800de004800dd0030
:1012d000880020000100e00003003a00c800de00a2
:1012e0004800dd00680444008184cf00e984540094
:1012f000060034008908dd00f08314008703de0057
:10130000878070000900dd000904440061021400b8
:101310004f04be00000006000300e00008003a0091
:10132000c811de004811dd00880020000300e00045
:1013300003003a00c811de004811dd0068044400d3
:101340008384cf00e9845400060034008919dd004d
:10135000f08314008713de00878171000911dd001e
:1013600009044400e1021400e9ff370027002000cf
:1013700001f0a70017002000470bde00f60fb200b7
:10138000040032000643e8000a0032004702b300be
:101390000000060001037800f607b20006037000a3
:1013a00002003a000703b300000006008702b30002
:1013b0000000060001037800f607b2000603700083
:1013c000020032000770a000000006000760a000c5
:1013d000000006000478a300040032000578a30092
:1013e000030032000168a30001003a000200be00c1
:1013f0000160a0000000060081017000270032009b
:101400008002eb0001f8a30003003200600010002e
:10141000e080180015002000f407200002024200be
:1014200020003400f703200087036000060420003a
:101430000003630002082000000161004700de0095
:10144000c909dd0000807100c708de000600e00069
:101450000800320087037100060032001000b0005f
:101460000180b0000188a30002003200c108de0044
:101470000402e800f107b200f30f20000320e100ae
:1014800003003d004722dd00810072002900370083
:1014900001f827000000eb00260037006000b800cc
:1014a00000000600680212007f20e1000200340004
:1014b0006000b8001f0037006011b8007020e10024
:1014c0000400350080017800010078008000eb0006
:1014d000700252000400e00009003400f003120022
:1014e0000719dd008419de000703dd008681710025
:1014f0000400de00070bdd00060070008408de003b
:10150000f7ff27008383630087037100060028002c
:1015100003036300070032000700e00003003a0005
:101520006101600002817300020032001000b0000f
:101530000180b0000500a6000000060001f0a00038
:10154000000006004f0ade004709de00f107b20086
:10155000f20fb2000b003200f207b1000170a000e0
:10156000c708dd00c901de00838070004700dd0090
:101570000400a6000000060060001000e0801800d3
:1015800000000600810f700001003a000000060014
:101590008182cf000500e00010003e008082cf0075
:1015a000ee8242007028e1000400390007003e008e
:1015b000800078000000eb000e00370070831200fe
:1015c0008600de000500dd000a003700708352004f
:1015d0008600dd000000eb0006003700e2825200ca
:1015e0008508dd00708312000603de00868070002f
:1015f0000500dd007507b0000501ea000400a60043
:101600000000060060001000e080180000000600e6
:10161000889fbe008a9fbe00841f78007c00070060
:101620004f00780011003300f0ff2f00838f6c0013
:1016300006003b00040565000a00a700080037000b
:1016400009f0a6001000200008003700820f5400a7
:10165000838f5c00030039001000200001003e0071
:101660000000200009f0a7000000ea004f05be00be
:101670004f04be000000e00000000600881f780054
:10168000030478000300e00007003d006000100044
:10169000e080180060011900e081190002003b00a1
:1016a00001f02d00030037000400070008f0a70038
:1016b00001f0a0004f04780000000600889fbe00e3
:1016c0008a9fbe00008270000402710004827100d3
:1016d000260032000004be000200be006011b80007
:1016e0006b092000950220000182cf000a0039001a
:1016f0000541b1000082cf00070039000541b1006b
:101700000982cf00040039000541b1000882cf00f2
:10171000010039000541b1000542520012003200bb
:101720000a003b0082817100610164008100d100e8
:101730000080d3008984d3000884d3008b05e8009f
:101740000442e800f7ff3a000700370008044400ad
:1017500089844c0000004800818048008b05e90026
:101760000442e900f9ff3a00030007004f05be00fc
:101770004f04be000000060081002000618055007b
:101780000b003d000b00200061fe2f000100e10076
:101790001d00340082817100610164008904d10060
:1017a0000884d3000000e800faff3a00710020002e
:1017b0006100640003007000020060000900320054
:1017c00061044400e0844c000988a5000500320053
:1017d0008b05e8006808e10002003a008904d100a6
:1017e0000884d300f20f20000258e10005003d00fc
:1017f000c75ddd00f907b200898075000800780038
:10180000000006000bf827008b00780000000500a0
:101810000004be0014fc07000003be000405be0067
:101820000200be0010fc0700844f75000000060097
:020000040000fa
:101830002200fa00889fbe00b0818000c181800034
:10184000c8fb0700000f780090818000a181800014
:10185000c4fb07000e81e80000097800d0818000f9
:10186000e1818000bffb07006401470000097800a8
:10187000f081800001828000bafb0700660147000a
:10188000000978001082800021828000b5fb0700eb
:1018900068014700000978000e80e8001000780019
:1018a0001e004000cf80de00eafb0700020020009f
:1018b00003002400effc07006a0147000089be0016
:1018c000660047009000780068004700100078002c
:1018d00000804000cf80de00defb07000200200019
:1018e00003002400e3fc07006e0147000089be00ee
:1018f0006a00470090009000100078000001be00d0
:10190000f7fb07000004be006400470010007800e9
:10191000cf80de00cffb07000001be000800be0044
:10192000effb07000200200003042400d1fc0700a5
:10193000720147000089be006e00470090009000d1
:10194000100078000001be00e5fb07000004be00a7
:101950006400470010007800cf80de00bdfb070068
:101960000001be000800be00ddfb070002002000f1
:1019700003042400bffc0700760147000089be0075
:1019800000002000811b24007a0147000089be006e
:1019900000002000011424007e0147000089be00e1
:1019a0007200470002002000832c24009000900069
:1019b00010007800affc07000004be00fe004700e6
:1019c0007a0047001101780091019000900090008a
:1019d00010007800b9fb07000001be000800be003f
:1019e00083fd07007e0147009201900012017800fc
:1019f000bbfb07005bfb070000007800108088003d
:101a00007600470002002000832c24009000900004
:101a10001000780097fc07000004be00fe0047009d
:101a20007a00470011017800910190009000900029
:101a300010007800a1fb07000001be000800be00f6
:101a40006bfd07007e0147009201900012017800b3
:101a5000a3fb070043fb070000007800008088001c
:101a600000808000cf80de007afb070018c0b30042
:101a700002002000831b240038fb07000000e00068
:101a800001003c000044eb000804e00002003200ca
:101a9000040ea80001003700040ea9004f04be0088
:101aa0000080fa00000006000400fa00881f780099
:101ab000008fbe0018c0b30002002000031f2400e6
:101ac0001e0078009e00900022fb07000000e0004e
:101ad000010035000044eb000804e0000200320081
:101ae00010002000010037000000eb004f047800d8
:101af0000080fa00000006000400fa00881f780049
:101b0000008fbe0018c0b30002002000031f240095
:101b10001e0078009e0090000efb07000000e00011
:101b2000010035000044eb000804e0000200320030
:101b300010002000010037000000eb004f04780087
:101b40000080fa00000006000200fa000040eb00ee
:101b5000004f780090818000a1818000d2ff0700b3
:101b60000000e000010032001e44a000b0818000af
:101b7000c1818000ccff07000000e00001003200be
:101b80001e34a000d0818000e1818000c6ff0700e4
:101b90000000e000010032001e24a000f08180005f
:101ba00001828000c0ff07000000e0000100320059
:101bb0001e14a0001082800021828000baff07005e
:101bc0000000e000010032001e04a0001e4078006a
:101bd0000080fa00000006000000fa00881f78006c
:101be00013ff070008d0bf000080fb00cf80de009d
:101bf000f200200003002000820f5000838f580065
:101c0000a0003e00000601000f003700180037005a
:101c10002100370041003700420037004c003700f8
:101c200067003700710037004b0037005500370060
:101c300056003700600037006e0037007d00370027
:101c40007e0037008d0037001630ef001830ef00af
:101c50000041eb006000b800f903070012c0b300b8
:101c60006000b800f603070010c0b30008f0b7002a
:101c7000b2808000c3808000803e200001002000f0
:101c8000800f5100818f59008100360020c0b300c1
:101c900008f0b7007f003700d0818000e18180002c
:101ca00018c0b30002002000032a2400abfa07008a
:101cb0000000e00001003c000044eb000804e000ec
:101cc0000500320090012000308088009001200043
:101cd0002080880004003700f00020003080880059
:101ce000f00020002080880000808000cf80de008f
:101cf000d8fa07000041eb00d103070010808000f4
:101d0000cf80de00d3fa070012c0b300cc03070077
:101d100030c0b30008f0b7005e00370025010700af
:101d20005c0037000041eb006000b800c40307000e
:101d300000808000cf80de00c6fa070012c0b3002a
:101d4000bf03070050c0b30008f0b70051003700d0
:101d5000180107004f0037000041eb006000b80099
:101d6000b703070000808000cf80de00b9fa0700cb
:101d700012c0b300b203070090c0b30008f0b70070
:101d8000440037000b01070042003700108080003c
:101d9000cf80de00affa07000041eb00a803070088
:101da00012c0b3006000b800a5030700b0c0b300c4
:101db00008f0b70037003700fe0007003500370095
:101dc00010808000cf80de00a2fa07000041eb0007
:101dd0009b03070012c0b3006000b800980307001f
:101de00070c0b30008f0b7002a003700f100070008
:101df00028003700108080006f004000cf80de0098
:101e000094fa07000041eb008d0307000180800079
:101e100010ff2f0001005000cf80de008dfa070078
:101e200012c0b30086030700d0c0b30008f0b700ab
:101e300018003700df00070016003700118080000f
:101e400010ff2f0001005000cf80de0081fa070054
:101e50000041eb007a030700008080006f00400023
:101e6000cf80de007bfa070012c0b30074030700c6
:101e7000f0c0b30008f0b70006003700cd0007003f
:101e8000040037000870ef00000000000100370078
:101e9000000000004f0478000080fa0000000600f7
:101ea0000600fa00881f7800a70407000004e0007d
:101eb000bd003200a80407009f04070080007800de
:101ec00064004700010878006400470010007800b3
:101ed000100078008000eb0061fa07003233230025
:101ee0003305240042fc07000200200003582400b0
:101ef00060fb0700008fbe0018c0b30062662600ba
:101f000063ea23001e0078009e00900011fa07008b
:101f10000000e000010035000044eb000804e00090
:101f2000030032006066260061ea2300008fbe00d5
:101f30001e0178009e0190000000200081202400f6
:101f40004cfb070002002000030a24005bfa070094
:101f500090818800a181880064004700100078000b
:101f60000080e800100078008000eb003cfa0700d9
:101f700032332300330524001dfc0700020020003b
:101f8000035824003bfb0700008fbe0018c0b300bd
:101f90006266260063ea23001e0078009e0090001f
:101fa000ecf907000000e000010035000044eb0000
:101fb0000804e000030032006066260061ea2300a6
:101fc000008fbe001e0178009e01900000002000de
:101fd0008120240027fb070002002000030a2400c0
:101fe00036fa0700b0818800c1818800640047008c
:101ff0001000780064004000100078008000eb00c2
:1020000017fa07003233230033052400f8fb0700da
:10201000020020000358240016fb0700008fbe00ba
:1020200018c0b3006266260063ea23001e00780031
:102030009e009000c7f907000000e0000100350095
:102040000044eb000804e000030032006066260054
:1020500061ea2300008fbe001e0178009e019000ff
:10206000000020008120240002fb07000200200065
:10207000030a240011fa0700d0818800e18188005a
:1020800064004700100078006600400010007800ef
:102090008000eb00f2f907003233230033052400ff
:1020a000d3fb07000200200003582400f1fa0700c8
:1020b000008fbe0018c0b3006266260063ea2300ea
:1020c0001e0078009e009000a2f907000000e000ca
:1020d000010035000044eb000804e000030032007a
:1020e0006066260061ea2300008fbe001e017800b2
:1020f0009e0190000000200081202400ddfa0700ee
:1021000002002000030a2400ecf90700f081880097
:1021100001828800640047001000780068004000d9
:10212000100078008000eb00cdf907003233230067
:1021300033052400aefb07000200200003582400f2
:10214000ccfa0700008fbe0018c0b30062662600fc
:1021500063ea23001e0078009e0090007df90700ce
:102160000000e000010035000044eb000804e0003e
:10217000030032006066260061ea2300008fbe0083
:102180001e0178009e0190000000200081202400a4
:10219000b8fa070002002000030a2400c7f907006c
:1021a00010828800218288004f0478000080fa00a5
:1021b000000006000000fa0063fe07000080fb003c
:1021c0005080880050808000cf80de00f201200027
:1021d00003002000820f5000838f58007e003e00d5
:1021e000000601001f0037002100370023003700e0
:1021f0002500370027003700790037002800370016
:102200002a0037002c0037002e003700300037003e
:10221000320037003400370036003700380037000e
:102220003a0037003c0037003e00370040003700de
:1022300042003700440037004600370048003700ae
:102240004a0037004c0037004e003700500037007e
:10225000520037005400370056003700580037004e
:102260005a00370020c0b3000cf0b7005d00370003
:1022700040c0b3000cf0b7005a00370040c0b300b4
:102280000cf0b7005700370040c0b3000cf0b700a7
:1022900054003700c0c0b3000cf0b7005100370045
:1022a00040c0b3000cf0b7004e00370040c0b30090
:1022b0000cf0b7004b003700a0c0b3000cf0b70023
:1022c00048003700a0c0b3000cf0b700450037004d
:1022d000a0c0b3000cf0b70042003700a0c0b300ac
:1022e0000cf0b7003f003700a0c0b3000cf0b700ff
:1022f0003c003700e0c0b3000cf0b70039003700f5
:10230000e0c0b3000cf0b70036003700c0c0b30027
:102310000cf0b70033003700a0c0b3000cf0b700da
:102320003000370020c0b3000cf0b7002d0037009c
:1023300040c0b3000cf0b7002a003700e0c0b30083
:102340000cf0b70027003700e0c0b3000cf0b70076
:1023500024003700e0c0b3000cf0b70021003700c4
:10236000a0c0b3000cf0b7001e003700e0c0b300ff
:102370000cf0b7001b003700a0c0b3000cf0b70092
:1023800018003700a0c0b3000cf0b70015003700ec
:10239000a0c0b3000cf0b70012003700a0c0b3001b
:1023a0000cf0b7000f003700a0c0b3000cf0b7006e
:1023b0000c003700e0c0b3000cf0b7000900370094
:1023c000e0c0b3000cf0b70006003700e0c0b30077
:1023d0000cf0b700030037000000000001003700d8
:1023e000000000000cd0bf008080fb0008d0bf00c0
:1023f0000080fb000000e900808f500002003200e6
:102400000cd0bf0008f0b7000080fa000000060002
:102410000000fa00bf0207008d030700110007004b
:1024200005000700280007001a0107000403070041
:102430004d030700ffff37000000fa0005e1a90087
:102440000421a9000068a9002068a80005e1a800ef
:1024500000002000a1372400260007000080fa00b9
:10246000000006000000fa0013e1a90011e1a90034
:102470001061a8001021a90081088000f0fc2f0045
:1024800000806000800888000a21ef000621ef002c
:10249000303920007008880000702800600888002b
:1024a0002142800080ff2f00008060000000a0001b
:1024b000204288000108a9002108a80011e1a80015
:1024c0000080fa00000006000000fa001fe1a900e9
:1024d0001e21a9000368a9002368a8001fe1a80025
:1024e00000002000a1472400760007000080fa00c9
:1024f000000006000400fa00881f7800008fbe006c
:1025000021088000f0fc2f00008060002008880077
:102510001e0178009e019000001c2e0041c6240080
:10252000d4f9070018c0b30002f02f00f37724009d
:102530008af807000000e00001003c000044eb00c6
:102540000804e0005400320021088000f0fc2f0055
:10255000008060000040a000200888001e01780074
:102560009e019000001c2e0041c62400c1f9070006
:102570000200200003102400bef9070018c0b300b9
:1025800002f02f00f377240074f807000000e00049
:1025900001003c000044eb000804e000320032007f
:1025a00021088000f0fc2f00008060000050a00097
:1025b000200888001e0178009e019000001c2e005b
:1025c00041c62400abf907000200200003282400c4
:1025d000a8f9070018c0b30002f02f00f377240019
:1025e0005ef807000000e00001003c000044eb0042
:1025f0000804e000100032002108800000032000e1
:1026000001007000200888001e0178009e019000e3
:10261000001c2e0041c6240096f90700020020008d
:102620000338240093f907004ef8070000007800f3
:1026300010088800200037001e0178009e019000dd
:10264000001c2e0041c624008af907000200200069
:102650000328240087f9070042f8070000007800eb
:1026600010088800140037001e0178009e019000b9
:10267000001c2e0041c624007ef907000200200045
:10268000031024007bf9070036f8070000007800eb
:1026900010088800080037001e0178009e01900095
:1026a000001c2e0041c6240072f907002df8070017
:1026b00000007800100888004f0478000080fa00bd
:1026c000000006000400fa00881f7800008fbe009a
:1026d000f1088000f0fc2f0000806000f008880006
:1026e0001e0178009e019000001c2e0041c62400af
:1026f00060f9070018c0b30002f02f00f377240040
:1027000016f807000000e00001003c000044eb0068
:102710000804e00054003200f1088000f0fc2f00b3
:10272000008060000040a000f00888001e017800d2
:102730009e019000001c2e0041c624004df90700a8
:1027400002002000031024004af9070018c0b3005b
:1027500002f02f00f377240000f807000000e000eb
:1027600001003c000044eb000804e00032003200ad
:10277000f1088000f0fc2f00008060000050a000f5
:10278000f00888001e0178009e019000001c2e00b9
:1027900041c6240037f90700020020000328240066
:1027a00034f9070018c0b30002f02f00f3772400bb
:1027b000eaf707000000e00001003c000044eb00e5
:1027c0000804e00010003200f1088000000320003f
:1027d00001007000f00888001e0178009e01900042
:1027e000001c2e0041c6240022f907000200200030
:1027f000033824001ff90700daf70700000078000b
:10280000d0088800200037001e0178009e0190004b
:10281000001c2e0041c6240016f90700020020000b
:102820000328240013f90700cef707000000780002
:10283000d0088800140037001e0178009e01900027
:10284000001c2e0041c624000af9070002002000e7
:102850000310240007f90700c2f707000000780002
:10286000d0088800080037001e0178009e01900003
:10287000001c2e0041c62400fef80700b9f707002f
:1028800000007800d00888004f0478000080fa002b
:10289000000006000000fa001160800080ff2f0099
:1028a0000080600010608800009620002060880092
:1028b0001161800000c020000100700010618800dc
:1028c00023cca80023eca800300020002061880061
:1028d0001162800000c020000100700010628800ba
:1028e00043cca80043eca800300020002062880000
:1028f00001eca8000080fa00000006000000fa00c9
:10290000889fbe00548180006581800070818000b6
:102910008181800018c0b3000001be000400be0029
:102920008cf707000000e000010035000044eb00d8
:102930000804e0000d003200788180008981800069
:1029400054818000658180007080800081808000db
:102950000001be000400be00e1f707000801be0050
:102960000f01070050818800618188005481800038
:1029700065818000708180008181800018c0b30073
:102980000001be000400be0074f707000000e00074
:1029900001003c000044eb000804e0000d003200a0
:1029a0007881800089818000548180006581800069
:1029b00070808000818080000001be000400be00a5
:1029c000bef707000801be00db0007005081880049
:1029d00061818800508180006181800018c0b3004f
:1029e0006011b8005df707000000e00001003d0045
:1029f0000044eb000804e000140032005081800025
:102a00006181800002002000031c240078f9070087
:102a10000002be0090808000a18080000001be0006
:102a20000400be00aef707006ff707000000780053
:102a30007061880090808000a18080006af70700a4
:102a4000000078003061880014003700908080001a
:102a5000a180800064f707000000780070618800a2
:102a6000508180006181800001f0a20002002000fe
:102a7000031c24005ef907000002be009080800065
:102a8000a18080000001be000400be0094f7070092
:102a900055f707000000780030618800348180001d
:102aa00045818000108180002181800018c0b30022
:102ab0000001be000400be0026f707000000e00091
:102ac000010035000044eb000804e0000d00320076
:102ad0001881800029818000348180004581800038
:102ae00070808000818080000001be000400be0074
:102af0007bf707000801be00a900070030818800ad
:102b000041818800348180004581800010818000ef
:102b10002181800018c0b3000001be000400be0087
:102b20000ef707000000e00001003c000044eb004d
:102b30000804e0000d003200188180002981800027
:102b40003481800045818000708080008180800019
:102b50000001be000400be0058f707000801be00d7
:102b60007500070030818800418188003081800035
:102b70004181800018c0b3006011b800f7f607006b
:102b80000000e00001003c000044eb000804e0000d
:102b9000140032003081800041818000020020005a
:102ba000031c240012f907000002be009080800080
:102bb000a18080000001be000400be0048f70700ad
:102bc00009f707000000780070628800908080009c
:102bd000a180800004f707000000780030628800c0
:102be0001400370090808000a1808000fef607006e
:102bf0000000780070628800308180004181800090
:102c000001f0a20002002000031c2400f8f80700d5
:102c10000002be0090808000a18080000001be0004
:102c20000400be002ef70700eff607000000780052
:102c3000306288004f04be000080fa0000000600e9
:102c40000600fa00881f7800008fbe00640047006d
:102c5000024878001e0078009e00900020000700c7
:102c600018c0b30002002000832c2400bbf607002c
:102c70000000e00001003c000044eb000804e0001c
:102c800013003a0064004700104078000000fb0089
:102c90000000e00007003200e10f50000d003a0094
:102ca0001e0178009e019000128188002381880017
:102cb000080037001e0078009e00900001f0a2007e
:102cc00070818800818188000000000001003700c9
:102cd000000000004f0478000080fa0000000600a9
:102ce0000400fa00881f7800008fbe0018c0b300ef
:102cf0006011b8001e0078009e00900097f6070053
:102d00000000e00001003d000044eb000804e0008a
:102d1000030032001e0078009e0090000300370080
:102d20001e0078009e00900001f0a2004f04780081
:102d30000080fa00000006000800fa00881f7800f2
:102d4000008fbe00640047000288be0018c0b300b8
:102d50006400470010017800900190001e00780088
:102d60009e0090007df607000000e00001003c009e
:102d70000044eb000804e000030032001e0078006d
:102d80009e00900003003700640047009000900010
:102d9000100078004f0478000080fa000000060060
:102da0000800fa00881f7800008fbe00640047000a
:102db0000288be0018c0b30064004700100178000c
:102dc000900190001e0078009e00900061f60700c0
:102dd0000000e000010035000044eb000804e000c2
:102de000030032001e0078009e00900003003700b0
:102df0006400470090009000100078004f047800b5
:102e00000080fa00000006000c00fa00881f78001d
:102e1000008fbe00640047000288be0068004700c3
:102e20000488be0018c0b300680047001001780095
:102e3000900190001e0078009e00900047f6070069
:102e40000000e00001003c000044eb000804e0004a
:102e50000400320068004700301f78002017780017
:102e60000f00370018c0b30064004700100178005d
:102e7000900190001e0078009e00900035f607003b
:102e80000000e000010035000044eb000804e00011
:102e90000300320064004700301f780020177800dc
:102ea0001e0078009e0090004f0478000080fa0019
:102eb000000006000400fa00008fbe00b2fd2000f2
:102ec000930424001e0078009e00900069f707001c
:102ed000020020004333240045f807000080fa0078
:102ee000000006000400fa00008fbe00b2fd2000c2
:102ef000930424001e0078009e0090003cf8070018
:102f000002002000433324005af707000080fa0033
:102f1000000006000000fa00413a800000fc2f008b
:102f2000008060007001b300403a8800313a8000b0
:102f300000e02f008080600080052000010070000c
:102f4000303a8800213a8000f0f32f0000806000c2
:102f5000203a8800213a800000fe2f0000806000a7
:102f60000000a000203a8800120020008007200006
:102f7000a10920003374200080497800814978003d
:102f800082497800103a8000000178000200a00019
:102f9000600420007105200023742000804978001f
:102fa000814978008249780000000000113a8000d1
:102fb000000027008080600000002100808f50000a
:102fc000faff3a005927a800c13a800080ff2f007d
:102fd000008060000000a000c03a8800d03a800065
:102fe0007000b300d03a8800c13a8000f0f12f00a1
:102ff00080806000000c200001007000c03a880052
:1030000059a7a80059e7a80000000000c13a8000b5
:1030100000002400008060000000e000fbff3200a0
:1030200000000000113a80000002200000806000d3
:103030000000e000fbff32000080fa000000060004
:103040000000fa0021e3a9002143a8000119800033
:10305000f0cf2f0000806000001988002043a900f5
:1030600001198000000e2000010070000019880086
:1030700011198000f0ff2100008060001019880005
:103080002343a80011198000f0cf2f0000806000ba
:10309000101988001119800030f82f00008060009e
:1030a0004001b300101988002203a9002223a900bf
:1030b00025e3a900f0c0b30024e3b7002119800084
:1030c000f00f2e008080600000f0200001007000f2
:1030d000201988003303a9001e0ea8001f0ea800a7
:1030e0001f2ea8001f4ea8001f6ea8003003a800c6
:1030f0003103a8003123a8003143a8003163a800a0
:103100004119800000fe2f000080600040198800f7
:1031100028e3a90001a8a90021a8a80021e3a8008c
:103120000080fa00000006000000fa002023a8003a
:103130000080fa00000006000000fa006004210090
:103140000080fa00000006000000fa001dd0bf0059
:103150000080fa00000006000000fa001d70ef0079
:103160000080fa00000006000000fa002002a9001a
:103170000111800090ff2f00008060000011880086
:1031800020a2a9002062a800100820004011880099
:1031900023a2a80023e2a9000188a9002188a90090
:1031a00011118000f0f32f000080600010118800e2
:1031b0000168a9002168a80021e2a8002342a80014
:1031c0000080fa00000006000600fa000e81e80008
:1031d0000009780064004700010878000040eb0017
:1031e000004f78000040eb00004f780011003700de
:1031f000000000001111800000202000008060000d
:103200000000e000fbff3a000e80e80010007800ac
:10321000104078000080fb00201188000e80e8003c
:10322000100078008000e8000e80e80001087800b7
:103230001e4fe8001e80fb00e4004700910078006c
:10324000810f5000eaff35000080fa000000060000
:103250000000fa000e2eef001e2eef003e2eef00b3
:103260002e2eef004e2eef006e2eef0080cea90026
:1032700080aea900808ea900816ea900714ea900c0
:10328000706ea900000ea900012ea90091eea90000
:10329000014ea900170007002136800000f82f001a
:1032a00080806000e004200001007000203688006b
:1032b0004134800000fc2f00008060000000a0006e
:1032c00040348800020007000080fa000000060079
:1032d0000000fa0021742000620420007305200021
:1032e000824878008348780042c7a8000080fa002e
:1032f000000006000000fa00217420006204200093
:1033000073052000824878008348780042c7a900ee
:083310000080fa000000060035
:020000040000fa
:10331800001000000e0000008000000016100000e1
:1033280006000000800000002010000026000000b9
:10333800800000000e10000008000000820000005d
:103348000000400040000000a041000046100000be
:103358000a000000800000001c10000002000000ad
:10336800800000001e100000020000008000000025
:043378000000000051
:020000040000fa
:0200000401f009
:04000800cfffff0027
:020000040000fa
:0200000401f009
:04000c00f9ffff00f9
:020000040000fa
:0200000401f009
:040010005bffff0093
:020000040000fa
:0200000401f009
:040014007fffff006b
:020000040000fa
:0200000401f009
:04001800cfffff0017
:020000040000fa
:0200000401f009
:04001c00deffff0004
:020000040000fa
:0200000401f009
:04002000cfffff000f
:00000001FF
