:020000040000fa
:080000000002040000000000f2
:020000040000fa
:040008002c040000c4
:020000040000fa
:04000c002c040000c0
:020000040000fa
:040010002c040000bc
:020000040000fa
:040014002c040000b8
:020000040000fa
:040018002c040000b4
:020000040000fa
:04001c002c040000b0
:020000040000fa
:040020002c040000ac
:020000040000fa
:040024002c040000a8
:020000040000fa
:040028002c040000a4
:020000040000fa
:04002c002c040000a0
:020000040000fa
:040030002c0400009c
:020000040000fa
:04003400fa020000cc
:020000040000fa
:040038002c04000094
:020000040000fa
:04003c002c04000090
:020000040000fa
:040040002c0400008c
:020000040000fa
:040044002c04000088
:020000040000fa
:040048002e03000083
:020000040000fa
:04004c002c04000080
:020000040000fa
:040050002c0400007c
:020000040000fa
:04005400e4030000c1
:020000040000fa
:04005800b8030000e9
:020000040000fa
:04005c00920300000b
:020000040000fa
:040060002c0400006c
:020000040000fa
:040064002c04000068
:020000040000fa
:040068002c04000064
:020000040000fa
:04006c002c04000060
:020000040000fa
:040070002c0400005c
:020000040000fa
:040074002c04000058
:020000040000fa
:040078002c04000054
:020000040000fa
:04007c002c04000050
:020000040000fa
:040080002c0400004c
:020000040000fa
:040084002c04000048
:020000040000fa
:040088002c04000044
:020000040000fa
:04008c002c04000040
:020000040000fa
:040090002c0400003c
:020000040000fa
:04009400380300002d
:020000040000fa
:040098002c04000034
:020000040000fa
:04009c002c04000030
:020000040000fa
:0400a0002c0400002c
:020000040000fa
:0400a4002c04000028
:020000040000fa
:0400a8002c04000024
:020000040000fa
:0400ac002c04000020
:020000040000fa
:0400b0002c0400001c
:020000040000fa
:0400b4002c04000018
:020000040000fa
:0400b8002c04000014
:020000040000fa
:0400bc002c04000010
:020000040000fa
:0400c0002c0400000c
:020000040000fa
:0400c4002c04000008
:020000040000fa
:0400c8002c04000004
:020000040000fa
:0400cc002c04000000
:020000040000fa
:0400d0002c040000fc
:020000040000fa
:0400d4002c040000f8
:020000040000fa
:0400d8002c040000f4
:020000040000fa
:0400dc002c040000f0
:020000040000fa
:0400e0002c040000ec
:020000040000fa
:0400e4002c040000e8
:020000040000fa
:0400e8002c040000e4
:020000040000fa
:0400ec002c040000e0
:020000040000fa
:0400f0002c040000dc
:020000040000fa
:0400f4002c040000d8
:020000040000fa
:0400f8002c040000d4
:020000040000fa
:0400fc002c040000d0
:020000040000fa
:040100002c040000cb
:020000040000fa
:040104002c040000c7
:020000040000fa
:040108002c040000c3
:020000040000fa
:04010c002c040000bf
:020000040000fa
:040110002c040000bb
:020000040000fa
:040114002c040000b7
:020000040000fa
:040118002c040000b3
:020000040000fa
:04011c002c040000af
:020000040000fa
:040120002c040000ab
:020000040000fa
:040124002c040000a7
:020000040000fa
:040128002c040000a3
:020000040000fa
:04012c002c0400009f
:020000040000fa
:040130002c0400009b
:020000040000fa
:040134002c04000097
:020000040000fa
:040138002c04000093
:020000040000fa
:04013c002c0400008f
:020000040000fa
:040140002c0400008b
:020000040000fa
:040144002c04000087
:020000040000fa
:040148002c04000083
:020000040000fa
:04014c002c0400007f
:020000040000fa
:040150002c0400007b
:020000040000fa
:040154002c04000077
:020000040000fa
:040158002c04000073
:020000040000fa
:04015c002c0400006f
:020000040000fa
:040160002c0400006b
:020000040000fa
:040164002c04000067
:020000040000fa
:040168002c04000063
:020000040000fa
:04016c002c0400005f
:020000040000fa
:040170002c0400005b
:020000040000fa
:040174002c04000057
:020000040000fa
:040178002c04000053
:020000040000fa
:04017c002c0400004f
:020000040000fa
:040180002c0400004b
:020000040000fa
:040184002c04000047
:020000040000fa
:040188002c04000043
:020000040000fa
:04018c002c0400003f
:020000040000fa
:040190002c0400003b
:020000040000fa
:040194002c04000037
:020000040000fa
:040198002c04000033
:020000040000fa
:04019c002c0400002f
:020000040000fa
:0401a0002c0400002b
:020000040000fa
:0401a4002c04000027
:020000040000fa
:0401a8002c04000023
:020000040000fa
:0401ac002c0400001f
:020000040000fa
:0401b0002c0400001b
:020000040000fa
:0401b4002c04000017
:020000040000fa
:0401b8002c04000013
:020000040000fa
:0401bc002c0400000f
:020000040000fa
:0401c0002c0400000b
:020000040000fa
:0401c4002c04000007
:020000040000fa
:0401c8002c04000003
:020000040000fa
:0401cc002c040000ff
:020000040000fa
:0401d0002c040000fb
:020000040000fa
:0401d4002c040000f7
:020000040000fa
:0401d8002c040000f3
:020000040000fa
:0401dc002c040000ef
:020000040000fa
:0401e0002c040000eb
:020000040000fa
:0401e4002c040000e7
:020000040000fa
:0401e8002c040000e3
:020000040000fa
:0401ec002c040000df
:020000040000fa
:0401f0002c040000db
:020000040000fa
:0401f4002c040000d7
:020000040000fa
:0401f8002c040000d3
:020000040000fa
:0401fc002c040000cf
:020000040000fa
:040200002c040000ca
:020000040000fa
:040204002c040000c6
:020000040000fa
:040208002c040000c2
:020000040000fa
:04020c002c040000be
:020000040000fa
:040210002c040000ba
:020000040000fa
:040214002c040000b6
:020000040000fa
:040218002c040000b2
:020000040000fa
:04021c002c040000ae
:020000040000fa
:040220002c040000aa
:020000040000fa
:040224002c040000a6
:020000040000fa
:040228002c040000a2
:020000040000fa
:04022c002c0400009e
:020000040000fa
:040230002c0400009a
:020000040000fa
:040234002c04000096
:020000040000fa
:040238002c04000092
:020000040000fa
:04023c002c0400008e
:020000040000fa
:040240002c0400008a
:020000040000fa
:040244002c04000086
:020000040000fa
:040248002c04000082
:020000040000fa
:04024c002c0400007e
:020000040000fa
:040250002c0400007a
:020000040000fa
:040254002c04000076
:020000040000fa
:040258002c04000072
:020000040000fa
:04025c002c0400006e
:020000040000fa
:040260002c0400006a
:020000040000fa
:040264002c04000066
:020000040000fa
:100400008f3421000eff27000e018800000000003d
:10041000000020000000e000020032000001200087
:1004200020028800140007000d0107000000e00012
:1004300003003a00001823000100200002003700ea
:100440000000200001002000810f70000100320038
:100450000f000700000020000000e0000200320052
:100460000000020000000000ba18020000000000b6
:100470000040da000000fe00200020000000e00044
:1004800002003200100020009001880000000600e9
:10049000a1028800800478000000eb001f003700f4
:1004a000e284440054a0b4009905ba00e2844400f8
:1004b00054a0b4009906ba00e284440054a0b400e9
:1004c0000006eb00476fde00fd07b200ae018800ba
:1004d000636ce10003003a000ad801000000eb0061
:1004e0000e003700606ce10008003a00004deb00a0
:1004f0000a05e800020039003420ec000af0a000f0
:100500008b05e900f9ff3e00040037006168e10057
:10051000010032000086eb000b00070019c7ba008b
:100520000e04e0001905ba0003003a000a00e000da
:10053000dbff3a0000000600fe07b200ae028800b2
:100540008a047800f5ff37000cd0a300e20f4d00bd
:100550001c003b0089027800354dba000a05e8000e
:10056000020039003420ec000af0a0008b05e900fd
:100570000f003200254dba000a05e80002003900dc
:100580003420ec000af0a0008b05e90008003200de
:100590000c00e0000600320015cdba000a05e800a4
:1005a000020039003420ec000af0a0008b05e900bd
:1005b0008984e80054a0b4000b00e000e2ff3a0098
:1005c000000006009902ba00055d78008b05e9007d
:1005d000f7ff3200c82ade00055d78008b05e900d0
:1005e000f3ff32000c00e000f1ff320019ddba0029
:1005f000eeff37003600f800809fbe00829fbe00ed
:10060000849fbe00869fbe000000fa000068a9001b
:1006100014160700c01207002d110700b0828000d9
:100620000000e800b0828800b0828000f90f50001e
:1006300002003400631207005630ef000000000093
:100640000080fa004f03be004f02be004f01be0003
:100650004f00be003600f900004006000000fa001e
:100660000108a900000000000080fa000040060018
:100670003600f800809fbe00829fbe00849fbe00af
:10068000869fbe000000fa000368a90082828000f5
:100690009382800010002000010020000200400032
:1006a000838048008082880091828800c182800017
:1006b0000100e800c0828800703e2000808f50005a
:1006c000030034005830ef0010c0b3005af0b700f8
:1006d000c08480000000e000010032003008070004
:1006e000da080700828280009382800010002000d8
:1006f00001002000020040008380480080828800c2
:1007000091828800000000000080fa004f03be00c4
:100710004f02be004f01be004f00be003600f90080
:1007200000400600801f78000000fa0001a8a90020
:1007300000188000b099880010188000c0998800c7
:1007400020188000d099880030188000e099880037
:1007500040188000f099880010c0b3006ff0b70017
:10076000000000000080fa004f0078000040060002
:100770003600f800809fbe00829fbe00849fbe00ae
:10078000869fbe000000fa000188a9003183800026
:1007900020838000808f5000020032004f15070038
:1007a000010037006870ef00000000000080fa00d0
:1007b0004f03be004f02be004f01be004f00be00ff
:1007c0003600f900004006003600f800809fbe00a9
:1007d000829fbe00849fbe00869fbe000000fa007c
:1007e0000168a900101180004200de006140600035
:1007f000e14f500001003a002242a9001011800090
:100800000000d10061406000e14f500005003a0057
:100810002222a90003003700301180000040780038
:100820003b16070010118000004078006140600016
:10083000e14f5000f8ff3200000000000080fa0095
:100840004f03be004f02be004f01be004f00be006e
:100850003600f900004006000040da000000fe000b
:100860000000050014002000ad033700f4ff2f0046
:10087000ab0337000001be003f0007000470a70073
:1008800003f0a1006509b100160032000d0035002b
:100890006828e10006003500f0ff2f00f1ff270077
:1008a0000300e00013003b000100280000000500e9
:1008b00000004000818048008502e900fcff3a000a
:1008c00008003700f88f420002003c008000eb0077
:1008d000000005008100d1000080d3008502e800ff
:1008e000fcff3a000300e00002003b006000100043
:1008f000e0801800000006000001be001e00070096
:100900000470a70003f0a10003f8a30013003a004d
:100910006509b10010003200090035006928e100c6
:100920000200350001002800000005000000400022
:10093000818048008502e900fcff3a0000000600c3
:10094000f88f4200050035008100d1000080d300ff
:100950008502e800fcff3a00000006008000eb0082
:10096000000005004f89de00820178008703370010
:100970006011b80095033700c70ade00f107b20026
:10098000f50fb20008003200e1cf42000200320051
:100990000170a00024000500810f700001003200ea
:1009a0000408050044000500810f700002003a00b1
:1009b000140005008502e9000000400081c04800e5
:1009c000fcff3b000170a0002400050007f8270091
:1009d000078361000638e10004003a00f7072000b1
:1009e000878361008703710001003a0003f0a200d1
:1009f000889fbe008a9fbe008c9fbe00470ade0013
:100a00000480a100c71ade000580a10007002800ad
:100a10000785600087856100f70f20000720e1004f
:100a20009e0032000728e1009c0032000106780099
:100a30000400e000b4003200f70720008780600067
:100a40000170a0000500e000c0003200f7072000a0
:100a5000878161000370a000050652000f003a0074
:100a60000b50e1000b0032000308e10002003a00e5
:100a70000200e1007e00320002045000838458002e
:100a8000040031000001fd008101fd008402fd0031
:100a90008a05fd006044b800210037000520e10010
:100aa00005003d000001fd008101fd008402fd0004
:100ab0008a05fd00050652007a60e1000500350058
:100ac0000170a1004722dd00848070008a807000e0
:100ad000630037006044b800ef02660007ff2f0094
:100ae000070666000500e00006003400f0831200ef
:100af0008714dd000511de00071bdd000601710013
:100b00008519de007060e1000500350009047800f9
:100b100082047800030178008001eb007006560023
:100b20000b50e10003003a000200400083804800bf
:100b30000400370060041400e0841c000200580028
:100b4000838058000188a300060032008100d10094
:100b50000080d3008984d3000884d3000402e80015
:100b6000270037000178a30025003a000100e000cb
:100b7000030032008186cf00698656000a003700e4
:100b80008c0020000000e00004003a00090078001a
:100b9000880478000004eb00700252008086cf00c9
:100ba0000d0646000c06e9007060e1000600350005
:100bb0008000780009007800880478000004eb00c9
:100bc00070065600700252000c00e0000c00340069
:100bd0008c08dd00f00316000703de00868070003d
:100be0000c00dd00074bde00060070008c4cdd00c1
:100bf0000743de00868474000c44dd000c025200c2
:100c00006120e1002000350061016000070028003c
:100c100087816400f7ff270087836400070374005f
:100c20000300e0000600320082037300040032007b
:100c30000000e800e08048000188a3000e003a00b0
:100c4000f70f20000720e1004a003d000170a100dd
:100c50004722dd00810072008a8070000000be0023
:100c60004f06be004f05be004f04be000000060048
:100c70006000b800faff37008100d1000080d30087
:100c80000402e800eeff37000401780089017400d7
:100c9000a10107008a807000f1ff3700f70107000b
:100ca000070278000001fd008101fd00f30107004b
:100cb00087027800850372000778a30004003200e1
:100cc0000001fd008101fd0006020700e4ff37007e
:100cd000850362000768a300080032000b50e100a2
:100ce00003003200f0ff2f00f1ff2700dcff370088
:100cf0000001fd008101fd00d9ff37000468a30059
:100d0000d7ff3200faff3700f8ff27008883600022
:100d10000b003a000000e00009003a008303640081
:100d200082837300020032000200be00ccff370055
:100d30000b50e100ceff3a000200be00c8ff3700b2
:100d400014002000810064003eff3700f8ff2700f8
:100d50008883610004003a000200e00002003a00cb
:100d60008c007800beff370015002000830164006e
:100d700039ff370001f827000000200081007500ce
:100d8000b7ff3700889fbe008a9fbe008c9fbe00c1
:100d90001b0020000202be00058668000600280035
:100da000060666004709de00f20fb200820032003c
:100db0000243e80080003200c729de00f30fb200d2
:100dc0007d0032000343e8007b003200f107b200ef
:100dd0000170a000f507b2000570a000c708dd0093
:100de0004903de00868070004700dd00c72add0071
:100df0004923de00868272004722dd000305510090
:100e000004035000858358000300310000004000b7
:100e1000818048000a05e9008c1f78008a9fbe0087
:100e200004005000858058000402420085824a0078
:100e300000004000818048000005eb000004be0077
:100e40006033b8000406be000d48e10056003100d2
:100e5000110009004dccd8000c01b8000d02b800fb
:100e60008481410060824a008283530003045c0055
:100e700084845c0060055d000a00e00025003a0003
:100e8000800578000d40e1004900310088007800bd
:100e900007007800110009004d88d8000c01b80047
:100ea0000d02b8008481410060824a006003110095
:100eb00083835b0004045c00e0845c000900e000c4
:100ec00021003a004f01be000300e0002b00320079
:100ed000e3016000070673008c817100010032009d
:100ee000640070004200de004e5edd000c00700009
:100ef000c258de0001e0a00083010700cf017800a6
:100f0000818071004f06be004f05be004f04be0039
:100f1000000006008c8343000d044c00e0844c006c
:100f200060054d000000e9000a00e000d4ff320037
:100f30008c8343000d044c00e0844c0060054d00a0
:100f40000000e900ceff37000c0343008d834b0007
:100f500060044c00e0844c000000e9000900e0005f
:100f6000d8ff32000c0343008d834b0060044c001b
:100f7000e0844c000000e900d2ff37004200de00b0
:100f80004e5edd000c007000c258de0001e0a000e3
:100f9000cf0178000300e000daff320060001000ab
:100fa000e0801800d7ff3700f0ff2f00aaff3700be
:100fb000f0ff2f00b9ff37000404be002f01070027
:100fc000870678000004fd008104fd002b01070066
:100fd000078366000678a300030032000960a700bb
:100fe0000800be002c0037000d78a300020032007c
:100ff0000800be00280037000778a30026003a004a
:1010000001f0a10009f0a1000668a300030032006e
:10101000f1ff2700f0ff2f00baff37000d68a30093
:10102000030032000800be008c807000b5ff37005e
:101030000768a30007003a000648a3000300320037
:10104000f1ff2700f0ff2f00aeff37000d48a3008f
:10105000030032006000b8008c807000a9ff3700e8
:101060000748a3000400320001f827000000200018
:101070008c807000a3ff3700760107000004fd009c
:101080008104fd0002057800720107000802be001d
:101090008a01780059ff37000160a0001202200089
:1010a0008283880097ff37000100e00012003200c1
:1010b0000500e00010003200889fbe008a9fbe003d
:1010c0008c9fbe000006eb0001f8a3000300320075
:1010d00060001000e08018000cf0a00005f8a300ec
:1010e0000300320060021200e0821a000cf0a2003d
:1010f0008005eb0041ff37006000b80002000500ea
:10110000038368000700280007036300470ade0026
:101110000480a100c71ade000580a100f70f20009f
:101120000720e100420032000728e10040003200c1
:10113000889fbe008a9fbe008c1f7800f107b20016
:10114000f307b2000400e000640032000170a00068
:101150000500e000680032000370a0008505420031
:10116000eb07b1000204b8000302b8008484440015
:1011700060854a00020ab800848444000a854a0057
:10118000030ab80004054500040033000804d00039
:101190008984d2000a85d2008b05e9006158e100fc
:1011a0003d00350002102000090161000308200005
:1011b00089816100f7072000878364000886730037
:1011c000c84cde00c853dd00878474004855de003b
:1011d0000300e000060032008203760004003200c3
:1011e0008904e80060054d000a88a3000c003a005d
:1011f000f70f20000758e10044003d000a70a100ed
:10120000c75ddd000a8575008a007300090078005b
:101210004f0678004f05be004f04be0000000600d8
:101220000a05d1008984d3008b05e800f0ff370060
:10123000881f7800060478009000070007027800f5
:101240000001fd008101fd008c000700870278008d
:10125000850372000778a300050032000001fd003d
:101260008101fd009f0007004f0478000000060088
:10127000850372000748a30003003200f0ff2f002f
:10128000f1ff2700f8ff37000000200001f82700d9
:1012900088807000f4ff3700880178004848dd003e
:1012a000808171004848de00c850dd0001007000f8
:1012b000c850de00060478000b0178001600070015
:1012c00088807000d2ff37000500e0000500320082
:1012d000170020003a0007009dff370081037000cf
:1012e000f9ff3a00860078004f0678004f05be00ef
:1012f0004f04be000000050083037100f9ff3200b7
:10130000270020002e00070094ff370001f8270077
:1013100086807000f4ff37000100e00026003200f4
:10132000610111007810e10023003c006022b80048
:101330007010e100040035008002780001007800a0
:101340008000eb00700151000200e0000900340051
:1013500070031100062add00822ade008603dd000c
:10136000878272000200de00860bdd00070070003d
:101370008208de0084817100f4ff2700048262008d
:101380008481710004002800848262006102600090
:1013900005f0a6000000060004827100070032007c
:1013a0000000e800e0804800000006000002be00e7
:1013b0006000b800efff37006000b80000000600d2
:1013c000889fbe000004eb006138e10016003a007f
:1013d0000100e00008003a00c800de004800dd001f
:1013e000880020000100e00003003a00c800de0091
:1013f0004800dd00680444008184cf00e984540083
:10140000060034008908dd00f08314008703de0045
:10141000878070000900dd000904440061021400a7
:101420004f04be00000006000300e00008003a0080
:10143000c811de004811dd00880020000300e00034
:1014400003003a00c811de004811dd0068044400c2
:101450008384cf00e9845400060034008919dd003c
:10146000f08314008713de00878171000911dd000d
:1014700009044400e1021400e9ff370027002000be
:1014800001f0a70017002000470bde00f60fb200a6
:10149000040032000643e8000a0032004702b300ad
:1014a0000000060001037800f607b2000603700092
:1014b00002003a000703b300000006008702b300f1
:1014c0000000060001037800f607b2000603700072
:1014d000020032000770a000000006000760a000b4
:1014e000000006000478a300040032000578a30081
:1014f000030032000168a30001003a000200be00b0
:101500000160a00000000600810170002700320089
:101510008002eb0001f8a30003003200600010001d
:10152000e080180015002000f407200002024200ad
:1015300020003400f7032000870360000604200029
:101540000003630002082000000161004700de0084
:10155000c909dd0000807100c708de000600e00058
:101560000800320087037100060032001000b0004e
:101570000180b0000188a30002003200c108de0033
:101580000402e800f107b200f30f20000320e1009d
:1015900003003d004722dd00810072002900370072
:1015a00001f827000000eb00260037006000b800bb
:1015b00000000600680212007f20e10002003400f3
:1015c0006000b8001f0037006011b8007020e10013
:1015d0000400350080017800010078008000eb00f5
:1015e000700252000400e00009003400f003120011
:1015f0000719dd008419de000703dd008681710014
:101600000400de00070bdd00060070008408de0029
:10161000f7ff27008383630087037100060028001b
:1016200003036300070032000700e00003003a00f4
:101630006101600002817300020032001000b000fe
:101640000180b0000500a6000000060001f0a00027
:10165000000006004f0ade004709de00f107b20075
:10166000f20fb2000b003200f207b1000170a000cf
:10167000c708dd00c901de00838070004700dd007f
:101680000400a6000000060060001000e0801800c2
:1016900000000600810f700001003a000000060003
:1016a0008182cf000500e00010003e008082cf0064
:1016b000ee8242007028e1000400390007003e007d
:1016c000800078000000eb000e00370070831200ed
:1016d0008600de000500dd000a003700708352003e
:1016e0008600dd000000eb0006003700e2825200b9
:1016f0008508dd00708312000603de00868070001e
:101700000500dd007507b0000501ea000400a60031
:101710000000060060001000e080180000000600d5
:10172000889fbe008a9fbe00841f78007c0007004f
:101730004f00780011003300f0ff2f00838f6c0002
:1017400006003b00040565000a00a70008003700fa
:1017500009f0a6001000200008003700820f540096
:10176000838f5c00030039001000200001003e0060
:101770000000200009f0a7000000ea004f05be00ad
:101780004f04be000000e00000000600881f780043
:10179000030478000300e00007003d006000100033
:1017a000e080180060011900e081190002003b0090
:1017b00001f02d00030037000400070008f0a70027
:1017c00001f0a0004f04780000000600889fbe00d2
:1017d0008a9fbe00008270000402710004827100c2
:1017e000260032000004be000200be006011b800f6
:1017f0006b092000950220000182cf000a00390009
:101800000541b1000082cf00070039000541b10059
:101810000982cf00040039000541b1000882cf00e1
:10182000010039000541b1000542520012003200aa
:101830000a003b0082817100610164008100d100d7
:101840000080d3008984d3000884d3008b05e8008e
:101850000442e800f7ff3a0007003700080444009c
:1018600089844c0000004800818048008b05e90015
:101870000442e900f9ff3a00030007004f05be00eb
:101880004f04be000000060081002000618055006a
:101890000b003d000b00200061fe2f000100e10065
:1018a0001d00340082817100610164008904d1004f
:1018b0000884d3000000e800faff3a00710020001d
:1018c0006100640003007000020060000900320043
:1018d00061044400e0844c000988a5000500320042
:1018e0008b05e8006808e10002003a008904d10095
:1018f0000884d300f20f20000258e10005003d00eb
:10190000c75ddd00f907b200898075000800780026
:10191000000006000bf827008b007800000005008f
:101920000004be0014fc07000003be000405be0056
:101930000200be0010fc0700844f75000000060086
:101940000400fa000001be0003f0a100a4fd200085
:1019500095f42300840f5100858f59000e003e003e
:10196000f4ff2f00f5972300840f5100858f590055
:101970003a003e000200200003b827001cfc0700cc
:10198000e0bf9f00f1bf9f000000200001f823008e
:101990000080fa00000006004f0ade00050020006b
:1019a000163d2500b7072400860f5100878f590088
:1019b0001b003e0036be2c0067012400860f51003c
:1019c000878f59000a003600b2fd200093042400de
:1019d0000400e0000400320005fc07005c01070081
:1019e00001f0a200eaff3700f8fb0700fbff370019
:1019f0000400e00005003200b2fd200093fc23004b
:101a0000fbfb0700dd010700e1ff37000001be001e
:101a1000b0fd200091fc2300ecfb0700f9ff37002c
:101a2000561d2300270e2400860f5100878f590072
:101a300014003e00f6dd2e00f70a2400860f510048
:101a4000878f590009003600b2fd2000930c240056
:101a50000400e00003003200e5fb07003c01070042
:101a6000cbff3700d9fb0700fcff37000400e00084
:101a70000100320001f0a20042be2c0063092400e4
:101a8000e5ff3700f4ff2f00f5f72700840f510022
:101a9000858f5900040036000001be000200be0020
:101aa000cafb0700baff3700c2ff2f000f01410039
:101ab0005b010700630160006fb89700ffb89700f3
:101ac000e10f510005003200e20f5100c3ff320068
:101ad0000200e000cbff3a00e0ff370001f0a20077
:101ae000c8ff37000400fa00889fbe008a9fbe002e
:101af0000203410083834900e00f5300e08f5b0045
:101b00000f0032000202be0005f0a1000800200014
:101b100009f82700880f5200898f5a0008003e00fc
:101b2000a0bf9f00b1bf9f00470dde000b0020004b
:101b3000f40f20000a056200840f550007003a00e8
:101b40006ffd07000001be008efc07004f05be00c0
:101b50004f04be000080fa000000060000024000b2
:101b600081824800840f5300858f5b000600390096
:101b7000840f5300858f5b00f4ff3a006011b800ba
:101b80005ffd0700f1ff37000a00e0004c003a005b
:101b90002fbb9700bfbb9700493add00c732de007c
:101ba000850272004932dd00e00f5200e08f5a00da
:101bb0003f003d00610215002fbb9700bfbb97009f
:101bc000040478000804e90003003300060343001e
:101bd00087834b00fbff37000602be00471bde0079
:101be000070020000683fb000600e0003d003a00ed
:101bf000491cdd00c714de00890474004914dd00af
:101c0000e00f5400e08f5c0032003d00e103130060
:101c10000204be008703e900030033000804440007
:101c200089844c00fbff37000801520089815a006b
:101c3000860f55002f003c00e00f5100e08f590047
:101c400004003500e00f5100e08f5900cbff320057
:101c50000202be004728de0001002000e00f500015
:101c6000e08f58002e0032000a00e00030003400ff
:101c70000000200001f82f00040240008582480087
:101c80006150b900c700dd000000200004007000b2
:101c9000858070006022b80002002800bfb997005c
:101ca000830261000000720081807200a7ff37008c
:101cb0000a05e9000402420085824a00baff3700a3
:101cc0002fba9700bfba9700f507b2000570a000c1
:101cd000c2ff37000603e9000804440089844c0071
:101ce000c7ff37000204be00f907b2000970a00068
:101cf000cdff3700e00f5100e08f590004003500a0
:101d0000e00f5100e08f59009cff32000202be003c
:101d10000402420085824a000a05e900c2ff37003a
:101d20000402420085824a000a05e900c9ff370023
:101d3000610515000400be000a05e9000300330038
:101d40008100d1000080d300fbff3700d1ff3700b6
:101d50000400fa00889fbe000004be0089007800dd
:101d600001f0a100a4fd200095f42300840f500091
:101d7000858f58001e003e00f4ff2f00f5972300ca
:101d8000840f5000858f580016003e006000b80098
:101d900003f8270089806100e00f5000e08f5800b1
:101da0000b003a0002002000033820000800be00ab
:101db000d3fc07000001be00c2bf9f00d3bf9f003d
:101dc0000800be004f04be000080fa0000000600bc
:101dd0000200200003b827000800be0004fb070033
:101de000f4ff37000800be00e400070018003700c9
:101df0004f49de0003002000143d2500b5072400f4
:101e0000840f5000858f58001d003e0034be2c000a
:101e100065012400840f5000858f58000e003e009d
:101e20000800be000200e000b2fd200093fc230089
:101e300005003200eefa0700450007000004be006e
:101e400009f0a200deff3700e0fa070040000700bb
:101e50000004be00daff37000800be000200e00008
:101e6000b2fd20009304240003003200e0fa0700d2
:101e700001f0a200dcff3700d4fa0700fcff3700b6
:101e8000541d2300250e2400840f5000858f580018
:101e900017003e00f4dd2e00f50a2400840f5000e8
:101ea000858f580009003e000800be000200e000d7
:101eb00042be2c006309240002003200ccfa070065
:101ec000e2ff3700c1fa0700dbff37000800be0061
:101ed0000200e000b2fd2000930c2400020032005a
:101ee000c3fa0700c0ff3700b8fa0700beff37008b
:101ef000f2ff2f00f3f72700820f5000838f580066
:101f0000050036000801be000800be00affa070059
:101f10000004be00aaff370082ff2f000f0141001e
:101f20000800be003e000700630160004fb8970044
:101f3000dfb89700e10f5100c4ff3200e20f5100fb
:101f4000cbff32000200e000bbff3a00a6ff3700e3
:101f50000400fa00889fbe008a9fbe008c9fbe00ce
:101f60000001be0066fc07000004be000001be00c8
:101f700063fc07000005be000200200003f02b00f8
:101f80000800be005efc07000200200003f82300ea
:101f900097fa07000006be00f2a92a00a3d2230088
:101fa0000a00be0056fc07000001be000c00be0087
:101fb0008ffa07000002be0072a12900c37c230033
:101fc0000800be0084bf9f0095bf9f004cfc070027
:101fd000f243200063ab23007cfa07000006be003a
:101fe0000a01be000800be0045fc07000001be005b
:101ff0000c00be0042fc07000001be000fba9700b3
:102000009fba97000400be0079fa07004f06be0091
:102010004f05be004f04be000080fa00000006001d
:102020000400fa00889fbe008a9fbe008c9fbe00fd
:1020300000067800810478008206780001f0a10093
:10204000a2fd200093dc2400820f5000838f5800f3
:1020500023003e0032982f0023f2230089007800ed
:1020600027fc07000200200003b4240060fa0700e8
:102070000200200003b4240054fa07000005be004b
:10208000fcf9070000047800a2fd200093fc230067
:102090000a00be001afc07000001be000c00780018
:1020a0008900780049fa07000002be00325a280071
:1020b000832823000a00be0084bf9f0095bf9f00b5
:1020c0000ffc07000001be000fba97009fba9700ef
:1020d0000400be003dfa0700808ebe000b003700f2
:1020e000f2ff2f00f3f72700820f5000838f580074
:1020f0000c00360000017800890178008900780022
:1021000032fa0700808ebe000004eb000800780061
:102110004f06be004f05be004f04be000080fa000f
:1021200000000600890078004c0007000005be0092
:1021300032982f0023f22300f1fb07000200200059
:1021400003f023002afa0700550007000004780076
:102150008efd070032982f0023f2230009fb0700b1
:102160000001be000a00be0018fa07006000b800b7
:10217000a0069800b1069800d7ff37000400fa00c7
:10218000889fbe008a9fbe008c9fbe000006be00d6
:102190000001be00dafb07000004be000001be0023
:1021a0000c00be00d6fb07000005be000801be0003
:1021b0000800be00d2fb07000a01be00d0fb0700ea
:1021c0000002be00c2c32600636323000800be00f5
:1021d00084bf9f0095bf9f00c9fb0700f27c2000d1
:1021e00003952300f9f907000001be000fba97001c
:1021f0009fba97000400be00c1fb07000002be00aa
:102200004288280083c023000800be0084bf9f00ce
:1022100095bf9f00bafb0700b2aa2a00a3e22300e1
:10222000eaf907000a01be00b5fb07000c01be0079
:10223000eff907000001be000fba97009fba9700a0
:102240000400be00eaf907004f06be004f05be00bd
:102250004f04be000080fa00000006000400fa00ef
:102260006011b800e2bf9f00f3bf9f006fbb9700f3
:10227000ffbb97000002be00f0ff2f00f1ff2f0010
:10228000f2ff2f00f3ff2700000062008180620050
:1022900002016300838163000080fa0000000600f1
:1022a0000003be00b4f907006011b8000470a70075
:1022b00007f0a1006509b1001b00320012003500d3
:1022c000860220000628e10008003500f3ff270001
:1022d000f2ff2f006110b9000700e00018003b007a
:1022e000030028006000b800020005000000400064
:1022f0008180480002014900838149008502e9008c
:10230000faff3a0008003700f88f420002003c0054
:102310008000eb00000005008100d1000080d300a8
:102320008502e800fcff3a000700e00004003b00e3
:1023300060001000e080180060011900e0811900c1
:042340000000060093
:020000040000fa
:102344002200fa00889fbe004084800051848000ef
:1023540047f90700000f7800208480003184800052
:1023640043f907001007980060848000718480009e
:102374003ff9070020079800808480009184800042
:102384003bf9070030079800a0848000b1848000e6
:1023940037f90700400798000e80e8009e00780097
:1023a400108040006100b9006df9070002002000b0
:1023b4000300240072fa0700500798006107980090
:1023c400e600470068004700110178001000410052
:1023d4006100b90062f90700020020000300240034
:1023e40067fa070070079800010f98005e009000dc
:1023f400ee0090000001be007cf9070000017800a7
:102404000100780082047800000478002e00900017
:102414006100b90052f907000001be00090078000c
:10242400880078000000be0070f907000001780001
:102434000100780082027800000278000200200087
:102444000304240005007800840078000000be0026
:102454004bfa0700100f9800210f98007e0090009f
:102464008e0890000001be0060f9070000017800aa
:102474000100780082047800000478002e009000a7
:102484006100b90036f907000001be0009007800b8
:10249400880078000000be0054f9070000017800ad
:1024a4000100780082027800000278000200200017
:1024b4000304240005007800840078000000be00b6
:1024c4002ffa0700300f9800410f980000002000f9
:1024d400811b2400500f9800610f98000000200019
:1024e40001142400700f98000117980002002000c6
:1024f400832c24001e089000ae08900020fa0700e8
:10250400000178000100780082047800000478005b
:102514007e0990008e1190005e089000ee089000f5
:1025240029f9070000017800010078008201780091
:102534000001780003007800820078000001be00ea
:1025440009007800880078000000be00ebfa07005c
:10255400000178000100780082027800000278000f
:102564007e0990008e1190000500780084007800a8
:102574000000be001df9070000017800010078008a
:10258400820178000001780003007800820078005e
:102594000000be00b6f80700208288000200200078
:1025a400832c24003e089000ce089000f4f9070024
:1025b40000017800010078008204780000047800ab
:1025c4007e0990008e1190005e089000ee08900045
:1025d400fdf807000001780001007800820178000e
:1025e4000001780003007800820078000001be003a
:1025f40009007800880078000000be00bffa0700d8
:10260400000178000100780082027800000278005e
:102614007e0990008e1190000500780084007800f7
:102624000000be00f1f80700000178000100780006
:1026340082017800000178000300780082007800ad
:102644000000be008af80700108288001082800013
:10265400f70f500002003400040ea80001003700f8
:10266400040ea900000000004f04be000080fa0020
:10267400000006000400fa00008fbe0002002000e3
:10268400031f24001e0078009e00900074f80700c9
:102694000000e00002003d001000200001003700af
:1026a4000000eb000080fa00000006000400fa00bd
:1026b400008fbe0002002000031f24001e007800cb
:1026c4009e00900066f807000000e00002003d0054
:1026d40010002000010037000000eb000080fa0029
:1026e400000006000200fa000040eb00004f7800f2
:1026f4002084800031848000deff07000000e000b9
:10270400030032001e4078000044a000004f78000f
:102714004084800051848000d6ff07000000e00060
:10272400030032001e4078000034a000004f7800ff
:102734006084800071848000ceff07000000e00008
:10274400030032001e4078000024a000004f7800ef
:102754008084800091848000c6ff07000000e000b0
:10276400030032001e4078000014a000004f7800df
:10277400a0848000b1848000beff07000000e00058
:10278400030032001e4078000004a000004f7800cf
:102794001e4078000080fa00000006000000fa00e5
:1027a4004ad0bf000080fb006100b900f2002000a5
:1027b40003002000820f5000838f58009c003e00cd
:1027c400000601000f003700180037002100370011
:1027d4003d0037003e0037004800370063003700f3
:1027e4006d003700470037005100370052003700b2
:1027f4005c0037006a003700790037007a00370040
:10280400890037005030ef005230ef000041eb00f8
:102814006000b8003d0b070012c0b3006000b800b0
:102824003a0b070010c0b3004af0b7008282800060
:1028340093828000803e200001002000800f510020
:10284400818f59007c00360020c0b3004af0b700e5
:1028540079003700608480007184800002002000c9
:10286400032a240000f807000000e00005003400fb
:10287400900120004082880090012000308288006e
:1028840004003700f000200040828800f00020009f
:1028940030828800108280006100b90030f807009f
:1028a4000041eb00190b0700208280006100b90091
:1028b4002bf8070012c0b300140b070030c0b3009c
:1028c4004af0b7005d0037008c0107005b00370059
:1028d4000041eb006000b8000c0b07001082800080
:1028e4006100b9001ef8070012c0b300070b07000f
:1028f40050c0b3004af0b700500037007f01070012
:102904004e0037000041eb006000b800ff0a0700ea
:10291400108280006100b90011f8070012c0b300f2
:10292400fa0a070090c0b3004af0b700430037002a
:102934007201070041003700208280006100b90065
:1029440007f807000041eb00f00a070012c0b300cb
:102954006000b800ed0a0700b0c0b3004af0b70049
:1029640036003700650107003400370020828000fc
:102974006100b900faf707000041eb00e30a070021
:1029840012c0b3006000b800e00a070070c0b300d2
:102994004af0b70029003700580107002700370024
:1029a400208280006f0040006100b900ecf707004e
:1029b4000041eb00d50a07001182800010ff2f00b0
:1029c400010050006100b900e5f7070012c0b30030
:1029d400ce0a0700d0c0b3004af0b7001700370092
:1029e40046010700150037002182800010ff2f00e8
:1029f400010050006100b900d9f707000041eb0065
:102a0400c20a0700108280006f0040006100b90014
:102a1400d3f7070012c0b300bc0a0700f0c0b3002c
:102a24004af0b700050037003401070003003700ff
:102a34004a70ef00010037000000000000000000b1
:102a44000080fa00000006000600fa000d0d0700e1
:102a54000004e000260132000e0d0700050d0700fa
:102a6400200798002e009000100078008000eb00f2
:102a7400bef7070032332300330524009ff9070013
:102a840000017800010078008202780000027800da
:102a94000200200003582400050078008400780018
:102aa4000000be00b6f80700008fbe006266260074
:102ab40063ea23001e0078009e00900068f7070078
:102ac4000000e00003003d006066260061ea230088
:102ad400008fbe001e0178009e01900000002000bf
:102ae40081202400a6f80700000178000100780086
:102af400820278000002780002002000030a240009
:102b040005007800840078000000be00aef70700de
:102b140080017800010178000300780082007800c9
:102b24000000be00208488003184880064004700cf
:102b34001080e800100078008000eb008bf707009d
:102b440032332300330524006cf9070000017800b8
:102b54000100780082027800000278000200200060
:102b64000358240005007800840078000000be00ab
:102b740083f80700008fbe006266260063ea230024
:102b84001e0078009e00900035f707000000e0006a
:102b940003003d006066260061ea2300008fbe004a
:102ba4001e0178009e019000000020008120240076
:102bb40073f80700000178000100780082027800b1
:102bc4000002780002002000030a240005007800b7
:102bd400840078000000be007bf7070080017800c5
:102be4000101780003007800820078000000be0034
:102bf400408488005184880064004700410020001c
:102c040010804000100078008000eb0057f70700a8
:102c1400323323003305240038f90700000178001b
:102c2400010078008202780000027800020020008f
:102c34000358240005007800840078000000be00da
:102c44004ff80700008fbe006266260063ea230087
:102c54001e0078009e00900001f707000000e000cd
:102c640003003d006066260061ea2300008fbe0079
:102c74001e0178009e0190000000200081202400a5
:102c84003ff8070000017800010078008202780014
:102c94000002780002002000030a240005007800e6
:102ca400840078000000be0047f707008001780028
:102cb4000101780003007800820078000000be0063
:102cc40060848800718488006400470061002000eb
:102cd40010804000100078008000eb0023f707000c
:102ce400323323003305240004f90700000178007f
:102cf40001007800820278000002780002002000bf
:102d04000358240005007800840078000000be0009
:102d14001bf80700008fbe006266260063ea2300ea
:102d24001e0078009e009000cdf607000000e00031
:102d340003003d006066260061ea2300008fbe00a8
:102d44001e0178009e0190000000200081202400d4
:102d54000bf8070000017800010078008202780077
:102d64000002780002002000030a24000500780015
:102d7400840078000000be0013f70700800178008b
:102d84000101780003007800820078000000be0092
:102d940080848800918488006400470081002000ba
:102da40010804000100078008000eb00eff6070070
:102db4003233230033052400d0f8070000017800e3
:102dc40001007800820278000002780002002000ee
:102dd4000358240005007800840078000000be0039
:102de400e7f70700008fbe006266260063ea23004f
:102df4001e0078009e00900099f607000000e00095
:102e040003003d006066260061ea2300008fbe00d7
:102e14001e0178009e019000000020008120240003
:102e2400d7f70700000178000100780082027800db
:102e34000002780002002000030a24000500780044
:102e4400840078000000be00dff6070080017800ef
:102e54000101780003007800820078000000be00c1
:102e6400a0848800b184880020848000318480009c
:102e7400a0f6070080407800003421000148780063
:102e840040848000518480009af6070080407800d6
:102e94000034210011409800608480007184800017
:102ea40094f6070080407800003421002140980007
:102eb40080848000918480008ef607008040780032
:102ec4000034210031409800a0848000b184800047
:102ed40088f60700804078000034210041409800c3
:102ee40002342100510020000003200027010700c4
:102ef400000000000080fa00000006000000fa0054
:102f0400f8fd07000080fb0060828800608280007a
:102f14006100b900f201200003002000820f50007c
:102f2400838f58007e003e00000601001f0037001a
:102f34002100370023003700250037002700370021
:102f440079003700280037002a0037002c003700aa
:102f54002e003700300037003200370034003700cd
:102f640036003700380037003a0037003c0037009d
:102f74003e0037004000370042003700440037006d
:102f840046003700480037004a0037004c0037003d
:102f94004e0037005000370052003700540037000d
:102fa40056003700580037005a00370020c0b300dd
:102fb4004ef0b7005d00370040c0b3004ef0b700dc
:102fc4005a00370040c0b3004ef0b7005700370036
:102fd40040c0b3004ef0b70054003700c0c0b30087
:102fe4004ef0b7005100370040c0b3004ef0b700b8
:102ff4004e00370040c0b3004ef0b7004b0037001e
:10300400a0c0b3004ef0b70048003700a0c0b30022
:103014004ef0b70045003700a0c0b3004ef0b70033
:1030240042003700a0c0b3004ef0b7003f003700a5
:10303400a0c0b3004ef0b7003c003700e0c0b300be
:103044004ef0b70039003700e0c0b3004ef0b700cf
:1030540036003700c0c0b3004ef0b700330037006d
:10306400a0c0b3004ef0b7003000370020c0b3005a
:103074004ef0b7002d00370040c0b3004ef0b7004b
:103084002a003700e0c0b3004ef0b7002700370035
:10309400e0c0b3004ef0b70024003700e0c0b30036
:1030a4004ef0b70021003700a0c0b3004ef0b700c7
:1030b4001e003700e0c0b3004ef0b7001b0037001d
:1030c400a0c0b3004ef0b70018003700a0c0b30092
:1030d4004ef0b70015003700a0c0b3004ef0b700a3
:1030e40012003700a0c0b3004ef0b7000f00370045
:1030f400a0c0b3004ef0b7000c003700e0c0b3002e
:103104004ef0b70009003700e0c0b3004ef0b7003e
:1031140006003700e0c0b3004ef0b70003003700ec
:103124000000000001003700000000004ed0bf0086
:103134000080fb00a1042100914078008180fb0005
:103144008100e900810f5000060032004ed0bf001c
:103154004af0b700a1042100914078002007210023
:1031640001487800000000000080fa00000006001a
:103174000000fa004c0b0700980b070084aea8006f
:1031840084cea800848ea800754ea800856ea80081
:103194003e06070045060700ac0407009f0407002d
:1031a400c4040700bf070700f00a07001a0c070051
:1031b400907380000000d100614060000004e000d2
:1031c40039003a0002003700e30b0700e40007006f
:1031d400f00b07000004e000fbff3a00408480008d
:1031e4005184800002002000031a24009ef5070089
:1031f4000000e0000200340084aea80001003700a3
:1032040084aea90020848000318480000200200064
:10321400031a240094f507000000e00002003400c3
:1032240084cea8000100370084cea9006084800009
:103234007184800002002000031a24008af507002c
:103244000000e00002003400848ea8000100370072
:10325400848ea900a0848000b18480000200200034
:10326400031a240080f507000000e0000200340087
:10327400754ea80001003700754ea90080848000b7
:103284009184800002002000031a240076f50700d0
:103294000000e00002003400856ea800ccff370077
:1032a400856ea900caff37000000eb000080fa0019
:1032b400000006000a00fa00200798003107980071
:1032c400420798000040eb00004f78009e407800d1
:1032d400e0cfb30000c06800004f78002e009000db
:1032e4004880de00004078009e40780000c06800fe
:1032f400004f78002e009000004078009e40780037
:1033040000c06800004f78003e0090004880de0056
:10331400004078009e40780000c06800004f7800ac
:103324003e009000004078009e40780000c0680095
:10333400004f78000000eb00100798000c003700e5
:103344001e009000e8004700110040001040780083
:103354009e40780000c06800004f78000e80e800ae
:103364008e80e8001108e8009000780011079800aa
:103374009e0090003e009000808f5000f0ff3500ca
:103384001e4078000080fa00000006000e00fa00db
:10339400889fbe008a1f7800400798005107980054
:1033a400620798008f0478000f0078000005780009
:1033b4006a00470061002000108040008000e9009e
:1033c400210798000000e8000000d10080004000c0
:1033d4000f007800818747006000400030079800a4
:1033e4000000eb00100798009e0090000e80e8009b
:1033f4000108e80010017800120798003e009000d0
:1034040001004000e1cfb300014878004e00900075
:10341400c880de001e0190000e80e8000208e8006b
:103424009001780013079800814078003e009000d6
:1034340002004000014878009e0090000e80e800e1
:103444000108e80010017800120798004e0090006f
:10345400004178003e0090000100400002487800de
:103464005e009000c880de001e0190000e80e8001f
:103474000208e80090017800130798008140780062
:103484003e00900002004000014878009e00900039
:103494000e80e8000108e800100178001207980087
:1034a4005e009000004178003e0090000100400062
:1034b400024878000000eb00000f78000d00370090
:1034c4001e007800ec004700910040001e019000af
:1034d4000e80e8000208e8009001780013079800c5
:1034e400914078003e0090000200400001487800be
:1034f4001e0fe8005e0090009e007800808f500050
:10350400efff35001e0490000e80e8000808e80074
:1035140090007800110798006e019000de00900082
:103524004e00900063ff0700804078003e0090004a
:1035340008004000014878003e0090009e00900082
:10354400a70907008a0778000000000089077800af
:103554004f0578004f04be000080fa00000006000a
:103564000200fa00004f780010818000e40f500040
:1035740023003200e40f500007003c00e20f50002b
:1035840012003200e20f500016003c000000e00080
:103594000800320052003700e60f500030003200bd
:1035a400e60f50001c003500e70f500039003200d0
:1035b4004b0037001e407800e24f40004a003a00ba
:1035c4002000200010818800470037001e80fb0087
:1035d4004800dd0020818800300020001081880030
:1035e400440037001e80fb002181800000807000b1
:1035f4002081880040002000108188003d003700b1
:103604001e80fb004800dd0030818800500020004f
:1036140010818800370037001e80fb00308188004d
:10362400308180000000e00003003a0070002000b8
:10363400108188002f00370031818000f03f200086
:10364400808f500004003c0060002000108188003e
:103654002830ef00270037002230ef002500370024
:10366400418180000100e80040818800e0142100cd
:10367400010040001e4878004181800030818000b4
:10368400808f50001a0035007000200010818800df
:10369400170037003181800020818000e21421006e
:1036a40004ff07002af0b7001e417800b102210090
:1036b40082487800a1022100914078002bd0bf00fd
:1036c40080cf500004003a003181800020818000c6
:1036d400e21421000a0007002230ef000500370041
:1036e4002230ef0003003700000000000100370023
:1036f40000000000000000000080fa000000060046
:103704000800fa0010079800210798003207980073
:1037140010002000000f78009e0090002007200079
:10372400808f5000440032009e009000200720004b
:10373400808f50000d003c009e009000100520007a
:10374400808f50001e0132009e0090002005200052
:10375400808f50002c0032009e0090000002200058
:10376400808f5000aa003200170137009e0090009d
:1037740040072000808f5000280032009e009000f7
:1037840040072000808f5000660035009e009000a6
:1037940000092000808f50000b013a003e00900089
:1037a40010407800e14f500002003a000080eb0026
:1037b400000f7800660047001000e8001040780011
:1037c4000080fb009e0078008180b9006100b90090
:1037d40063f407000041eb004c0707006600470054
:1037e4001080e800104078000080fb009e00780004
:1037f4008180b9006100b90059f4070012c0b30018
:1038040042070700f10037003e00900010407800a6
:103814000080fb00ed0a0700ec0037006000b800f0
:1038240070898800818988006000b80090898800c8
:10383400a1898800e50037008000eb003e0090007d
:10384400ce070700b0818800c181880041002000b4
:103854003e009000c9070700d0818800e1818800fc
:10386400810020003e009000c4070700f08188001a
:10387400018288006000b80070898800818988000e
:10388400b0818000c18180000001be008000eb0097
:1038940060132100dd070700d0818000e1818000f2
:1038a4000001be004100200060132100d70707007b
:1038b400f0818000018280000001be0081002000b0
:1038c40060132100d1070700f68180000782800081
:1038d400d4818000e5818000b2818000c3818000b2
:1038e40000002000812c2400809fbe0000002000e6
:1038f400812c2400809fbe0000002000812c240025
:10390400809fbe00600c2100b3000700ec875700c5
:1039140062132100c1002000200720009bfe070045
:10392400aa0037008000eb003e00900093070700d8
:10393400b0818800c1818800410020003e009000d1
:103944008e070700d0818800e18188008100200073
:103954003e00900089070700f081880001828800fa
:103964006000b80090898800a1898800b081800037
:10397400c18180000001be008000eb002014210002
:10398400a2070700d0818000e18180000001be0011
:1039940041002000201421009c070700f0818000d2
:1039a400018280000001be0081002000201421005b
:1039b40096070700f681800007828000d48180008a
:1039c400e5818000b2818000c38180000000200076
:1039d400812c2400809fbe0000002000812c240044
:1039e400809fbe0000002000812c2400809fbe0028
:1039f400600f210078000700ec8757002214210093
:103a0400c10020003007200060fe07006f0037006f
:103a14003e009000104078000080fb00e30f50004f
:103a240018003200e30f500005003c00e10f500085
:103a340008003200e20f50000c003200230037006f
:103a4400e40f500015003200e50f50001900320059
:103a54001e003700660047001000e80010407800a0
:103a64000080fb0060818800180037006600470072
:103a74001000e800104078000080fb00708188008e
:103a840012003700660047001000e800104078007c
:103a94000080fb00808188000c003700660047002e
:103aa4001000e800104078000080fb00908188003e
:103ab40006003700660047001000e8001040780058
:103ac4000080fb00a081880000000000608180006d
:103ad400e10f500009003a00608180000040780046
:103ae400614060000080fb00610060002170800084
:103af4000100a10001007000207088006081800036
:103b040000407800614060000080fb0061006000bc
:103b1400217080000100a100010070002070880065
:103b24007081800000407800614060000080fb00ec
:103b34004f00dd00a174800001f0a10001007000bd
:103b4400a07488008081800000407800614060009b
:103b54000080fb00610060004a00dd0021708000ed
:103b640001a0a100010070002070880090818000f5
:103b740000407800614060000080fb00610060004c
:103b84004300dd00a17380000130a100010070003a
:103b9400a0738800a081800000407800614060002c
:103ba4000080fb00610060004900dd00217080009e
:103bb4000190a1000100700020708800030037000c
:103bc40000000000010037000000000000000000b9
:103bd4000080fa00000006000e00fa00000f7800d2
:103be40012079800230798003407980045079800a7
:103bf40056079800670798001e0078001e01900081
:103c0400ae0190000288be001e0078003eb9970005
:103c1400ceb9970062009800730098001e007800e7
:103c24003e019000ce0190002200980033009800dd
:103c34001e0078001eb99700aeb9970002089800dc
:103c4400130898001e0078005e019000ee019000b9
:103c540042009800530098001e0078007eb197003f
:103c64008eb99700220898003308980000000000dd
:103c74000080fa00000006001200fa00889fbe00cf
:103c84008a9fbe008c9fbe00600798007207980050
:103c9400030f98006e0090007e0190008e09900042
:103ca40002109800131098006e00900060029000bb
:103cb400f00290006e0090009000900010007800d8
:103cc4000001be000400be002df4070000017800ce
:103cd4000100780082047800000478006e009000ef
:103ce400f00090006000900001f0a2006e019000ce
:103cf400920190001201780021f40700000178007d
:103d04000100780082017800000178000900780041
:103d1400880078000002be0003007800820078006a
:103d24000001be007e0090008e089000520707003c
:103d3400008fbe006e00900090009000100078008c
:103d44001e0178009e019000ecf4070080017800c9
:103d54000101780003007800820078000001be00b1
:103d64006e00900022109800331098006e009000ae
:103d7400400c9000d00c900002002000a3372400d7
:103d84007e0090008e089000fdf30700000178008b
:103d940001007800820178000001780003007800b7
:103da400820078000001be000800be000ff3070087
:103db4008001780001017800030078008200780017
:103dc4000001be006e00900042089800530898005d
:103dd4006e009000000a9000900a90006e0090001f
:103de400b0009000200090000001be000400be005e
:103df400e3f30700000178000100780082067800f0
:103e0400000678006e009000900890000008900072
:103e140001f0a2006e019000b20190002201900016
:103e2400d7f30700000178000100780082057800cc
:103e3400000578006e009000400c9000d00c9000bb
:103e440002002000a33724007e0090008e0890001a
:103e5400cbf30700000178000100780082017800ac
:103e64000001780003007800820078000001be00a1
:103e74000800be00ddf207000001780001007800b0
:103e840082037800000378000d0078008c0078002d
:103e94000002be000b0078008a0078000001be001a
:103ea40007007800860078000000be00f2060700d4
:103eb4000001be006e00900042089800530898006c
:103ec4006e009000400a9000d00a90006e009000ae
:103ed400b0009000200090000001be000400be006d
:103ee40086f407008001780001017800030078005f
:103ef400820078000001be006e009000421098001d
:103f0400531098006e009000f00890006008900034
:103f14000001be007e0090008e089000aaf2070007
:103f24000001780001007800820278000002780025
:103f340002002000a33724000500780084007800e4
:103f44000000be006df407002007980031079800b8
:103f54006e009000200a9000b00a90006e0090005d
:103f6400d0009000400090000001be000400be009c
:103f740083f30700000178000100780082047800d0
:103f8400000478006e009000b008900020089000b3
:103f940001f0a2006e019000d20190004201900055
:103fa40077f30700000178000100780082017800af
:103fb4000001780009007800880078000002be0043
:103fc40003007800820078000001be002e009000fb
:103fd400be009000a806070040079800510798000b
:103fe4006e0090007e0190008e0990006208980097
:103ff400730898006e009000d0009000400090007c
:104004004e019000de0190003cf40700800178002e
:104014000101780003007800820078000001be00ee
:104024006e00900062109800731098006e0090006b
:1040340020129000b01290006e009000d0109000fa
:10404400401090000001be000400be0067f20700ab
:1040540000017800010078008202780000027800f4
:104064006e009000f0109000601090000001be00ff
:1040740005007800840078000000be005bf20700b1
:104084000001780001007800820078008101780046
:104094000001780003007800820078000000be0070
:1040a4004f06be004f05be004f04be000080fa005c
:1040b400000006000000fa007489800085898000f1
:1040c40010858000218580000001be000400be0030
:1040d4003df20700800178000101780003007800b8
:1040e400820078000000be00308788004187880085
:1040f40094898000a58980003085800041858000f6
:104104000001be000400be002ff207008001780009
:104114000101780003007800820078000000be00ee
:10412400b0888800c188880030878000418780007b
:104134000001be00600c2100cffe0700308988001a
:1041440041898800b0888000c18880000001be00d9
:10415400600f2100c8fe070050898800618988002b
:104164000a0007005089800061898000348980003a
:10417400458980000001be000400be00020507005e
:10418400000000000080fa00000006000000fa00b1
:1041940070898000818980000001be008000eb00ee
:1041a400e02c2100990507001085800021858000fe
:1041b4000001be0041002000e02c2100930507000f
:1041c40030878000418780000001be00810020000c
:1041d400e02c21008d050700308980004189800092
:1041e4000001be00c1002000e02c2100870507006b
:1041f40030868000418680000001be00010120005d
:10420400e02c210081050700508780006187800031
:104214000001be0041012000e02c21007b050700c5
:1042240090868000a18680000001be0081012000ec
:10423400e02c21007505070050868000618680000f
:104244000001be00c1012000e02c21006f05070021
:1042540070878000818780000001be000102200079
:10426400e02c210069050700b0868000c18680002b
:104274000001be0041022000e02c2100630507007c
:1042840070868000818680000001be0081022000cb
:10429400e02c21005d05070090878000a187800045
:1042a4000001be00c1022000e02c210057050700d8
:1042b400d0868000e18680000001be00010320005a
:1042c400e02c21005105070090898000a18980001d
:1042d4000001be0041032000e02c21004b05070033
:1042e40030858000418580000001be0081032000ec
:1042f400e02c210045050700b0888000c1888000bb
:104304000001be00c1032000e02c21003f0507008e
:1043140050898000618980000001be0001042000f2
:10432400e02c210039050700b0878000c187800098
:104334000001be0041042000e02c210033050700e9
:10434400d0888000e18880000001be008104200044
:10435400e02c21002d0507001088800021888000b2
:104364000001be00c1042000e02c21002705070045
:10437400d0878000e18780000001be000105200095
:10438400e02c210021050700f088800001898000cd
:104394000001be0041052000e02c21001b050700a0
:1043a40030888000418880000001be008105200023
:1043b400e02c210015050700f087800001888000ab
:1043c4000001be00c1052000e02c21000f050700fc
:1043d40010898000218980000001be0001062000b0
:1043e400e02c2100090507005088800061888000c6
:1043f4000001be0041062000e02c21000305070057
:10440400e22c21008106200010072000dffb0700ba
:10441400000000000080fa00000006000000fa001e
:1044240005e1a9000421a9000068a9002068a800ea
:1044340005e1a80000002000a1372400290007009e
:10444400000000000080fa00000006000000fa00ee
:1044540013e1a90011e1a9001061a8001021a9002d
:10446400800880000040a1000050a100800888005e
:104474000a21ef000621ef0030392000700888007f
:104484000070280060088800204280000000a0001e
:104494000010a1000020a100204288000108a9000a
:1044a4002108a80011e1a800000000000080fa0023
:1044b400000006000000fa001fe1a9001e21a90067
:1044c4000368a9002368a8001fe1a80000002000d9
:1044d400a1472400b8000700000000000080fa0093
:1044e400000006000400fa00008fbe0020088000cf
:1044f4000040a1000050a100200888001e0178009f
:104504009e019000001c2e0041c624001cf20700ee
:10451400000178000100780082027800000278002f
:1045240002f02f00f377240005007800840078005f
:104534000000be00ccf007000000e0008d00340055
:10454400200880000040a0000050a100200888003e
:104554001e0178009e019000001c2e0041c624001c
:1045640007f2070000017800010078008202780059
:1045740000027800020020000310240005007800e7
:10458400840078000000be00fdf1070000017800ff
:1045940001007800820278000002780002f02f0007
:1045a400f377240005007800840078000000be0042
:1045b400adf007000000e000550034002008800042
:1045c4000040a1000050a000200888001e017800cf
:1045d4009e019000001c2e0041c62400e8f1070053
:1045e400000178000100780082027800000278005f
:1045f40002002000032824000500780084007800cd
:104604000000be00def10700000178000100780020
:10461400820278000002780002f02f00f377240071
:1046240005007800840078000000be008ef00700ca
:104634000000e0001d003400200880000040a000bd
:104644000050a000200888001e0178009e01900000
:10465400001c2e0041c62400c9f1070000017800a7
:104664000100780082027800000278000200200035
:104674000338240005007800840078000000be00a0
:10468400bff1070000017800010078008201780082
:104694000001780003007800820078000000be006a
:1046a40073f0070010088800400037001e017800ee
:1046b4009e019000001c2e0041c62400b0f10700aa
:1046c400000178000100780082027800000278007e
:1046d40002002000032824000500780084007800ec
:1046e4000000be00a6f10700000178000100780078
:1046f40082017800000178000300780082007800cd
:104704000000be005af00700100888002700370098
:104714001e0178009e019000001c2e0041c624005a
:1047240097f1070000017800010078008202780008
:104734000002780002002000031024000500780025
:10474400840078000000be008df1070000017800ad
:1047540001007800820178000001780003007800ed
:10476400820078000000be0041f0070010088800b5
:104774000e0037001e0178009e019000001c2e00e0
:1047840041c624007ef10700000178000100780092
:10479400820178000001780003007800820078002c
:1047a4000000be0032f0070010088800000000007e
:1047b4000080fa00000006000400fa00008fbe002a
:1047c400f00880000040a1000050a100f00888001b
:1047d4001e0178009e019000001c2e0041c624009a
:1047e40067f1070000017800010078008202780078
:1047f4000002780002f02f00f3772400050078000f
:10480400840078000000be0017f007000000e000fc
:104814008d003400f00880000040a0000050a1008a
:10482400f00888001e0178009e019000001c2e00f4
:1048340041c6240052f1070000017800010078000d
:104844008202780000027800020020000310240095
:1048540005007800840078000000be0048f10700dd
:1048640000017800010078008202780000027800dc
:1048740002f02f00f377240005007800840078000c
:104884000000be00f8ef07000000e000550034000f
:10489400f00880000040a1000050a000f00888004b
:1048a4001e0178009e019000001c2e0041c62400c9
:1048b40033f10700000178000100780082027800db
:1048c400000278000200200003282400050078007c
:1048d400840078000000be0029f107000001780080
:1048e40001007800820278000002780002f02f00b4
:1048f400f377240005007800840078000000be00ef
:10490400d9ef07000000e0001d003400f00880002b
:104914000040a0000050a000f00888001e017800ac
:104924009e019000001c2e0041c6240014f10700d3
:10493400000178000100780082027800000278000b
:104944000200200003382400050078008400780069
:104954000000be000af107000001780001007800a1
:10496400820178000001780003007800820078005a
:104974000000be00beef0700d008880040003700ea
:104984001e0178009e019000001c2e0041c62400e8
:10499400fbf0070000017800010078008202780033
:1049a400000278000200200003282400050078009b
:1049b400840078000000be00f1f0070000017800d8
:1049c400010078008201780000017800030078007b
:1049d400820078000000be00a5ef0700d008880020
:1049e400270037001e0178009e019000001c2e0055
:1049f40041c62400e2f007000001780001007800bd
:104a040082027800000278000200200003102400d3
:104a140005007800840078000000be00d8f007008c
:104a2400000178000100780082017800000178001c
:104a340003007800820078000000be008cef0700bd
:104a4400d00888000e0037001e0178009e019000f7
:104a5400001c2e0041c62400c9f0070000017800a4
:104a640001007800820178000001780003007800da
:104a7400820078000000be007def0700d0088800a7
:104a8400000000000080fa00000006000000fa00a8
:104a9400c301a800dca1ef00dea1ef00c1e1a80082
:104aa400000000000080fa00000006000000fa0088
:104ab400c305a800dca5ef00dea5ef00c1e5a80052
:104ac400000000000080fa00000006000800fa0060
:104ad400889fbe008a9fbe002080800031808000b5
:104ae40000808800118088006080800071808000d0
:104af4004080880051808800300e80008000eb00e8
:104b0400008fbe00500e80008000eb00c000dd006e
:104b1400000020001e0f40005e974800302e8000e9
:104b24008000eb002007980031079800502e800089
:104b34008000eb00c000dd0000002000640147009d
:104b4400e401470033194000239148001202780021
:104b54009202900024079800350798001e00780000
:104b64009e0090007eef0700c2532e00737823004e
:104b740062f10700000178000100780082017800ea
:104b8400000178000300780082007800208088000b
:104b9400318088002e009000be00900070ef070066
:104ba400c2532e0073782b0054f1070000017800e3
:104bb4000100780082017800000178000300780089
:104bc40082007800608088007180880024808000e2
:104bd4003580800000808000118080000001be00cc
:104be4000400be0078ef070000017800010078009f
:104bf40082017800000178000300780082007800c8
:104c040080808800918088006480800075808000a6
:104c140040808000518080000001be000400be007e
:104c240069ef070000017800010078008201780034
:104c3400000178000300780082007800a0808800da
:104c4400b180880080808000918080000200200074
:104c5400a337240029f107008001780001017800be
:104c640003007800820078000000be00d084880031
:104c7400e1848800a0808000b180800002002000d0
:104c8400a33724001df1070080017800010178009a
:104c940003007800820078000000be00f0848800e1
:104ca40001858800d4848000e5848000f08480003d
:104cb400018580000001be000400be004bef070028
:104cc4000001780001007800820278000002780078
:104cd400020020000300240005007800840078000e
:104ce4000000be0026f00700800178000101780072
:104cf40003007800820078000000be001085880060
:104d040021858800d4848000e5848000f0848000bc
:104d1400018580000001be000400be002aef0700e8
:104d24000001780001007800820278000002780017
:104d340022852b00e3e52300050078008400780039
:104d44000000be000ef00700800178000101780029
:104d540003007800820078000000be0030858800df
:104d64004185880070858000818580005085880099
:104d740061858800b0858000c185800090858800a9
:104d8400a18588001086800021868000f085880037
:104d94000186880058858000698580001a85800016
:104da4002b858000f085800001868000e3f20700f7
:104db4000001be000a00be00d0f007000001780028
:104dc40001007800820278000002780002002000ce
:104dd400a337240005007800840078000000be009a
:104de400e7ef0700000178000100780082017800f5
:104df4000001780003007800820078000001be0002
:104e04000800be00f9ee0700800178000101780077
:104e140003007800820078000000be0070858800de
:104e24008185880098858000a98580001a85800086
:104e34002b858000f085800001868000c3f3070085
:104e44000001be000a00be00acf0070000017800bb
:104e5400010078008202780000027800020020003d
:104e6400a337240005007800840078000000be0009
:104e7400c3ef070000017800010078008201780088
:104e84000001780003007800820078000001be0071
:104e94000800be00d5ee070080017800010178000b
:104ea40003007800820078000000be00b08588000e
:104eb400c1858800f88580000986800030858000df
:104ec4004185800002002000a3372400acef0700d6
:104ed4000001780001007800820178000001780068
:104ee40003007800820078000001be000800be00c4
:104ef400beee07008001780001017800030078000d
:104f0400820078000000be00108688002186880098
:104f14001086800021868000b2fd200093042400c6
:104f240051ee07000000e0000c0034001086800001
:104f340021868000b2fd2000930c2400a2ee07001d
:104f44008001780001017800030078008200780075
:104f54000000be001086880021868800108680002c
:104f640021868000b2fd200093042c003cee070053
:104f74000000e0000c003d001086800021868000c7
:104f8400b2fd2000930c240098ee07008001780005
:104f94000101780003007800820078000000be0060
:104fa400108688002186880042fc0700000000006b
:104fb4004f05be004f04be000080fa00000006004a
:104fc4002000fa0080828000918280000001780035
:104fd400810178008000eb000e00780028020700b1
:104fe40070858000818580000001be0041002000a2
:104ff4000e00780005020700b0858000c18580009e
:105004000001be00810020000e007800ff010700af
:1050140010868000218680000001be00c1002000af
:105024000e007800f90107001085800021858000ba
:105034000001be00010120000e007800f30107000a
:1050440030858000418580000001be0041012000c0
:105054000e007800ed010700d0848000e184800018
:105064000001be00810120000e007800e701070066
:10507400f0848000018580000001be00c101200091
:105084000e007800e10107000e0178000102200003
:1050940000062000bdf80700000000000080fa00b0
:1050a400000006000000fa0002ccbf000000a100ce
:1050b4000010a1000020a10002ecb700009620001f
:1050c400206088001061800000a0a00000b0a00053
:1050d4001061880023cca80023eca8003000200035
:1050e400206188001062800000a0a00000b0a00031
:1050f4001062880043cca80043eca80030002000d4
:105104002062880001eca800000000000080fa0082
:10511400000006000000fa00889fbe00e4838000bf
:10512400f583800000848000118480000001be00ab
:105134000400be00caed07000000e00014003d00ba
:105144000884800019848000e4838000f583800053
:10515400e0828000f18280000001be000400be00f5
:1051640022ee070000017800010078008202780036
:10517400000278000801be00050078008400780071
:105184000000be0025020700e0838800f183880048
:10519400e4838000f5838000008480001184800013
:1051a4000001be000400be00afed07000000e000f7
:1051b400140034000884800019848000e483800093
:1051c400f5838000e0828000f18280000001be004f
:1051d4000400be00fced0700000178000100780027
:1051e40082027800000278000801be000500780001
:1051f400840078000000be00f1010700e08388000d
:10520400f1838800e0838000f18380006011b8009e
:1052140095ed07000000e0001e003500e0838000eb
:10522400f183800002002000031c2400b3ef070078
:105234000001780001007800820278000002780002
:1052440000838000118380000001be000500780007
:10525400840078000000be00e4ed0700000178003f
:1052640001007800820178000001780003007800d2
:10527400820078000000be009eed07007062880086
:1052840000838000118380009aed0700306288005b
:105294001e003700008380001183800095ed070015
:1052a40070628800e0838000f183800001f0a20036
:1052b40002002000031c240090ef07000001780086
:1052c40001007800820278000002780000838000e8
:1052d400118380000001be0005007800840078007e
:1052e4000000be00c1ed0700000178000100780055
:1052f40082017800000178000300780082007800c1
:105304000000be007bed070030628800c48380008b
:10531400d5838000a0838000b18380000001be009b
:105324000400be004eed07000000e00014003d0044
:10533400a8838000b9838000c4838000d583800063
:10534400e0828000f18280000001be000400be0003
:10535400a6ed0700000178000100780082027800c1
:10536400000278000801be0005007800840078007f
:105374000000be00a9010700c0838800d183880013
:10538400c4838000d5838000a0838000b183800023
:105394000001be000400be0033ed07000000e00081
:1053a40014003400a8838000b9838000c483800083
:1053b400d5838000e0828000f18280000001be007d
:1053c4000400be0080ed07000001780001007800b1
:1053d40082027800000278000801be00050078000f
:1053e400840078000000be0075010700c0838800b7
:1053f400d1838800c0838000d18380006011b8000d
:1054040019ed07000000e0001e003400c083800096
:10541400d183800002002000031c240037ef070022
:105424000001780001007800820278000002780010
:1054340000838000118380000001be000500780015
:10544400840078000000be0068ed070000017800c9
:1054540001007800820178000001780003007800e0
:10546400820078000000be0022ed07003061880051
:1054740000838000118380001eed070070618800a6
:105484001e003700008380001183800019ed07009f
:1054940030618800c0838000d183800001f0a200c5
:1054a40002002000031c240014ef07000001780010
:1054b40001007800820278000002780000838000f6
:1054c400118380000001be0005007800840078008c
:1054d4000000be0045ed07000001780001007800df
:1054e40082017800000178000300780082007800cf
:1054f4000000be00ffec070070618800000000009f
:105504004f04be000080fa00000006000600fa0006
:10551400008fbe00424798001e0078009e00900055
:105524001201070002002000832c2400ceec0700a7
:105534000000e00011003c00640047001000fb0084
:105544000000e00007003200e10f50000c003a00b8
:105554001e0178009e019000a2838800b383880016
:10556400070037001e0178009e0190000284880025
:1055740013848800000000000100370000000000d0
:105584000080fa00000006000800fa00008fbe0048
:10559400220798003307980022852b00e3e52300b7
:1055a4002e009000be009000d4ee070000017800a9
:1055b4000100780082027800000278001e01780061
:1055c4009e01900005007800840078000000be0071
:1055d40006ed0700000178000100780082027800df
:1055e4000002780002002000031f24000500780058
:1055f400840078000000be00c0ee070000017800bf
:105604000100780002027800800178000041eb007c
:1056140004007800830078000000be00bbff070090
:1056240022852b00e3e523002e009000be009000ad
:10563400b2ee0700000178000100780082017800d2
:105644000001780003007800820078000001be00a9
:105654001e0078009e009000dbec0700000178003b
:105664000100780082027800000278000200200025
:10567400031f240005007800840078000000be00a9
:105684009eee070000017800010078000202780015
:105694008001780012c0b300040078008300780011
:1056a4000000be0099ff0700000000000080fa001f
:1056b400000006000800fa0020079800310798004f
:1056c400b2fd2000930424002e009000be00900040
:1056d400bdec070000017800010078008202780028
:1056e40000027800b2fd2000930c2400050078002d
:1056f400840078000000be00f9f00700b2fd20002d
