:020000040000fa
:080000000002040000000000f2
:020000040000fa
:04000800720300007f
:020000040000fa
:04000c00720300007b
:020000040000fa
:040010007203000077
:020000040000fa
:040014007203000073
:020000040000fa
:04001800720300006f
:020000040000fa
:04001c00720300006b
:020000040000fa
:040020007203000067
:020000040000fa
:040024007203000063
:020000040000fa
:04002800720300005f
:020000040000fa
:04002c00720300005b
:020000040000fa
:040030007203000057
:020000040000fa
:04003400fa020000cc
:020000040000fa
:04003800720300004f
:020000040000fa
:04003c00720300004b
:020000040000fa
:040040007203000047
:020000040000fa
:040044007203000043
:020000040000fa
:040048001a03000097
:020000040000fa
:04004c00720300003b
:020000040000fa
:040050007203000037
:020000040000fa
:040054007203000033
:020000040000fa
:04005800720300002f
:020000040000fa
:04005c004e0300004f
:020000040000fa
:040060007203000027
:020000040000fa
:040064007203000023
:020000040000fa
:04006800720300001f
:020000040000fa
:04006c00720300001b
:020000040000fa
:040070007203000017
:020000040000fa
:040074007203000013
:020000040000fa
:04007800720300000f
:020000040000fa
:04007c00720300000b
:020000040000fa
:040080007203000007
:020000040000fa
:040084007203000003
:020000040000fa
:0400880072030000ff
:020000040000fa
:04008c0072030000fb
:020000040000fa
:0400900072030000f7
:020000040000fa
:040094002203000043
:020000040000fa
:0400980072030000ef
:020000040000fa
:04009c0072030000eb
:020000040000fa
:0400a00072030000e7
:020000040000fa
:0400a40072030000e3
:020000040000fa
:0400a80072030000df
:020000040000fa
:0400ac0072030000db
:020000040000fa
:0400b00072030000d7
:020000040000fa
:0400b40072030000d3
:020000040000fa
:0400b80072030000cf
:020000040000fa
:0400bc0072030000cb
:020000040000fa
:0400c00072030000c7
:020000040000fa
:0400c40072030000c3
:020000040000fa
:0400c80072030000bf
:020000040000fa
:0400cc0072030000bb
:020000040000fa
:0400d00072030000b7
:020000040000fa
:0400d40072030000b3
:020000040000fa
:0400d80072030000af
:020000040000fa
:0400dc0072030000ab
:020000040000fa
:0400e00072030000a7
:020000040000fa
:0400e40072030000a3
:020000040000fa
:0400e800720300009f
:020000040000fa
:0400ec00720300009b
:020000040000fa
:0400f0007203000097
:020000040000fa
:0400f4007203000093
:020000040000fa
:0400f800720300008f
:020000040000fa
:0400fc00720300008b
:020000040000fa
:040100007203000086
:020000040000fa
:040104007203000082
:020000040000fa
:04010800720300007e
:020000040000fa
:04010c00720300007a
:020000040000fa
:040110007203000076
:020000040000fa
:040114007203000072
:020000040000fa
:04011800720300006e
:020000040000fa
:04011c00720300006a
:020000040000fa
:040120007203000066
:020000040000fa
:040124007203000062
:020000040000fa
:04012800720300005e
:020000040000fa
:04012c00720300005a
:020000040000fa
:040130007203000056
:020000040000fa
:040134007203000052
:020000040000fa
:04013800720300004e
:020000040000fa
:04013c00720300004a
:020000040000fa
:040140007203000046
:020000040000fa
:040144007203000042
:020000040000fa
:04014800720300003e
:020000040000fa
:04014c00720300003a
:020000040000fa
:040150007203000036
:020000040000fa
:040154007203000032
:020000040000fa
:04015800720300002e
:020000040000fa
:04015c00720300002a
:020000040000fa
:040160007203000026
:020000040000fa
:040164007203000022
:020000040000fa
:04016800720300001e
:020000040000fa
:04016c00720300001a
:020000040000fa
:040170007203000016
:020000040000fa
:040174007203000012
:020000040000fa
:04017800720300000e
:020000040000fa
:04017c00720300000a
:020000040000fa
:040180007203000006
:020000040000fa
:040184007203000002
:020000040000fa
:0401880072030000fe
:020000040000fa
:04018c0072030000fa
:020000040000fa
:0401900072030000f6
:020000040000fa
:0401940072030000f2
:020000040000fa
:0401980072030000ee
:020000040000fa
:04019c0072030000ea
:020000040000fa
:0401a00072030000e6
:020000040000fa
:0401a40072030000e2
:020000040000fa
:0401a80072030000de
:020000040000fa
:0401ac0072030000da
:020000040000fa
:0401b00072030000d6
:020000040000fa
:0401b40072030000d2
:020000040000fa
:0401b80072030000ce
:020000040000fa
:0401bc0072030000ca
:020000040000fa
:0401c00072030000c6
:020000040000fa
:0401c40072030000c2
:020000040000fa
:0401c80072030000be
:020000040000fa
:0401cc0072030000ba
:020000040000fa
:0401d00072030000b6
:020000040000fa
:0401d40072030000b2
:020000040000fa
:0401d80072030000ae
:020000040000fa
:0401dc0072030000aa
:020000040000fa
:0401e00072030000a6
:020000040000fa
:0401e40072030000a2
:020000040000fa
:0401e800720300009e
:020000040000fa
:0401ec00720300009a
:020000040000fa
:0401f0007203000096
:020000040000fa
:0401f4007203000092
:020000040000fa
:0401f800720300008e
:020000040000fa
:0401fc00720300008a
:020000040000fa
:040200007203000085
:020000040000fa
:040204007203000081
:020000040000fa
:04020800720300007d
:020000040000fa
:04020c007203000079
:020000040000fa
:040210007203000075
:020000040000fa
:040214007203000071
:020000040000fa
:04021800720300006d
:020000040000fa
:04021c007203000069
:020000040000fa
:040220007203000065
:020000040000fa
:040224007203000061
:020000040000fa
:04022800720300005d
:020000040000fa
:04022c007203000059
:020000040000fa
:040230007203000055
:020000040000fa
:040234007203000051
:020000040000fa
:04023800720300004d
:020000040000fa
:04023c007203000049
:020000040000fa
:040240007203000045
:020000040000fa
:040244007203000041
:020000040000fa
:04024800720300003d
:020000040000fa
:04024c007203000039
:020000040000fa
:040250007203000035
:020000040000fa
:040254007203000031
:020000040000fa
:04025800720300002d
:020000040000fa
:04025c007203000029
:020000040000fa
:040260007203000025
:020000040000fa
:040264007203000021
:020000040000fa
:10040000cf0421000eff2d000e0188000000000027
:10041000000020000000e000020032000001200087
:100420002002880014000700b00007000000e00070
:1004300003003a00c09621000100200002003700ae
:100440000000200001002000810f70000100320038
:100450000f000700000020000000e0000200320052
:100460000000020000000000b011020000000000c7
:100470000040da000000fe00200020000000e00044
:1004800002003200100020009001880000000600e9
:10049000a1028800800478000000eb001f003700f4
:1004a000e284440054a0b4009905ba00e2844400f8
:1004b00054a0b4009906ba00e284440054a0b400e9
:1004c0000006eb00476fde00fd07b200ae018800ba
:1004d000636ce10003003a000ad801000000eb0061
:1004e0000e003700606ce10008003a00004deb00a0
:1004f0000a05e800020039003420ec000af0a000f0
:100500008b05e900f9ff3e00040037006168e10057
:10051000010032000086eb000b00070019c7ba008b
:100520000e04e0001905ba0003003a000a00e000da
:10053000dbff3a0000000600fe07b200ae028800b2
:100540008a047800f5ff37000cd0a300e20f4d00bd
:100550001c003b0089027800354dba000a05e8000e
:10056000020039003420ec000af0a0008b05e900fd
:100570000f003200254dba000a05e80002003900dc
:100580003420ec000af0a0008b05e90008003200de
:100590000c00e0000600320015cdba000a05e800a4
:1005a000020039003420ec000af0a0008b05e900bd
:1005b0008984e80054a0b4000b00e000e2ff3a0098
:1005c000000006009902ba00055d78008b05e9007d
:1005d000f7ff3200c82ade00055d78008b05e900d0
:1005e000f3ff32000c00e000f1ff320019ddba0029
:1005f000eeff37003600f800809fbe00829fbe00ed
:10060000849fbe00869fbe000000fa000068a9001b
:10061000fa0a0700ee0807000080fa004f03be0048
:100620004f02be004f01be004f00be003600f90071
:10063000004006000000fa000108a9000080fa004e
:10064000004006003600f800809fbe00829fbe007a
:10065000849fbe00869fbe000000fa000368a900c8
:1006600090808000a180800061004000e080480010
:1006700090808800a18088003f050700dc05070006
:100680000080fa004f03be004f02be004f01be00c3
:100690004f00be003600f90000400600801f7800c1
:1006a0000000fa0001a8a90000188000108288004c
:1006b0001018800020828800201880003082880076
:1006c00030188000408288004018800050828800e6
:1006d00010c0b30019f0b7000080fa004f00780096
:1006e000004006000040da000000fe0000000500a7
:1006f00014002000ad033700f4ff2f00ab033700d8
:100700000001be003f0007000470a70003f0a10035
:100710006509b100160032000d0035006828e100bf
:1007200006003500f0ff2f00f1ff27000300e00076
:1007300013003b00010028000000050000004000fd
:10074000818048008502e900fcff3a00080037007c
:10075000f88f420002003c008000eb000000050022
:100760008100d1000080d3008502e800fcff3a0040
:100770000300e00002003b0060001000e080180071
:10078000000006000001be001e0007000470a70064
:1007900003f0a10003f8a30013003a006509b100bb
:1007a00010003200090035006928e1000200350020
:1007b0000100280000000500000040008180480082
:1007c0008502e900fcff3a0000000600f88f4200b5
:1007d000050035008100d1000080d3008502e800cb
:1007e000fcff3a00000006008000eb00000005005e
:1007f0004f89de0082017800870337006011b8005e
:1008000095033700c70ade00f107b200f50fb2000a
:1008100008003200e1cf4200020032000170a00067
:1008200024000500810f700001003200040805005b
:1008300044000500810f700002003a00140005001a
:100840008502e9000000400081c04800fcff3b0039
:100850000170a0002400050007f82700078361004d
:100860000638e10004003a00f707200087836100a2
:100870008703710001003a0003f0a200889fbe00c8
:100880008a9fbe008c9fbe00470ade000480a10044
:10089000c71ade000580a100070028000785600058
:1008a00087856100f70f20000720e1009e003200dd
:1008b0000728e1009c003200010678000400e000f7
:1008c000b4003200f7072000878060000170a000ac
:1008d0000500e000c0003200f707200087816100ba
:1008e0000370a000050652000f003a000b50e10013
:1008f0000b0032000308e10002003a000200e100b0
:100900007e0032000204500083845800040031004d
:100910000001fd008101fd008402fd008a05fd004b
:100920006044b800210037000520e10005003d00cb
:100930000001fd008101fd008402fd008a05fd002b
:10094000050652007a60e100050035000170a10043
:100950004722dd00848070008a80700063003700c9
:100960006044b800ef02660007ff2f00070666002c
:100970000500e00006003400f08312008714dd005b
:100980000511de00071bdd00060171008519de0080
:100990007060e100050035000904780082047800e9
:1009a000030178008001eb00700656000b50e10057
:1009b00003003a0002004000838048000400370032
:1009c00060041400e0841c0002005800838058007a
:1009d0000188a300060032008100d1000080d3000e
:1009e0008984d3000884d3000402e800270037007c
:1009f0000178a30025003a000100e0000300320066
:100a00008186cf00698656000a0037008c002000de
:100a10000000e00004003a00090078008804780033
:100a20000004eb00700252008086cf000d064600e5
:100a30000c06e9007060e1000600350080007800d7
:100a400009007800880478000004eb007006560066
:100a5000700252000c00e0000c0034008c08dd0035
:100a6000f00316000703de00868070000c00dd0036
:100a7000074bde00060070008c4cdd000743de00f3
:100a8000868474000c44dd000c0252006120e100f9
:100a900020003500610160000700280087816400a4
:100aa000f7ff270087836400070374000300e0005a
:100ab0000600320082037300040032000000e800e8
:100ac000e08048000188a3000e003a00f70f2000e4
:100ad0000720e1004a003d000170a1004722dd002f
:100ae000810072008a8070000000be004f06be00c8
:100af0004f05be004f04be00000006006000b800b5
:100b0000faff37008100d1000080d3000402e80022
:100b1000eeff37000401780089017400a10107008d
:100b20008a807000f1ff3700f701070007027800a4
:100b30000001fd008101fd00f3010700870278003c
:100b4000850372000778a300040032000001fd0055
:100b50008101fd0006020700e4ff37008503620003
:100b60000768a300080032000b50e10003003200c8
:100b7000f0ff2f00f1ff2700dcff37000001fd0030
:100b80008101fd00d9ff37000468a300d7ff3200c0
:100b9000faff3700f8ff2700888360000b003a0057
:100ba0000000e00009003a008303640082837300c0
:100bb000020032000200be00ccff37000b50e10003
:100bc000ceff3a000200be00c8ff3700140020002c
:100bd000810064003eff3700f8ff27008883610032
:100be00004003a000200e00002003a008c007800a5
:100bf000beff3700150020008301640039ff370075
:100c000001f827000000200081007500b7ff3700c1
:100c1000889fbe008a9fbe008c9fbe001b002000e4
:100c20000202be000586680006002800060666006f
:100c30004709de00f20fb200820032000243e800f2
:100c400080003200c729de00f30fb2007d003200c1
:100c50000343e8007b003200f107b2000170a000fe
:100c6000f507b2000570a000c708dd004903de00eb
:100c7000868070004700dd00c72add004923de00c2
:100c8000868272004722dd000305510004035000f4
:100c90008583580003003100000040008180480037
:100ca0000a05e9008c1f78008a9fbe0004005000ee
:100cb000858058000402420085824a0000004000fe
:100cc000818048000005eb000004be006033b800de
:100cd0000406be000d48e100560031001100090075
:100ce0004dccd8000c01b8000d02b8008481410041
:100cf00060824a008283530003045c0084845c00a9
:100d000060055d000a00e00025003a0080057800db
:100d10000d40e100490031008800780007007800ac
:100d2000110009004d88d8000c01b8000d02b80070
:100d30008481410060824a006003110083835b006c
:100d400004045c00e0845c000900e00021003a003b
:100d50004f01be000300e0002b003200e301600001
:100d6000070673008c81710001003200640070007e
:100d70004200de004e5edd000c007000c258de0056
:100d800001e0a00083010700cf017800818071009d
:100d90004f06be004f05be004f04be000000060017
:100da0008c8343000d044c00e0844c0060054d0032
:100db0000000e9000a00e000d4ff32008c83430009
:100dc0000d044c00e0844c0060054d000000e9007b
:100dd000ceff37000c0343008d834b0060044c00b2
:100de000e0844c000000e9000900e000d8ff320078
:100df0000c0343008d834b0060044c00e0844c00e6
:100e00000000e900d2ff37004200de004e5edd0048
:100e10000c007000c258de0001e0a000cf01780095
:100e20000300e000daff320060001000e0801800ec
:100e3000d7ff3700f0ff2f00aaff3700f0ff2f0089
:100e4000b9ff37000404be002f01070087067800b1
:100e50000004fd008104fd002b01070007836600ec
:100e60000678a300030032000960a7000800be0056
:100e70002c0037000d78a300020032000800be00ed
:100e8000280037000778a30026003a0001f0a100ef
:100e900009f0a1000668a30003003200f1ff27005b
:100ea000f0ff2f00baff37000d68a30003003200e7
:100eb0000800be008c807000b5ff37000768a300f3
:100ec00007003a000648a30003003200f1ff2700a4
:100ed000f0ff2f00aeff37000d48a30003003200e3
:100ee0006000b8008c807000a9ff37000748a3009d
:100ef0000400320001f82700000020008c80700000
:100f0000a3ff3700760107000004fd008104fd0007
:100f100002057800720107000802be008a0178000d
:100f200059ff37000160a00012022000d280880023
:100f300097ff37000100e000120032000500e000da
:100f400010003200889fbe008a9fbe008c9fbe00aa
:100f50000006eb0001f8a30003003200600010005f
:100f6000e08018000cf0a00005f8a3000300320098
:100f700060021200e0821a000cf0a2008005eb0073
:100f800041ff37006000b8000200050003836800dd
:100f90000700280007036300470ade000480a10061
:100fa000c71ade000580a100f70f20000720e1002e
:100fb000420032000728e10040003200889fbe0056
:100fc0008a9fbe008c1f7800f107b200f307b200c1
:100fd0000400e000640032000170a0000500e000a1
:100fe000680032000370a00085054200eb07b100e5
:100ff0000204b8000302b8008484440060854a00fb
:10100000020ab800848444000a854a00030ab80032
:1010100004054500040033000804d0008984d20090
:101020000a85d2008b05e9006158e1003d003500da
:10103000021020000901610003082000898161007d
:10104000f70720008783640008867300c84cde0021
:10105000c853dd00878474004855de000300e000bb
:101060000600320082037600040032008904e800a2
:1010700060054d000a88a3000c003a00f70f20001d
:101080000758e10044003d000a70a100c75ddd0083
:101090000a8575008a007300090078004f06780001
:1010a0004f05be004f04be00000006000a05d10037
:1010b0008984d3008b05e800f0ff3700881f780093
:1010c0000604780090000700070278000001fd0088
:1010d0008101fd008c000700870278008503720003
:1010e0000778a300050032000001fd008101fd002a
:1010f0009f0007004f04780000000600850372007f
:101100000748a30003003200f0ff2f00f1ff270083
:10111000f8ff37000000200001f8270088807000e9
:10112000f4ff3700880178004848dd0080817100b5
:101130004848de00c850dd0001007000c850de00e5
:10114000060478000b017800160007008880700004
:10115000d2ff37000500e000050032001700200034
:101160003a0007009dff370081037000f9ff3a0045
:10117000860078004f0678004f05be004f04be0081
:101180000000050083037100f9ff320027002000f2
:101190002e00070094ff370001f8270086807000ba
:1011a000f4ff37000100e000260032006101110069
:1011b0007810e10023003c006022b8007010e100cc
:1011c0000400350080027800010078008000eb0008
:1011d000700151000200e0000900340070031100aa
:1011e000062add00822ade008603dd008782720087
:1011f0000200de00860bdd00070070008208de00c2
:1012000084817100f4ff27000482620084817100f0
:1012100004002800848262006102600005f0a600dc
:101220000000060004827100070032000000e800a0
:10123000e0804800000006000002be006000b80028
:10124000efff37006000b80000000600889fbe0076
:101250000004eb006138e10016003a000100e000f4
:1012600008003a00c800de004800dd0088002000c9
:101270000100e00003003a00c800de004800dd0085
:10128000680444008184cf00e984540006003400df
:101290008908dd00f08314008703de00878070007a
:1012a0000900dd0009044400610214004f04be007f
:1012b000000006000300e00008003a00c811de004c
:1012c0004811dd00880020000300e00003003a0020
:1012d000c811de004811dd00680444008384cf009b
:1012e000e9845400060034008919dd00f0831400fd
:1012f0008713de00878171000911dd0009044400b5
:10130000e1021400e9ff37002700200001f0a700e8
:1013100017002000470bde00f60fb2000400320079
:101320000643e8000a0032004702b300000006004e
:1013300001037800f607b2000603700002003a00cd
:101340000703b300000006008702b3000000060098
:1013500001037800f607b2000603700002003200b5
:101360000770a000000006000760a0000000060053
:101370000478a300040032000578a30003003200c3
:101380000168a30001003a000200be000160a00055
:101390000000060081017000270032008002eb008f
:1013a00001f8a3000300320060001000e080180084
:1013b00015002000f4072000020242002000340043
:1013c000f703200087036000060420000003630089
:1013d00002082000000161004700de00c909dd00ad
:1013e00000807100c708de000600e000080032003f
:1013f00087037100060032001000b0000180b000c9
:101400000188a30002003200c108de000402e800e7
:10141000f107b200f30f20000320e10003003d00bc
:101420004722dd00810072002900370001f8270003
:101430000000eb00260037006000b8000000060046
:10144000680212007f20e100020034006000b80052
:101450001f0037006011b8007020e1000400350063
:1014600080017800010078008000eb0070025200db
:101470000400e00009003400f00312000719dd0049
:101480008419de000703dd00868171000400de00a0
:10149000070bdd00060070008408de00f7ff270060
:1014a0008383630087037100060028000303630041
:1014b000070032000700e00003003a00610160000d
:1014c00002817300020032001000b0000180b00001
:1014d0000500a6000000060001f0a00000000600c4
:1014e0004f0ade004709de00f107b200f20fb2003a
:1014f0000b003200f207b1000170a000c708dd0048
:10150000c901de00838070004700dd000400a600f2
:101510000000060060001000e080180000000600d7
:10152000810f700001003a00000006008182cf00a8
:101530000500e00010003e008082cf00ee824200f5
:101540007028e1000400390007003e0080007800a8
:101550000000eb000e003700708312008600de00f2
:101560000500dd000a003700708352008600dd00b0
:101570000000eb0006003700e28252008508dd0023
:10158000708312000603de00868070000500dd0017
:101590007507b0000501ea000400a600000006007f
:1015a00060001000e080180000000600889fbe0068
:1015b0008a9fbe00841f78007c0007004f007800df
:1015c00011003300f0ff2f00838f6c0006003b00fa
:1015d000040565000a00a7000800370009f0a6000e
:1015e0001000200008003700820f5400838f5c0039
:1015f000030039001000200001003e000000200020
:1016000009f0a7000000ea004f05be004f04be002d
:101610000000e00000000600881f78000304780046
:101620000300e00007003d0060001000e0801800ab
:1016300060011900e081190002003b0001f02d005b
:10164000030037000400070008f0a70001f0a00025
:101650004f04780000000600889fbe008a9fbe00ed
:1016600000827000040271000482710026003200c2
:101670000004be000200be006011b8006b0920002b
:10168000950220000182cf000a0039000541b10017
:101690000082cf00070039000541b1000982cf0068
:1016a000040039000541b1000882cf000100390073
:1016b0000541b10005425200120032000a003b0011
:1016c00082817100610164008100d1000080d3003b
:1016d0008984d3000884d3008b05e8000442e80025
:1016e000f7ff3a00070037000804440089844c00e3
:1016f00000004800818048008b05e9000442e900b1
:10170000f9ff3a00030007004f05be004f04be007a
:101710000000060081002000618055000b003d00a4
:101720000b00200061fe2f000100e1001d003400cd
:1017300082817100610164008904d1000884d300b2
:101740000000e800faff3a00710020006100640028
:1017500003007000020060000900320061044400d0
:10176000e0844c000988a500050032008b05e800e4
:101770006808e10002003a008904d1000884d3001f
:10178000f20f20000258e10005003d00c75ddd00ba
:10179000f907b20089807500080078000000060093
:1017a0000bf827008b007800000005000004be0045
:1017b00014fc07000003be000405be000200be00ca
:0c17c00010fc0700844f750000000600bc
:020000040000fa
:1017cc002200fa00889fbe0090818000a1818000d9
:1017dc00c8fb0700000f78007081800081818000b9
:1017ec00c4fb07000e81e80000097800b08180007e
:1017fc00c1818000bffb070064014700000978002d
:10180c00d0818000e1818000bafb070066014700af
:10181c0000097800f081800001828000b5fb070090
:10182c0068014700000978000e80e800100078007d
:10183c001e004000cf80de00eafb07000200200003
:10184c0003002400effc07006a0147000089be007a
:10185c006600470090007800680047001000780090
:10186c0000804000cf80de00defb0700020020007d
:10187c0003002400e3fc07006e0147000089be0052
:10188c006a00470090009000100078000001be0034
:10189c00f7fb07000004be0064004700100078004e
:1018ac00cf80de00cffb07000001be000800be00a9
:1018bc00effb07000200200003042400d1fc07000a
:1018cc00720147000089be006e0047009000900036
:1018dc00100078000001be00e5fb07000004be000c
:1018ec006400470010007800cf80de00bdfb0700cd
:1018fc000001be000800be00ddfb07000200200056
:10190c0003042400bffc0700760147000089be00d9
:10191c0000002000011f24007a0147000089be004e
:10192c0000002000011424007e0147000089be0045
:10193c007200470002002000832c240090009000cd
:10194c0010007800affc07000004be00fe0047004a
:10195c007a004700110178009101900090009000ee
:10196c0010007800b9fb07000001be000800be00a3
:10197c0083fd07007e014700920190001201780060
:10198c00bbfb07005bfb07000000780010808800a1
:10199c007600470002002000832c24009000900069
:1019ac001000780097fc07000004be00fe00470002
:1019bc007a0047001101780091019000900090008e
:1019cc0010007800a1fb07000001be000800be005b
:1019dc006bfd07007e014700920190001201780018
:1019ec00a3fb070043fb0700000078000080880081
:1019fc00008080006f004000cf80de0079fb070084
:101a0c0018c0b30002002000031f240037fb07009e
:101a1c000000e00001003c000044eb000804e00082
:101a2c0002003200040ea80001003700040ea900c9
:101a3c004f04be000080fa00000006000400fa000b
:101a4c00881f7800008fbe0018c0b3000200200071
:101a5c00031f24001e0078009e00900021fb07004d
:101a6c000000e000010035000044eb000804e00039
:101a7c000200320010002000010037000000eb00d3
:101a8c004f0478000080fa00000006000400fa0001
:101a9c00881f7800008fbe0018c0b3000200200021
:101aac00c32024001e0078009e0090000dfb070050
:101abc000000e000010035000044eb000804e000e9
:101acc000200320010002000010037000000eb0083
:101adc004f0478000080fa00000006000200fa00b3
:101aec000040eb00004f7800708180008181800005
:101afc00d2ff07000000e000010032001e44a000ed
:101b0c0090818000a1818000ccff07000000e000e4
:101b1c00010032001e34a000b0818000c181800021
:101b2c00c6ff07000000e000010032001e24a000e8
:101b3c00d0818000e1818000c0ff07000000e00040
:101b4c00010032001e14a000f08180000182800090
:101b5c00baff07000000e000010032001e04a000e4
:101b6c001e4078000080fa00000006000000fa0019
:101b7c0013ff070004d0bf000080fb00cf80de0005
:101b8c00f200200003002000820f5000838f5800c9
:101b9c008e003e00000601000f00370018003700d1
:101bac00210037002d0037002e0037003800370099
:101bbc00540037005f003700370037004200370011
:101bcc00430037004d0037005c0037006b003700d6
:101bdc006c0037007b0037001230ef001430ef0040
:101bec000041eb006000b8004704070012c0b300ce
:101bfc006000b8004404070010c0b30004f0b70044
:101c0c0092808000a3808000803e20000100200094
:101c1c00800f5100818f59006f00360020c0b30037
:101c2c0004f0b7006d00370010808000cf80de001c
:101c3c00ecfa07000041eb00330407000080800041
:101c4c00cf80de00e7fa070012c0b3002e040700b5
:101c5c0030c0b30004f0b700600037002601070065
:101c6c005e0037000041eb006000b800260407005e
:101c7c0000808000cf80de00dafa070012c0b300cb
:101c8c002104070050c0b30004f0b7005300370024
:101c9c0019010700510037000041eb006000b8004b
:101cac0019040700008080000080e800cf80de006f
:101cbc00ccfa070012c0b3001304070090c0b300a5
:101ccc0004f0b700450037000b0107004300370054
:101cdc0010808000cf80de00c2fa07000041eb00cc
:101cec000904070012c0b3006000b8000604070026
:101cfc00b0c0b30004f0b70038003700fe00070096
:101d0c0036003700108080000080e800cf80de00b5
:101d1c00b4fa07000041eb00fb03070012c0b3004c
:101d2c006000b800f803070070c0b30004f0b700ff
:101d3c002a003700f00007002800370010808000d0
:101d4c006f004000cf80de00a6fa07000041eb00d8
:101d5c00ed0307000180800010ff2f0001005000f0
:101d6c00cf80de009ffa070012c0b300e603070025
:101d7c00d0c0b30004f0b70018003700de00070035
:101d8c00160037001180800010ff2f00010050005a
:101d9c00cf80de0093fa07000041eb00da03070066
:101dac00008080006f004000cf80de008dfa0700bd
:101dbc0012c0b300d4030700f0c0b30004f0b700a6
:101dcc0006003700cc000700040037000470ef0059
:101ddc000000000001003700000000000080fa0045
:101dec00000006000600fa00881f780008050700ae
:101dfc000004e000bd0032000905070000050700e3
:101e0c0080007800640047000108780064004700f7
:101e1c0010007800100078008000eb0074fa0700c6
:101e2c00323323003305240055fc07000200200048
:101e3c000358240073fb0700008fbe0018c0b300ca
:101e4c006266260063ea23001e0078009e00900064
:101e5c0024fa07000000e000010035000044eb000c
:101e6c000804e000030032006066260061ea2300eb
:101e7c00008fbe001e0178009e0190000000200023
:101e8c00812024005ffb070002002000030a2400cd
:101e9c006efa070070818800818188006400470019
:101eac00100078000080e800100078008000eb0043
:101ebc004ffa0700323323003305240030fc0700af
:101ecc0002002000035824004efb0700008fbe00c8
:101edc0018c0b3006266260063ea23001e00780077
:101eec009e009000fff907000000e00001003500a3
:101efc000044eb000804e00003003200606626009a
:101f0c0061ea2300008fbe001e0178009e01900044
:101f1c0000002000812024003afb07000200200072
:101f2c00030a240049fa070090818800a1818800e7
:101f3c006400470010007800640040001000780036
:101f4c008000eb002afa070032332300330524000b
:101f5c000bfc0700020020000358240029fb07009b
:101f6c00008fbe0018c0b3006266260063ea23002f
:101f7c001e0078009e009000daf907000000e000d7
:101f8c00010035000044eb000804e00003003200bf
:101f9c006066260061ea2300008fbe001e017800f7
:101fac009e019000000020008120240015fb0700fa
:101fbc0002002000030a240024fa0700b0818800e4
:101fcc00c181880064004700100078006600400062
:101fdc00100078008000eb0005fa07003233230074
:101fec0033052400e6fb0700020020000358240000
:101ffc0004fb0700008fbe0018c0b3006266260009
:10200c0063ea23001e0078009e009000b5f90700db
:10201c000000e000010035000044eb000804e00083
:10202c00030032006066260061ea2300008fbe00c8
:10203c001e0178009e0190000000200081202400e9
:10204c00f0fa070002002000030a2400fff9070041
:10205c00d0818800e181880064004700100078007e
:10206c0068004000100078008000eb00e0f90700e9
:10207c003233230033052400c1fb0700020020008b
:10208c0003582400dffa0700008fbe0018c0b3000d
:10209c006266260063ea23001e0078009e00900012
:1020ac0090f907000000e000010035000044eb004f
:1020bc000804e000030032006066260061ea230099
:1020cc00008fbe001e0178009e01900000002000d1
:1020dc0081202400cbfa070002002000030a240010
:1020ec00daf90700f0818800018288004f0478003b
:1020fc000080fa00000006000000fa0077fe0700de
:10210c000080fb003080880030808000cf80de00b3
:10211c00f201200003002000820f5000838f580032
:10212c007e003e00000601001f0037002100370032
:10213c0023003700250037002700370079003700cf
:10214c00280037002a0037002c0037002e003700fb
:10215c0030003700320037003400370036003700cb
:10216c00380037003a0037003c0037003e0037009b
:10217c00400037004200370044003700460037006b
:10218c00480037004a0037004c0037004e0037003b
:10219c00500037005200370054003700560037000b
:1021ac00580037005a00370020c0b30008f0b700c1
:1021bc005d00370040c0b30008f0b7005a0037008c
:1021cc0040c0b30008f0b7005700370040c0b30060
:1021dc0008f0b70054003700c0c0b30008f0b700d7
:1021ec005100370040c0b30008f0b7004e00370074
:1021fc0040c0b30008f0b7004b003700a0c0b300dc
:10220c0008f0b70048003700a0c0b30008f0b700d2
:10221c0045003700a0c0b30008f0b70042003700fb
:10222c00a0c0b30008f0b7003f003700a0c0b30057
:10223c0008f0b7003c003700e0c0b30008f0b7006e
:10224c0039003700e0c0b30008f0b70036003700a3
:10225c00c0c0b30008f0b70033003700a0c0b30013
:10226c0008f0b7003000370020c0b30008f0b7000a
:10227c002d00370040c0b30008f0b7002a0037002b
:10228c00e0c0b30008f0b70027003700e0c0b3008f
:10229c0008f0b70024003700e0c0b30008f0b70026
:1022ac0021003700a0c0b30008f0b7001e003700b3
:1022bc00e0c0b30008f0b7001b003700a0c0b300ab
:1022cc0008f0b70018003700a0c0b30008f0b70042
:1022dc0015003700a0c0b30008f0b700120037009b
:1022ec00a0c0b30008f0b7000f003700a0c0b300c7
:1022fc0008f0b7000c003700e0c0b30008f0b700de
:10230c0009003700e0c0b30008f0b7000600370042
:10231c00e0c0b30008f0b700030037000000000075
:10232c00010037000000000008d0bf008080fb00d7
:10233c0004d0bf000080fb000000e900808f50003b
:10234c000200320008d0bf0004f0b7000080fa0091
:10235c00000006000000fa00881f78001f03070029
:10236c00b303070071000700650007008800070031
:10237c007a0107006403070090738000620060001c
:10238c000000e0005a00320092808000a3808000a0
:10239c0000a62e0001002000800f5100818f5900f3
:1023ac000c0036000041eb006000b800560207003c
:1023bc0012c0b3006000b800530207009073800095
:1023cc00620060000000e000020032001230ef00fa
:1023dc001430ef0090818000a181800018c0b30000
:1023ec0002002000031a2400c0f807000000e000df
:1023fc0001003c000044eb000804e0000200320045
:10240c0084aea8000100370084aea9007081800062
:10241c008181800018c0b30002002000031a240040
:10242c00b2f807000000e00001003c000044eb00a3
:10243c000804e0000200320084cea800010037003e
:10244c0084cea900b0818000c181800018c0b30087
:10245c0002002000031a2400a4f807000000e0008a
:10246c0001003c000044eb000804e00002003200d4
:10247c00848ea80001003700848ea900f0818000b2
:10248c000182800018c0b30002002000031a24004f
:10249c0096f807000000e00001003c000044eb004f
:1024ac000804e00002003200754ea800010037005d
:1024bc00754ea900d0818000e181800018c0b30066
:1024cc0002002000031a240088f807000000e00036
:1024dc0001003c000044eb000804e0000200320064
:1024ec00856ea800a8ff3700856ea900a6ff3700ef
:1024fc000000eb004f0478000080fa00000006009a
:10250c000000fa0005e1a9000421a9000068a90057
:10251c002068a80005e1a80000002000a1372400d5
:10252c00260007000080fa00000006000000fa00f8
:10253c0013e1a90011e1a9001061a8001021a90064
:10254c0081088000f0fc2f0000806000800888006b
:10255c000a21ef000621ef003039200070088800b6
:10256c0000702800600888002142800080ff2f0046
:10257c00008060000000a000204288000108a90033
:10258c002108a80011e1a8000080fa000000060054
:10259c000000fa001fe1a9001e21a9000368a90090
:1025ac002368a8001fe1a80000002000a147240018
:1025bc00760007000080fa00000006000400fa0014
:1025cc00881f7800008fbe0021088000f0fc2f00cf
:1025dc0000806000200888001e0178009e01900099
:1025ec00001c2e0041c6240086f9070018c0b30059
:1025fc0002f02f00f37724003cf807000000e00005
:10260c0001003c000044eb000804e00054003200e0
:10261c0021088000f0fc2f00008060000040a0002a
:10262c00200888001e0178009e019000001c2e00de
:10263c0041c6240073f90700020020000310240097
:10264c0070f9070018c0b30002f02f00f3772400d4
:10265c0026f807000000e00001003c000044eb00fd
:10266c000804e0003200320021088000f0fc2f004a
:10267c00008060000050a000200888001e01780037
:10268c009e019000001c2e0041c624005df907003d
:10269c0002002000032824005af9070018c0b300d8
:1026ac0002f02f00f377240010f807000000e00080
:1026bc0001003c000044eb000804e0001000320074
:1026cc002108800000032000010070002008880011
:1026dc001e0178009e019000001c2e0041c62400b3
:1026ec0048f90700020020000338240045f90700d0
:1026fc0000f8070000007800100888002000370060
:10270c001e0178009e019000001c2e0041c6240082
:10271c003cf90700020020000328240039f90700c7
:10272c00f4f7070000007800100888001400370048
:10273c001e0178009e019000001c2e0041c6240052
:10274c0030f9070002002000031024002df90700c7
:10275c00e8f7070000007800100888000800370030
:10276c001e0178009e019000001c2e0041c6240022
:10277c0024f90700dff70700000078001008880034
:10278c004f0478000080fa00000006000400fa00f4
:10279c00881f7800008fbe00f1088000f0fc2f002d
:1027ac0000806000f00888001e0178009e019000f7
:1027bc00001c2e0041c6240012f9070018c0b300fb
:1027cc0002f02f00f3772400c8f707000000e000a8
:1027dc0001003c000044eb000804e000540032000f
:1027ec00f1088000f0fc2f00008060000040a00089
:1027fc00f00888001e0178009e019000001c2e003d
:10280c0041c62400fff8070002002000031024003a
:10281c00fcf8070018c0b30002f02f00f377240077
:10282c00b2f707000000e00001003c000044eb00a0
:10283c000804e00032003200f1088000f0fc2f00a8
:10284c00008060000050a000f00888001e01780095
:10285c009e019000001c2e0041c62400e9f80700e0
:10286c000200200003282400e6f8070018c0b3007b
:10287c0002f02f00f37724009cf707000000e00023
:10288c0001003c000044eb000804e00010003200a2
:10289c00f10880000003200001007000f00888009f
:1028ac001e0178009e019000001c2e0041c62400e1
:1028bc00d4f807000200200003382400d1f80700e8
:1028cc008cf7070000007800d00888002000370043
:1028dc001e0178009e019000001c2e0041c62400b1
:1028ec00c8f807000200200003282400c5f80700e0
:1028fc0080f7070000007800d0088800140037002b
:10290c001e0178009e019000001c2e0041c6240080
:10291c00bcf807000200200003102400b9f80700df
:10292c0074f7070000007800d00888000800370012
:10293c001e0178009e019000001c2e0041c6240050
:10294c00b0f807006bf7070000007800d00888008b
:10295c004f0478000080fa00000006000000fa0026
:10296c001160800080ff2f000080600010608800e4
:10297c0000962000206088001161800000c02000bb
:10298c00010070001061880023cca80023eca80083
:10299c0030002000206188001162800000c02000ff
:1029ac00010070001062880043cca80043eca80022
:1029bc00300020002062880001eca8000080fa00a2
:1029cc00000006000000fa00889fbe0034818000e1
:1029dc0045818000508180006181800018c0b30067
:1029ec000001be000400be003ef707000000e0003e
:1029fc00010035000044eb000804e0000d0032003b
:102a0c00588180006981800034818000458180007c
:102a1c0050808000618080000001be000400be0078
:102a2c0093f707000801be000f01070030818800f2
:102a3c004181880034818000458180005081800074
:102a4c006181800018c0b3000001be000400be000c
:102a5c0026f707000000e00001003c000044eb00fa
:102a6c000804e0000d00320058818000698180006c
:102a7c00348180004581800050808000618080001e
:102a8c000001be000400be0070f707000801be0084
:102a9c00db00070030818800418188003081800094
:102aac004181800018c0b3006011b8000ff7070017
:102abc000000e00001003d000044eb000804e000d1
:102acc00140032003081800041818000020020001f
:102adc00031c24002af907000002be00708080004d
:102aec00818080000001be000400be0060f707007a
:102afc0021f707000000780070618800708080006a
:102b0c00818080001cf7070000007800306188008d
:102b1c0014003700708080008180800016f7070059
:102b2c000000780070618800308180004181800055
:102b3c0001f0a20002002000031c240010f9070081
:102b4c000002be0070808000818080000001be0009
:102b5c000400be0046f7070007f7070000007800e6
:102b6c00306188001481800025818000f080800015
:102b7c000181800018c0b3000001be000400be003b
:102b8c00d8f607000000e000010035000044eb001f
:102b9c000804e0000d003200f880800009818000fc
:102bac00148180002581800050808000618080002d
:102bbc000001be000400be002df707000801be0096
:102bcc00a9000700108188002181880014818000f1
:102bdc0025818000f08080000181800018c0b30046
:102bec000001be000400be00c0f607000000e000bb
:102bfc0001003c000044eb000804e0000d00320032
:102c0c00f88080000981800014818000258180007b
:102c1c0050808000618080000001be000400be0076
:102c2c000af707000801be00750007001081880034
:102c3c0021818800108180002181800018c0b300a0
:102c4c006011b800a9f607000000e00001003c008c
:102c5c000044eb000804e0001400320010818000f6
:102c6c002181800002002000031c2400c4f807000e
:102c7c000002be0070808000818080000001be00d8
:102c8c000400be00faf60700bbf60700000078004f
:102c9c00706288007080800081808000b6f607002a
:102cac0000007800306288001400370070808000cb
:102cbc0081808000b0f60700000078007062880008
:102ccc00108180002181800001f0a2000200200010
:102cdc00031c2400aaf807000002be0070808000cc
:102cec00818080000001be000400be00e0f60700f9
:102cfc00a1f6070000007800306288004f04be0087
:102d0c000080fa00000006000600fa00881f780018
:102d1c00008fbe0064004700024878001e00780057
:102d2c009e0090002000070018c0b3000200200095
:102d3c00832c24006df607000000e00001003c002d
:102d4c000044eb000804e00013003a006400470064
:102d5c00104078000000fb000000e000070032008b
:102d6c00e10f50000d003a001e0178009e0190000a
:102d7c00f280880003818800080037001e0078006c
:102d8c009e00900001f0a2005081880061818800b3
:102d9c000000000001003700000000004f04780024
:102dac000080fa00000006000400fa00881f78007a
:102dbc00008fbe0018c0b3006011b8001e00780070
:102dcc009e00900049f607000000e00001003d0065
:102ddc000044eb000804e000030032001e00780001
:102dec009e009000030037001e0078009e009000ab
:102dfc0001f0a2004f0478000080fa0000000600e9
:102e0c000800fa00881f7800008fbe00640047009d
:102e1c000288be0018c0b30064004700100178009f
:102e2c00900190001e0078009e0090002ff6070085
:102e3c000000e00001003c000044eb000804e0004e
:102e4c00030032001e0078009e0090000300370043
:102e5c006400470090009000100078004f04780048
:102e6c000080fa00000006000800fa00881f7800b5
:102e7c00008fbe00640047000288be0018c0b3007b
:102e8c006400470010017800900190001e0078004b
:102e9c009e00900013f607000000e00001003500d2
:102eac000044eb000804e000030032001e00780030
:102ebc009e009000030037006400470090009000d3
:102ecc00100078004f0478000080fa000000060023
:102edc000c00fa00881f7800008fbe0064004700c9
:102eec000288be00680047000488be0018c0b3000a
:102efc006800470010017800900190001e007800d7
:102f0c009e009000f9f507000000e00001003c0075
:102f1c000044eb000804e0000400320068004700a5
:102f2c00301f7800201778000f00370018c0b3004e
:102f3c006400470010017800900190001e0078009a
:102f4c009e009000e7f507000000e000010035004e
:102f5c000044eb000804e00003003200640047006a
:102f6c00301f7800201778001e0078009e0090001b
:102f7c004f0478000080fa00000006000400fa00fc
:102f8c00008fbe00b2fd2000930424001e007800c8
:102f9c009e0090001bf70700020020004333240022
:102fac00f7f707000080fa00000006000400fa00a2
:102fbc00008fbe00b2fd2000930424001e00780098
:102fcc009e009000eef7070002002000433324001f
:102fdc000cf707000080fa00000006000000fa0061
:102fec00413a800000fc2f00008060007001b300ab
:102ffc00403a8800313a800000e02f008080600069
:10300c008005200001007000303a8800213a8000d1
:10301c00f0f32f0000806000203a8800213a8000f5
:10302c0000fe2f00008060000000a000203a880005
:10303c001200200080072000a1092000337420001a
:10304c00804978008149780082497800103a8000e4
:10305c00000178000200a00060042000710520002f
:10306c0023742000804978008149780082497800d7
:10307c0000000000113a80000000270080806000f2
:10308c0000002100808f5000faff3a005927a80059
:10309c00c13a800080ff2f00008060000000a0007b
:1030ac00c03a8800d03a80007000b300d03a880053
:1030bc00c13a8000f0f12f0080806000000c2000ed
:1030cc0001007000c03a880059a7a80059e7a80071
:1030dc0000000000c13a8000000024000080600065
:1030ec000000e000fbff320000000000113a8000fd
:1030fc0000022000008060000000e000fbff3200b6
:10310c000080fa00000006000000fa0021e3a9008c
:10311c002143a80001198000f0cf2f00008060002f
:10312c00001988002043a90001198000000e20001e
:10313c00010070000019880011198000f0ff2100b7
:10314c0000806000101988002343a800111980002a
:10315c00f0cf2f000080600010198800111980003a
:10316c0030f82f00008060004001b3001019880077
:10317c002203a9002223a90025e3a900f0c0b30073
:10318c0024e3b70021198000f00f2e00808060002e
:10319c0000f0200001007000201988003303a90002
:1031ac001e0ea8001f0ea8001f2ea8001f4ea80060
:1031bc001f6ea8003003a8003103a8003123a8001b
:1031cc003143a8003163a8004119800000fe2f0094
:1031dc00008060004019880028e3a90001a8a9001c
:1031ec0021a8a80021e3a8000080fa000000060036
:1031fc000000fa002023a8000080fa00000006005e
:10320c000000fa00200421000080fa0000000600f3
:10321c000000fa0019d0bf000080fa000000060080
:10322c000000fa001970ef000080fa0000000600a0
:10323c000000fa000e2eef001e2eef003e2eef00c7
:10324c002e2eef004e2eef006e2eef0080cea9003a
:10325c0080aea900808ea900816ea900714ea900d4
:10326c00706ea900000ea900012ea90091eea90014
:10327c00014ea9000c000700020007000080fa00b4
:10328c00000006000000fa002174200062042000f7
:10329c0073052000824878008348780042c7a80054
:1032ac000080fa00000006000000fa0021742000e3
:1032bc00620420007305200082487800834878005f
:0c32cc0042c7a9000080fa0000000600c4
:020000040000fa
:1032d800001000000a00000080000000121000002a
:1032e80006000000800000001c10000026000000fe
:1032f800800000000a1000000800000082000000a2
:103308000000400040000000a04100004210000002
:103318000a000000800000001810000002000000f1
:10332800800000001a100000020000008000000069
:043338000000000091
:020000040000fa
:0200000401f009
:04000800cfffff0027
:020000040000fa
:0200000401f009
:04000c00f9ffff00f9
:020000040000fa
:0200000401f009
:040010005bffff0093
:020000040000fa
:0200000401f009
:040014007fffff006b
:020000040000fa
:0200000401f009
:04001800cfffff0017
:020000040000fa
:0200000401f009
:04001c00deffff0004
:020000040000fa
:0200000401f009
:04002000cfffff000f
:00000001FF
