:020000040000fa
:080000000002040000000000f2
:020000040000fa
:040008000a040000e6
:020000040000fa
:04000c000a040000e2
:020000040000fa
:040010000a040000de
:020000040000fa
:040014000a040000da
:020000040000fa
:040018000a040000d6
:020000040000fa
:04001c000a040000d2
:020000040000fa
:040020000a040000ce
:020000040000fa
:040024000a040000ca
:020000040000fa
:040028000a040000c6
:020000040000fa
:04002c000a040000c2
:020000040000fa
:040030000a040000be
:020000040000fa
:04003400fa020000cc
:020000040000fa
:040038000a040000b6
:020000040000fa
:04003c000a040000b2
:020000040000fa
:040040000a040000ae
:020000040000fa
:040044000a040000aa
:020000040000fa
:040048001c03000095
:020000040000fa
:04004c000a040000a2
:020000040000fa
:040050000a0400009e
:020000040000fa
:04005400c2030000e3
:020000040000fa
:04005800960300000b
:020000040000fa
:04005c00700300002d
:020000040000fa
:040060000a0400008e
:020000040000fa
:040064000a0400008a
:020000040000fa
:040068000a04000086
:020000040000fa
:04006c000a04000082
:020000040000fa
:040070000a0400007e
:020000040000fa
:040074000a0400007a
:020000040000fa
:040078000a04000076
:020000040000fa
:04007c000a04000072
:020000040000fa
:040080000a0400006e
:020000040000fa
:040084000a0400006a
:020000040000fa
:040088000a04000066
:020000040000fa
:04008c000a04000062
:020000040000fa
:040090000a0400005e
:020000040000fa
:04009400260300003f
:020000040000fa
:040098000a04000056
:020000040000fa
:04009c000a04000052
:020000040000fa
:0400a0000a0400004e
:020000040000fa
:0400a4000a0400004a
:020000040000fa
:0400a8000a04000046
:020000040000fa
:0400ac000a04000042
:020000040000fa
:0400b0000a0400003e
:020000040000fa
:0400b4000a0400003a
:020000040000fa
:0400b8000a04000036
:020000040000fa
:0400bc000a04000032
:020000040000fa
:0400c0000a0400002e
:020000040000fa
:0400c4000a0400002a
:020000040000fa
:0400c8000a04000026
:020000040000fa
:0400cc000a04000022
:020000040000fa
:0400d0000a0400001e
:020000040000fa
:0400d4000a0400001a
:020000040000fa
:0400d8000a04000016
:020000040000fa
:0400dc000a04000012
:020000040000fa
:0400e0000a0400000e
:020000040000fa
:0400e4000a0400000a
:020000040000fa
:0400e8000a04000006
:020000040000fa
:0400ec000a04000002
:020000040000fa
:0400f0000a040000fe
:020000040000fa
:0400f4000a040000fa
:020000040000fa
:0400f8000a040000f6
:020000040000fa
:0400fc000a040000f2
:020000040000fa
:040100000a040000ed
:020000040000fa
:040104000a040000e9
:020000040000fa
:040108000a040000e5
:020000040000fa
:04010c000a040000e1
:020000040000fa
:040110000a040000dd
:020000040000fa
:040114000a040000d9
:020000040000fa
:040118000a040000d5
:020000040000fa
:04011c000a040000d1
:020000040000fa
:040120000a040000cd
:020000040000fa
:040124000a040000c9
:020000040000fa
:040128000a040000c5
:020000040000fa
:04012c000a040000c1
:020000040000fa
:040130000a040000bd
:020000040000fa
:040134000a040000b9
:020000040000fa
:040138000a040000b5
:020000040000fa
:04013c000a040000b1
:020000040000fa
:040140000a040000ad
:020000040000fa
:040144000a040000a9
:020000040000fa
:040148000a040000a5
:020000040000fa
:04014c000a040000a1
:020000040000fa
:040150000a0400009d
:020000040000fa
:040154000a04000099
:020000040000fa
:040158000a04000095
:020000040000fa
:04015c000a04000091
:020000040000fa
:040160000a0400008d
:020000040000fa
:040164000a04000089
:020000040000fa
:040168000a04000085
:020000040000fa
:04016c000a04000081
:020000040000fa
:040170000a0400007d
:020000040000fa
:040174000a04000079
:020000040000fa
:040178000a04000075
:020000040000fa
:04017c000a04000071
:020000040000fa
:040180000a0400006d
:020000040000fa
:040184000a04000069
:020000040000fa
:040188000a04000065
:020000040000fa
:04018c000a04000061
:020000040000fa
:040190000a0400005d
:020000040000fa
:040194000a04000059
:020000040000fa
:040198000a04000055
:020000040000fa
:04019c000a04000051
:020000040000fa
:0401a0000a0400004d
:020000040000fa
:0401a4000a04000049
:020000040000fa
:0401a8000a04000045
:020000040000fa
:0401ac000a04000041
:020000040000fa
:0401b0000a0400003d
:020000040000fa
:0401b4000a04000039
:020000040000fa
:0401b8000a04000035
:020000040000fa
:0401bc000a04000031
:020000040000fa
:0401c0000a0400002d
:020000040000fa
:0401c4000a04000029
:020000040000fa
:0401c8000a04000025
:020000040000fa
:0401cc000a04000021
:020000040000fa
:0401d0000a0400001d
:020000040000fa
:0401d4000a04000019
:020000040000fa
:0401d8000a04000015
:020000040000fa
:0401dc000a04000011
:020000040000fa
:0401e0000a0400000d
:020000040000fa
:0401e4000a04000009
:020000040000fa
:0401e8000a04000005
:020000040000fa
:0401ec000a04000001
:020000040000fa
:0401f0000a040000fd
:020000040000fa
:0401f4000a040000f9
:020000040000fa
:0401f8000a040000f5
:020000040000fa
:0401fc000a040000f1
:020000040000fa
:040200000a040000ec
:020000040000fa
:040204000a040000e8
:020000040000fa
:040208000a040000e4
:020000040000fa
:04020c000a040000e0
:020000040000fa
:040210000a040000dc
:020000040000fa
:040214000a040000d8
:020000040000fa
:040218000a040000d4
:020000040000fa
:04021c000a040000d0
:020000040000fa
:040220000a040000cc
:020000040000fa
:040224000a040000c8
:020000040000fa
:040228000a040000c4
:020000040000fa
:04022c000a040000c0
:020000040000fa
:040230000a040000bc
:020000040000fa
:040234000a040000b8
:020000040000fa
:040238000a040000b4
:020000040000fa
:04023c000a040000b0
:020000040000fa
:040240000a040000ac
:020000040000fa
:040244000a040000a8
:020000040000fa
:040248000a040000a4
:020000040000fa
:04024c000a040000a0
:020000040000fa
:040250000a0400009c
:020000040000fa
:040254000a04000098
:020000040000fa
:040258000a04000094
:020000040000fa
:04025c000a04000090
:020000040000fa
:040260000a0400008c
:020000040000fa
:040264000a04000088
:020000040000fa
:100400002f1f21000eff27000e01880000000000b2
:10041000000020000000e000020032000001200087
:100420002002880014000700fc0007000000e00024
:1004300003003a00201022000100200002003700d3
:100440000000200001002000810f70000100320038
:100450000f000700000020000000e0000200320052
:1004600000000200000000009813020000000000dd
:100470000040da000000fe00200020000000e00044
:1004800002003200100020009001880000000600e9
:10049000a1028800800478000000eb001f003700f4
:1004a000e284440054a0b4009905ba00e2844400f8
:1004b00054a0b4009906ba00e284440054a0b400e9
:1004c0000006eb00476fde00fd07b200ae018800ba
:1004d000636ce10003003a000ad801000000eb0061
:1004e0000e003700606ce10008003a00004deb00a0
:1004f0000a05e800020039003420ec000af0a000f0
:100500008b05e900f9ff3e00040037006168e10057
:10051000010032000086eb000b00070019c7ba008b
:100520000e04e0001905ba0003003a000a00e000da
:10053000dbff3a0000000600fe07b200ae028800b2
:100540008a047800f5ff37000cd0a300e20f4d00bd
:100550001c003b0089027800354dba000a05e8000e
:10056000020039003420ec000af0a0008b05e900fd
:100570000f003200254dba000a05e80002003900dc
:100580003420ec000af0a0008b05e90008003200de
:100590000c00e0000600320015cdba000a05e800a4
:1005a000020039003420ec000af0a0008b05e900bd
:1005b0008984e80054a0b4000b00e000e2ff3a0098
:1005c000000006009902ba00055d78008b05e9007d
:1005d000f7ff3200c82ade00055d78008b05e900d0
:1005e000f3ff32000c00e000f1ff320019ddba0029
:1005f000eeff37003600f800809fbe00829fbe00ed
:10060000849fbe00869fbe000000fa000068a9001b
:10061000e50d07005c0a0700000000000080fa00fa
:100620004f03be004f02be004f01be004f00be0090
:100630003600f900004006000000fa000108a90099
:10064000000000000080fa00004006003600f800bc
:10065000809fbe00829fbe00849fbe00869fbe001a
:100660000000fa000368a900728080008380800087
:10067000100020000100200002004000838048009c
:100680007080880081808800a18080000100e800df
:10069000a0808800703e2000808f5000030034004e
:1006a0001430ef0010c0b30016f0b700f08e8000d9
:1006b0000000e00001003200a70507005206070015
:1006c000000000000080fa004f03be004f02be0091
:1006d0004f01be004f00be003600f900004006008a
:1006e000801f78000000fa0001a8a900001880000f
:1006f000008f880010188000108f8800201880005c
:10070000208f880030188000308f880040188000cb
:10071000408f880010c0b30035f0b7000000000023
:100720000080fa004f007800004006003600f80014
:10073000809fbe00829fbe00849fbe00869fbe0039
:100740000000fa000188a9006181800050818000ca
:10075000808f500002003200310d07000100370089
:100760002e70ef00000000000080fa004f03be0072
:100770004f02be004f01be004f00be003600f90020
:10078000004006003600f800809fbe00829fbe0039
:10079000849fbe00869fbe000000fa000168a90089
:1007a000101180004200de0061406000e14f500007
:1007b00001003a002242a900101180000000d1007f
:1007c00061406000e14f500005003a002222a9007c
:1007d000030037003011800000407800d10d070081
:1007e000101180000040780061406000e14f50002f
:1007f000f8ff3200000000000080fa004f03be0046
:100800004f02be004f01be004f00be003600f9008f
:10081000004006000040da000000fe000000050075
:1008200014002000ad033700f4ff2f00ab033700a6
:100830000001be003f0007000470a70003f0a10004
:100840006509b100160032000d0035006828e1008e
:1008500006003500f0ff2f00f1ff27000300e00045
:1008600013003b00010028000000050000004000cc
:10087000818048008502e900fcff3a00080037004b
:10088000f88f420002003c008000eb0000000500f1
:100890008100d1000080d3008502e800fcff3a000f
:1008a0000300e00002003b0060001000e080180040
:1008b000000006000001be001e0007000470a70033
:1008c00003f0a10003f8a30013003a006509b1008a
:1008d00010003200090035006928e10002003500ef
:1008e0000100280000000500000040008180480051
:1008f0008502e900fcff3a0000000600f88f420084
:10090000050035008100d1000080d3008502e80099
:10091000fcff3a00000006008000eb00000005002c
:100920004f89de0082017800870337006011b8002c
:1009300095033700c70ade00f107b200f50fb200d9
:1009400008003200e1cf4200020032000170a00036
:1009500024000500810f700001003200040805002a
:1009600044000500810f700002003a0014000500e9
:100970008502e9000000400081c04800fcff3b0008
:100980000170a0002400050007f82700078361001c
:100990000638e10004003a00f70720008783610071
:1009a0008703710001003a0003f0a200889fbe0097
:1009b0008a9fbe008c9fbe00470ade000480a10013
:1009c000c71ade000580a100070028000785600027
:1009d00087856100f70f20000720e1009e003200ac
:1009e0000728e1009c003200010678000400e000c6
:1009f000b4003200f7072000878060000170a0007b
:100a00000500e000c0003200f70720008781610088
:100a10000370a000050652000f003a000b50e100e1
:100a20000b0032000308e10002003a000200e1007e
:100a30007e0032000204500083845800040031001c
:100a40000001fd008101fd008402fd008a05fd001a
:100a50006044b800210037000520e10005003d009a
:100a60000001fd008101fd008402fd008a05fd00fa
:100a7000050652007a60e100050035000170a10012
:100a80004722dd00848070008a8070006300370098
:100a90006044b800ef02660007ff2f0007066600fb
:100aa0000500e00006003400f08312008714dd002a
:100ab0000511de00071bdd00060171008519de004f
:100ac0007060e100050035000904780082047800b8
:100ad000030178008001eb00700656000b50e10026
:100ae00003003a0002004000838048000400370001
:100af00060041400e0841c00020058008380580049
:100b00000188a300060032008100d1000080d300dc
:100b10008984d3000884d3000402e800270037004a
:100b20000178a30025003a000100e0000300320034
:100b30008186cf00698656000a0037008c002000ad
:100b40000000e00004003a00090078008804780002
:100b50000004eb00700252008086cf000d064600b4
:100b60000c06e9007060e1000600350080007800a6
:100b700009007800880478000004eb007006560035
:100b8000700252000c00e0000c0034008c08dd0004
:100b9000f00316000703de00868070000c00dd0005
:100ba000074bde00060070008c4cdd000743de00c2
:100bb000868474000c44dd000c0252006120e100c8
:100bc0002000350061016000070028008781640073
:100bd000f7ff270087836400070374000300e00029
:100be0000600320082037300040032000000e800b7
:100bf000e08048000188a3000e003a00f70f2000b3
:100c00000720e1004a003d000170a1004722dd00fd
:100c1000810072008a8070000000be004f06be0096
:100c20004f05be004f04be00000006006000b80083
:100c3000faff37008100d1000080d3000402e800f1
:100c4000eeff37000401780089017400a10107005c
:100c50008a807000f1ff3700f70107000702780073
:100c60000001fd008101fd00f3010700870278000b
:100c7000850372000778a300040032000001fd0024
:100c80008101fd0006020700e4ff370085036200d2
:100c90000768a300080032000b50e1000300320097
:100ca000f0ff2f00f1ff2700dcff37000001fd00ff
:100cb0008101fd00d9ff37000468a300d7ff32008f
:100cc000faff3700f8ff2700888360000b003a0026
:100cd0000000e00009003a0083036400828373008f
:100ce000020032000200be00ccff37000b50e100d2
:100cf000ceff3a000200be00c8ff370014002000fb
:100d0000810064003eff3700f8ff27008883610000
:100d100004003a000200e00002003a008c00780073
:100d2000beff3700150020008301640039ff370043
:100d300001f827000000200081007500b7ff370090
:100d4000889fbe008a9fbe008c9fbe001b002000b3
:100d50000202be000586680006002800060666003e
:100d60004709de00f20fb200820032000243e800c1
:100d700080003200c729de00f30fb2007d00320090
:100d80000343e8007b003200f107b2000170a000cd
:100d9000f507b2000570a000c708dd004903de00ba
:100da000868070004700dd00c72add004923de0091
:100db000868272004722dd000305510004035000c3
:100dc0008583580003003100000040008180480006
:100dd0000a05e9008c1f78008a9fbe0004005000bd
:100de000858058000402420085824a0000004000cd
:100df000818048000005eb000004be006033b800ad
:100e00000406be000d48e100560031001100090043
:100e10004dccd8000c01b8000d02b800848141000f
:100e200060824a008283530003045c0084845c0077
:100e300060055d000a00e00025003a0080057800aa
:100e40000d40e1004900310088007800070078007b
:100e5000110009004d88d8000c01b8000d02b8003f
:100e60008481410060824a006003110083835b003b
:100e700004045c00e0845c000900e00021003a000a
:100e80004f01be000300e0002b003200e3016000d0
:100e9000070673008c81710001003200640070004d
:100ea0004200de004e5edd000c007000c258de0025
:100eb00001e0a00083010700cf017800818071006c
:100ec0004f06be004f05be004f04be0000000600e6
:100ed0008c8343000d044c00e0844c0060054d0001
:100ee0000000e9000a00e000d4ff32008c834300d8
:100ef0000d044c00e0844c0060054d000000e9004a
:100f0000ceff37000c0343008d834b0060044c0080
:100f1000e0844c000000e9000900e000d8ff320046
:100f20000c0343008d834b0060044c00e0844c00b4
:100f30000000e900d2ff37004200de004e5edd0017
:100f40000c007000c258de0001e0a000cf01780064
:100f50000300e000daff320060001000e0801800bb
:100f6000d7ff3700f0ff2f00aaff3700f0ff2f0058
:100f7000b9ff37000404be002f0107008706780080
:100f80000004fd008104fd002b01070007836600bb
:100f90000678a300030032000960a7000800be0025
:100fa0002c0037000d78a300020032000800be00bc
:100fb000280037000778a30026003a0001f0a100be
:100fc00009f0a1000668a30003003200f1ff27002a
:100fd000f0ff2f00baff37000d68a30003003200b6
:100fe0000800be008c807000b5ff37000768a300c2
:100ff00007003a000648a30003003200f1ff270073
:10100000f0ff2f00aeff37000d48a30003003200b1
:101010006000b8008c807000a9ff37000748a3006b
:101020000400320001f82700000020008c807000ce
:10103000a3ff3700760107000004fd008104fd00d6
:1010400002057800720107000802be008a017800dc
:1010500059ff37000160a00012022000b281880011
:1010600097ff37000100e000120032000500e000a9
:1010700010003200889fbe008a9fbe008c9fbe0079
:101080000006eb0001f8a30003003200600010002e
:10109000e08018000cf0a00005f8a3000300320067
:1010a00060021200e0821a000cf0a2008005eb0042
:1010b00041ff37006000b8000200050003836800ac
:1010c0000700280007036300470ade000480a10030
:1010d000c71ade000580a100f70f20000720e100fd
:1010e000420032000728e10040003200889fbe0025
:1010f0008a9fbe008c1f7800f107b200f307b20090
:101100000400e000640032000170a0000500e0006f
:10111000680032000370a00085054200eb07b100b3
:101120000204b8000302b8008484440060854a00c9
:10113000020ab800848444000a854a00030ab80001
:1011400004054500040033000804d0008984d2005f
:101150000a85d2008b05e9006158e1003d003500a9
:10116000021020000901610003082000898161004c
:10117000f70720008783640008867300c84cde00f0
:10118000c853dd00878474004855de000300e0008a
:101190000600320082037600040032008904e80071
:1011a00060054d000a88a3000c003a00f70f2000ec
:1011b0000758e10044003d000a70a100c75ddd0052
:1011c0000a8575008a007300090078004f067800d0
:1011d0004f05be004f04be00000006000a05d10006
:1011e0008984d3008b05e800f0ff3700881f780062
:1011f0000604780090000700070278000001fd0057
:101200008101fd008c0007008702780085037200d1
:101210000778a300050032000001fd008101fd00f8
:101220009f0007004f04780000000600850372004d
:101230000748a30003003200f0ff2f00f1ff270052
:10124000f8ff37000000200001f8270088807000b8
:10125000f4ff3700880178004848dd008081710084
:101260004848de00c850dd0001007000c850de00b4
:10127000060478000b0178001600070088807000d3
:10128000d2ff37000500e000050032001700200003
:101290003a0007009dff370081037000f9ff3a0014
:1012a000860078004f0678004f05be004f04be0050
:1012b0000000050083037100f9ff320027002000c1
:1012c0002e00070094ff370001f827008680700089
:1012d000f4ff37000100e000260032006101110038
:1012e0007810e10023003c006022b8007010e1009b
:1012f0000400350080027800010078008000eb00d7
:10130000700151000200e000090034007003110078
:10131000062add00822ade008603dd008782720055
:101320000200de00860bdd00070070008208de0090
:1013300084817100f4ff27000482620084817100bf
:1013400004002800848262006102600005f0a600ab
:101350000000060004827100070032000000e8006f
:10136000e0804800000006000002be006000b800f7
:10137000efff37006000b80000000600889fbe0045
:101380000004eb006138e10016003a000100e000c3
:1013900008003a00c800de004800dd008800200098
:1013a0000100e00003003a00c800de004800dd0054
:1013b000680444008184cf00e984540006003400ae
:1013c0008908dd00f08314008703de008780700049
:1013d0000900dd0009044400610214004f04be004e
:1013e000000006000300e00008003a00c811de001b
:1013f0004811dd00880020000300e00003003a00ef
:10140000c811de004811dd00680444008384cf0069
:10141000e9845400060034008919dd00f0831400cb
:101420008713de00878171000911dd000904440083
:10143000e1021400e9ff37002700200001f0a700b7
:1014400017002000470bde00f60fb2000400320048
:101450000643e8000a0032004702b300000006001d
:1014600001037800f607b2000603700002003a009c
:101470000703b300000006008702b3000000060067
:1014800001037800f607b200060370000200320084
:101490000770a000000006000760a0000000060022
:1014a0000478a300040032000578a3000300320092
:1014b0000168a30001003a000200be000160a00024
:1014c0000000060081017000270032008002eb005e
:1014d00001f8a3000300320060001000e080180053
:1014e00015002000f4072000020242002000340012
:1014f000f703200087036000060420000003630058
:1015000002082000000161004700de00c909dd007b
:1015100000807100c708de000600e000080032000d
:1015200087037100060032001000b0000180b00097
:101530000188a30002003200c108de000402e800b6
:10154000f107b200f30f20000320e10003003d008b
:101550004722dd00810072002900370001f82700d2
:101560000000eb00260037006000b8000000060015
:10157000680212007f20e100020034006000b80021
:101580001f0037006011b8007020e1000400350032
:1015900080017800010078008000eb0070025200aa
:1015a0000400e00009003400f00312000719dd0018
:1015b0008419de000703dd00868171000400de006f
:1015c000070bdd00060070008408de00f7ff27002f
:1015d0008383630087037100060028000303630010
:1015e000070032000700e00003003a0061016000dc
:1015f00002817300020032001000b0000180b000d0
:101600000500a6000000060001f0a0000000060092
:101610004f0ade004709de00f107b200f20fb20008
:101620000b003200f207b1000170a000c708dd0016
:10163000c901de00838070004700dd000400a600c1
:101640000000060060001000e080180000000600a6
:10165000810f700001003a00000006008182cf0077
:101660000500e00010003e008082cf00ee824200c4
:101670007028e1000400390007003e008000780077
:101680000000eb000e003700708312008600de00c1
:101690000500dd000a003700708352008600dd007f
:1016a0000000eb0006003700e28252008508dd00f2
:1016b000708312000603de00868070000500dd00e6
:1016c0007507b0000501ea000400a600000006004e
:1016d00060001000e080180000000600889fbe0037
:1016e0008a9fbe00841f78007c0007004f007800ae
:1016f00011003300f0ff2f00838f6c0006003b00c9
:10170000040565000a00a7000800370009f0a600dc
:101710001000200008003700820f5400838f5c0007
:10172000030039001000200001003e0000002000ee
:1017300009f0a7000000ea004f05be004f04be00fc
:101740000000e00000000600881f78000304780015
:101750000300e00007003d0060001000e08018007a
:1017600060011900e081190002003b0001f02d002a
:10177000030037000400070008f0a70001f0a000f4
:101780004f04780000000600889fbe008a9fbe00bc
:101790000082700004027100048271002600320091
:1017a0000004be000200be006011b8006b092000fa
:1017b000950220000182cf000a0039000541b100e6
:1017c0000082cf00070039000541b1000982cf0037
:1017d000040039000541b1000882cf000100390042
:1017e0000541b10005425200120032000a003b00e0
:1017f00082817100610164008100d1000080d3000a
:101800008984d3000884d3008b05e8000442e800f3
:10181000f7ff3a00070037000804440089844c00b1
:1018200000004800818048008b05e9000442e9007f
:10183000f9ff3a00030007004f05be004f04be0049
:101840000000060081002000618055000b003d0073
:101850000b00200061fe2f000100e1001d0034009c
:1018600082817100610164008904d1000884d30081
:101870000000e800faff3a007100200061006400f7
:10188000030070000200600009003200610444009f
:10189000e0844c000988a500050032008b05e800b3
:1018a0006808e10002003a008904d1000884d300ee
:1018b000f20f20000258e10005003d00c75ddd0089
:1018c000f907b20089807500080078000000060062
:1018d0000bf827008b007800000005000004be0014
:1018e00014fc07000003be000405be000200be0099
:0c18f00010fc0700844f7500000006008b
:020000040000fa
:1018fc002200fa00889fbe00708e8000818e8000ce
:10190c00c8fb0700000f7800508e8000618e8000ad
:10191c00c4fb070010079800908e8000a18e8000f9
:10192c00c0fb070020079800b08e8000c18e80009d
:10193c00bcfb070030079800d08e8000e18e800041
:10194c00b8fb0700400798000e80e8009e00780066
:10195c00108040006100b900eefb0700020020007f
:10196c0003002400f3fc070050079800610798005f
:10197c00e6004700680047001101780010004100a4
:10198c006100b900e3fb0700020020000300240003
:10199c00e8fc070070079800010f98005e009000ab
:1019ac00ee0090000001be00fdfb07000001780076
:1019bc000100780082047800000478002e0090006a
:1019cc006100b900d3fb07000001be0009007800dc
:1019dc00880078000000be00f1fb070000017800d1
:1019ec0001007800820278000002780002002000da
:1019fc000304240005007800840078000000be0079
:101a0c00ccfc0700100f9800210f98007e0090006e
:101a1c008e0890000001be00e1fb07000001780079
:101a2c000100780082047800000478002e009000f9
:101a3c006100b900b7fb07000001be000900780087
:101a4c00880078000000be00d5fb0700000178007c
:101a5c000100780082027800000278000200200069
:101a6c000304240005007800840078000000be0008
:101a7c00b0fc0700300f9800410f980000002000c8
:101a8c00811b2400500f9800610f9800000020006b
:101a9c0001142400700f9800011798000200200018
:101aac00832c24001e089000ae089000a1fc0700b7
:101abc0000017800010078008204780000047800ae
:101acc007e0990008e1190005e089000ee08900048
:101adc00aafb070000017800010078008201780061
:101aec000001780003007800820078000001be003d
:101afc0009007800880078000000be006cfd07002b
:101b0c000001780001007800820278000002780061
:101b1c007e0990008e1190000500780084007800fa
:101b2c000000be009efb0700000178000100780059
:101b3c0082017800000178000300780082007800b0
:101b4c000000be0037fb0700108088000200200058
:101b5c00832c24003e089000ce08900075fc0700f2
:101b6c0000017800010078008204780000047800fd
:101b7c007e0990008e1190005e089000ee08900097
:101b8c007efb0700000178000100780082017800dc
:101b9c000001780003007800820078000001be008c
:101bac0009007800880078000000be0040fd0700a6
:101bbc0000017800010078008202780000027800b1
:101bcc007e0990008e11900005007800840078004a
:101bdc000000be0072fb07000001780001007800d5
:101bec008201780000017800030078008200780000
:101bfc000000be000bfb0700008088000080800006
:101c0c00f70f500002003400040ea800010037004a
:101c1c00040ea900000000004f04be000080fa0072
:101c2c00000006000400fa00008fbe000200200035
:101c3c00031f24001e0078009e009000f5fa070098
:101c4c000000e00002003d00100020000100370001
:101c5c000000eb000080fa00000006000400fa000f
:101c6c00008fbe0002002000031f24001e0078001d
:101c7c009e009000e7fa07000000e00002003d0023
:101c8c0010002000010037000000eb000080fa007b
:101c9c00000006000200fa000040eb00004f780044
:101cac00508e8000618e8000deff07000000e00097
:101cbc00030032001e4078000044a000004f780062
:101ccc00708e8000818e8000d6ff07000000e0003f
:101cdc00030032001e4078000034a000004f780052
:101cec00908e8000a18e8000ceff07000000e000e7
:101cfc00030032001e4078000024a000004f780042
:101d0c00b08e8000c18e8000c6ff07000000e0008e
:101d1c00030032001e4078000014a000004f780031
:101d2c00d08e8000e18e8000beff07000000e00036
:101d3c00030032001e4078000004a000004f780021
:101d4c001e4078000080fa00000006000000fa0037
:101d5c00e7fe070008d0bf000080fb006100b9005f
:101d6c00f200200003002000820f5000838f5800e7
:101d7c009c003e00000601000f00370018003700e1
:101d8c00210037003d0037003e0037004800370087
:101d9c00630037006d0037004700370051003700f3
:101dac00520037005c0037006a00370079003700ba
:101dbc007a003700890037000e30ef001030ef004a
:101dcc000041eb006000b8006a05070012c0b300c8
:101ddc006000b8006705070010c0b30008f0b7003a
:101dec007280800083808000803e200001002000f3
:101dfc00800f5100818f59007c00360020c0b30049
:101e0c0008f0b70079003700908e8000a18e80001a
:101e1c0002002000032a240080fa07000000e000e2
:101e2c0005003400900120003080880090012000d3
:101e3c002080880004003700f000200030808800eb
:101e4c00f000200020808800008080006100b90034
:101e5c00b0fa07000041eb00460507001080800037
:101e6c006100b900abfa070012c0b30041050700ce
:101e7c0030c0b30008f0b7005d0037008c010700dc
:101e8c005b0037000041eb006000b800390507002b
:101e9c00008080006100b9009efa070012c0b300f8
:101eac003405070050c0b30008f0b70050003700ed
:101ebc007f0107004e0037000041eb006000b800c6
:101ecc002c050700008080006100b90091fa070022
:101edc0012c0b3002705070090c0b30008f0b7008c
:101eec00430037007201070041003700108080006a
:101efc006100b90087fa07000041eb001d050700df
:101f0c0012c0b3006000b8001a050700b0c0b300df
:101f1c0008f0b700360037006501070034003700c1
:101f2c00108080006100b9007afa07000041eb00d4
:101f3c001005070012c0b3006000b8000d050700c3
:101f4c0070c0b30008f0b700290037005801070033
:101f5c0027003700108080006f0040006100b9003e
:101f6c006cfa07000041eb000205070001808000bd
:101f7c0010ff2f00010050006100b90065fa070046
:101f8c0012c0b300fb040700d0c0b30008f0b700c8
:101f9c00170037004601070015003700118080003c
:101fac0010ff2f00010050006100b90059fa070022
:101fbc000041eb00ef040700008080006f00400040
:101fcc006100b90053fa070012c0b300e90407001e
:101fdc00f0c0b30008f0b70005003700340107006b
:101fec00030037000870ef0001003700000000000c
:101ffc00000000000080fa00000006000600fa0055
:10200c006f0707000004e00026013200700707008c
:10201c0067070700200798002e009000100078003a
:10202c008000eb003efa0700323323003305240016
:10203c001ffc070000017800010078008202780084
:10204c0000027800020020000358240005007800ec
:10205c00840078000000be0036fb0700008fbe0035
:10206c006266260063ea23001e0078009e00900042
:10207c00e8f907000000e00003003d006066260060
:10208c0061ea2300008fbe001e0178009e019000c3
:10209c00000020008120240026fb070000017800ae
:1020ac000100780082027800000278000200200013
:1020bc00030a240005007800840078000000be00ac
:1020cc002efa0700800178000101780003007800e7
:1020dc00820078000000be00508e8800618e88005f
:1020ec00640047001080e800100078008000eb00ce
:1020fc000bfa07003233230033052400ecfb0700f6
:10210c00000178000100780082027800000278005b
:10211c000200200003582400050078008400780099
:10212c000000be0003fb0700008fbe0062662600a5
:10213c0063ea23001e0078009e009000b5f90700aa
:10214c000000e00003003d006066260061ea230009
:10215c00008fbe001e0178009e0190000000200040
:10216c0081202400f3fa07000001780001007800b8
:10217c00820278000002780002002000030a24008a
:10218c0005007800840078000000be00fbf9070011
:10219c00800178000101780003007800820078004b
:1021ac000000be00708e8800818e8800640047009d
:1021bc004100200010804000100078008000eb00ef
:1021cc00d7f907003233230033052400b8fb07008e
:1021dc00000178000100780082027800000278008b
:1021ec0002002000035824000500780084007800c9
:1021fc000000be00cffa0700008fbe00626626000a
:10220c0063ea23001e0078009e00900081f907000d
:10221c000000e00003003d006066260061ea230038
:10222c00008fbe001e0178009e019000000020006f
:10223c0081202400bffa070000017800010078001b
:10224c00820278000002780002002000030a2400b9
:10225c0005007800840078000000be00c7f9070074
:10226c00800178000101780003007800820078007a
:10227c000000be00908e8800a18e8800640047008c
:10228c006100200010804000100078008000eb00fe
:10229c00a3f90700323323003305240084fb070025
:1022ac0000017800010078008202780000027800ba
:1022bc0002002000035824000500780084007800f8
:1022cc000000be009bfa0700008fbe00626626006d
:1022dc0063ea23001e0078009e0090004df9070071
:1022ec000000e00003003d006066260061ea230068
:1022fc00008fbe001e0178009e019000000020009f
:10230c00812024008bfa070000017800010078007e
:10231c00820278000002780002002000030a2400e8
:10232c0005007800840078000000be0093f90700d7
:10233c0080017800010178000300780082007800a9
:10234c000000be00b08e8800c18e8800640047007b
:10235c008100200010804000100078008000eb000d
:10236c006ff90700323323003305240050fb0700bc
:10237c0000017800010078008202780000027800e9
:10238c000200200003582400050078008400780027
:10239c000000be0067fa0700008fbe0062662600d0
:1023ac0063ea23001e0078009e00900019f90700d4
:1023bc000000e00003003d006066260061ea230097
:1023cc00008fbe001e0178009e01900000002000ce
:1023dc008120240057fa07000001780001007800e2
:1023ec00820278000002780002002000030a240018
:1023fc0005007800840078000000be005ff907003b
:10240c0080017800010178000300780082007800d8
:10241c000000be00d08e8800e18e8800508e8000b7
:10242c00618e800020f9070080407800a01e2100fa
:10243c0001487800708e8000818e80001af90700a8
:10244c0080407800a01e210011409800908e8000e2
:10245c00a18e800014f9070080407800a01e210096
:10246c0021409800b08e8000c18e80000ef90700cc
:10247c0080407800a01e210031409800d08e800052
:10248c00e18e800008f9070080407800a01e210032
:10249c0041409800a21e21005100200000032000a2
:1024ac0012040700000000000080fa000000060083
:1024bc000000fa00f7fd07000080fb005080880048
:1024cc00508080006100b900f20120000300200060
:1024dc00820f5000838f58007e003e0000060100e2
:1024ec001f0037002100370023003700250037007c
:1024fc002700370079003700280037002a00370002
:10250c002c0037002e003700300037003200370027
:10251c003400370036003700380037003a003700f7
:10252c003c0037003e0037004000370042003700c7
:10253c004400370046003700480037004a00370097
:10254c004c0037004e003700500037005200370067
:10255c005400370056003700580037005a00370037
:10256c0020c0b3000cf0b7005d00370040c0b300d2
:10257c000cf0b7005a00370040c0b3000cf0b700a5
:10258c005700370040c0b3000cf0b70054003700c0
:10259c00c0c0b3000cf0b7005100370040c0b3000e
:1025ac000cf0b7004e00370040c0b3000cf0b70081
:1025bc004b003700a0c0b3000cf0b7004800370048
:1025cc00a0c0b3000cf0b70045003700a0c0b300aa
:1025dc000cf0b70042003700a0c0b3000cf0b700fd
:1025ec003f003700a0c0b3000cf0b7003c00370030
:1025fc00e0c0b3000cf0b70039003700e0c0b30006
:10260c000cf0b70036003700c0c0b3000cf0b700b8
:10261c0033003700a0c0b3000cf0b7003000370017
:10262c0020c0b3000cf0b7002d00370040c0b30041
:10263c000cf0b7002a003700e0c0b3000cf0b70074
:10264c0027003700e0c0b3000cf0b70024003700bf
:10265c00e0c0b3000cf0b70021003700a0c0b300fd
:10266c000cf0b7001e003700e0c0b3000cf0b70050
:10267c001b003700a0c0b3000cf0b70018003700e7
:10268c00a0c0b3000cf0b70015003700a0c0b30019
:10269c000cf0b70012003700a0c0b3000cf0b7006c
:1026ac000f003700a0c0b3000cf0b7000c003700cf
:1026bc00e0c0b3000cf0b70009003700e0c0b30075
:1026cc000cf0b70006003700e0c0b3000cf0b70008
:1026dc00030037000000000001003700000000007c
:1026ec000cd0bf000080fb008100210091407800dd
:1026fc008180fb008100e900810f50000600320050
:10270c000cd0bf0008f0b700810021009140780088
:10271c00801b210001487800000000000080fa00b6
:10272c00000006000000fa00ae0507007d06070059
:10273c0066000700590007007e000700f301070040
:10274c00590507003e060700907380000000d10079
:10275c00614060000004e0004d003a0002003700c8
:10276c0001060700a7030700140607000004e00099
:10277c00fbff3a0016d0bf000004e000110032004d
:10278c001670ef00d08d8000e18d800046f80700b8
:10279c0080407800f01e210001487800308e8000c7
:1027ac00418e800040f8070080407800f01e210028
:1027bc0011409800f21e210021002000000420008e
:1027cc004a030700708e8000818e8000020020007a
:1027dc00031a240011f807000000e0000200340086
:1027ec0084aea8000100370084aea900508e800092
:1027fc00618e800002002000031a240007f80700f5
:10280c000000e0000200340084cea8000100370074
:10281c0084cea900908e8000a18e80000200200042
:10282c00031a2400fdf707000000e000020034004a
:10283c00848ea80001003700848ea900d08e800001
:10284c00e18e800002002000031a2400f3f7070039
:10285c000000e00002003400754ea80001003700b3
:10286c00754ea900b08e8000c18e80000200200041
:10287c00031a2400e9f707000000e000020034000e
:10288c00856ea800b8ff3700856ea900b6ff37002b
:10289c000000eb000080fa00000006000000fa00c7
:1028ac0005e1a9000421a9000068a9002068a8007e
:1028bc0005e1a80000002000a13724002900070032
:1028cc00000000000080fa00000006000000fa0082
:1028dc0013e1a90011e1a9001061a8001021a900c1
:1028ec00800880000040a1000050a10080088800f2
:1028fc000a21ef000621ef00303920007008880013
:10290c000070280060088800204280000000a000b1
:10291c000010a1000020a100204288000108a9009d
:10292c002108a80011e1a800000000000080fa00b6
:10293c00000006000000fa001fe1a9001e21a900fa
:10294c000368a9002368a8001fe1a800000020006c
:10295c00a1472400b8000700000000000080fa0026
:10296c00000006000400fa00008fbe002008800062
:10297c000040a1000050a100200888001e01780032
:10298c009e019000001c2e0041c62400e9f80700af
:10299c0000017800010078008202780000027800c3
:1029ac0002f02f00f37724000500780084007800f3
:1029bc000000be0099f707000000e0008d00340015
:1029cc00200880000040a0000050a10020088800d2
:1029dc001e0178009e019000001c2e0041c62400b0
:1029ec00d4f807000001780001007800820278001a
:1029fc00000278000200200003102400050078007b
:102a0c00840078000000be00caf8070000017800be
:102a1c0001007800820278000002780002f02f009a
:102a2c00f377240005007800840078000000be00d5
:102a3c007af707000000e000550034002008800001
:102a4c000040a1000050a000200888001e01780062
:102a5c009e019000001c2e0041c62400b5f8070012
:102a6c0000017800010078008202780000027800f2
:102a7c000200200003282400050078008400780060
:102a8c000000be00abf807000001780001007800e0
:102a9c00820278000002780002f02f00f377240005
:102aac0005007800840078000000be005bf707008a
:102abc000000e0001d003400200880000040a00051
:102acc000050a000200888001e0178009e01900094
:102adc00001c2e0041c6240096f807000001780067
:102aec0001007800820278000002780002002000c9
:102afc000338240005007800840078000000be0034
:102b0c008cf8070000017800010078008201780041
:102b1c000001780003007800820078000000be00fd
:102b2c0040f7070010088800400037001e017800ad
:102b3c009e019000001c2e0041c624007df8070069
:102b4c000001780001007800820278000002780011
:102b5c00020020000328240005007800840078007f
:102b6c000000be0073f80700000178000100780037
:102b7c008201780000017800030078008200780060
:102b8c000000be0027f70700100888002700370058
:102b9c001e0178009e019000001c2e0041c62400ee
:102bac0064f80700000178000100780082027800c8
:102bbc0000027800020020000310240005007800b9
:102bcc00840078000000be005af80700000178006d
:102bdc000100780082017800000178000300780081
:102bec00820078000000be000ef707001008880075
:102bfc000e0037001e0178009e019000001c2e0074
:102c0c0041c624004bf80700000178000100780051
:102c1c0082017800000178000300780082007800bf
:102c2c000000be00fff6070010088800000000003e
:102c3c000080fa00000006000400fa00008fbe00bd
:102c4c00f00880000040a1000050a100f0088800ae
:102c5c001e0178009e019000001c2e0041c624002d
:102c6c0034f8070000017800010078008202780037
:102c7c000002780002f02f00f377240005007800a2
:102c8c00840078000000be00e4f607000000e000bd
:102c9c008d003400f00880000040a0000050a1001e
:102cac00f00888001e0178009e019000001c2e0088
:102cbc0041c624001ff807000001780001007800cd
:102ccc008202780000027800020020000310240029
:102cdc0005007800840078000000be0015f807009d
:102cec000001780001007800820278000002780070
:102cfc0002f02f00f37724000500780084007800a0
:102d0c000000be00c5f607000000e00055003400ce
:102d1c00f00880000040a1000050a000f0088800de
:102d2c001e0178009e019000001c2e0041c624005c
:102d3c0000f807000001780001007800820278009a
:102d4c00000278000200200003282400050078000f
:102d5c00840078000000be00f6f707000001780040
:102d6c0001007800820278000002780002f02f0047
:102d7c00f377240005007800840078000000be0082
:102d8c00a6f607000000e0001d003400f0088000eb
:102d9c000040a0000050a000f00888001e01780040
:102dac009e019000001c2e0041c62400e1f7070094
:102dbc00000178000100780082027800000278009f
:102dcc0002002000033824000500780084007800fd
:102ddc000000be00d7f70700000178000100780062
:102dec0082017800000178000300780082007800ee
:102dfc000000be008bf60700d008880040003700aa
:102e0c001e0178009e019000001c2e0041c624007b
:102e1c00c8f70700000178000100780082027800f2
:102e2c00000278000200200003282400050078002e
:102e3c00840078000000be00bef707000001780097
:102e4c00010078008201780000017800030078000e
:102e5c00820078000000be0072f60700d0088800df
:102e6c00270037001e0178009e019000001c2e00e8
:102e7c0041c62400aff7070000017800010078007c
:102e8c008202780000027800020020000310240067
:102e9c0005007800840078000000be00a5f707004c
:102eac0000017800010078008201780000017800b0
:102ebc0003007800820078000000be0059f607007d
:102ecc00d00888000e0037001e0178009e0190008b
:102edc00001c2e0041c6240096f707000001780064
:102eec00010078008201780000017800030078006e
:102efc00820078000000be004af60700d008880067
:102f0c00000000000080fa00000006000000fa003b
:102f1c0002ccbf000000a1000010a1000020a10005
:102f2c0002ecb70000962000206088001061800041
:102f3c0000a0a00000b0a0001061880023cca80065
:102f4c0023eca80030002000206188001062800073
:102f5c0000a0a00000b0a0001062880043cca80024
:102f6c0043eca800300020002062880001eca8008f
:102f7c00000000000080fa00000006000000fa00cb
:102f8c00889fbe00148e8000258e8000308e8000bd
:102f9c00418e80000001be000400be001df607003b
:102fac000000e00014003d00388e8000498e800047
:102fbc00148e8000258e800010818000218180007d
:102fcc000001be000400be0075f607000001780089
:102fdc000100780082027800000278000801be002f
:102fec0005007800840078000000be005002070045
:102ffc00108e8800218e8800148e8000258e800013
:10300c00308e8000418e80000001be000400be00a6
:10301c0002f607000000e00014003400388e800037
:10302c00498e8000148e8000258e800010818000d7
:10303c00218180000001be000400be004ff6070095
:10304c00000178000100780082027800000278000c
:10305c000801be0005007800840078000000be0066
:10306c001c020700108e8800218e8800108e8000b4
:10307c00218e80006011b800e8f507000000e00028
:10308c001e003500108e8000218e80000200200072
:10309c00031c240006f807000001780001007800ea
:1030ac00820278000002780030818000418180002b
:1030bc000001be0005007800840078000000be000e
:1030cc0037f60700000178000100780082017800d3
:1030dc000001780003007800820078000000be0038
:1030ec00f1f507007061880030818000418180001b
:1030fc00edf50700306188001e003700308180003c
:10310c0041818000e8f5070070618800108e800016
:10311c00218e800001f0a20002002000031c24007c
:10312c00e3f70700000178000100780082027800c4
:10313c000002780030818000418180000001be00d7
:10314c0005007800840078000000be0014f607002b
:10315c0000017800010078008201780000017800fd
:10316c0003007800820078000000be00cef5070056
:10317c0030618800f48d8000058e8000d08d800039
:10318c00e18d80000001be000400be00a1f5070027
:10319c000000e00014003d00d88d8000e98d800017
:1031ac00f48d8000058e80001081800021818000cc
:1031bc000001be000400be00f9f507000001780014
:1031cc000100780082027800000278000801be003d
:1031dc0005007800840078000000be00d4010700d0
:1031ec00f08d8800018e8800f48d8000058e8000a3
:1031fc00d08d8000e18d80000001be000400be0077
:10320c0086f507000000e00014003400d88d800023
:10321c00e98d8000f48d8000058e80001081800087
:10322c00218180000001be000400be00d3f5070020
:10323c00000178000100780082027800000278001a
:10324c000801be0005007800840078000000be0074
:10325c00a0010700f08d8800018e8800f08d8000a1
:10326c00018e80006011b8006cf507000000e000d2
:10327c001e003400f08d8000018e800002002000c2
:10328c00031c24008af70700000178000100780075
:10329c008202780000027800308180004181800039
:1032ac000001be0005007800840078000000be001c
:1032bc00bbf507000001780001007800820178005e
:1032cc000001780003007800820078000000be0046
:1032dc0075f50700706288003081800041818000a4
:1032ec0071f50700306288001e00370030818000c5
:1032fc00418180006cf5070070628800f08d8000c1
:10330c00018e800001f0a20002002000031c2400aa
:10331c0067f707000001780001007800820278004e
:10332c000002780030818000418180000001be00e5
:10333c0005007800840078000000be0098f50700b6
:10334c00000178000100780082017800000178000b
:10335c0003007800820078000000be0052f50700e0
:10336c0030628800000000004f04be000080fa00ac
:10337c00000006000c00fa00300798004107980086
:10338c00224f980001000900001feb00005feb00ca
:10339c005e00b100801b210010407800004f7800c7
:1033ac00708080000040780010479800708080008a
:1033bc00818080004809dd004800de0000007100bb
:1033cc00c808de000040780020479800708080001c
:1033dc00818080004008de00010020000040780061
:1033ec003047980070808000818080004808de00a3
:1033fc000100200000407800404798003e009000fb
:10340c00ce0090001e01070002002000832c240037
:10341c0002f507000000e00012003c006a004700c3
:10342c001000fb000000e00007003200e10f50002c
:10343c000d003a003e019000ce019000d28d880024
:10344c00e38d8800080037003e009000ce0090000d
:10345c0001f0a200308e8800418e88000000000030
:10346c0001003700000000000080fa000000060098
:10347c000a00fa00200798003107980042079800cc
:10348c002e00900080407800e0cfb30000c06800b0
:10349c00004f78000000eb00100798000c0037007c
:1034ac001e009000e800470011004000104078001a
:1034bc009e40780000c06800004f78000e80e80045
:1034cc008e80e8001108e800900078001107980041
:1034dc009e0090003e009000808f5000f0ff350061
:1034ec001e4078000080fa00000006008a00fa00f6
:1034fc00881f7800208798003187980042879800b1
:10350c000000eb00000f7800e40047003f000900ca
:10351c008018eb00e0cfb300404798002e8090005d
:10352c0000407800604798002e8090004880de00b4
:10353c0000407800504798003e8090000040780092
:10354c00004f98003e8090004880de0000407800dc
:10355c00704798000000eb0010079800100037002f
:10356c009e007800800820000e00400090804000f3
:10357c000e80e800520020001000410091407800bd
:10358c0064004000017778001e0fe8000e80e80010
:10359c008e80e8001108e800900078001107980070
:1035ac009e0090003e809000808f5000ecff350014
:1035bc00600820000e004000520020001004410062
:1035cc004e819000be8090002e809000a8ff0700d6
:1035dc008040780064004400017778006008200087
:1035ec000e00400062002000900041006400470083
:1035fc0040010700000000004f0478000080fa0032
:10360c00000006000400fa0020479800c0808000eb
:10361c00e40f500026003200e40f500007003c007d
:10362c00e20f500012003200e20f500018003c0074
:10363c000000e0000800320061003700e60f500087
:10364c002b003200e60f500021003500e70f500030
:10365c00370032005a0037002e409000e24f4000f5
:10366c0059003a0030002000c08088005600370016
:10367c000e80e8001080fb00d1808000010040002b
:10368c00d080880050002000c08088004f00370098
:10369c000e80e8001080fb00d1808000010040000b
:1036ac00d080880020002000c080880047003700b0
:1036bc000e80e8001080fb00e180800001004000db
:1036cc00e080880060002000c08088003f00370048
:1036dc000e80e8001080fb00e180800001004000bb
:1036ec00e080880040002000c08088003700370050
:1036fc00f08080000000e800f0808800f1808000fd
:10370c00e0808000808f500002003a0070002000a2
:10371c00c0808800f08080008000e90080132100c8
:10372c0001004000ae4090000148780027003700af
:10373c00e1808000d0808000821321004cff0700c4
:10374c0020f0b700ae409000120221000149780031
:10375c00010221009140780021d0bf0080cf5000a1
:10376c0006003a001830ef00e1808000d080800025
:10377c008213210018000700010037001830ef00f9
:10378c001a30ef001c30ef001e30ef000000eb0091
:10379c00000f780005003700801321001e00400048
:1037ac008040eb00014878001e0fe800e0808000ac
:1037bc009e007800808f5000f7ff35000300370023
:1037cc001830ef000100370000000000000000007e
:1037dc000080fa00000006000600fa00000f7800d6
:1037ec001107980022079800200520009e00780001
:1037fc00808f500019003200000920009e007800d4
:10380c00808f500005003200100520009e007800cb
:10381c00808f500016003200160037002e009000ea
:10382c00104078000080fb008000eb003cf40700a7
:10383c000041eb00cffe0700640047001000e800d9
:10384c00104078000080fb008000eb0034f407008f
:10385c0012c0b300c7fe0700060037002e00900010
:10386c00104078000080fb00910207000100370037
:10387c0000000000000000000080fa0000000600bc
:10388c000400fa00008fbe006011b8001e00780022
:10389c009e009000e1f307000000e00003003500fb
:1038ac001e0078009e009000030037001e00780078
:1038bc009e00900001f0a2008001780001017800c8
:1038cc0003007800820078000000be000080fa003f
:1038dc00000006000800fa00008fbe0022079800c6
:1038ec00330798002e019000be0190001e00780056
:1038fc009e009000c9f307000000e00003003400b4
:10390c009e0078001e00900002003700ae00900070
:10391c003e009000810178000001780003007800df
:10392c00820078000000be000080fa000000060053
:10393c000800fa00008fbe00220798003307980099
:10394c002e019000be0190001e0078009e00900099
:10395c00b0f307000000e00003003d009e0078007b
:10396c001e00900002003700ae0090003e00900058
:10397c008101780000017800030078008200780053
:10398c000000be000080fa00000006000c00fa00e7
:10399c00008fbe0022079800330798004407980058
:1039ac00550798004e019000de0190001e00780033
:1039bc009e00900099f307000000e0000400340022
:1039cc004e019000de019000028fbe000a0037000d
:1039dc002e019000be0190001e0078009e00900009
:1039ec008cf307000000e00003003d002e01900066
:1039fc00be019000028fbe009e0078001e00900059
:103a0c0081017800000178000300780082007800c2
:103a1c000000be000080fa00000006000400fa005e
:103a2c00008fbe00b2fd2000930424001e0078001d
:103a3c009e009000bff407000001780001007800a0
:103a4c008202780000027800020020004333240038
:103a5c0005007800840078000000be0094f5070093
:103a6c000001780001007800820078008101780064
:103a7c000001780003007800820078000000be008e
:103a8c000080fa00000006000400fa00008fbe005f
:103a9c00b2fd2000930424001e0078009e009000cc
:103aac0083f507000001780001007800820278009d
:103abc000002780002002000433324000500780047
:103acc00840078000000be009af407000001780022
:103adc0001007800820078008101780000017800f4
:103aec0003007800820078000000be000080fa001d
:103afc00000006000600fa00100798002107980045
:103b0c000040eb00004f780060000700ae00900012
:103b1c00808f500013003d000040eb00004f7800f8
:103b2c00080037001e80fb008e80e800110040006a
:103b3c00104078000e0007001e4078000040e8009e
:103b4c00004f78001e80fb00ae009000808f50006c
:103b5c00f4ff3c00390007000004e00001003a00cb
:103b6c002c000700000000000080fa000000060096
:103b7c000200fa00004f7800440007000000e0004b
:103b8c000c003400518180008003210001004000b2
:103b9c001e48780051818000f0072000808f500073
:103bac00010034002a30ef00508180000000e80052
:103bbc0050818800000000000080fa000000060020
:103bcc000200fa00618180008003210001004000a6
:103bdc00104f7800618180008003210001004000bb
:103bec008040eb000148780061818000f0072000e4
:103bfc00808f5000010034002c30ef006081800079
:103c0c000000e800608188001e4078000080fa0007
:103c1c00000006000200fa0010c0b3002ef0b7003e
:103c2c00e7ff0700004f78001e80fb002011880082
:103c3c00000000000080fa00000006000000fa00fe
:103c4c002ed0bf000080fa00000006000000fa0031
:103c5c005181800060818000808f5000040035000d
:103c6c005181800060818000008050000500370089
:103c7c00618180000008200081005000508180008c
:103c8c00008040000080fa00000006000000fa00ee
:103c9c00eeff070080007800f007200001005000c4
:103cac000080fa00000006000000fa0021e3a900e1
:103cbc002143a800001980000080a1000090a10001
:103ccc00001988002043a900001980000050a000b2
:103cdc000060a0000070a00000198800101980007e
:103cec0000d0a10000e0a10000f0a1001019880094
:103cfc002343a800101980000080a1000090a100af
:103d0c00101988001119800030f82f000080600015
:103d1c004001b300101988002203a9002223a90036
:103d2c0025e3a900f0c0b30024e3b70021198000fb
:103d3c00f00f2e008080600000f020000100700069
:103d4c00201988003303a9001e0ea8001f0ea8001e
:103d5c001f2ea8001f4ea8001f6ea8003003a8003d
:103d6c003103a8003123a8003143a8003163a80017
:103d7c004119800000fe2f0000806000401988006f
:103d8c0028e3a90001a8a90021a8a80021e3a80004
:103d9c00000000000080fa00000006000000fa009d
:103dac002023a800000000000080fa00000006009c
:103dbc000000fa00001e21000080fa00000006003e
:103dcc000000fa0035d0bf000080fa0000000600a9
:103ddc000000fa003570ef00000000000080fa00cf
:103dec00000006000000fa00817420009140780069
:103dfc0000ccb30000c060007041b30048e7b700ce
:103e0c00313a800000e02f008080600080052000a7
:103e1c0001007000303a8800203a80000060a10058
:103e2c000070a100203a8800213a800000fe2f008b
:103e3c00008060000000a000203a880012002000e2
:103e4c0080072000a10920003374200080497800ed
:103e5c008149780082497800103a8000000178008e
:103e6c000200a000600420007105200023742000d3
:103e7c008049780081497800824978000000000070
:103e8c00103a80004c00de0067406000e14f5000ab
:103e9c00fbff3a005927a800c03a80000000a000a0
:103eac000010a1000020a100c03a88005ac7bf0032
:103ebc000000a0000010a0000020a0005ae7b700ee
:103ecc00c03a80000050a1000060a0000070a0006b
:103edc00c03a880059a7a80059e7a80000000000c4
:103eec00c03a80004e00de0061406000e14f50009f
:103efc00fbff3a0000000000103a80004500de0095
:103f0c0061406000e14f5000fbff3a0000000000f0
:103f1c000080fa00000006000200fa00004f780052
:103f2c00400007000000e0000c003400818180009c
:103f3c00800b2100010040001e4878008181800028
:103f4c00f0072000808f5000010034003030ef006b
:103f5c00808180000000e800808188000000000063
:103f6c000080fa00000006000200fa009181800037
:103f7c00800b210001004000104f780091818000df
:103f8c00800b2100010040008040eb0001487800cc
:103f9c0091818000f0072000808f500001003400d8
:103fac003230ef00908180000000e80090818800a2
:103fbc001e4078000080fa00000006000000fa00a5
:103fcc008181800090818000808f5000020032003f
:103fdc0010c0b300010037000040eb000080fa0075
:103fec00000006000000fa008181800090818000b2
:103ffc00808f50000400350081818000908180000a
:10400c0000805000050037009181800000082000de
:10401c008100500080818000008040000080fa0008
:10402c00000006000000fa00eeff07008000780098
:10403c00f0072000010050000080fa00000006008c
:10404c000000fa002002a900001180000010a1005d
:10405c000020a1000011880020a2a9002062a80065
:10406c00100820004011880023a2a80023e2a90018
:10407c000188a9002188a800101180000060a1000f
:10408c000070a100101188000168a9002168a80027
:10409c0021e2a8002342a800000000000080fa00e2
:1040ac00000006000600fa0010079800210798008f
:1040bc000040eb00004f78000040eb00004f780010
:1040cc001100370000000000101180004900de00d4
:1040dc00614060000004e000fbff3a009e0090008d
:1040ec000e80e8000108e800100178001207980023
:1040fc00114078000080fb00201188001e407800e1
:10410c000040e800004f78001e80fb00ae009000dd
:10411c00808f5000ebff3c00000000000080fa0094
:10412c00000006000000fa000e2eef001e2eef001d
:10413c003e2eef002e2eef004e2eef006e2eef00d7
:10414c0080cea90080aea900808ea900816ea90046
:10415c00714ea900706ea900000ea900012ea900d5
:10416c0091eea900014ea90019000700213680002c
:10417c0000f82f0080806000e00420000100700037
:10418c00203688004134800000fc2f000080600045
:10419c000000a0004034880003000700000000006d
:1041ac000080fa00000006000000fa0021742000d4
:1041bc006204200073052000824878008348780050
:1041cc0042c7a800000000000080fa0000000600b2
:1041dc000000fa0021742000620420007305200006
:1041ec00824878008348780042c7a900000000008c
:0841fc000080fa00000006003b
:020000040000fa
:10420400ea11000008000000800000000010000017
:104214000e000000800000000e1000000a000000e4
:1042240080000000b8110000280000008000000099
:10423400221000000800000082000000000040007e
:1042440040000000a0410000e01100000a0000004e
:104254008000000034100000020000008000000014
:104264003810000080000000800000002a100000c8
:104274000600000080000000b8100000800000006c
:1042840080000000301000000400000080000000e6
:1042940038110000800000008000000018100000a9
:1042a4000a00000080000000361000000200000038
:0842b400800000000000000082
:020000040000fa
:1042bc000200fa00000f78001e007800f08e8800d3
:0c42cc00000000000080fa000000060066
:020000040000fa
:0200000401f009
:04000800cfffff0027
:020000040000fa
:0200000401f009
:04000c00f9ffff00f9
:020000040000fa
:0200000401f009
:040010005bffff0093
:020000040000fa
:0200000401f009
:040014007fffff006b
:020000040000fa
:0200000401f009
:04001800cfffff0017
:020000040000fa
:0200000401f009
:04001c00deffff0004
:020000040000fa
:0200000401f009
:04002000cfffff000f
:00000001FF
