:020000040000fa
:080000000002040000000000f2
:020000040000fa
:040008002e040000c2
:020000040000fa
:04000c002e040000be
:020000040000fa
:040010002e040000ba
:020000040000fa
:040014002e040000b6
:020000040000fa
:040018002e040000b2
:020000040000fa
:04001c002e040000ae
:020000040000fa
:040020002e040000aa
:020000040000fa
:040024002e040000a6
:020000040000fa
:040028002e040000a2
:020000040000fa
:04002c002e0400009e
:020000040000fa
:040030002e0400009a
:020000040000fa
:04003400fa020000cc
:020000040000fa
:040038002e04000092
:020000040000fa
:04003c002e0400008e
:020000040000fa
:040040002e0400008a
:020000040000fa
:040044002e04000086
:020000040000fa
:040048003003000081
:020000040000fa
:04004c002e0400007e
:020000040000fa
:040050002e0400007a
:020000040000fa
:04005400e6030000bf
:020000040000fa
:04005800ba030000e7
:020000040000fa
:04005c009403000009
:020000040000fa
:040060002e0400006a
:020000040000fa
:040064002e04000066
:020000040000fa
:040068002e04000062
:020000040000fa
:04006c002e0400005e
:020000040000fa
:040070002e0400005a
:020000040000fa
:040074002e04000056
:020000040000fa
:040078002e04000052
:020000040000fa
:04007c002e0400004e
:020000040000fa
:040080002e0400004a
:020000040000fa
:040084002e04000046
:020000040000fa
:040088002e04000042
:020000040000fa
:04008c002e0400003e
:020000040000fa
:040090002e0400003a
:020000040000fa
:040094003a0300002b
:020000040000fa
:040098002e04000032
:020000040000fa
:04009c002e0400002e
:020000040000fa
:0400a0002e0400002a
:020000040000fa
:0400a4002e04000026
:020000040000fa
:0400a8002e04000022
:020000040000fa
:0400ac002e0400001e
:020000040000fa
:0400b0002e0400001a
:020000040000fa
:0400b4002e04000016
:020000040000fa
:0400b8002e04000012
:020000040000fa
:0400bc002e0400000e
:020000040000fa
:0400c0002e0400000a
:020000040000fa
:0400c4002e04000006
:020000040000fa
:0400c8002e04000002
:020000040000fa
:0400cc002e040000fe
:020000040000fa
:0400d0002e040000fa
:020000040000fa
:0400d4002e040000f6
:020000040000fa
:0400d8002e040000f2
:020000040000fa
:0400dc002e040000ee
:020000040000fa
:0400e0002e040000ea
:020000040000fa
:0400e4002e040000e6
:020000040000fa
:0400e8002e040000e2
:020000040000fa
:0400ec002e040000de
:020000040000fa
:0400f0002e040000da
:020000040000fa
:0400f4002e040000d6
:020000040000fa
:0400f8002e040000d2
:020000040000fa
:0400fc002e040000ce
:020000040000fa
:040100002e040000c9
:020000040000fa
:040104002e040000c5
:020000040000fa
:040108002e040000c1
:020000040000fa
:04010c002e040000bd
:020000040000fa
:040110002e040000b9
:020000040000fa
:040114002e040000b5
:020000040000fa
:040118002e040000b1
:020000040000fa
:04011c002e040000ad
:020000040000fa
:040120002e040000a9
:020000040000fa
:040124002e040000a5
:020000040000fa
:040128002e040000a1
:020000040000fa
:04012c002e0400009d
:020000040000fa
:040130002e04000099
:020000040000fa
:040134002e04000095
:020000040000fa
:040138002e04000091
:020000040000fa
:04013c002e0400008d
:020000040000fa
:040140002e04000089
:020000040000fa
:040144002e04000085
:020000040000fa
:040148002e04000081
:020000040000fa
:04014c002e0400007d
:020000040000fa
:040150002e04000079
:020000040000fa
:040154002e04000075
:020000040000fa
:040158002e04000071
:020000040000fa
:04015c002e0400006d
:020000040000fa
:040160002e04000069
:020000040000fa
:040164002e04000065
:020000040000fa
:040168002e04000061
:020000040000fa
:04016c002e0400005d
:020000040000fa
:040170002e04000059
:020000040000fa
:040174002e04000055
:020000040000fa
:040178002e04000051
:020000040000fa
:04017c002e0400004d
:020000040000fa
:040180002e04000049
:020000040000fa
:040184002e04000045
:020000040000fa
:040188002e04000041
:020000040000fa
:04018c002e0400003d
:020000040000fa
:040190002e04000039
:020000040000fa
:040194002e04000035
:020000040000fa
:040198002e04000031
:020000040000fa
:04019c002e0400002d
:020000040000fa
:0401a0002e04000029
:020000040000fa
:0401a4002e04000025
:020000040000fa
:0401a8002e04000021
:020000040000fa
:0401ac002e0400001d
:020000040000fa
:0401b0002e04000019
:020000040000fa
:0401b4002e04000015
:020000040000fa
:0401b8002e04000011
:020000040000fa
:0401bc002e0400000d
:020000040000fa
:0401c0002e04000009
:020000040000fa
:0401c4002e04000005
:020000040000fa
:0401c8002e04000001
:020000040000fa
:0401cc002e040000fd
:020000040000fa
:0401d0002e040000f9
:020000040000fa
:0401d4002e040000f5
:020000040000fa
:0401d8002e040000f1
:020000040000fa
:0401dc002e040000ed
:020000040000fa
:0401e0002e040000e9
:020000040000fa
:0401e4002e040000e5
:020000040000fa
:0401e8002e040000e1
:020000040000fa
:0401ec002e040000dd
:020000040000fa
:0401f0002e040000d9
:020000040000fa
:0401f4002e040000d5
:020000040000fa
:0401f8002e040000d1
:020000040000fa
:0401fc002e040000cd
:020000040000fa
:040200002e040000c8
:020000040000fa
:040204002e040000c4
:020000040000fa
:040208002e040000c0
:020000040000fa
:04020c002e040000bc
:020000040000fa
:040210002e040000b8
:020000040000fa
:040214002e040000b4
:020000040000fa
:040218002e040000b0
:020000040000fa
:04021c002e040000ac
:020000040000fa
:040220002e040000a8
:020000040000fa
:040224002e040000a4
:020000040000fa
:040228002e040000a0
:020000040000fa
:04022c002e0400009c
:020000040000fa
:040230002e04000098
:020000040000fa
:040234002e04000094
:020000040000fa
:040238002e04000090
:020000040000fa
:04023c002e0400008c
:020000040000fa
:040240002e04000088
:020000040000fa
:040244002e04000084
:020000040000fa
:040248002e04000080
:020000040000fa
:04024c002e0400007c
:020000040000fa
:040250002e04000078
:020000040000fa
:040254002e04000074
:020000040000fa
:040258002e04000070
:020000040000fa
:04025c002e0400006c
:020000040000fa
:040260002e04000068
:020000040000fa
:040264002e04000064
:020000040000fa
:100400006f3921000eff27000e0188000000000058
:10041000000020000000e000020032000001200087
:1004200020028800140007000e0107000000e00011
:1004300003003a006086230001002000020037001c
:100440000000200001002000810f70000100320038
:100450000f000700000020000000e0000200320052
:100460000000020000000000d61b02000000000097
:100470000040da000000fe00c00020000000e000a4
:1004800002003200002020009001880000000600d9
:10049000a1028800800478000000eb001f003700f4
:1004a000e284440054a0b4009905ba00e2844400f8
:1004b00054a0b4009906ba00e284440054a0b400e9
:1004c0000006eb00476fde00fd07b200ae018800ba
:1004d000636ce10003003a000ad801000000eb0061
:1004e0000e003700606ce10008003a00004deb00a0
:1004f0000a05e800020039003420ec000af0a000f0
:100500008b05e900f9ff3e00040037006168e10057
:10051000010032000086eb000b00070019c7ba008b
:100520000e04e0001905ba0003003a000a00e000da
:10053000dbff3a0000000600fe07b200ae028800b2
:100540008a047800f5ff37000cd0a300e20f4d00bd
:100550001c003b0089027800354dba000a05e8000e
:10056000020039003420ec000af0a0008b05e900fd
:100570000f003200254dba000a05e80002003900dc
:100580003420ec000af0a0008b05e90008003200de
:100590000c00e0000600320015cdba000a05e800a4
:1005a000020039003420ec000af0a0008b05e900bd
:1005b0008984e80054a0b4000b00e000e2ff3a0098
:1005c000000006009902ba00055d78008b05e9007d
:1005d000f7ff3200c82ade00055d78008b05e900d0
:1005e000f3ff32000c00e000f1ff320019ddba0029
:1005f000eeff37003600f800809fbe00829fbe00ed
:10060000849fbe00869fbe000000fa000068a9001b
:10061000031a0700af1607001c150700908380001f
:100620000000e8009083880090838000f90f50005c
:100630000300340052160700a41107007230ef00c7
:10064000000000000080fa004f03be004f02be0011
:100650004f01be004f00be003600f900004006000a
:100660000000fa000108a900000000000080fa0064
:10067000004006003600f800809fbe00829fbe004a
:10068000849fbe00869fbe000000fa000368a90098
:10069000628380007383800010002000010020002e
:1006a00002004000838048006083880071838800d6
:1006b000a18380000100e800a0838800703e200034
:1006c000808f5000030034007430ef0010c0b3007e
:1006d00076f0b700c08580000000e0000100320025
:1006e000bd090700670a07006283800073838000ea
:1006f000100020000100200002004000838048001c
:100700006083880071838800000000000080fa0088
:100710004f03be004f02be004f01be004f00be009f
:100720003600f90000400600801f78000000fa0043
:1007300001a8a90000188000f09b88001018800014
:10074000009c880020188000109c880030188000d1
:10075000209c880040188000309c880010c0b300a6
:100760008ff0b700000000000080fa004f00780012
:10077000004006003600f800809fbe00829fbe0049
:10078000849fbe00869fbe000000fa000188a90079
:100790001184800000848000808f500002003200ad
:1007a0003d190700010037008470ef0000000000d1
:1007b0000080fa004f03be004f02be004f01be0092
:1007c0004f00be003600f900004006003600f80079
:1007d000809fbe00829fbe00849fbe00869fbe0099
:1007e0000000fa000168a900101180004200de003c
:1007f00061406000e14f500001003a002242a90030
:10080000101180000000d10061406000e14f5000f5
:1008100005003a002222a9000300370030118000b1
:1008200000407800711a0700101180000040780025
:1008300061406000e14f5000f8ff3200000000000e
:100840000080fa004f03be004f02be004f01be0001
:100850004f00be003600f900004006000040da00fc
:100860000000fe000000050014002000ad0337006a
:10087000f4ff2f00ab0337000001be003f0007006c
:100880000470a70003f0a1006509b1001600320052
:100890000d0035006828e10006003500f0ff2f004c
:1008a000f1ff27000300e00013003b0001002800d7
:1008b0000000050000004000818048008502e9003a
:1008c000fcff3a0008003700f88f420002003c00ad
:1008d0008000eb00000005008100d1000080d30003
:1008e0008502e800fcff3a000300e00002003b0044
:1008f00060001000e0801800000006000001be004b
:100900001e0007000470a70003f0a10003f8a30075
:1009100013003a006509b1001000320009003500eb
:100920006928e100020035000100280000000500f0
:1009300000004000818048008502e900fcff3a0089
:1009400000000600f88f4200050035008100d1004c
:100950000080d3008502e800fcff3a00000006009a
:100960008000eb00000005004f89de008201780066
:10097000870337006011b80095033700c70ade000f
:10098000f107b200f50fb20008003200e1cf4200db
:10099000020032000170a00024000500810f7000e9
:1009a000010032000408050044000500810f7000ba
:1009b00002003a00140005008502e9000000400032
:1009c00081c04800fcff3b000170a000240005002e
:1009d00007f82700078361000638e10004003a00a9
:1009e000f7072000878361008703710001003a0048
:1009f00003f0a200889fbe008a9fbe008c9fbe00ad
:100a0000470ade000480a100c71ade000580a100ad
:100a1000070028000785600087856100f70f200028
:100a20000720e1009e0032000728e1009c00320010
:100a3000010678000400e000b4003200f70720004f
:100a4000878060000170a0000500e000c000320057
:100a5000f7072000878161000370a000050652009f
:100a60000f003a000b50e1000b0032000308e100d8
:100a700002003a000200e1007e0032000204500051
:100a800083845800040031000001fd008101fd0055
:100a90008402fd008a05fd006044b8002100370093
:100aa0000520e10005003d000001fd008101fd0081
:100ab0008402fd008a05fd00050652007a60e1000f
:100ac000050035000170a1004722dd008480700020
:100ad0008a807000630037006044b800ef0266004f
:100ae00007ff2f00070666000500e000060034003f
:100af000f08312008714dd000511de00071bdd0006
:100b0000060171008519de007060e1000500350006
:100b10000904780082047800030178008001eb006a
:100b2000700656000b50e10003003a00020040003e
:100b3000838048000400370060041400e0841c0037
:100b400002005800838058000188a300060032008c
:100b50008100d1000080d3008984d3000884d300b1
:100b60000402e800270037000178a30025003a00be
:100b70000100e000030032008186cf006986560044
:100b80000a0037008c0020000000e00004003a005a
:100b900009007800880478000004eb00700252001d
:100ba0008086cf000d0646000c06e9007060e1006b
:100bb000060035008000780009007800880478007d
:100bc0000004eb0070065600700252000c00e000ba
:100bd0000c0034008c08dd00f00316000703de0073
:100be000868070000c00dd00074bde000600700000
:100bf0008c4cdd000743de00868474000c44dd006d
:100c00000c0252006120e10020003500610160000b
:100c10000700280087816400f7ff270087836400ae
:100c2000070374000300e000060032008203730033
:100c3000040032000000e800e08048000188a300c2
:100c40000e003a00f70f20000720e1004a003d00a7
:100c50000170a1004722dd00810072008a807000cf
:100c60000000be004f06be004f05be004f04be0090
:100c7000000006006000b800faff37008100d100d4
:100c80000080d3000402e800eeff37000401780082
:100c900089017400a10107008a807000f1ff37000c
:100ca000f7010700070278000001fd008101fd0047
:100cb000f301070087027800850372000778a3001c
:100cc000040032000001fd008101fd000602070062
:100cd000e4ff3700850362000768a30008003200c4
:100ce0000b50e10003003200f0ff2f00f1ff27005e
:100cf000dcff37000001fd008101fd00d9ff370056
:100d00000468a300d7ff3200faff3700f8ff27007e
:100d1000888360000b003a000000e00009003a0000
:100d20008303640082837300020032000200be006d
:100d3000ccff37000b50e100ceff3a000200be00ae
:100d4000c8ff370014002000810064003eff370018
:100d5000f8ff27008883610004003a000200e000e9
:100d600002003a008c007800beff3700150020001a
:100d70008301640039ff370001f8270000002000dc
:100d800081007500b7ff3700889fbe008a9fbe00b4
:100d90008c9fbe001b0020000202be00058668007a
:100da00006002800060666004709de00f20fb200c2
:100db000820032000243e80080003200c729de00d2
:100dc000f30fb2007d0032000343e8007b003200e5
:100dd000f107b2000170a000f507b2000570a00095
:100de000c708dd004903de00868070004700dd0093
:100df000c72add004923de00868272004722dd001b
:100e0000030551000403500085835800030031009e
:100e100000004000818048000a05e9008c1f78002e
:100e20008a9fbe00040050008580580004024200e2
:100e300085824a0000004000818048000005eb00e8
:100e40000004be006033b8000406be000d48e10097
:100e500056003100110009004dccd8000c01b8003b
:100e60000d02b8008481410060824a0082835300f1
:100e700003045c0084845c0060055d000a00e000ff
:100e800025003a00800578000d40e100490031005e
:100e90008800780007007800110009004d88d8000c
:100ea0000c01b8000d02b8008481410060824a0044
:100eb0006003110083835b0004045c00e0845c0039
:100ec0000900e00021003a004f01be000300e000ed
:100ed0002b003200e3016000070673008c81710073
:100ee00001003200640070004200de004e5edd0052
:100ef0000c007000c258de0001e0a0008301070072
:100f0000cf017800818071004f06be004f05be0002
:100f10004f04be00000006008c8343000d044c000b
:100f2000e0844c0060054d000000e9000a00e0008c
:100f3000d4ff32008c8343000d044c00e0844c004d
:100f400060054d000000e900ceff37000c034300b0
:100f50008d834b0060044c00e0844c000000e900ed
:100f60000900e000d8ff32000c0343008d834b00e2
:100f700060044c00e0844c000000e900d2ff370020
:100f80004200de004e5edd000c007000c258de0044
:100f900001e0a000cf0178000300e000daff32009a
:100fa00060001000e0801800d7ff3700f0ff2f002e
:100fb000aaff3700f0ff2f00b9ff37000404be007e
:100fc0002f010700870678000004fd008104fd0062
:100fd0002b010700078366000678a3000300320098
:100fe0000960a7000800be002c0037000d78a300a0
:100ff000020032000800be00280037000778a30076
:1010000026003a0001f0a10009f0a1000668a30043
:1010100003003200f1ff2700f0ff2f00baff370076
:101020000d68a300030032000800be008c80700031
:10103000b5ff37000768a30007003a000648a30081
:1010400003003200f1ff2700f0ff2f00aeff370052
:101050000d48a300030032006000b8008c807000cf
:10106000a9ff37000748a3000400320001f8270059
:10107000000020008c807000a3ff3700760107007d
:101080000004fd008104fd000205780072010700e4
:101090000802be008a01780059ff37000160a000f5
:1010a000120220008284880097ff37000100e000d0
:1010b000120032000500e00010003200889fbe00e0
:1010c0008a9fbe008c9fbe000006eb0001f8a300c3
:1010d0000300320060001000e08018000cf0a00057
:1010e00005f8a3000300320060021200e0821a003b
:1010f0000cf0a2008005eb0041ff37006000b80053
:10110000020005000383680007002800070363004e
:10111000470ade000480a100c71ade000580a10096
:10112000f70f20000720e100420032000728e1000d
:1011300040003200889fbe008a9fbe008c1f78004e
:10114000f107b200f307b2000400e00064003200cf
:101150000170a0000500e000680032000370a000ec
:1011600085054200eb07b1000204b8000302b80095
:101170008484440060854a00020ab80084844400e4
:101180000a854a00030ab80004054500040033003c
:101190000804d0008984d2000a85d2008b05e900ba
:1011a0006158e1003d003500021020000901610096
:1011b0000308200089816100f7072000878364000d
:1011c00008867300c84cde00c853dd0087847400b5
:1011d0004855de000300e00006003200820376007e
:1011e000040032008904e80060054d000a88a3006d
:1011f0000c003a00f70f20000758e10044003d00c2
:101200000a70a100c75ddd000a8575008a007300c1
:10121000090078004f0678004f05be004f04be005d
:10122000000006000a05d1008984d3008b05e80080
:10123000f0ff3700881f7800060478009000070050
:10124000070278000001fd008101fd008c0007000d
:1012500087027800850372000778a300050032003a
:101260000001fd008101fd009f0007004f04780090
:1012700000000600850372000748a3000300320047
:10128000f0ff2f00f1ff2700f8ff370000002000db
:1012900001f8270088807000f4ff3700880178008b
:1012a0004848dd00808171004848de00c850dd00fc
:1012b00001007000c850de00060478000b017800c1
:1012c0001600070088807000d2ff37000500e0009c
:1012d00005003200170020003a0007009dff37008c
:1012e00081037000f9ff3a00860078004f0678000d
:1012f0004f05be004f04be000000050083037100cf
:10130000f9ff3200270020002e00070094ff37006d
:1013100001f8270086807000f4ff37000100e0002c
:1013200026003200610111007810e10023003c002a
:101330006022b8007010e1000400350080027800df
:10134000010078008000eb00700151000200e00015
:101350000900340070031100062add00822ade0035
:101360008603dd00878272000200de00860bdd004e
:10137000070070008208de0084817100f4ff2700fe
:10138000048262008481710004002800848262006b
:101390006102600005f0a6000000060004827100f2
:1013a000070032000000e800e0804800000006006e
:1013b0000002be006000b800efff37006000b80018
:1013c00000000600889fbe000004eb006138e100c9
:1013d00016003a000100e00008003a00c800de00f4
:1013e0004800dd00880020000100e00003003a0012
:1013f000c800de004800dd00680444008184cf009e
:10140000e9845400060034008908dd00f0831400ec
:101410008703de00878070000900dd0009044400b6
:10142000610214004f04be00000006000300e0004b
:1014300008003a00c811de004811dd0088002000d5
:101440000300e00003003a00c811de004811dd008f
:10145000680444008384cf00e9845400060034000b
:101460008919dd00f08314008713de008781710085
:101470000911dd0009044400e1021400e9ff37000e
:101480002700200001f0a70017002000470bde0016
:10149000f60fb200040032000643e8000a003200f2
:1014a0004702b3000000060001037800f607b2000f
:1014b0000603700002003a000703b30000000600b4
:1014c0008702b3000000060001037800f607b200af
:1014d00006037000020032000770a0000000060042
:1014e0000760a000000006000478a300040032009a
:1014f0000578a300030032000168a30001003a0050
:101500000200be000160a000000006008101700022
:10151000270032008002eb0001f8a3000300320034
:1015200060001000e080180015002000f407200083
:101530000202420020003400f7032000870360000d
:10154000060420000003630002082000000161007f
:101550004700de00c909dd0000807100c708de0019
:101560000600e00008003200870371000600320028
:101570001000b0000180b0000188a300020032001a
:10158000c108de000402e800f107b200f30f2000fa
:101590000320e10003003d004722dd0081007200ce
:1015a0002900370001f827000000eb002600370073
:1015b0006000b80000000600680212007f20e10011
:1015c000020034006000b8001f0037006011b8004e
:1015d0007020e100040035008001780001007800ef
:1015e0008000eb00700252000400e00009003400ab
:1015f000f00312000719dd008419de000703dd0087
:10160000868171000400de00070bdd00060070001b
:101610008408de00f7ff27008383630087037100df
:101620000600280003036300070032000700e00003
:1016300003003a0061016000028173000200320081
:101640001000b0000180b0000500a60000000600f8
:1016500001f0a000000006004f0ade004709de008e
:10166000f107b200f20fb2000b003200f207b10036
:101670000170a000c708dd00c901de008380700092
:101680004700dd000400a600000006006000100016
:10169000e080180000000600810f700001003a0091
:1016a000000006008182cf000500e00010003e002f
:1016b0008082cf00ee8242007028e10004003900f1
:1016c00007003e00800078000000eb000e003700ad
:1016d000708312008600de000500dd000a0037007e
:1016e000708352008600dd000000eb00060037002a
:1016f000e28252008508dd00708312000603de00de
:10170000868070000500dd007507b0000501ea0065
:101710000400a6000000060060001000e080180031
:1017200000000600889fbe008a9fbe00841f7800cc
:101730007c0007004f00780011003300f0ff2f00fd
:10174000838f6c0006003b00040565000a00a700bb
:101750000800370009f0a60010002000080037003c
:10176000820f5400838f5c000300390010002000ba
:1017700001003e000000200009f0a7000000ea0080
:101780004f05be004f04be000000e0000000060050
:10179000881f7800030478000300e00007003d0084
:1017a00060001000e080180060011900e08119005d
:1017b00002003b0001f02d00030037000400070089
:1017c00008f0a70001f0a0004f0478000000060018
:1017d000889fbe008a9fbe000082700004027100d4
:1017e00004827100260032000004be000200be0028
:1017f0006011b8006b092000950220000182cf0023
:101800000a0039000541b1000082cf00070039000d
:101810000541b1000982cf00040039000541b10043
:101820000882cf00010039000541b1000542520095
:10183000120032000a003b008281710061016400e5
:101840008100d1000080d3008984d3000884d300b4
:101850008b05e8000442e800f7ff3a000700370074
:101860000804440089844c0000004800818048003e
:101870008b05e9000442e900f9ff3a000300070084
:101880004f05be004f04be0000000600810020008e
:10189000618055000b003d000b00200061fe2f0011
:1018a0000100e1001d0034008281710061016400cb
:1018b0008904d1000884d3000000e800faff3a0050
:1018c00071002000610064000300700002006000ed
:1018d0000900320061044400e0844c000988a5003e
:1018e000050032008b05e8006808e10002003a00bc
:1018f0008904d1000884d300f20f20000258e100cf
:1019000005003d00c75ddd00f907b2008980750064
:1019100008007800000006000bf827008b00780014
:10192000000005000004be0014fc07000003be0018
:101930000405be000200be0010fc0700844f7500c5
:10194000000006000400fa00889fbe008a9fbe00c7
:101950008c9fbe000205be000bf0a1000800200015
:1019600009f82700880f5500898f5d0005003e00ab
:101970000003be0007f0a100880f5300898f5b00b1
:10198000060036001bfc07004f06be004f05be00d8
:101990004f04be000080fa0000000600080020008e
:1019a00009f82300880f5100898f590002003a007e
:1019b00097000700f4ff37004e1cde0009002000ee
:1019c00088bf9f0099bf9f000fbe9700620466000a
:1019d0008004eb004f0ade000500200004047400c0
:1019e00085847400e00f5300e08f5b0009003a002b
:1019f000e20f5400e08f5c007f003200e20f5400e1
:101a0000e08f5c00e0ff3900e30f5400e08f5c00e2
:101a10005f003200e00f5500e08f5d0008003a00e3
:101a2000610064008000eb00e00f5000e08f580080
:101a300074003200b0fd200091fc2b00d2ff370073
:101a40000400200005f82700840f5500858f5d00f5
:101a50000f003a008a0f53008b8f5b0040003a0062
:101a6000e10f5400e08f5c0058003200e00f54009a
:101a7000e08f5c0058003200e20f5400e08f5c0001
:101a80002b003200e30f5400e08f5c003100320085
:101a90000c0020000dd020000a0246008b824e0070
:101aa000840f5300858f5b00ddff3e0004002000a3
:101ab00005f82700840f5300858f5b00d8ff3200a4
:101ac000620264008002eb00e00f5200e08f5a00d7
:101ad000050032000606460087864e008c0f550032
:101ae0008d8f5d002d003e00a7fc070081010700df
:101af00047000700e10f5400e08f5c00290032002e
:101b0000e00f5400e08f5c009fff3200e20f5400b2
:101b1000e08f5c0025003200e2d22b00b33b2300b3
:101b2000b4fb0700b2fd2000930424002500370019
:101b30000200200003042400b0fd200091042400d2
:101b400070fd07000200200003e823006dfd070080
:101b50008dff37000200200003042c00f6ff370041
:101b6000e10f5400e08f5c001e003200e00f5400d3
:101b7000e08f5c001e003200e20f5400e08f5c003a
:101b80001d003200e30f5400e08f5c00c0ff3a00fc
:101b9000b0fd200091042c007bff37006000b800ee
:101ba000d4ff370001f0a20077ff3700e2d22b000c
:101bb000b33b23008ffb07000001be00b0fd2000f7
:101bc0009104240082fb07006fff3700b0fd200066
:101bd00091f42b006cff3700b0fd200091f423003e
:101be00069ff3700000020000100280066ff370071
:101bf0006000b80064ff3700b0fd200091042400ad
:101c000061ff3700b0fd200091fc23005eff37002c
:101c1000ea874700889fbe008a9fbe008c9fbe0057
:101c20008e1f78000002be004f0dde000b0020006a
:101c3000000478008504780009f0a100f0ff2f006f
:101c4000f1c72400800f5400818f5c001000360023
:101c50000000200001f82700800f5400818f5c00f5
:101c600025003e000200200003382000a0fd2000d7
:101c700091fc23005ffb07000002be00e00f55004f
:101c8000e08f5d001c00320005f0a2001a00370052
:101c9000f0ff2f00f1ed2300800f5400818f5c00d6
:101ca0001c003e000087eb00f0ff2f00f19723009f
:101cb000800f5400818f5c0033003e006000b8004c
:101cc00003f8270085806100e00f5000e08f580086
:101cd00009003a000401be000400be00f4b79f00f2
:101ce00085bf9f0007fd0700d0b79f00e1b79f00a9
:101cf0007fb297008fba97000400be004f077800ac
:101d00004f06be004f05be004f04be00af00b1003d
:101d1000000006000400be00f60007000006be003a
:101d2000f0ff2f0071f92300800f5400818f5c00b9
:101d300055003e00f0ff2f00f1f22300800f540009
:101d4000818f5c0041003e000c01be000c00be0013
:101d500028fb07000200200003f823001cfb0700fb
:101d60000004be0002002000030024000c00be009e
:101d700020fb07000001be000800be0002fc0700b7
:101d80000002be000007eb000401be000400be001c
:101d9000f4b79f0085bf9f00dafc07000006be0075
:101da0000001be00d7fc07000004be0052c22a009a
:101db000c3d72300d3fc0700d2502f0013e1230028
:101dc0000cfb07000801be00cefc070092aa2a0007
:101dd000a3ea230007fb07000c01be00c9fc0700b3
:101de0000006be0072242100a3dd2b000800be0007
:101df000c4fc070082a92c00c3e42300f4fa070006
:101e00000801be00bffc07000001be000c00be00c0
:101e1000f8fa07007fb297008fba97000401be005e
:101e2000b8fc07000003be000e00e0007fb2970080
:101e30008fba970032003d000001be000400be00d2
:101e4000e3fa07000002be00abff370002002000eb
:101e500003f823000c00be00ddfa07000004be00fa
:101e60000200200003f823000c00be00e1fa070086
:101e70000001be000800be00c3fb07000002be0058
:101e80001e002000c0ff3700f0ff2f00b10124002a
:101e9000800f5400818f5c0012003e000200200081
:101ea00003fc23000c00be00c9fa07000004be00ba
:101eb0000200200003fc23000c00be0091fc070080
:101ec0000200200003f82300cafa07000001be0048
:101ed0000800be00acfb07000002be002e00200080
:101ee000a9ff37000c01be000000200001f82b0004
:101ef000a5fb07000002be003e002000a2ff370045
:101f00004277dd00e83621000e044400e035210070
:101f10000e0740001e0178009e0190000600be00e2
:101f2000f4b79f0085bf9f00a9fa07007fb2970012
:101f30008fba97000401be00a5fa07000001be0099
:101f40001800780098009000a1fa07004aff3700b7
:101f50000400fa000001be0003f0a100a4fd20006f
:101f600095f42300840f5100858f59000e003e0028
:101f7000f4ff2f00f5972300840f5100858f59003f
:101f80003a003e000200200003b8270099fa07003b
:101f9000e0bf9f00f1bf9f000000200001f8230078
:101fa0000080fa00000006004f0ade000500200055
:101fb000163d2500b7072400860f5100878f590072
:101fc0001b003e0036be2c0067012400860f510026
:101fd000878f59000a003600b2fd200093042400c8
:101fe0000400e0000400320082fa070060010700ec
:101ff00001f0a200eaff370075fa0700fbff370087
:102000000400e00005003200b2fd200093fc230034
:1020100078fa0700e1010700e1ff37000001be0088
:10202000b0fd200091fc230069fa0700f9ff37009a
:10203000561d2300270e2400860f5100878f59005c
:1020400014003e00f6dd2e00f70a2400860f510032
:10205000878f590009003600b2fd2000930c240040
:102060000400e0000300320062fa070040010700ac
:10207000cbff370056fa0700fcff37000400e000f2
:102080000100320001f0a20042be2c0063092400ce
:10209000e5ff3700f4ff2f00f5f72700840f51000c
:1020a000858f5900040036000001be000200be000a
:1020b00047fa0700baff3700c2ff2f000f014100a7
:1020c0005f010700630160006fb89700ffb89700d9
:1020d000e10f510005003200e20f5100c3ff320052
:1020e0000200e000cbff3a00e0ff370001f0a20061
:1020f000c8ff37000101780002f0a10082007800db
:10210000000006000400fa00889fbe008a9fbe00ff
:102110000203410083834900e00f5300e08f5b001e
:102120000f0032000202be0005f0a10008002000ee
:1021300009f82700880f5200898f5a0008003e00d6
:10214000a0bf9f00b1bf9f00470dde000b00200025
:10215000f40f20000a056200840f550007003a00c2
:10216000e8fb07000001be0007fb07004f05be00ab
:102170004f04be000080fa0000000600000240008c
:1021800081824800840f5300858f5b000600390070
:10219000840f5300858f5b00f4ff3a006011b80094
:1021a000d8fb0700f1ff37000a00e0004c003a00be
:1021b0002fbb9700bfbb9700493add00c732de0056
:1021c000850272004932dd00e00f5200e08f5a00b4
:1021d0003f003d00610215002fbb9700bfbb970079
:1021e000040478000804e9000300330006034300f8
:1021f00087834b00fbff37000602be00471bde0053
:10220000070020000683fb000600e0003d003a00c6
:10221000491cdd00c714de00890474004914dd0088
:10222000e00f5400e08f5c0032003d00e10313003a
:102230000204be008703e9000300330008044400e1
:1022400089844c00fbff37000801520089815a0045
:10225000860f55002f003c00e00f5100e08f590021
:1022600004003500e00f5100e08f5900cbff320031
:102270000202be004728de0001002000e00f5000ef
:10228000e08f58002e0032000a00e00030003400d9
:102290000000200001f82f00040240008582480061
:1022a0006150b900c700dd0000002000040070008c
:1022b000858070006022b80002002800bfb9970036
:1022c000830261000000720081807200a7ff370066
:1022d0000a05e9000402420085824a00baff37007d
:1022e0002fba9700bfba9700f507b2000570a0009b
:1022f000c2ff37000603e9000804440089844c004b
:10230000c7ff37000204be00f907b2000970a00041
:10231000cdff3700e00f5100e08f59000400350079
:10232000e00f5100e08f59009cff32000202be0016
:102330000402420085824a000a05e900c2ff370014
:102340000402420085824a000a05e900c9ff3700fd
:10235000610515000400be000a05e9000300330012
:102360008100d1000080d300fbff3700d1ff370090
:102370000400fa00889fbe000004be0089007800b7
:1023800001f0a100a4fd200095f42300840f50006b
:10239000858f58001e003e00f4ff2f00f5972300a4
:1023a000840f5000858f580016003e006000b80072
:1023b00003f8270089806100e00f5000e08f58008b
:1023c0000b003a0002002000033820000800be0085
:1023d0004cfb07000001be00c2bf9f00d3bf9f009f
:1023e0000800be004f04be000080fa000000060096
:1023f0000200200003b827000800be007df9070096
:10240000f4ff37000800be00e400070018003700a2
:102410004f49de0003002000143d2500b5072400cd
:10242000840f5000858f58001d003e0034be2c00e4
:1024300065012400840f5000858f58000e003e0077
:102440000800be000200e000b2fd200093fc230063
:102450000500320067f90700450007000004be00d0
:1024600009f0a200deff370059f90700400007001d
:102470000004be00daff37000800be000200e000e2
:10248000b2fd2000930424000300320059f9070034
:1024900001f0a200dcff37004df90700fcff370018
:1024a000541d2300250e2400840f5000858f5800f2
:1024b00017003e00f4dd2e00f50a2400840f5000c2
:1024c000858f580009003e000800be000200e000b1
:1024d00042be2c00630924000200320045f90700c7
:1024e000e2ff37003af90700dbff37000800be00c3
:1024f0000200e000b2fd2000930c24000200320034
:102500003cf90700c0ff370031f90700beff370074
:10251000f2ff2f00f3f72700820f5000838f58003f
:10252000050036000801be000800be0028f90700bb
:102530000004be00aaff370082ff2f000f014100f8
:102540000800be003e000700630160004fb897001e
:10255000dfb89700e10f5100c4ff3200e20f5100d5
:10256000cbff32000200e000bbff3a00a6ff3700bd
:102570000400fa00889fbe008a9fbe008c9fbe00a8
:102580000001be00dffa07000004be000001be002b
:10259000dcfa07000005be000200200003f02b005b
:1025a0000800be00d7fa07000200200003f823004d
:1025b00010f907000006be00f2a92a00a3d22300ea
:1025c0000a00be00cffa07000001be000c00be00ea
:1025d00008f907000002be0072a12900c37c230095
:1025e0000800be0084bf9f0095bf9f00c5fa07008a
:1025f000f243200063ab2300f5f807000006be009d
:102600000a01be000800be00befa07000001be00bd
:102610000c00be00bbfa07000001be000fba970015
:102620009fba97000400be00f2f807004f06be00f4
:102630004f05be004f04be000080fa0000000600f7
:102640000400fa00889fbe008a9fbe008c9fbe00d7
:1026500000067800810478008206780001f0a1006d
:10266000a2fd200093dc2400820f5000838f5800cd
:1026700023003e0032982f0023f2230089007800c7
:10268000a0fa07000200200003b42400d9f80700d4
:102690000200200003b42400cdf807000005be00ae
:1026a00075f8070000047800a2fd200093fc2300c9
:1026b0000a00be0093fa07000001be000c0078007b
:1026c00089007800c2f807000002be00325a2800d4
:1026d000832823000a00be0084bf9f0095bf9f008f
:1026e00088fa07000001be000fba97009fba970052
:1026f0000400be00b6f80700808ebe000b00370055
:10270000f2ff2f00f3f72700820f5000838f58004d
:102710000c003600000178008901780089007800fb
:10272000abf80700808ebe000004eb0008007800c4
:102730004f06be004f05be004f04be000080fa00e9
:1027400000000600890078004c0007000005be006c
:1027500032982f0023f223006afa070002002000bb
:1027600003f02300a3f807005500070000047800d9
:1027700007fc070032982f0023f2230082f907009c
:102780000001be000a00be0091f807006000b8001a
:10279000a0069800b1069800d7ff37000400fa00a1
:1027a000889fbe008a9fbe008c9fbe000006be00b0
:1027b0000001be0053fa07000004be000001be0085
:1027c0000c00be004ffa07000005be000801be0065
:1027d0000800be004bfa07000a01be0049fa0700d4
:1027e0000002be00c2c32600636323000800be00cf
:1027f00084bf9f0095bf9f0042fa0700f27c200033
:102800000395230072f807000001be000fba97007d
:102810009fba97000400be003afa07000002be000b
:102820004288280083c023000800be0084bf9f00a8
:1028300095bf9f0033fa0700b2aa2a00a3e2230043
:1028400063f807000a01be002efa07000c01be0063
:1028500068f807000001be000fba97009fba970002
:102860000400be0063f807004f06be004f05be001f
:102870004f04be000080fa00000006000400fa00c9
:102880006011b800e2bf9f00f3bf9f006fbb9700cd
:10289000ffbb97000002be00f0ff2f00f1ff2f00ea
:1028a000f2ff2f00f3ff270000006200818062002a
:1028b00002016300838163000080fa0000000600cb
:1028c0000003be002df807006011b8000470a700d7
:1028d00007f0a1006509b1001b00320012003500ad
:1028e000860220000628e10008003500f3ff2700db
:1028f000f2ff2f006110b9000700e00018003b0054
:10290000030028006000b80002000500000040003d
:102910008180480002014900838149008502e90065
:10292000faff3a0008003700f88f420002003c002e
:102930008000eb00000005008100d1000080d30082
:102940008502e800fcff3a000700e00004003b00bd
:1029500060001000e080180060011900e08119009b
:04296000000006006d
:020000040000fa
:102964000000000040420000000000008841000018
:08297400cdcc0000cc3d0000b9
:020000040000fa
:10297c002200fa00889fbe004085800051858000af
:10298c00baf70700000f78002085800031858000a1
:10299c00b6f70700100798006085800071858000ed
:1029ac00b2f7070020079800808580009185800091
:1029bc00aef7070030079800a0858000b185800035
:1029cc00aaf70700400798000e80e8009e007800e8
:1029dc00108040006100b900e0f707000200200001
:1029ec0003002400e5f807005007980061079800e1
:1029fc00e600470068004700110178001000410014
:102a0c006100b900d5f70700020020000300240084
:102a1c00daf8070070079800010f98005e0090002c
:102a2c00ee0090000001be00eff7070000017800f7
:102a3c000100780082047800000478002e009000d9
:102a4c006100b900c5f707000001be00090078005d
:102a5c00880078000000be00e3f707000001780052
:102a6c000100780082027800000278000200200049
:102a7c000304240005007800840078000000be00e8
:102a8c00bef80700100f9800210f98007e009000f0
:102a9c008e0890000001be00d3f7070000017800fb
:102aac000100780082047800000478002e00900069
:102abc006100b900a9f707000001be000900780009
:102acc00880078000000be00c7f7070000017800fe
:102adc0001007800820278000002780002002000d9
:102aec000304240005007800840078000000be0078
:102afc00a2f80700300f9800410f9800000020004a
:102b0c00811b2400500f9800610f980000002000da
:102b1c0001142400700f9800011798000200200087
:102b2c00832c24001e089000ae08900093f8070038
:102b3c00000178000100780082047800000478001d
:102b4c007e0990008e1190005e089000ee089000b7
:102b5c009cf70700000178000100780082017800e2
:102b6c000001780003007800820078000001be00ac
:102b7c0009007800880078000000be005ef90700ac
:102b8c0000017800010078008202780000027800d1
:102b9c007e0990008e11900005007800840078006a
:102bac000000be0090f707000001780001007800db
:102bbc008201780000017800030078008200780020
:102bcc000000be0029f707000083880002002000e7
:102bdc00832c24003e089000ce08900067f8070074
:102bec00000178000100780082047800000478006d
:102bfc007e0990008e1190005e089000ee08900007
:102c0c0070f707000001780001007800820178005d
:102c1c000001780003007800820078000001be00fb
:102c2c0009007800880078000000be0032f9070027
:102c3c000001780001007800820278000002780020
:102c4c007e0990008e1190000500780084007800b9
:102c5c000000be0064f70700000178000100780056
:102c6c00820178000001780003007800820078006f
:102c7c000000be00fdf60700f0828800f0828000a4
:102c8c00f70f500002003400040ea80001003700ba
:102c9c00040ea900000000004f04be000080fa00e2
:102cac00000006000400fa00008fbe0002002000a5
:102cbc00031f24001e0078009e009000e7f607001a
:102ccc000000e00002003d00100020000100370071
:102cdc000000eb000080fa00000006000400fa007f
:102cec00008fbe0002002000031f24001e0078008d
:102cfc009e009000d9f607000000e00002003d00a5
:102d0c0010002000010037000000eb000080fa00ea
:102d1c00000006000200fa000040eb00004f7800b3
:102d2c002085800031858000deff07000000e00078
:102d3c00030032001e4078000044a000004f7800d1
:102d4c004085800051858000d6ff07000000e00020
:102d5c00030032001e4078000034a000004f7800c1
:102d6c006085800071858000ceff07000000e000c8
:102d7c00030032001e4078000024a000004f7800b1
:102d8c008085800091858000c6ff07000000e00070
:102d9c00030032001e4078000014a000004f7800a1
:102dac00a0858000b1858000beff07000000e00018
:102dbc00030032001e4078000004a000004f780091
:102dcc001e4078000080fa00000006000000fa00a7
:102ddc0066d0bf000080fb006100b900f20020004b
:102dec0003002000820f5000838f58009c003e008f
:102dfc00000601000f0037001800370021003700d3
:102e0c003d0037003e0037004800370063003700b4
:102e1c006d00370047003700510037005200370073
:102e2c005c0037006a003700790037007a00370001
:102e3c00890037006c30ef006e30ef000041eb0082
:102e4c006000b8009e0d070012c0b3006000b8000f
:102e5c009b0d070010c0b30066f0b70062838000c2
:102e6c0073838000803e200001002000800f510001
:102e7c00818f59007c00360020c0b30066f0b7008b
:102e8c007900370060858000718580000200200089
:102e9c00032a240073f607000000e000050034004c
:102eac00900120002083880090012000108388006e
:102ebc0004003700f000200020838800f000200080
:102ecc0010838800f08280006100b900a3f607002f
:102edc000041eb007a0d0700008380006100b9000f
:102eec009ef6070012c0b300750d070030c0b3008a
:102efc0066f0b7005d0037008c0107005b003700ff
:102f0c000041eb006000b8006d0d0700f0828000fe
:102f1c006100b90091f6070012c0b300680d0700fc
:102f2c0050c0b30066f0b700500037007f010700b7
:102f3c004e0037000041eb006000b800600d070048
:102f4c00f08280006100b90084f6070012c0b30063
:102f5c005b0d070090c0b30066f0b700430037006c
:102f6c007201070041003700008380006100b90046
:102f7c007af607000041eb00510d070012c0b300b8
:102f8c006000b8004e0d0700b0c0b30066f0b7008b
:102f9c0036003700650107003400370000838000dd
:102fac006100b9006df607000041eb00440d07000d
:102fbc0012c0b3006000b800410d070070c0b30030
:102fcc0066f0b700290037005801070027003700ca
:102fdc00008380006f0040006100b9005ff60700bd
:102fec000041eb00360d0700f182800010ff2f002e
:102ffc00010050006100b90058f6070012c0b30080
:10300c002f0d0700d0c0b30066f0b70017003700d3
:10301c0046010700150037000183800010ff2f00c8
:10302c00010050006100b9004cf607000041eb00b4
:10303c00230d0700f08280006f0040006100b90092
:10304c0046f6070012c0b3001d0d0700f0c0b30018
:10305c0066f0b700050037003401070003003700a5
:10306c006670ef0001003700000000000000000057
:10307c000080fa00000006000600fa006e0f070040
:10308c000004e000260132006f0f0700660f0700f6
:10309c00200798002e009000100078008000eb00b4
:1030ac0031f60700323323003305240012f80700f1
:1030bc00000178000100780082027800000278009c
:1030cc0002002000035824000500780084007800da
:1030dc000000be0029f70700008fbe0062662600c4
:1030ec0063ea23001e0078009e009000dbf50700c9
:1030fc000000e00003003d006066260061ea23004a
:10310c00008fbe001e0178009e0190000000200080
:10311c008120240019f707000001780001007800d5
:10312c00820278000002780002002000030a2400ca
:10313c0005007800840078000000be0021f607002e
:10314c00800178000101780003007800820078008b
:10315c000000be002085880031858800640047008f
:10316c001080e800100078008000eb00fef50700ee
:10317c003233230033052400dff707000001780009
:10318c000100780082027800000278000200200022
:10319c000358240005007800840078000000be006d
:1031ac00f6f60700008fbe006266260063ea230075
:1031bc001e0078009e009000a8f507000000e000bb
:1031cc0003003d006066260061ea2300008fbe000c
:1031dc001e0178009e019000000020008120240038
:1031ec00e6f6070000017800010078008202780002
:1031fc000002780002002000030a24000500780079
:10320c00840078000000be00eef507008001780015
:10321c000101780003007800820078000000be00f5
:10322c0040858800518588006400470041002000db
:10323c0010804000100078008000eb00caf50700f9
:10324c003233230033052400abf70700000178006c
:10325c000100780082027800000278000200200051
:10326c000358240005007800840078000000be009c
:10327c00c2f60700008fbe006266260063ea2300d8
:10328c001e0078009e00900074f507000000e0001e
:10329c0003003d006066260061ea2300008fbe003b
:1032ac001e0178009e019000000020008120240067
:1032bc00b2f6070000017800010078008202780065
:1032cc000002780002002000030a240005007800a8
:1032dc00840078000000be00baf507008001780079
:1032ec000101780003007800820078000000be0025
:1032fc0060858800718588006400470061002000ab
:10330c0010804000100078008000eb0096f507005c
:10331c00323323003305240077f7070000017800cf
:10332c000100780082027800000278000200200080
:10333c000358240005007800840078000000be00cb
:10334c008ef60700008fbe006266260063ea23003b
:10335c001e0078009e00900040f507000000e00081
:10336c0003003d006066260061ea2300008fbe006a
:10337c001e0178009e019000000020008120240096
:10338c007ef60700000178000100780082027800c8
:10339c000002780002002000030a240005007800d7
:1033ac00840078000000be0086f5070080017800dc
:1033bc000101780003007800820078000000be0054
:1033cc00808588009185880064004700810020007a
:1033dc0010804000100078008000eb0062f50700c0
:1033ec00323323003305240043f707000001780033
:1033fc0001007800820278000002780002002000b0
:10340c000358240005007800840078000000be00fa
:10341c005af60700008fbe006266260063ea23009e
:10342c001e0078009e0090000cf507000000e000e4
:10343c0003003d006066260061ea2300008fbe0099
:10344c001e0178009e0190000000200081202400c5
:10345c004af607000001780001007800820278002b
:10346c000002780002002000030a24000500780006
:10347c00840078000000be0052f50700800178003f
:10348c000101780003007800820078000000be0083
:10349c00a0858800b185880020858000318580005a
:1034ac0013f507008040780080382100014878002f
:1034bc0040858000518580000df507008040780024
:1034cc008038210011409800608580007185800053
:1034dc0007f50700804078008038210021409800d3
:1034ec00808580009185800001f507008040780080
:1034fc008038210031409800a0858000b185800083
:10350c00fbf407008040780080382100414098008f
:10351c0082382100510020000003200055010700d3
:10352c00000000000080fa00000006000000fa0015
:10353c00f8fd07000080fb0040838800408380007a
:10354c006100b900f201200003002000820f50003e
:10355c00838f58007e003e00000601001f003700dc
:10356c0021003700230037002500370027003700e3
:10357c0079003700280037002a0037002c0037006c
:10358c002e0037003000370032003700340037008f
:10359c0036003700380037003a0037003c0037005f
:1035ac003e0037004000370042003700440037002f
:1035bc0046003700480037004a0037004c003700ff
:1035cc004e003700500037005200370054003700cf
:1035dc0056003700580037005a00370020c0b3009f
:1035ec006af0b7005d00370040c0b3006af0b70066
:1035fc005a00370040c0b3006af0b70057003700dc
:10360c0040c0b3006af0b70054003700c0c0b3002c
:10361c006af0b7005100370040c0b3006af0b70041
:10362c004e00370040c0b3006af0b7004b003700c3
:10363c00a0c0b3006af0b70048003700a0c0b300c8
:10364c006af0b70045003700a0c0b3006af0b700bd
:10365c0042003700a0c0b3006af0b7003f0037004b
:10366c00a0c0b3006af0b7003c003700e0c0b30064
:10367c006af0b70039003700e0c0b3006af0b70059
:10368c0036003700c0c0b3006af0b7003300370013
:10369c00a0c0b3006af0b7003000370020c0b30000
:1036ac006af0b7002d00370040c0b3006af0b700d5
:1036bc002a003700e0c0b3006af0b70027003700db
:1036cc00e0c0b3006af0b70024003700e0c0b300dc
:1036dc006af0b70021003700a0c0b3006af0b70051
:1036ec001e003700e0c0b3006af0b7001b003700c3
:1036fc00a0c0b3006af0b70018003700a0c0b30038
:10370c006af0b70015003700a0c0b3006af0b7002c
:10371c0012003700a0c0b3006af0b7000f003700ea
:10372c00a0c0b3006af0b7000c003700e0c0b300d3
:10373c006af0b70009003700e0c0b3006af0b700c8
:10374c0006003700e0c0b3006af0b7000300370092
:10375c000000000001003700000000006ad0bf002c
:10376c000080fb0061062100914078008180fb0005
:10377c008100e900810f5000060032006ad0bf00c2
:10378c0066f0b70061062100914078002009210005
:10379c0001487800000000000080fa0000000600dc
:1037ac000000fa00ad0d0700f90d070084aea8006b
:1037bc0084cea800848ea800754ea800856ea80043
:1037cc009f080700a60807000d0707000007070061
:1037dc0025070700200a0700510d0700c30e07003c
:1037ec0000002000010024003087880041878800f9
:1037fc0000002000011f240050878800618788008a
:10380c006000b80070878800818788000000200065
:10381c0001042400b0888800c188880000002000c2
:10382c0001122400d0888800e18888006000b8006c
:10383c00f08888000189880000002000812c240079
:10384c00108988002189880000002000812c240028
:10385c00308988004189880000002000812c2400d8
:10386c00508988006189880000002000812c240088
:10387c0090878800a187880000002000812c2400fc
:10388c00b0878800c187880000002000812c2400ac
:10389c00d0878800e1878800907380000000d100f9
:1038ac00614060000004e00039003a00020037007b
:1038bc005e0e0700e40007006b0e07000004e0003a
:1038cc00fbff3a00408580005185800002002000fb
:1038dc00031a2400e3f307000000e00002003400a8
:1038ec0084aea8000100370084aea90020858000ba
:1038fc003185800002002000031a2400d9f3070050
:10390c000000e0000200340084cea8000100370063
:10391c0084cea900608580007185800002002000a3
:10392c00031a2400cff307000000e000020034006b
:10393c00848ea80001003700848ea900a085800029
:10394c00b185800002002000031a2400c5f3070093
:10395c000000e00002003400754ea80001003700a2
:10396c00754ea900808580009185800002002000a2
:10397c00031a2400bbf307000000e000020034002f
:10398c00856ea800ccff3700856ea900caff3700f2
:10399c000000eb000080fa00000006000a00fa00ac
:1039ac002007980031079800420798000040eb0070
:1039bc00004f78009e407800e0cfb30000c0680054
:1039cc00004f78002e0090004880de000040780008
:1039dc009e40780000c06800004f78002e009000d8
:1039ec00004078009e40780000c06800004f7800ce
:1039fc003e0090004880de00004078009e40780039
:103a0c0000c06800004f78003e0090000040780035
:103a1c009e40780000c06800004f78000000eb006a
:103a2c00100798000c0037001e009000e8004700bb
:103a3c0011004000104078009e40780000c06800e3
:103a4c00004f78000e80e8008e80e8001108e80036
:103a5c0090007800110798009e0090003e009000a6
:103a6c00808f5000f0ff35001e4078000080fa0077
:103a7c00000006000e00fa00889fbe008a1f780026
:103a8c004007980051079800620798008f0478004f
:103a9c000f007800000578006a00470061002000e4
:103aac00108040008000e900210798000000e80029
:103abc000000d100800040000f0078008187470093
:103acc0060004000300798000000eb0010079800e1
:103adc009e0090000e80e8000108e80010017800bc
:103aec00120798003e00900001004000e1cfb300a7
:103afc00014878004e009000c880de001e01900046
:103b0c000e80e8000208e800900178001307980086
:103b1c00814078003e00900002004000014878008f
:103b2c009e0090000e80e8000108e800100178006b
:103b3c00120798004e009000004178003e00900063
:103b4c0001004000024878005e009000c880de0052
:103b5c001e0190000e80e8000208e8009001780039
:103b6c0013079800814078003e009000020040004e
:103b7c00014878009e0090000e80e8000108e800e3
:103b8c0010017800120798005e0090000041780048
:103b9c003e00900001004000024878000000eb005d
:103bac00000f78000d0037001e007800ec00470075
:103bbc00910040001e0190000e80e8000208e80011
:103bcc009001780013079800914078003e00900017
:103bdc0002004000014878001e0fe8005e009000d3
:103bec009e007800808f5000efff35001e0490007f
:103bfc000e80e8000808e800900078001107980093
:103c0c006e019000de0090004e00900063ff0700f4
:103c1c00804078003e009000080040000148780089
:103c2c003e0090009e009000da0b07008a07780097
:103c3c0000000000890778004f0578004f04be0093
:103c4c000080fa00000006000200fa00004f780025
:103c5c0000808000e40f500023003200e40f50007d
:103c6c0007003c00e20f500012003200e20f50003f
:103c7c0016003c000000e000080032005200370043
:103c8c00e60f500030003200e60f50001c003500eb
:103c9c00e70f5000390032004b0037001e4078000f
:103cac00e24f40004a003a002000200000808800cb
:103cbc00470037001e80fb004800dd0010808800a4
:103ccc003000200000808800440037001e80fb007c
:103cdc00118080000080700010808800400020005f
:103cec00008088003d0037001e80fb004800dd008e
:103cfc0020808800500020000080880037003700aa
:103d0c001e80fb0020808800208080000000e000e6
:103d1c0003003a0070002000008088002f0037005c
:103d2c0021808000f03f2000808f500004003c0078
:103d3c0060002000008088000630ef00270037006c
:103d4c000030ef0025003700318080000100e800d2
:103d5c003080880060172100010040001e48780068
:103d6c003180800020808000808f50001a00350048
:103d7c007000200000808800170037002180800030
:103d8c00108080006217210004ff070008f0b700c4
:103d9c001e417800910021008248780081002100aa
:103dac009140780009d0bf0080cf500004003a0049
:103dbc002180800010808000621721000a0007001b
:103dcc000030ef00050037000030ef000300370033
:103ddc00000000000100370000000000000000009f
:103dec000080fa00000006000600fa00000f7800c0
:103dfc001107980022079800200720009e007800e9
:103e0c00808f500032003200200720009e00780086
:103e1c00808f50000d003c00100520009e007800a3
:103e2c00808f500091013200200520009e00780008
:103e3c00808f500016003200000220009e00780097
:103e4c00808f50001d01320089013700400720008f
:103e5c009e007800808f5000120032004007200036
:103e6c009e007800808f50006300350050072000c2
:103e7c009e007800808f5000a900320000092000bd
:103e8c009e007800808f5000e200320078013700ed
:103e9c002e009000104078000080fb004c0d0700b5
:103eac00730137008000eb002e009000200a070001
:103ebc00708a8800818a8800410020002e009000c2
:103ecc001b0a0700908a8800a18a880068013700c5
:103edc006000b80050888800618888006000b800d5
:103eec0070888800818888006000b80090888800fd
:103efc00a18888006000b800f087880001888800dd
:103f0c006000b800308a8800418a88006000b800e0
:103f1c00708a8800818a88008000eb002e00900057
:103f2c00030a0700a0808800b180880041002000af
:103f3c002e009000fe090700c0808800d180880008
:103f4c00810020002e009000f9090700e080880015
:103f5c00f1808800a0808000b18080000001be004c
:103f6c008000eb00e0152100150a0700c0808000de
:103f7c00d18080000001be0041002000e01521002e
:103f8c000f0a0700e0808000f18080000001be0075
:103f9c0081002000e0152100090a0700e68080005e
:103fac00f7808000c4808000d5808000a2808000d3
:103fbc00b380800000002000812c2400809fbe0074
:103fcc0000002000812c2400809fbe0000002000f7
:103fdc00812c2400809fbe00600e21002701070069
:103fec00ec875700e2152100c100200020072000bb
:103ffc00a0fe07001e0137006000b800d0898800c1
:10400c00e18988006000b800f0898800018a880086
:10401c006000b800108a8800218a88006000b8000f
:10402c0070898800818988006000b800508a8800f7
:10403c00618a88006000b800908a8800a18a880094
:10404c008000eb002e009000b9090700a0808800ca
:10405c00b1808800410020002e009000b4090700b8
:10406c00c0808800d1808800810020002e00900044
:10407c00af090700e0808800f1808800a0808000f4
:10408c00b18080000001be008000eb00a016210072
:10409c00cb090700c0808000d18080000001be00e9
:1040ac0041002000a0162100c5090700e080800017
:1040bc00f18080000001be0081002000a0162100cc
:1040cc00bf090700e6808000f7808000c480800074
:1040dc00d5808000a2808000b3808000000020008a
:1040ec00812c2400809fbe0000002000812c240025
:1040fc00809fbe0000002000812c2400809fbe0009
:10410c0060112100dd000700ec875700a21621008a
:10411c00c10020003007200056fe0700d4003700f5
:10412c006000b800d0898800e18988006000b80080
:10413c00f0898800018a88006000b800108a880025
:10414c00218a88006000b800708988008189880005
:10415c006000b80050888800618888006000b80052
:10416c0070888800818888006000b800908888007a
:10417c00a18888006000b800f0878800018888005a
:10418c006000b800508a8800618a88006000b8001e
:10419c00308a8800418a880000002000812c24008d
:1041ac00809fbe0000002000812c2400809fbe0058
:1041bc0000002000812c2400809fbe006033b800da
:1041cc006022b8006011b80060112100ab0007003c
:1041dc00ec87570000002000812c2400809fbe003b
:1041ec0000002000812c2400809fbe0000002000d5
:1041fc00812c2400809fbe006033b8006022b80080
:10420c006011b800600e21009c000700ec8757007d
:10421c00970037008000eb002e0090004409070047
:10422c000001be00400321000288be0041002000b6
:10423c002e0090003e0907000001be004003210043
:10424c0022009800330098007286800083868000dc
:10425c00c00221000288be00b2868000c3868000a6
:10426c00c002210022009800330098004103210075
:10427c00c0022100110278009102900021039000ed
:10428c00b10390009000900020019000b0019000cc
:10429c0010007800cb03070001f0a200d08a880040
:1042ac00e18a88008000eb002e00900020090700b6
:1042bc00d08a8800e18a88006d0037002e009000bb
:1042cc00104078000080fb00e30f50001800320013
:1042dc00e30f500005003c00e10f500008003200d5
:1042ec00e20f50000c00320023003700e40f5000a6
:1042fc0015003200e50f5000190032001e00370087
:10430c00640047001000e800104078000080fb00bb
:10431c005080880018003700640047001000e80047
:10432c00104078000080fb0060808800120037008d
:10433c00640047001000e800104078000080fb008b
:10434c00708088000c003700640047001000e80003
:10435c00104078000080fb00808088000600370049
:10436c00640047001000e800104078000080fb005b
:10437c00908088000000000050808000e10f500009
:10438c0009003a00508080000040780061406000d5
:10439c000080fb0061006000217080000100a10022
:1043ac000100700020708800508080000040780070
:1043bc00614060000080fb006100600021708000a3
:1043cc000100a10001007000207088006080800056
:1043dc0000407800614060000080fb004f00dd0071
:1043ec00a174800001f0a10001007000a07488008d
:1043fc007080800000407800614060000080fb000d
:10440c00610060004a00dd002170800001a0a10065
:10441c0001007000207088008080800000407800cf
:10442c00614060000080fb00610060004300dd0023
:10443c00a17380000130a10001007000a0738800fe
:10444c009080800000407800614060000080fb009c
:10445c00610060004900dd00217080000190a10026
:10446c00010070002070880001003700000000007f
:10447c00000000000080fa00000006000e00fa00a8
:10448c00000f780012079800230798003407980053
:10449c004507980056079800670798001e0078009b
:1044ac001e019000ae0190000288be001e00780034
:1044bc003eb99700ceb9970062009800730098003f
:1044cc001e0078003e019000ce0190002200980062
:1044dc00330098001e0078001eb99700aeb9970003
:1044ec0002089800130898001e0078005e019000e6
:1044fc00ee01900042009800530098001e007800d6
:10450c007eb197008eb99700220898003308980066
:10451c00000000000080fa00000006001200fa0003
:10452c00889fbe008a9fbe008c9fbe0060079800cb
:10453c0072079800030f98006e0090007e019000a7
:10454c008e09900002109800131098006e009000d5
:10455c0060029000f00290006e00900090009000bd
:10456c00100078000001be000400be0003f207003a
:10457c0000017800010078008204780000047800c3
:10458c006e009000f00090006000900001f0a2001e
:10459c006e0190009201900012017800f7f1070073
:1045ac000001780001007800820178000001780099
:1045bc0009007800880078000002be000300780033
:1045cc00820078000001be007e0090008e089000f2
:1045dc0016090700008fbe006e009000900090003e
:1045ec00100078001e0178009e019000c2f20700b6
:1045fc0080017800010178000300780082007800c7
:10460c000001be006e00900022109800331098003c
:10461c006e009000400c9000d00c90000200200026
:10462c00a33724007e0090008e089000d3f1070081
:10463c000001780001007800820178000001780008
:10464c0003007800820078000001be000800be0064
:10465c00e5f0070080017800010178000300780084
:10466c00820078000001be006e00900042089800a5
:10467c00530898006e009000000a9000900a900079
:10468c006e009000b0009000200090000001be0071
:10469c000400be00b9f107000001780001007800a9
:1046ac0082067800000678006e009000900890005a
:1046bc000008900001f0a2006e019000b201900081
:1046cc0022019000adf10700000178000100780094
:1046dc0082057800000578006e009000400c900078
:1046ec00d00c900002002000a33724007e00900024
:1046fc008e089000a1f107000001780001007800fd
:10470c0082017800000178000300780082007800b4
:10471c000001be000800be00b3f0070000017800e5
:10472c000100780082037800000378000d00780007
:10473c008c0078000002be000b0078008a00780024
:10474c000001be0007007800860078000000be0063
:10475c00b60807000001be006e00900042089800e9
:10476c00530898006e009000400a9000d00a900008
:10477c006e009000b0009000200090000001be0080
:10478c000400be005cf20700800178000101780093
:10479c0003007800820078000001be006e009000db
:1047ac0042109800531098006e009000f008900092
:1047bc00600890000001be007e0090008e08900002
:1047cc0080f0070000017800010078008202780078
:1047dc000002780002002000a337240005007800b6
:1047ec00840078000000be0043f207002007980008
:1047fc00310798006e009000200a9000b00a9000db
:10480c006e009000d0009000400090000001be00af
:10481c000400be0059f10700000178000100780087
:10482c0082047800000478006e009000b0089000bc
:10483c002008900001f0a2006e019000d2019000bf
:10484c00420190004df10700000178000100780052
:10485c008201780000017800090078008800780057
:10486c000002be0003007800820078000001be0048
:10487c002e009000be0090006c08070040079800c6
:10488c00510798006e0090007e0190008e099000f8
:10489c0062089800730898006e009000d000900099
:1048ac00400090004e019000de01900012f20700d3
:1048bc008001780001017800030078008200780004
:1048cc000001be006e0090006210980073109800fa
:1048dc006e00900020129000b01290006e009000bc
:1048ec00d0109000401090000001be000400be00eb
:1048fc003df007000001780001007800820278008a
:10490c00000278006e009000f01090006010900093
:10491c000001be0005007800840078000000be0095
:10492c0031f0070000017800010078008200780067
:10493c008101780000017800030078008200780083
:10494c000000be004f06be004f05be004f04be0067
:10495c000080fa00000006000000fa00748a800053
:10496c00858a800010868000218680000001be00b0
:10497c000400be0013f007008001780001017800ec
:10498c0003007800820078000000be0030888800a8
:10499c0041888800948a8000a58a80003086800037
:1049ac00418680000001be000400be0005f0070037
:1049bc008001780001017800030078008200780003
:1049cc000000be00b0898800c18988003088800052
:1049dc00418880000001be00600e2100cffe070060
:1049ec00308a8800418a8800b0898000c1898000a3
:1049fc000001be0060112100c8fe0700508a88002b
:104a0c00618a88000a000700508a8000618a800051
:104a1c00348a8000458a80000001be000400be007c
:104a2c00c6060700000000000080fa000000060027
:104a3c000000fa00708a8000818a80000001be00ac
:104a4c008000eb00602f21005d07070010868000be
:104a5c00218680000001be0041002000602f210053
:104a6c005707070030888000418880000001be0095
:104a7c0081002000602f210051070700308a800040
:104a8c00418a80000001be00c1002000602f21007f
:104a9c004b07070030878000418780000001be0073
:104aac0001012000602f210045070700508880007d
:104abc00618880000001be0041012000602f2100b0
:104acc003f07070090878000a18780000001be008f
:104adc0081012000602f21003907070050878000da
:104aec00618780000001be00c1012000602f210001
:104afc003307070070888000818880000001be00a9
:104b0c0001022000602f21002d070700b0878000d4
:104b1c00c18780000001be0041022000602f2100ef
:104b2c002707070070878000818780000001be0086
:104b3c0081022000602f210021070700908880004f
:104b4c00a18880000001be00c1022000602f21005e
:104b5c001b070700d0878000e18780000001be00a2
:104b6c0001032000602f210015070700908a8000a8
:104b7c00a18a80000001be0041032000602f2100ab
:104b8c000f07070030868000418680000001be00c0
:104b9c0081032000602f210009070700b0898000e5
:104bac00c18980000001be00c1032000602f2100dc
:104bbc0003070700508a8000618a80000001be0054
:104bcc0001042000602f2100fd060700b088800042
:104bdc00c18880000001be0041042000602f21002c
:104bec00f7060700d0898000e18980000001be0033
:104bfc0081042000602f2100f1060700108980003d
:104c0c00218980000001be00c1042000602f21001a
:104c1c00eb060700d0888000e18880000001be0010
:104c2c0001052000602f2100e5060700f0898000b7
:104c3c00018a80000001be0041052000602f210088
:104c4c00df06070030898000418980000001be002a
:104c5c0081052000602f2100d9060700f088800014
:104c6c00018980000001be00c1052000602f2100d9
:104c7c00d3060700108a8000218a80000001be0044
:104c8c0001062000602f2100cd060700508980000e
:104c9c00618980000001be0041062000602f2100c8
:104cac00c7060700622f2100810620001007200094
:104cbc0070fb0700000000000080fa0000000600f6
:104ccc000c00fa00889fbe008a9fbe00d08a80002c
:104cdc00e18a8000b48a8000c58a80000001be0091
:104cec000400be00980107000002be00b08a8000dc
:104cfc00c18a80000001be000400be0031ef070035
:104d0c0040079800510798004e009000de0090007c
:104d1c0062010700400798005107980054848000f6
:104d2c006584800050848000618480000001be0096
:104d3c000400be00f0f007000001780001007800cc
:104d4c008204780000047800000020000124240074
:104d5c000001be0024ef070000017800010078007c
:104d6c00820178000001780003007800820078004e
:104d7c000001be0009007800880078000000be0029
:104d8c00feef0700008fbe0050848000618480001d
:104d9c006011b800b1ee07000000e00004003d0017
:104dac001e0078009e00900001f0a200008fbe0053
:104dbc005484800065848000d0cc2c00c1dc23009e
:104dcc000001be000400be00cbf0070020079800d5
:104ddc00310798006011b8001e0078009e0090000a
:104dec00a0ee07000000e000060035006011b800de
:104dfc004e009000de0090009aee07000000e000ec
:104e0c000c003d006011b8001e0078009e00900060
:104e1c0092ee07000000e00061003c006011b80059
:104e2c004e009000de0090008cee07000000e000c9
:104e3c005b003c004e009000de009000b8060700be
:104e4c000004be001e0078009e009000b40607000f
:104e5c000001be000800be0082ee07000000e0006a
:104e6c004f0035006011b8004e009000de0090003d
:104e7c007cee07000000e000200034000800200059
:104e8c00891824000400200005242400d0cc2c0018
:104e9c00c1dc23000001be000400be0096f0070038
:104eac00000178000100780082027800000278008e
:104ebc0050848000618480000001be0005007800f1
:104ecc00840078000000be00c7ee070000017800e7
:104edc000100780082027800000278000801be0010
:104eec0005007800840078000000be00b8060700ba
:104efc005084880061848800700037006011b8000d
:104f0c004e009000de00900054ee07000000e00020
:104f1c0001003500690037000000200081182400d2
:104f2c000004be0009f0a2005a8480006b8480004b
:104f3c000400200005242400d0cc2c00c1dc23006c
:104f4c000001be000400be006bf0070000017800f9
:104f5c0001007800820178000001780003007800dd
:104f6c00820078000001be000a00be0095ee07002a
:104f7c0000017800010078008202780000027800bd
:104f8c000801be0005007800840078000000be0017
:104f9c007806070050848800618488004700370039
:104fac0050848000618480006011b8002dee0700f1
:104fbc000000e0001e0034005884800069848000ea
:104fcc000400200005242400d0cc2c00c1dc2300dc
:104fdc000001be000400be0047f00700000178008d
:104fec00010078008201780000017800030078004d
:104ffc00820078000001be000800be0071ee0700c0
:10500c00000178000100780082027800000278002c
:10501c006011b80005007800840078000000be0024
:10502c0054060700508488006184880023003700f0
:10503c0050848000618480006011b80007ee070086
:10504c000000e0001d003d000400200005242400a9
:10505c00d0cc2c00c1dc23000001be000400be003b
:10506c0025f007000001780001007800820278002a
:10507c000002780050848000618480000001be0032
:10508c0005007800840078000000be0056ee070092
:10509c00000178000100780082027800000278009c
:1050ac006011b80005007800840078000000be0094
:1050bc004706070050848800618488004e009000e9
:1050cc00de009000160607000004be002e009000c3
:1050dc00be009000120607000001be000800be00d2
:1050ec00deed07000000e00004003d004e019000e2
:1050fc00de0190002207980033079800b08a8000e8
:10510c00c18a80002e019000be01900036ee07008f
:10511c00800178000101780003007800820078009b
:10512c000000be00b08a8800c18a8800b08a800066
:10513c00c18a800059000700b08a8800c18a8800a3
:10514c0050848000618480006011b800c3ed0700ba
:10515c000000e0000c003a004e009000de009000d1
:10516c00ef050700a2702d0033c22300bbed070032
:10517c000000e00004003d00d08a8000e18a80003d
:10518c00b08a8800c18a8800b08a8000c18a8000f9
:10519c000001be008000eb000039210088050700eb
:1051ac0002392100610020000009200031fa0700bb
:1051bc00000000004f05be004f04be000080fa0046
:1051cc00000006001800fa004007980051079800ec
:1051dc006207980073079800040f9800150f980049
:1051ec00260f9800370f98000e0a90009e0a900028
:1051fc004e009000de0090000001be000400be00d6
:10520c00f0ed0700008fbe002e0a9000be0a900041
:10521c006e009000fe0090000001be000400be0075
:10522c00e8ed070020079800310798001e01780070
:10523c009e0190002e009000be009000bef1070071
:10524c000200200043332400abef0700000178007c
:10525c00010078008202780000027800325c2f0096
:10526c008304240005007800840078000000be0050
:10527c00c2ee07000001780001007800820078007f
:10528c00810178000001780003007800820078002a
:10529c000000be000080fa00000006000400fa00c6
:1052ac00008fbe0002002000433b24001e0078004b
:1052bc009e00900090f30700008fbe0002002000bb
:1052cc00433324001e0078009e00900065ed07001b
:1052dc000000e0000600340002002000433b2400e4
:1052ec001e0078009e009000b6ed0700008fbe00f7
:1052fc000200200043332c001e0078009e0090001a
:10530c0056ed07000000e00006003d000200200002
:10531c00433b24001e0078009e009000b2ed070075
:10532c00008fbe009e0078001e0090008101780066
:10533c000001780003007800820078000000be00b5
:10534c000080fa00000006000c00fa00200798000c
:10535c003107980042079800530798004e019000bf
:10536c00de0190002e009000be00900095ed07002d
:10537c0000017800010078008201780000017800bb
:10538c0003007800820078000000be00c3ff070015
:10539c00008fbe001e0178009e0190002e00900030
:1053ac00be00900090ed070000017800010078002d
:1053bc0082007800810178000001780003007800f9
:1053cc00820078000000be000080fa000000060099
:1053dc000000fa0005e1a9000421a9000068a90059
:1053ec002068a80005e1a80000002000a1372400d7
:1053fc0029000700000000000080fa0000000600f1
:10540c000000fa0013e1a90011e1a9001061a80045
:10541c001021a900800880000040a1000050a100cc
:10542c00800888000a21ef000621ef0030392000a7
:10543c0070088800007028006008880020428000f6
:10544c000000a0000010a1000020a1002042880054
:10545c000108a9002108a80011e1a8000000000023
:10546c000080fa00000006000000fa001fe1a9000d
:10547c001e21a9000368a9002368a8001fe1a80049
:10548c0000002000a1472400b80007000000000025
:10549c000080fa00000006000400fa00008fbe0035
:1054ac00200880000040a1000050a10020088800c6
:1054bc001e0178009e019000001c2e0041c62400a5
:1054cc002eee0700000178000100780082027800bf
:1054dc000002780002f02f00f3772400050078001a
:1054ec00840078000000be00deec07000000e00045
:1054fc008d003400200880000040a0000050a10066
:10550c00200888001e0178009e019000001c2e00cf
:10551c0041c6240019ee0700000178000100780054
:10552c0082027800000278000200200003102400a0
:10553c0005007800840078000000be000fee070024
:10554c0000017800010078008202780000027800e7
:10555c0002f02f00f3772400050078008400780017
:10556c000000be00bfec07000000e0005500340056
:10557c00200880000040a1000050a00020088800f6
:10558c001e0178009e019000001c2e0041c62400d4
:10559c00faed070000017800010078008202780023
:1055ac000002780002002000032824000500780087
:1055bc00840078000000be00f0ed070000017800c8
:1055cc0001007800820278000002780002f02f00bf
:1055dc00f377240005007800840078000000be00fa
:1055ec00a0ec07000000e0001d0034002008800043
:1055fc000040a0000050a000200888001e01780088
:10560c009e019000001c2e0041c62400dbed07001b
:10561c000001780001007800820278000002780016
:10562c000200200003382400050078008400780074
:10563c000000be00d1ed07000001780001007800e9
:10564c008201780000017800030078008200780065
:10565c000000be0085ec07001008880040003700f1
:10566c001e0178009e019000001c2e0041c62400f3
:10567c00c2ed07000001780001007800820278007a
:10568c0000027800020020000328240005007800a6
:10569c00840078000000be00b8ed0700000178001f
:1056ac000100780082017800000178000300780086
:1056bc00820078000000be006cec07001008880027
:1056cc00270037001e0178009e019000001c2e0060
:1056dc0041c62400a9ed0700000178000100780004
:1056ec0082027800000278000200200003102400df
