:020000040000fa
:080000000002040000000000f2
:020000040000fa
:0400080032040000be
:020000040000fa
:04000c0032040000ba
:020000040000fa
:0400100032040000b6
:020000040000fa
:0400140032040000b2
:020000040000fa
:0400180032040000ae
:020000040000fa
:04001c0032040000aa
:020000040000fa
:0400200032040000a6
:020000040000fa
:0400240032040000a2
:020000040000fa
:04002800320400009e
:020000040000fa
:04002c00320400009a
:020000040000fa
:040030003204000096
:020000040000fa
:04003400fa020000cc
:020000040000fa
:04003800320400008e
:020000040000fa
:04003c00320400008a
:020000040000fa
:040040003204000086
:020000040000fa
:040044003204000082
:020000040000fa
:04004800340300007d
:020000040000fa
:04004c00320400007a
:020000040000fa
:040050003204000076
:020000040000fa
:04005400ea030000bb
:020000040000fa
:04005800be030000e3
:020000040000fa
:04005c009803000005
:020000040000fa
:040060003204000066
:020000040000fa
:040064003204000062
:020000040000fa
:04006800320400005e
:020000040000fa
:04006c00320400005a
:020000040000fa
:040070003204000056
:020000040000fa
:040074003204000052
:020000040000fa
:04007800320400004e
:020000040000fa
:04007c00320400004a
:020000040000fa
:040080003204000046
:020000040000fa
:040084003204000042
:020000040000fa
:04008800320400003e
:020000040000fa
:04008c00320400003a
:020000040000fa
:040090003204000036
:020000040000fa
:040094003e03000027
:020000040000fa
:04009800320400002e
:020000040000fa
:04009c00320400002a
:020000040000fa
:0400a0003204000026
:020000040000fa
:0400a4003204000022
:020000040000fa
:0400a800320400001e
:020000040000fa
:0400ac00320400001a
:020000040000fa
:0400b0003204000016
:020000040000fa
:0400b4003204000012
:020000040000fa
:0400b800320400000e
:020000040000fa
:0400bc00320400000a
:020000040000fa
:0400c0003204000006
:020000040000fa
:0400c4003204000002
:020000040000fa
:0400c80032040000fe
:020000040000fa
:0400cc0032040000fa
:020000040000fa
:0400d00032040000f6
:020000040000fa
:0400d40032040000f2
:020000040000fa
:0400d80032040000ee
:020000040000fa
:0400dc0032040000ea
:020000040000fa
:0400e00032040000e6
:020000040000fa
:0400e40032040000e2
:020000040000fa
:0400e80032040000de
:020000040000fa
:0400ec0032040000da
:020000040000fa
:0400f00032040000d6
:020000040000fa
:0400f40032040000d2
:020000040000fa
:0400f80032040000ce
:020000040000fa
:0400fc0032040000ca
:020000040000fa
:0401000032040000c5
:020000040000fa
:0401040032040000c1
:020000040000fa
:0401080032040000bd
:020000040000fa
:04010c0032040000b9
:020000040000fa
:0401100032040000b5
:020000040000fa
:0401140032040000b1
:020000040000fa
:0401180032040000ad
:020000040000fa
:04011c0032040000a9
:020000040000fa
:0401200032040000a5
:020000040000fa
:0401240032040000a1
:020000040000fa
:04012800320400009d
:020000040000fa
:04012c003204000099
:020000040000fa
:040130003204000095
:020000040000fa
:040134003204000091
:020000040000fa
:04013800320400008d
:020000040000fa
:04013c003204000089
:020000040000fa
:040140003204000085
:020000040000fa
:040144003204000081
:020000040000fa
:04014800320400007d
:020000040000fa
:04014c003204000079
:020000040000fa
:040150003204000075
:020000040000fa
:040154003204000071
:020000040000fa
:04015800320400006d
:020000040000fa
:04015c003204000069
:020000040000fa
:040160003204000065
:020000040000fa
:040164003204000061
:020000040000fa
:04016800320400005d
:020000040000fa
:04016c003204000059
:020000040000fa
:040170003204000055
:020000040000fa
:040174003204000051
:020000040000fa
:04017800320400004d
:020000040000fa
:04017c003204000049
:020000040000fa
:040180003204000045
:020000040000fa
:040184003204000041
:020000040000fa
:04018800320400003d
:020000040000fa
:04018c003204000039
:020000040000fa
:040190003204000035
:020000040000fa
:040194003204000031
:020000040000fa
:04019800320400002d
:020000040000fa
:04019c003204000029
:020000040000fa
:0401a0003204000025
:020000040000fa
:0401a4003204000021
:020000040000fa
:0401a800320400001d
:020000040000fa
:0401ac003204000019
:020000040000fa
:0401b0003204000015
:020000040000fa
:0401b4003204000011
:020000040000fa
:0401b800320400000d
:020000040000fa
:0401bc003204000009
:020000040000fa
:0401c0003204000005
:020000040000fa
:0401c4003204000001
:020000040000fa
:0401c80032040000fd
:020000040000fa
:0401cc0032040000f9
:020000040000fa
:0401d00032040000f5
:020000040000fa
:0401d40032040000f1
:020000040000fa
:0401d80032040000ed
:020000040000fa
:0401dc0032040000e9
:020000040000fa
:0401e00032040000e5
:020000040000fa
:0401e40032040000e1
:020000040000fa
:0401e80032040000dd
:020000040000fa
:0401ec0032040000d9
:020000040000fa
:0401f00032040000d5
:020000040000fa
:0401f40032040000d1
:020000040000fa
:0401f80032040000cd
:020000040000fa
:0401fc0032040000c9
:020000040000fa
:0402000032040000c4
:020000040000fa
:0402040032040000c0
:020000040000fa
:0402080032040000bc
:020000040000fa
:04020c0032040000b8
:020000040000fa
:0402100032040000b4
:020000040000fa
:0402140032040000b0
:020000040000fa
:0402180032040000ac
:020000040000fa
:04021c0032040000a8
:020000040000fa
:0402200032040000a4
:020000040000fa
:0402240032040000a0
:020000040000fa
:04022800320400009c
:020000040000fa
:04022c003204000098
:020000040000fa
:040230003204000094
:020000040000fa
:040234003204000090
:020000040000fa
:04023800320400008c
:020000040000fa
:04023c003204000088
:020000040000fa
:040240003204000084
:020000040000fa
:040244003204000080
:020000040000fa
:04024800320400007c
:020000040000fa
:04024c003204000078
:020000040000fa
:040250003204000074
:020000040000fa
:040254003204000070
:020000040000fa
:04025800320400006c
:020000040000fa
:04025c003204000068
:020000040000fa
:040260003204000064
:020000040000fa
:040264003204000060
:020000040000fa
:10040000cf4121000eff27000e01880000000000f0
:10041000000020000000e000020032000001200087
:100420002002880014000700100107000000e0000f
:1004300003003a0000c4230001002000020037003e
:100440000000200001002000810f70000100320038
:100450000f000700000020000000e0000200320052
:100460000000020000000000001d0200000000006b
:100470000040da000000fe00400120000000e00023
:1004800002003200002020009001880000000600d9
:10049000a1028800800478000000eb001f003700f4
:1004a000e284440054a0b4009905ba00e2844400f8
:1004b00054a0b4009906ba00e284440054a0b400e9
:1004c0000006eb00476fde00fd07b200ae018800ba
:1004d000636ce10003003a000ad801000000eb0061
:1004e0000e003700606ce10008003a00004deb00a0
:1004f0000a05e800020039003420ec000af0a000f0
:100500008b05e900f9ff3e00040037006168e10057
:10051000010032000086eb000b00070019c7ba008b
:100520000e04e0001905ba0003003a000a00e000da
:10053000dbff3a0000000600fe07b200ae028800b2
:100540008a047800f5ff37000cd0a300e20f4d00bd
:100550001c003b0089027800354dba000a05e8000e
:10056000020039003420ec000af0a0008b05e900fd
:100570000f003200254dba000a05e80002003900dc
:100580003420ec000af0a0008b05e90008003200de
:100590000c00e0000600320015cdba000a05e800a4
:1005a000020039003420ec000af0a0008b05e900bd
:1005b0008984e80054a0b4000b00e000e2ff3a0098
:1005c000000006009902ba00055d78008b05e9007d
:1005d000f7ff3200c82ade00055d78008b05e900d0
:1005e000f3ff32000c00e000f1ff320019ddba0029
:1005f000eeff37003600f800809fbe00829fbe00ed
:10060000849fbe00869fbe000000fa000068a9001b
:10061000281d070084190700de17070021150700b1
:10062000f08380000000e800f0838800b710070026
:10063000f6100700f0838000f90f5000020034002c
:10064000241907007e30ef00000000000080fa004f
:100650004f03be004f02be004f01be004f00be0060
:100660003600f900004006000000fa000108a90069
:10067000000000000080fa00004006003600f8008c
:10068000809fbe00829fbe00849fbe00869fbe00ea
:100690000000fa000368a900c2838000d3838000b1
:1006a000100020000100200002004000838048006c
:1006b000c0838800d1838800018480000100e800a5
:1006c00000848800703e2000808f500003003400ba
:1006d0008030ef0010c0b30082f0b70020868000a9
:1006e0000000e00001003200500a0700fa0a07008b
:1006f000c2838000d383800010002000010020000e
:100700000200400083804800c0838800d1838800b5
:10071000000000000080fa004f03be004f02be0040
:100720004f01be004f00be003600f9000040060039
:10073000801f78000000fa0001a8a90000188000be
:1007400040a088001018800050a088002018800069
:1007500060a088003018800070a0880040188000d9
:1007600080a0880010c0b3009bf0b700000000001c
:100770000080fa004f007800004006003600f800c4
:10078000809fbe00829fbe00849fbe00869fbe00e9
:100790000000fa000188a900718480006084800054
:1007a000808f500002003200101c0700010037004b
:1007b0009070ef00000000000080fa004f03be00c0
:1007c0004f02be004f01be004f00be003600f900d0
:1007d000004006003600f800809fbe00829fbe00e9
:1007e000849fbe00869fbe000000fa000168a90039
:1007f000101180004200de0061406000e14f5000b7
:1008000001003a002242a900101180000000d1002e
:1008100061406000e14f500005003a002222a9002b
:100820000300370030118000004078004c1d0700a5
:10083000101180000040780061406000e14f5000de
:10084000f8ff3200000000000080fa004f03be00f5
:100850004f02be004f01be004f00be003600f9003f
:10086000004006000040da000000fe000000050025
:1008700014002000ad033700f4ff2f00ab03370056
:100880000001be003f0007000470a70003f0a100b4
:100890006509b100160032000d0035006828e1003e
:1008a00006003500f0ff2f00f1ff27000300e000f5
:1008b00013003b000100280000000500000040007c
:1008c000818048008502e900fcff3a0008003700fb
:1008d000f88f420002003c008000eb0000000500a1
:1008e0008100d1000080d3008502e800fcff3a00bf
:1008f0000300e00002003b0060001000e0801800f0
:10090000000006000001be001e0007000470a700e2
:1009100003f0a10003f8a30013003a006509b10039
:1009200010003200090035006928e100020035009e
:100930000100280000000500000040008180480000
:100940008502e900fcff3a0000000600f88f420033
:10095000050035008100d1000080d3008502e80049
:10096000fcff3a00000006008000eb0000000500dc
:100970004f89de0082017800870337006011b800dc
:1009800095033700c70ade00f107b200f50fb20089
:1009900008003200e1cf4200020032000170a000e6
:1009a00024000500810f70000100320004080500da
:1009b00044000500810f700002003a001400050099
:1009c0008502e9000000400081c04800fcff3b00b8
:1009d0000170a0002400050007f8270007836100cc
:1009e0000638e10004003a00f70720008783610021
:1009f0008703710001003a0003f0a200889fbe0047
:100a00008a9fbe008c9fbe00470ade000480a100c2
:100a1000c71ade000580a1000700280007856000d6
:100a200087856100f70f20000720e1009e0032005b
:100a30000728e1009c003200010678000400e00075
:100a4000b4003200f7072000878060000170a0002a
:100a50000500e000c0003200f70720008781610038
:100a60000370a000050652000f003a000b50e10091
:100a70000b0032000308e10002003a000200e1002e
:100a80007e003200020450008384580004003100cc
:100a90000001fd008101fd008402fd008a05fd00ca
:100aa0006044b800210037000520e10005003d004a
:100ab0000001fd008101fd008402fd008a05fd00aa
:100ac000050652007a60e100050035000170a100c2
:100ad0004722dd00848070008a8070006300370048
:100ae0006044b800ef02660007ff2f0007066600ab
:100af0000500e00006003400f08312008714dd00da
:100b00000511de00071bdd00060171008519de00fe
:100b10007060e10005003500090478008204780067
:100b2000030178008001eb00700656000b50e100d5
:100b300003003a00020040008380480004003700b0
:100b400060041400e0841c000200580083805800f8
:100b50000188a300060032008100d1000080d3008c
:100b60008984d3000884d3000402e80027003700fa
:100b70000178a30025003a000100e00003003200e4
:100b80008186cf00698656000a0037008c0020005d
:100b90000000e00004003a000900780088047800b2
:100ba0000004eb00700252008086cf000d06460064
:100bb0000c06e9007060e100060035008000780056
:100bc00009007800880478000004eb0070065600e5
:100bd000700252000c00e0000c0034008c08dd00b4
:100be000f00316000703de00868070000c00dd00b5
:100bf000074bde00060070008c4cdd000743de0072
:100c0000868474000c44dd000c0252006120e10077
:100c10002000350061016000070028008781640022
:100c2000f7ff270087836400070374000300e000d8
:100c30000600320082037300040032000000e80066
:100c4000e08048000188a3000e003a00f70f200062
:100c50000720e1004a003d000170a1004722dd00ad
:100c6000810072008a8070000000be004f06be0046
:100c70004f05be004f04be00000006006000b80033
:100c8000faff37008100d1000080d3000402e800a1
:100c9000eeff37000401780089017400a10107000c
:100ca0008a807000f1ff3700f70107000702780023
:100cb0000001fd008101fd00f301070087027800bb
:100cc000850372000778a300040032000001fd00d4
:100cd0008101fd0006020700e4ff37008503620082
:100ce0000768a300080032000b50e1000300320047
:100cf000f0ff2f00f1ff2700dcff37000001fd00af
:100d00008101fd00d9ff37000468a300d7ff32003e
:100d1000faff3700f8ff2700888360000b003a00d5
:100d20000000e00009003a0083036400828373003e
:100d3000020032000200be00ccff37000b50e10081
:100d4000ceff3a000200be00c8ff370014002000aa
:100d5000810064003eff3700f8ff270088836100b0
:100d600004003a000200e00002003a008c00780023
:100d7000beff3700150020008301640039ff3700f3
:100d800001f827000000200081007500b7ff370040
:100d9000889fbe008a9fbe008c9fbe001b00200063
:100da0000202be00058668000600280006066600ee
:100db0004709de00f20fb200820032000243e80071
:100dc00080003200c729de00f30fb2007d00320040
:100dd0000343e8007b003200f107b2000170a0007d
:100de000f507b2000570a000c708dd004903de006a
:100df000868070004700dd00c72add004923de0041
:100e0000868272004722dd00030551000403500072
:100e100085835800030031000000400081804800b5
:100e20000a05e9008c1f78008a9fbe00040050006c
:100e3000858058000402420085824a00000040007c
:100e4000818048000005eb000004be006033b8005c
:100e50000406be000d48e1005600310011000900f3
:100e60004dccd8000c01b8000d02b80084814100bf
:100e700060824a008283530003045c0084845c0027
:100e800060055d000a00e00025003a00800578005a
:100e90000d40e1004900310088007800070078002b
:100ea000110009004d88d8000c01b8000d02b800ef
:100eb0008481410060824a006003110083835b00eb
:100ec00004045c00e0845c000900e00021003a00ba
:100ed0004f01be000300e0002b003200e301600080
:100ee000070673008c8171000100320064007000fd
:100ef0004200de004e5edd000c007000c258de00d5
:100f000001e0a00083010700cf017800818071001b
:100f10004f06be004f05be004f04be000000060095
:100f20008c8343000d044c00e0844c0060054d00b0
:100f30000000e9000a00e000d4ff32008c83430087
:100f40000d044c00e0844c0060054d000000e900f9
:100f5000ceff37000c0343008d834b0060044c0030
:100f6000e0844c000000e9000900e000d8ff3200f6
:100f70000c0343008d834b0060044c00e0844c0064
:100f80000000e900d2ff37004200de004e5edd00c7
:100f90000c007000c258de0001e0a000cf01780014
:100fa0000300e000daff320060001000e08018006b
:100fb000d7ff3700f0ff2f00aaff3700f0ff2f0008
:100fc000b9ff37000404be002f0107008706780030
:100fd0000004fd008104fd002b010700078366006b
:100fe0000678a300030032000960a7000800be00d5
:100ff0002c0037000d78a300020032000800be006c
:10100000280037000778a30026003a0001f0a1006d
:1010100009f0a1000668a30003003200f1ff2700d9
:10102000f0ff2f00baff37000d68a3000300320065
:101030000800be008c807000b5ff37000768a30071
:1010400007003a000648a30003003200f1ff270022
:10105000f0ff2f00aeff37000d48a3000300320061
:101060006000b8008c807000a9ff37000748a3001b
:101070000400320001f82700000020008c8070007e
:10108000a3ff3700760107000004fd008104fd0086
:1010900002057800720107000802be008a0178008c
:1010a00059ff37000160a00012022000e28488008e
:1010b00097ff37000100e000120032000500e00059
:1010c00010003200889fbe008a9fbe008c9fbe0029
:1010d0000006eb0001f8a3000300320060001000de
:1010e000e08018000cf0a00005f8a3000300320017
:1010f00060021200e0821a000cf0a2008005eb00f2
:1011000041ff37006000b80002000500038368005b
:101110000700280007036300470ade000480a100df
:10112000c71ade000580a100f70f20000720e100ac
:10113000420032000728e10040003200889fbe00d4
:101140008a9fbe008c1f7800f107b200f307b2003f
:101150000400e000640032000170a0000500e0001f
:10116000680032000370a00085054200eb07b10063
:101170000204b8000302b8008484440060854a0079
:10118000020ab800848444000a854a00030ab800b1
:1011900004054500040033000804d0008984d2000f
:1011a0000a85d2008b05e9006158e1003d00350059
:1011b00002102000090161000308200089816100fc
:1011c000f70720008783640008867300c84cde00a0
:1011d000c853dd00878474004855de000300e0003a
:1011e0000600320082037600040032008904e80021
:1011f00060054d000a88a3000c003a00f70f20009c
:101200000758e10044003d000a70a100c75ddd0001
:101210000a8575008a007300090078004f0678007f
:101220004f05be004f04be00000006000a05d100b5
:101230008984d3008b05e800f0ff3700881f780011
:101240000604780090000700070278000001fd0006
:101250008101fd008c000700870278008503720081
:101260000778a300050032000001fd008101fd00a8
:101270009f0007004f0478000000060085037200fd
:101280000748a30003003200f0ff2f00f1ff270002
:10129000f8ff37000000200001f827008880700068
:1012a000f4ff3700880178004848dd008081710034
:1012b0004848de00c850dd0001007000c850de0064
:1012c000060478000b017800160007008880700083
:1012d000d2ff37000500e0000500320017002000b3
:1012e0003a0007009dff370081037000f9ff3a00c4
:1012f000860078004f0678004f05be004f04be0000
:101300000000050083037100f9ff32002700200070
:101310002e00070094ff370001f827008680700038
:10132000f4ff37000100e0002600320061011100e7
:101330007810e10023003c006022b8007010e1004a
:101340000400350080027800010078008000eb0086
:10135000700151000200e000090034007003110028
:10136000062add00822ade008603dd008782720005
:101370000200de00860bdd00070070008208de0040
:1013800084817100f4ff270004826200848171006f
:1013900004002800848262006102600005f0a6005b
:1013a0000000060004827100070032000000e8001f
:1013b000e0804800000006000002be006000b800a7
:1013c000efff37006000b80000000600889fbe00f5
:1013d0000004eb006138e10016003a000100e00073
:1013e00008003a00c800de004800dd008800200048
:1013f0000100e00003003a00c800de004800dd0004
:10140000680444008184cf00e9845400060034005d
:101410008908dd00f08314008703de0087807000f8
:101420000900dd0009044400610214004f04be00fd
:10143000000006000300e00008003a00c811de00ca
:101440004811dd00880020000300e00003003a009e
:10145000c811de004811dd00680444008384cf0019
:10146000e9845400060034008919dd00f08314007b
:101470008713de00878171000911dd000904440033
:10148000e1021400e9ff37002700200001f0a70067
:1014900017002000470bde00f60fb20004003200f8
:1014a0000643e8000a0032004702b30000000600cd
:1014b00001037800f607b2000603700002003a004c
:1014c0000703b300000006008702b3000000060017
:1014d00001037800f607b200060370000200320034
:1014e0000770a000000006000760a00000000600d2
:1014f0000478a300040032000578a3000300320042
:101500000168a30001003a000200be000160a000d3
:101510000000060081017000270032008002eb000d
:1015200001f8a3000300320060001000e080180002
:1015300015002000f40720000202420020003400c1
:10154000f703200087036000060420000003630007
:1015500002082000000161004700de00c909dd002b
:1015600000807100c708de000600e00008003200bd
:1015700087037100060032001000b0000180b00047
:101580000188a30002003200c108de000402e80066
:10159000f107b200f30f20000320e10003003d003b
:1015a0004722dd00810072002900370001f8270082
:1015b0000000eb00260037006000b80000000600c5
:1015c000680212007f20e100020034006000b800d1
:1015d0001f0037006011b8007020e10004003500e2
:1015e00080017800010078008000eb00700252005a
:1015f0000400e00009003400f00312000719dd00c8
:101600008419de000703dd00868171000400de001e
:10161000070bdd00060070008408de00f7ff2700de
:1016200083836300870371000600280003036300bf
:10163000070032000700e00003003a00610160008b
:1016400002817300020032001000b0000180b0007f
:101650000500a6000000060001f0a0000000060042
:101660004f0ade004709de00f107b200f20fb200b8
:101670000b003200f207b1000170a000c708dd00c6
:10168000c901de00838070004700dd000400a60071
:101690000000060060001000e08018000000060056
:1016a000810f700001003a00000006008182cf0027
:1016b0000500e00010003e008082cf00ee82420074
:1016c0007028e1000400390007003e008000780027
:1016d0000000eb000e003700708312008600de0071
:1016e0000500dd000a003700708352008600dd002f
:1016f0000000eb0006003700e28252008508dd00a2
:10170000708312000603de00868070000500dd0095
:101710007507b0000501ea000400a60000000600fd
:1017200060001000e080180000000600889fbe00e6
:101730008a9fbe00841f78007c0007004f0078005d
:1017400011003300f0ff2f00838f6c0006003b0078
:10175000040565000a00a7000800370009f0a6008c
:101760001000200008003700820f5400838f5c00b7
:10177000030039001000200001003e00000020009e
:1017800009f0a7000000ea004f05be004f04be00ac
:101790000000e00000000600881f780003047800c5
:1017a0000300e00007003d0060001000e08018002a
:1017b00060011900e081190002003b0001f02d00da
:1017c000030037000400070008f0a70001f0a000a4
:1017d0004f04780000000600889fbe008a9fbe006c
:1017e0000082700004027100048271002600320041
:1017f0000004be000200be006011b8006b092000aa
:10180000950220000182cf000a0039000541b10095
:101810000082cf00070039000541b1000982cf00e6
:10182000040039000541b1000882cf0001003900f1
:101830000541b10005425200120032000a003b008f
:1018400082817100610164008100d1000080d300b9
:101850008984d3000884d3008b05e8000442e800a3
:10186000f7ff3a00070037000804440089844c0061
:1018700000004800818048008b05e9000442e9002f
:10188000f9ff3a00030007004f05be004f04be00f9
:101890000000060081002000618055000b003d0023
:1018a0000b00200061fe2f000100e1001d0034004c
:1018b00082817100610164008904d1000884d30031
:1018c0000000e800faff3a007100200061006400a7
:1018d000030070000200600009003200610444004f
:1018e000e0844c000988a500050032008b05e80063
:1018f0006808e10002003a008904d1000884d3009e
:10190000f20f20000258e10005003d00c75ddd0038
:10191000f907b20089807500080078000000060011
:101920000bf827008b007800000005000004be00c3
:1019300014fc07000003be000405be000200be0048
:1019400010fc0700844f7500000006000400fa0038
:10195000889fbe008a9fbe008c9fbe000205be000d
:101960000bf0a1000800200009f82700880f55009f
:10197000898f5d0005003e000003be0007f0a10056
:10198000880f5300898f5b00060036001bfc0700a0
:101990004f06be004f05be004f04be000080fa0097
:1019a000000006000800200009f82300880f5100fd
:1019b000898f590002003a0097000700f4ff3700b2
:1019c0004e1cde000900200088bf9f0099bf9f00c9
:1019d0000fbe9700620466008004eb004f0ade0031
:1019e000050020000404740085847400e00f530097
:1019f000e08f5b0009003a00e20f5400e08f5c00ca
:101a00007f003200e20f5400e08f5c00e0ff3900fd
:101a1000e30f5400e08f5c005f003200e00f5500e0
:101a2000e08f5d0008003a00610064008000eb0078
:101a3000e00f5000e08f580074003200b0fd20002d
:101a400091fc2b00d2ff37000400200005f827008e
:101a5000840f5500858f5d000f003a008a0f5300f8
:101a60008b8f5b0040003a00e10f5400e08f5c0078
:101a700058003200e00f5400e08f5c005800320044
:101a8000e20f5400e08f5c002b003200e30f5400a3
:101a9000e08f5c00310032000c0020000dd02000ef
:101aa0000a0246008b824e00840f5300858f5b0034
:101ab000ddff3e000400200005f82700840f5300de
:101ac000858f5b00d8ff3200620264008002eb0069
:101ad000e00f5200e08f5a00050032000606460073
:101ae00087864e008c0f55008d8f5d002d003e00c7
:101af000a7fc07008101070047000700e10f540021
:101b0000e08f5c0029003200e00f5400e08f5c00a1
:101b10009fff3200e20f5400e08f5c00250032008e
:101b2000e2d22b00b33b2300b4fb0700b2fd200040
:101b30009304240025003700020020000304240041
:101b4000b0fd20009104240070fd07000200200079
:101b500003e823006dfd07008dff37000200200021
:101b600003042c00f6ff3700e10f5400e08f5c0007
:101b70001e003200e00f5400e08f5c001e003200b7
:101b8000e20f5400e08f5c001d003200e30f5400b0
:101b9000e08f5c00c0ff3a00b0fd200091042c00f3
:101ba0007bff37006000b800d4ff370001f0a200cf
:101bb00077ff3700e2d22b00b33b23008ffb0700f7
:101bc0000001be00b0fd20009104240082fb07004c
:101bd0006fff3700b0fd200091f42b006cff370041
:101be000b0fd200091f4230069ff370000002000c1
:101bf0000100280066ff37006000b80064ff37006e
:101c0000b0fd20009104240061ff3700b0fd2000ea
:101c100091fc23005eff3700ea874700889fbe00e3
:101c20008a9fbe008c9fbe008e1f78000002be00ff
:101c30004f0dde000b0020000004780085047800c2
:101c400009f0a100f0ff2f00f1c72400800f54001d
:101c5000818f5c00100036000000200001f8270092
:101c6000800f5400818f5c0025003e0002002000a0
:101c700003382000a0fd200091fc23005ffb07003b
:101c80000002be00e00f5500e08f5d001c00320036
:101c900005f0a2001a003700f0ff2f00f1ed23003d
:101ca000800f5400818f5c001c003e000087eb0019
:101cb000f0ff2f00f1972300800f5400818f5c000c
:101cc00033003e006000b80003f827008580610003
:101cd000e00f5000e08f580009003a000401be00f8
:101ce0000400be00f4b79f0085bf9f0007fd0700fa
:101cf000d0b79f00e1b79f007fb297008fba9700df
:101d00000400be004f0778004f06be004f05be001e
:101d10004f04be00af00b100000006000400be008a
:101d2000f60007000006be00f0ff2f0071f9230047
:101d3000800f5400818f5c0055003e00f0ff2f00a3
:101d4000f1f22300800f5400818f5c0041003e00bf
:101d50000c01be000c00be0028fb070002002000a2
:101d600003f823001cfb07000004be000200200053
:101d7000030024000c00be0020fb07000001be0091
:101d80000800be0002fc07000002be000007eb00d6
:101d90000401be000400be00f4b79f0085bf9f0091
:101da000dafc07000006be000001be00d7fc0700f9
:101db0000004be0052c22a00c3d72300d3fc070090
:101dc000d2502f0013e123000cfb07000801be00d6
:101dd000cefc070092aa2a00a3ea230007fb070013
:101de0000c01be00c9fc07000006be0072242100e1
:101df000a3dd2b000800be00c4fc070082a92c0054
:101e0000c3e42300f4fa07000801be00bffc07008a
:101e10000001be000c00be00f8fa07007fb2970078
:101e20008fba97000401be00b8fc07000003be0093
:101e30000e00e0007fb297008fba970032003d009d
:101e40000001be000400be00e3fa07000002be006d
:101e5000abff37000200200003f823000c00be0097
:101e6000ddfa07000004be000200200003f8230092
:101e70000c00be00e1fa07000001be000800be0031
:101e8000c3fb07000002be001e002000c0ff370099
:101e9000f0ff2f00b1012400800f5400818f5c00ff
:101ea00012003e000200200003fc23000c00be00d4
:101eb000c9fa07000004be000200200003fc230052
:101ec0000c00be0091fc07000200200003f8230074
:101ed000cafa07000001be000800be00acfb070004
:101ee0000002be002e002000a9ff37000c01be003a
:101ef0000000200001f82b00a5fb07000002be0037
:101f00003e002000a2ff37004277dd00a83e2100fe
:101f10000e044400a03d21000e0740001e01780081
:101f20009e0190000600be00f4b79f0085bf9f0091
:101f3000a9fa07007fb297008fba97000401be008c
:101f4000a5fa07000001be00180078009800900074
:101f5000a1fa07004aff37000400fa000001be00a2
:101f600003f0a100a4fd200095f42300840f51008c
:101f7000858f59000e003e00f4ff2f00f5972300d7
:101f8000840f5100858f59003a003e000200200066
:101f900003b8270099fa0700e0bf9f00f1bf9f0038
:101fa0000000200001f823000080fa000000060075
:101fb0004f0ade0005002000163d2500b70724006b
:101fc000860f5100878f59001b003e0036be2c0043
:101fd00067012400860f5100878f59000a003600e0
:101fe000b2fd2000930424000400e000040032004d
:101ff00082fa0700ef01070001f0a200eaff3700b4
:1020000075fa0700fbff37000400e000050032000e
:10201000b2fd200093fc230078fa0700700207004d
:10202000e1ff37000001be00b0fd200091fc23005d
:1020300069fa0700f9ff3700561d2300270e240018
:10204000860f5100878f590014003e00f6dd2e00e8
:10205000f70a2400860f5100878f590009003600c7
:10206000b2fd2000930c24000400e00003003200c5
:1020700062fa0700cf010700cbff370056fa0700ce
:10208000fcff37000400e0000100320001f0a20074
:1020900042be2c0063092400e5ff3700f4ff2f0047
:1020a000f5f72700840f5100858f59000400360092
:1020b0000001be000200be0047fa0700baff370069
:1020c000c2ff2f000f014100ee0107006301600015
:1020d0006fb89700ffb89700e10f5100050032007c
:1020e000e20f5100c3ff32000200e000cbff3a00d4
:1020f000e0ff370001f0a200c8ff370001017800bf
:1021000002f0a10082007800000006000400fa003e
:10211000889fbe008a9fbe0002034100838349005e
:10212000e00f5300e08f5b000f0032000202be00a0
:1021300005f0a1000800200009f82700880f5200d0
:10214000898f5a0008003e00a0bf9f00b1bf9f00ca
:10215000470dde000b002000f40f20000a0562008e
:10216000840f550007003a00e8fb07000001be009d
:1021700007fb07004f05be004f04be000080fa00b9
:10218000000006000002400081824800840f5300d6
:10219000858f5b0006003900840f5300858f5b003c
:1021a000f4ff3a006011b800d8fb0700f1ff3700d8
:1021b0000a00e0004c003a002fbb9700bfbb97001d
:1021c000493add00c732de00850272004932dd0087
:1021d000e00f5200e08f5a003f003d006102150001
:1021e0002fbb9700bfbb9700040478000804e900e8
:1021f000030033000603430087834b00fbff3700d7
:102200000602be00471bde00070020000683fb001d
:102210000600e0003d003a00491cdd00c714de0066
:10222000890474004914dd00e00f5400e08f5c0065
:1022300032003d00e10313000204be008703e90001
:10224000030033000804440089844c00fbff37007e
:102250000801520089815a00860f55002f003c006a
:10226000e00f5100e08f590004003500e00f5100ed
:10227000e08f5900cbff32000202be004728de008b
:1022800001002000e00f5000e08f58002e003200c7
:102290000a00e000300034000000200001f82f00a8
:1022a00004024000858248006150b900c700dd008b
:1022b0000000200004007000858070006022b800db
:1022c00002002800bfb9970083026100000072007d
:1022d00081807200a7ff37000a05e900040242006e
:1022e00085824a00baff37002fba9700bfba97001d
:1022f000f507b2000570a000c2ff37000603e90031
:102300000804440089844c00c7ff37000204be0063
:10231000f907b2000970a000cdff3700e00f5100af
:10232000e08f590004003500e00f5100e08f5900a4
:102330009cff32000202be000402420085824a0075
:102340000a05e900c2ff37000402420085824a0004
:102350000a05e900c9ff3700610515000400be0049
:102360000a05e900030033008100d1000080d3009a
:10237000fbff3700d1ff37000400fa00889fbe0042
:102380000004be008900780001f0a100a4fd200037
:1023900095f42300840f5000858f58001e003e00e6
:1023a000f4ff2f00f5972300840f5000858f58000d
:1023b00016003e006000b80003f827008980610025
:1023c000e00f5000e08f58000b003a0002002000a0
:1023d000033820000800be004cfb07000001be00cf
:1023e000c2bf9f00d3bf9f000800be004f04be00c5
:1023f0000080fa00000006000200200003b8270059
:102400000800be007df90700f4ff37000800be0099
:1024100073010700180037004f49de000300200059
:10242000143d2500b5072400840f5000858f580007
:102430001d003e0034be2c0065012400840f5000b6
:10244000858f58000e003e000800be000200e0002c
:10245000b2fd200093fc23000500320067f907005d
:10246000d40007000004be0009f0a200deff370020
:1024700059f90700cf0007000004be00daff37005b
:102480000800be000200e000b2fd2000930424001a
:102490000300320059f9070001f0a200dcff370009
:1024a0004df90700fcff3700541d2300250e2400c2
:1024b000840f5000858f580017003e00f4dd2e0079
:1024c000f50a2400840f5000858f580009003e0053
:1024d0000800be000200e00042be2c006309240098
:1024e0000200320045f90700e2ff37003af9070021
:1024f000dbff37000800be000200e000b2fd200054
:10250000930c2400020032003cf90700c0ff3700a2
:1025100031f90700beff3700f2ff2f00f3f7270065
:10252000820f5000838f5800050036000801be005e
:102530000800be0028f907000004be00aaff37000b
:1025400082ff2f000f0141000800be00cd000700f0
:10255000630160004fb89700dfb89700e10f5100aa
:10256000c4ff3200e20f5100cbff32000200e00056
:10257000bbff3a00a6ff3700889fbe008a9fbe00bf
:102580008c1f78000004be000003be006055b80038
:1025900004f82700890562000400200005f82700e0
:1025a000840f5500858f5d000b003a000001be00ce
:1025b000d6fa07000001be000800be000ff90700b0
:1025c0000004be000800be004f0678004f05be00a4
:1025d0004f04be0000000600e00f5000e08f5800de
:1025e00010003c000002be0005f0a100e00f520008
:1025f000e08f5a00f3ff3200e00f5000e08f5800e8
:1026000008003d0010022000d0a088000801be0094
:102610000800be00f0f807000001be00dcf907006a
:10262000e7ff370047bdde00cfbdde00e00f5500fd
:10263000e08f5d000c003a000603430087834b00e7
:1026400061004500e0804d000001eb00870178004b
:102650000308b200e00f5100e08f59004d00320036
:1026600060051500e0851d00fa07b1000b80b10080
:102670000600be00f107b2000170a0006101650014
:102680008001eb00e00f5100e08f590002003200a2
:1026900000004000818048008b85d1000a85d3006e
:1026a00000004000818048009c01200002002000c2
:1026b000031020006044b8006033b80006024100f7
:1026c00087824900800f5200818f5a0006003c002b
:1026d00004034100858349000400500085805800b0
:1026e00008044100898449000000400081804800be
:1026f0008301d1000281d3000c06e9000c00e00048
:10270000eeff3a00e00f5000e08f58001600320054
:102710000226240023da20000000200001f8230014
:10272000adf807000200200003f8230052f807006c
:102730000000e0000c0035000226240023da20000f
:102740000000200001f82300acf807000200200080
:1027500003f8230048f807000000e0000f003400f1
:1027600062044400e0844c008984d1000884d300d2
:102770000000200001f0230008004000898048008c
:10278000c755dd000a0020000a0440008b84480081
:102790008cff37000005be00a7ff37006100440032
:1027a000e0804c00000478000800a100810478005b
:1027b000edff37000400fa00889fbe008a9fbe002c
:1027c0008c9fbe000001be0050fa07000004be004e
:1027d0000001be004dfa07000005be000200200007
:1027e00003f02b000800be0048fa0700020020009a
:1027f00003f8230081f807000006be00f2a92a00b2
:10280000a3d223000a00be0040fa07000001be0068
:102810000c00be0079f807000002be0072a129007a
:10282000c37c23000800be0084bf9f0095bf9f00ab
:1028300036fa0700f243200063ab230066f8070076
:102840000006be000a01be000800be002ffa070005
:102850000001be000c00be002cfa07000001be0003
:102860000fba97009fba97000400be0063f80700f4
:102870004f06be004f05be004f04be000080fa00a8
:10288000000006000400fa00889fbe008a9fbe0078
:102890008c9fbe00000678008104780082067800d4
:1028a00001f0a100a2fd200093dc2400820f500063
:1028b000838f580023003e0032982f0023f223001c
:1028c0008900780011fa07000200200003b42400f8
:1028d0004af807000200200003b424003ef8070075
:1028e0000005be00e6f7070000047800a2fd200006
:1028f00093fc23000a00be0004fa07000001be009a
:102900000c0078008900780033f807000002be0050
:10291000325a2800832823000a00be0084bf9f008b
:1029200095bf9f00f9f907000001be000fba97009c
:102930009fba97000400be0027f80700808ebe00f3
:102940000b003700f2ff2f00f3f72700820f500033
:10295000838f58000c003600000178008901780050
:10296000890078001cf80700808ebe000004eb0090
:10297000080078004f06be004f05be004f04be00a1
:102980000080fa0000000600890078004c00070073
:102990000005be0032982f0023f22300dbf9070068
:1029a0000200200003f0230014f807005500070080
:1029b0000004780078fb070032982f0023f22300f0
:1029c000f3f807000001be000a00be0002f807008d
:1029d0006000b800a0069800b1069800d7ff370045
:1029e0000400fa00889fbe008a9fbe008c9fbe0034
:1029f0000006be000001be00c4f907000004be00ce
:102a00000001be000c00be00c0f907000005be00ba
:102a10000801be000800be00bcf907000a01be00a4
:102a2000baf907000002be00c2c326006363230098
:102a30000800be0084bf9f0095bf9f00b3f9070048
:102a4000f27c200003952300e3f707000001be009d
:102a50000fba97009fba97000400be00abf90700b9
:102a60000002be004288280083c023000800be0088
:102a700084bf9f0095bf9f00a4f90700b2aa2a0057
:102a8000a3e22300d4f707000a01be009ff9070064
:102a90000c01be00d9f707000001be000fba970075
:102aa0009fba97000400be00d4f707004f06be008f
:102ab0004f05be004f04be000080fa000000060073
:102ac0000400fa006011b800e2bf9f00f3bf9f004e
:102ad0006fbb9700ffbb97000002be00f0ff2f0006
:102ae000f1ff2f00f2ff2f00f3ff2700000062002c
:102af0008180620002016300838163000080fa002c
:102b0000000006000003be009ef707006011b80039
:102b10000470a70007f0a1006509b1001b00320096
:102b200012003500860220000628e100080035006a
:102b3000f3ff2700f2ff2f006110b9000700e0004b
:102b400018003b00030028006000b80002000500e8
:102b50000000400081804800020149008381490053
:102b60008502e900faff3a0008003700f88f4200ba
:102b700002003c008000eb00000005008100d10055
:102b80000080d3008502e800fcff3a000700e00067
:102b900004003b0060001000e08018006001190094
:082ba000e081190000000600ad
:020000040000fa
:102ba80000000000704200000000000088410000a2
:102bb8000ad70000233c000000000000a0410000ec
:082bc8000000000000410000c4
:020000040000fa
:102bd0002200fa00889fbe00a0858000b185800099
:102be00027f70700000f780080858000918580001e
:102bf00023f7070010079800c0858000d18580006a
:102c00001ff7070020079800e0858000f18580000d
:102c10001bf70700300798000086800011868000af
:102c200017f70700400798000e80e8009e00780024
:102c3000108040006100b9004df70700020020003d
:102c40000300240052f8070050079800610798001d
:102c5000e6004700680047001101780010004100bd
:102c60006100b90042f707000200200003002400c1
:102c700047f8070070079800010f98005e00900069
:102c8000ee0090000001be005cf707000001780034
:102c90000100780082047800000478002e00900083
:102ca0006100b90032f707000001be00090078009a
:102cb000880078000000be0050f70700000178008f
:102cc00001007800820278000002780002002000f3
:102cd0000304240005007800840078000000be0092
:102ce0002bf80700100f9800210f98007e0090002d
:102cf0008e0890000001be0040f707000001780038
:102d00000100780082047800000478002e00900012
:102d10006100b90016f707000001be000900780045
:102d2000880078000000be0034f70700000178003a
:102d30000100780082027800000278000200200082
:102d40000304240005007800840078000000be0021
:102d50000ff80700300f9800410f98000000200086
:102d6000811b2400500f9800610f98000000200084
:102d700001142400700f9800011798000200200031
:102d8000832c24001e089000ae08900000f8070075
:102d900000017800010078008204780000047800c7
:102da0007e0990008e1190005e089000ee08900061
:102db00009f707000001780001007800820178001f
:102dc0000001780003007800820078000001be0056
:102dd00009007800880078000000be00cbf80700ea
:102de000000178000100780082027800000278007b
:102df0007e0990008e119000050078008400780014
:102e00000000be00fdf60700000178000100780018
:102e100082017800000178000300780082007800c9
:102e20000000be0096f607006083880002002000c4
:102e3000832c24003e089000ce089000d4f70700b1
:102e40000001780001007800820478000004780016
:102e50007e0990008e1190005e089000ee089000b0
:102e6000ddf607000001780001007800820178009b
:102e70000001780003007800820078000001be00a5
:102e800009007800880078000000be009ff8070065
:102e900000017800010078008202780000027800ca
:102ea0007e0990008e119000050078008400780063
:102eb0000000be00d1f60700000178000100780094
:102ec0008201780000017800030078008200780019
:102ed0000000be006af6070050838800508380001f
:102ee000f70f500002003400040ea8000100370064
:102ef000040ea900000000004f04be000080fa008c
:102f0000000006000400fa00008fbe00020020004e
:102f1000031f24001e0078009e00900054f6070056
:102f20000000e00002003d0010002000010037001a
:102f30000000eb000080fa00000006000400fa0028
:102f4000008fbe0002002000031f24001e00780036
:102f50009e00900046f607000000e00002003d00e1
:102f600010002000010037000000eb000080fa0094
:102f7000000006000200fa000040eb00004f78005d
:102f80008085800091858000deff07000000e00062
:102f9000030032001e4078000044a000004f78007b
:102fa000a0858000b1858000d6ff07000000e0000a
:102fb000030032001e4078000034a000004f78006b
:102fc000c0858000d1858000ceff07000000e000b2
:102fd000030032001e4078000024a000004f78005b
:102fe000e0858000f1858000c6ff07000000e0005a
:102ff000030032001e4078000014a000004f78004b
:103000000086800011868000beff07000000e000ff
:10301000030032001e4078000004a000004f78003a
:103020001e4078000080fa00000006000000fa0050
:1030300072d0bf000080fb006100b900f2002000e8
:1030400003002000820f5000838f58009c003e0038
:10305000000601000f00370018003700210037007c
:103060003d0037003e00370048003700630037005e
:103070006d0037004700370051003700520037001d
:103080005c0037006a003700790037007a003700ab
:10309000890037007830ef007a30ef000041eb0014
:1030a0006000b800de0f070012c0b3006000b80077
:1030b000db0f070010c0b30072f0b700c2838000be
:1030c000d3838000803e200001002000800f51004b
:1030d000818f59007c00360020c0b30072f0b70029
:1030e00079003700c0858000d18580000200200073
:1030f000032a2400e0f507000000e000050034008a
:103100009001200080838800900120007083880057
:1031100004003700f000200080838800f0002000c9
:1031200070838800508380006100b90010f60700aa
:103130000041eb00ba0f0700608380006100b90016
:103140000bf6070012c0b300b50f070030c0b30084
:1031500072f0b7005d0037008c0107005b0037009c
:103160000041eb006000b800ad0f07005083800005
:103170006100b900fef5070012c0b300a80f0700f8
:1031800050c0b30072f0b700500037007f01070055
:103190004e0037000041eb006000b800a00f0700b0
:1031a000508380006100b900f1f5070012c0b30040
:1031b0009b0f070090c0b30072f0b70043003700c8
:1031c0007201070041003700608380006100b90090
:1031d000e7f507000041eb00910f070012c0b300b4
:1031e0006000b8008e0f0700b0c0b30072f0b700e7
:1031f0003600370065010700340037006083800027
:103200006100b900daf507000041eb00840f070008
:1032100012c0b3006000b800810f070070c0b30097
:1032200072f0b70029003700580107002700370067
:10323000608380006f0040006100b900ccf507009a
:103240000041eb00760f07005183800010ff2f0034
:10325000010050006100b900c5f5070012c0b300bd
:103260006f0f0700d0c0b30072f0b700170037002f
:1032700046010700150037006183800010ff2f0012
:10328000010050006100b900b9f507000041eb00f2
:10329000630f0700508380006f0040006100b90099
:1032a000b3f5070012c0b3005d0f0700f0c0b30014
:1032b00072f0b70005003700340107000300370043
:1032c0007270ef00010037000000000000000000f5
:1032d0000080fa00000006000600fa00fe11070058
:1032e0000004e00026013200ff110700f61107007c
:1032f000200798002e009000100078008000eb005e
:103300009ef5070032332300330524007ff70700c2
:103310000001780001007800820278000002780045
:103320000200200003582400050078008400780083
:103330000000be0096f60700008fbe006266260001
:1033400063ea23001e0078009e00900048f5070005
:103350000000e00003003d006066260061ea2300f3
:10336000008fbe001e0178009e019000000020002a
:103370008120240086f60700000178000100780013
:10338000820278000002780002002000030a240074
:1033900005007800840078000000be008ef507006c
:1033a0008001780001017800030078008200780035
:1033b0000000be0080858800918588006400470079
:1033c0001080e800100078008000eb006bf507002b
:1033d00032332300330524004cf707000001780046
:1033e00001007800820278000002780002002000cc
:1033f0000358240005007800840078000000be0017
:1034000063f60700008fbe006266260063ea2300b1
:103410001e0078009e00900015f507000000e000f7
:1034200003003d006066260061ea2300008fbe00b5
:103430001e0178009e0190000000200081202400e1
:1034400053f607000001780001007800820278003e
:103450000002780002002000030a24000500780022
:10346000840078000000be005bf507008001780052
:103470000101780003007800820078000000be009f
:10348000a0858800b18588006400470041002000c5
:1034900010804000100078008000eb0037f5070036
:1034a000323323003305240018f7070000017800a9
:1034b00001007800820278000002780002002000fb
:1034c0000358240005007800840078000000be0046
:1034d0002ff60700008fbe006266260063ea230015
:1034e0001e0078009e009000e1f407000000e0005c
:1034f00003003d006066260061ea2300008fbe00e5
:103500001e0178009e019000000020008120240010
:103510001ff60700000178000100780082027800a1
:103520000002780002002000030a24000500780051
:10353000840078000000be0027f5070080017800b5
:103540000101780003007800820078000000be00ce
:10355000c0858800d1858800640047006100200094
:1035600010804000100078008000eb0003f5070099
:103570003233230033052400e4f60700000178000d
:10358000010078008202780000027800020020002a
:103590000358240005007800840078000000be0075
:1035a000fbf50700008fbe006266260063ea230079
:1035b0001e0078009e009000adf407000000e000bf
:1035c00003003d006066260061ea2300008fbe0014
:1035d0001e0178009e019000000020008120240040
:1035e000ebf5070000017800010078008202780006
:1035f0000002780002002000030a24000500780081
:10360000840078000000be00f3f407008001780019
:103610000101780003007800820078000000be00fd
:10362000e0858800f1858800640047008100200063
:1036300010804000100078008000eb00cff40700fd
:103640003233230033052400b0f607000001780070
:103650000100780082027800000278000200200059
:103660000358240005007800840078000000be00a4
:10367000c7f50700008fbe006266260063ea2300dc
:103680001e0078009e00900079f407000000e00022
:1036900003003d006066260061ea2300008fbe0043
:1036a0001e0178009e01900000002000812024006f
:1036b000b7f5070000017800010078008202780069
:1036c0000002780002002000030a240005007800b0
:1036d000840078000000be00bff40700800178007d
:1036e0000101780003007800820078000000be002d
:1036f0000086880011868800808580009185800082
:1037000080f40700804078002041210001487800c3
:10371000a0858000b18580007af4070080407800a1
:103720002041210011409800c0858000d185800093
:1037300074f4070080407800204121002140980067
:10374000e0858000f18580006ef4070080407800fd
:1037500020412100314098000086800011868000c1
:1037600068f4070080407800204121004140980023
:10377000224121005100200000032000f70407002f
:10378000000000000080fa00000006000000fa00bf
:10379000f8fd07000080fb00a0838800a083800064
:1037a0006100b900f201200003002000820f5000e8
:1037b000838f58007e003e00000601001f00370086
:1037c000210037002300370025003700270037008d
:1037d00079003700280037002a0037002c00370016
:1037e0002e00370030003700320037003400370039
:1037f00036003700380037003a0037003c00370009
:103800003e003700400037004200370044003700d8
:1038100046003700480037004a0037004c003700a8
:103820004e00370050003700520037005400370078
:1038300056003700580037005a00370020c0b30048
:1038400076f0b7005d00370040c0b30076f0b700f7
:103850005a00370040c0b30076f0b7005700370079
:1038600040c0b30076f0b70054003700c0c0b300ca
:1038700076f0b7005100370040c0b30076f0b700d3
:103880004e00370040c0b30076f0b7004b00370061
:10389000a0c0b30076f0b70048003700a0c0b30066
:1038a00076f0b70045003700a0c0b30076f0b7004f
:1038b00042003700a0c0b30076f0b7003f003700e9
:1038c000a0c0b30076f0b7003c003700e0c0b30002
:1038d00076f0b70039003700e0c0b30076f0b700eb
:1038e00036003700c0c0b30076f0b70033003700b1
:1038f000a0c0b30076f0b7003000370020c0b3009e
:1039000076f0b7002d00370040c0b30076f0b70066
:103910002a003700e0c0b30076f0b7002700370078
:10392000e0c0b30076f0b70024003700e0c0b30079
:1039300076f0b70021003700a0c0b30076f0b700e2
:103940001e003700e0c0b30076f0b7001b00370060
:10395000a0c0b30076f0b70018003700a0c0b300d5
:1039600076f0b70015003700a0c0b30076f0b700be
:1039700012003700a0c0b30076f0b7000f00370088
:10398000a0c0b30076f0b7000c003700e0c0b30071
:1039900076f0b70009003700e0c0b30076f0b7005a
:1039a00006003700e0c0b30076f0b7000300370030
:1039b00000000000010037000000000076d0bf00ca
:1039c0000080fb0021072100914078008180fb00ee
:1039d0008100e900810f50000600320076d0bf0060
:1039e00072f0b7002107210091407800e009210022
:1039f00001487800000000000080fa000000060086
:103a00000000fa003d1007008910070084aea800ee
:103a100084cea800848ea800754ea800856ea800ec
:103a2000cc0a0700d30a07003a0907002d0907004e
:103a300052090700600c0700e10f07000b11070097
:103a4000000020000100240090878800a1878800e2
:103a500000002000011f2400b0878800c187880073
:103a60006000b800d0878800e1878800000020004f
:103a700001042400108988002189880000002000aa
:103a80000112240030898800418988006000b80054
:103a9000508988006189880000002000812c240062
:103aa000708988008189880000002000812c240012
:103ab00090898800a189880000002000812c2400c2
:103ac000b0898800c189880000002000812c240072
:103ad000f08788000188880000002000812c2400e5
:103ae000108888002188880000002000812c240094
:103af000308888004188880000002000812424004c
:103b0000908e8800a18e880000002000812424006f
:103b1000b08e8800c18e88006000b800b08b88002d
:103b2000c18b88006000b800d08b8800e18b8800d2
:103b30006000b800f08b8800018c88006000b8003d
:103b4000508b8800618b88006000b800308d880041
:103b5000418d88006000b800508d8800618d88001c
:103b60006000b800708d8800818d88006000b8000a
:103b7000d08c8800e18c880000002000812c24007b
:103b8000809fbe0000002000812c2400809fbe008a
:103b900000002000812c2400809fbe006033b8000c
:103ba0006022b800a2702d0033c22300201821002b
:103bb0004f060700ec87570000002000812c2400ee
:103bc000809fbe0000002000812c2400809fbe004a
:103bd00000002000812c2400809fbe006033b800cc
:103be0006022b8006011b8002015210040060700cf
:103bf000ec875700907380000000d10061406000a6
:103c00000004e00039003a000200370067100700a6
:103c100047040700741007000004e000fbff3a00af
:103c2000a0858000b185800002002000031a2400d6
:103c300011f307000000e0000200340084aea80089
:103c40000100370084aea900808580009185800046
:103c500002002000031a240007f307000000e00020
:103c60000200340084cea8000100370084cea900f1
:103c7000c0858000d185800002002000031a240046
:103c8000fdf207000000e00002003400848ea8006e
:103c900001003700848ea900008680001186800014
:103ca00002002000031a2400f3f207000000e000e5
:103cb00002003400754ea80001003700754ea900bf
:103cc000e0858000f185800002002000031a2400b6
:103cd000e9f207000000e00002003400856ea80051
:103ce000ccff3700856ea900caff37000000eb004b
:103cf0000080fa00000006000c00fa00889fbe0059
:103d00008a9fbe00348e8000458e8000108e800019
:103d1000218e80000001be000400be002ef30700cb
:103d2000000178000100780082017800000178002d
:103d300003007800820078000000be00d602070071
:103d400040079800510798004e009000de00900058
:103d5000b5020700400798005107980004838000cf
:103d60001583800000838000118380000001be0065
:103d70000400be00e5f407000001780001007800af
:103d8000820478000004780000002000012724004d
:103d90000001be0019f3070000017800010078005f
:103da000820178000001780003007800820078002a
:103db0000001be0009007800880078000000be0005
:103dc000f3f30700008fbe000083800011838000a2
:103dd0006011b800a6f207000000e00004003d00fa
:103de0001e0078009e00900001f0a200008fbe002f
:103df0000483800015838000a0702d0031c2230051
:103e00000001be000400be00c0f4070020079800b7
:103e1000310798006011b8001e0078009e009000e5
:103e200095f207000000e000060035006011b800c0
:103e30004e009000de0090008ff207000000e000ce
:103e40000c003d006011b8001e0078009e0090003c
:103e500087f207000000e00061003c006011b8003c
:103e60004e009000de00900081f207000000e000ac
:103e70005b003c004e009000de009000800d0700cb
:103e80000004be001e0078009e0090007c0d07001c
:103e90000001be000800be0077f207000000e0004d
:103ea0004f0035006011b8004e009000de00900019
:103eb00071f207000000e00020003400080020003c
:103ec000891824000400200005272400a0702d007c
:103ed00031c223000001be000400be008bf40700c5
:103ee000000178000100780082027800000278006a
:103ef00000838000118380000001be00050078006f
:103f0000840078000000be00bcf2070000017800c9
:103f10000100780082027800000278000801be00eb
:103f200005007800840078000000be00800d0700c6
:103f30000083880011838800700037006011b8008a
:103f40004e009000de00900049f207000000e00003
:103f500001003500690037000000200081182400ae
:103f60000004be0009f0a2000a8380001b838000c9
:103f70000400200005272400a0702d0031c223007a
:103f80000001be000400be0060f4070000017800dc
:103f900001007800820178000001780003007800b9
:103fa000820078000001be000a00be008af207000d
:103fb0000001780001007800820278000002780099
:103fc0000801be0005007800840078000000be00f3
:103fd000400d0700008388001183880047003700e8
:103fe00000838000118380006011b80022f2070076
:103ff0000000e0001e003400088380001983800068
:104000000400200005272400a0702d0031c22300e9
:104010000001be000400be003cf40700000178006f
:104020000100780082017800000178000300780028
:10403000820078000001be000800be0066f20700a2
:104040000001780001007800820278000002780008
:104050006011b80005007800840078000000be0000
:104060001c0d07000083880011838800230037009f
:1040700000838000118380006011b800fcf107000c
:104080000000e0001d003d00040020000527240082
:10409000a0702d0031c223000001be000400be004c
:1040a0001af407000001780001007800820278000d
:1040b0000002780000838000118380000001be00b0
:1040c00005007800840078000000be004bf2070075
:1040d0000001780001007800820278000002780078
:1040e0006011b80005007800840078000000be0070
:1040f0000f0d070000838800118388004e00900098
:10410000de009000de0c07000004be002e009000d0
:10411000be009000da0c07000001be000800be00df
:10412000d3f107000000e00004003d004e019000c4
:10413000de0190002207980033079800108e80005f
:10414000218e80002e019000be0190002bf207000e
:104150008001780001017800030078008200780077
:104160000000be00108e8800218e8800108e800016
:10417000218e8000ac010700108e8800218e8800ff
:1041800000838000118380006011b800b8f107003f
:104190000000e000010032000d0037004e009000ea
:1041a000de009000b60c0700a2702d0033c2230081
:1041b000aff107000000e000010035000400370007
:1041c000308e8000418e8000108e8800218e880005
:1041d000000000004f05be004f04be000080fa0042
:1041e000000006001800fa00889fbe00548e800070
:1041f000658e8000908e8000a18e80000001be0040
:104200000400be00f4f10700000f9800110f9800a1
:10421000748e8000858e8000b08e8000c18e8000fc
:104220000001be000400be00ebf10700200f980063
:10423000310f98006000b800008fbe006000b80029
:104240002007980031079800a4828000b582800082
:10425000a0702d0031c223000001be000400be008a
:10426000aaf307004007980051079800a482800035
:10427000b5828000a0828000b18280000001be0073
:104280000400be00a1f307000001780001007800df
:10429000820478000004780000002000011a240045
:1042a0000001be00d5f10700000178000100780090
:1042b0008201780000017800030078008200780015
:1042c0000001be0009007800880078000000be00f0
:1042d000aff207006007980071079800a082800085
:1042e000b18280006011b80061f107000000e000b9
:1042f00005003d006e009000fe00900001f0a2005d
:1043000060079800710798000e0990009e099000c0
:104310000e0890009e0890007cf3070000017800d2
:104320000100780082047800000478002e099000d3
:10433000be0990002e089000be08900073f307009d
:104340000001780001007800820178000001780007
:1043500003007800820078000001be0009007800a8
:10436000880078000000be00a4f10700000178007a
:1043700001007800820178000001780003007800d5
:10438000820078000000be007bf80700e082880011
:10439000f1828800e0828000f1828000d27b2300dd
:1043a0006358230032f107000000e00009003d00df
:1043b0006000b800008fbe006000b80020079800c1
:1043c000310798006000b800400798005107980036
:1043d0000f003700e0828000f18280000001be0003
:1043e0000e0890009e08900069f20700008fbe0042
:1043f000e0828000f18280000001be002e08900063
:10440000be08900062f2070020079800310798006c
:104410006011b8006e009000fe00900016f10700d9
:104420000000e00006003500e0828000f18280009c
:104430006011b80010f107000000e0000c003d0022
:104440006011b8006e009000fe00900008f10700b7
:104450000000e00032003c00e0828000f182800039
:104460006011b80002f107000000e0002c003c00e1
:10447000e0828000f18280000002be0005f0a10011
:104480006e009000fe00900001f0a1000001be004f
:104490000400be00f8f007000000e0002000350036
:1044a000080020000910240004002000051a240040
:1044b000a0702d0031c223000001be000400be0028
:1044c00012f30700000178000100780082027800f2
:1044d00000027800a0828000b18280000001be004e
:1044e00005007800840078000000be0043f107005a
:1044f0000001780001007800820278000002780054
:104500000801be0005007800840078000000be00ad
:10451000070c0700a0828800b18288001d003700c8
:10452000a8828000b982800004002000051a2400bf
:10453000a0702d0031c223000001be000400be00a7
:10454000f2f2070000017800010078008201780093
:104550000001780003007800820078000001be00ae
:104560000800be001cf1070000017800010078007f
:1045700082027800000278006011b800050078001f
:10458000840078000000be00d20b0700a0828800e3
:10459000b1828800e0828000f18280000002be00cb
:1045a00005f0a1004e009000de00900001f0a10097
:1045b0000001be000400be00adf007000000e000f6
:1045c00004003d00e2828000f382800042079800f0
:1045d00053079800988e8000a98e80004e019000ad
:1045e000de0190001e0078009e009000c7f20700d8
:1045f0000001780001007800820178000001780055
:1046000003007800820078000001be000800be00b0
:10461000faf00700800178000101780003007800bb
:10462000820078000000be00908e8800a18e880075
:10463000b88e8000c98e80004e019000de0190008f
:104640002e009000be009000b0f20700000178003c
:1046500001007800820178000001780003007800f2
:10466000820078000001be000800be00e3f00700f1
:104670008001780001017800030078008200780052
:104680000000be00b08e8800c18e8800a08280002d
:10469000b18280006011b80075f007000000e000f2
:1046a0000100320012003700e0828000f1828000b9
:1046b000a2702d0033c223006df007000000e0005f
:1046c000010035000a003700e0092100e10921005e
:1046d00061129100f1129100011b9100911b910058
:1046e0002418990035189900461899005718990010
:1046f000000000004f04be000080fa000000060029
:104700001c00fa006007980071079800020f9800db
:10471000130f9800240f9800350f9800460f98004b
:10472000570f98002e0a9000be0a90006e0090006d
:10473000fe0090000001be000400be00a6f00700cd
:10474000008fbe004e0a9000de0a90000e08900016
:104750009e0890000001be000400be009ef007000d
:104760008001780001017800030078008200780061
:104770000000be0001f0a200200798003107980059
:104780001e0178009e0190002e009000be00900057
:104790006ef4070002002000433324005bf20700a0
:1047a00000017800010078008202780000027800a1
:1047b000b2fd2000930424000500780084007800f6
:1047c0000000be0072f107004007980051079800f2
:1047d00002002000432b24004e009000de009000d9
:1047e00086f007000001780001007800820178005f
:1047f0000001780003007800820078000000be000d
:1048000009000700000178000100780082017800ab
:104810000001780003007800820078000000be00ec
:104820000080fa00000006000400fa00008fbe00bd
:104830001e0078009e00900017000700008fbe0049
:1048400002002000433324001e0078009e009000e8
:1048500009f007000000e00006003400020020001c
:10486000433b24001e0078009e0090005af0070091
:10487000008fbe009e0078001e009000810178002d
:104880000001780003007800820078000000be007c
:104890000080fa00000006000400fa00889fbe00b5
:1048a000008fbe00b8848000c9848000b08480007e
:1048b000c18480001e0178009e0190004ff0070027
:1048c0000001780001007800820278000002780080
:1048d0000801be0005007800840078000000be00da
:1048e0000af60700000178000100780082017800d4
:1048f0000001780003007800820078000000be000c
:104900004f04be000080fa00000006000000fa001c
:1049100020838000e10f50000a003200e20f5000b7
:10492000270032000000e00035003a00808180005e
:104930000000e000310032001000200020838800d9
:104940002e003700e1092100e009210061129100e9
:10495000f1129100011b9100911b9100b018910080
:1049600040199100d01991002018910064ff0700b0
:104970003083880041838800308380004183800039
:10498000308e8800418e8800dbfc0700148e80008a
:10499000258e800030838000418380000001be00ae
:1049a0000400be00b2ef07000000e000010032008a
:1049b00013003700200020002083880010003700fb
:1049c00008fe0700e0828000f1828000d27b230095
:1049d00063582300a6ef07000000e0000100350047
:1049e000070037006000b800a0828800b18288000c
:1049f0003030ef006430ef000100370000000000ad
:104a0000000000000080fa00000006000000fa002c
:104a1000908e8000a18e80000001be008000eb001f
:104a2000004021003e0a0700b08e8000c18e800049
:104a30000001be004100200000402100380a0700ac
:104a400002402100810020001009200043000700df
:104a5000108e8000218e80000001be008000eb00df
:104a6000a03f21002e0a0700a23f21006100200084
:104a70000009200039000700000000000080fa0053
:104a8000000006000a00fa0020079800310798008d
:104a9000420798000040eb00004f78009e407800ed
:104aa000e0cfb30000c06800004f78002e009000f7
:104ab0004880de00004078009e40780000c068001a
:104ac000004f78002e009000004078009e40780053
:104ad00000c06800004f78003e0090004880de0073
:104ae000004078009e40780000c06800004f7800c9
:104af0003e009000004078009e40780000c06800b2
:104b0000004f78000000eb00100798000c00370001
:104b10001e009000e800470011004000104078009f
:104b20009e40780000c06800004f78000e80e800ca
:104b30008e80e8001108e8009000780011079800c6
:104b40009e0090003e009000808f5000f0ff3500e6
:104b50001e4078000080fa00000006000e00fa00f7
:104b6000889fbe008a1f7800400798005107980070
:104b7000620798008f0478000f0078000005780025
:104b80006a00470061002000108040008000e900ba
:104b9000210798000000e8000000d10080004000dc
:104ba0000f007800818747006000400030079800c0
:104bb0000000eb00100798009e0090000e80e800b7
:104bc0000108e80010017800120798003e009000ec
:104bd00001004000e1cfb300014878004e00900092
:104be000c880de001e0190000e80e8000208e80088
:104bf0009001780013079800814078003e009000f3
:104c000002004000014878009e0090000e80e800fd
:104c10000108e80010017800120798004e0090008b
:104c2000004178003e0090000100400002487800fa
:104c30005e009000c880de001e0190000e80e8003b
:104c40000208e8009001780013079800814078007e
:104c50003e00900002004000014878009e00900055
:104c60000e80e8000108e8001001780012079800a3
:104c70005e009000004178003e009000010040007e
:104c8000024878000000eb00000f78000d003700ac
:104c90001e007800ec004700910040001e019000cb
:104ca0000e80e8000208e8009001780013079800e1
:104cb000914078003e0090000200400001487800da
:104cc0001e0fe8005e0090009e007800808f50006c
:104cd000efff35001e0490000e80e8000808e80091
:104ce00090007800110798006e019000de0090009f
:104cf0004e00900063ff0700804078003e00900067
:104d000008004000014878003e0090009e0090009e
:104d1000780a07008a0778000000000089077800f9
:104d20004f0578004f04be000080fa000000060026
:104d30000200fa00004f780000808000e40f50006d
:104d400023003200e40f500007003c00e20f500047
:104d500012003200e20f500016003c000000e0009c
:104d60000800320052003700e60f500030003200d9
:104d7000e60f50001c003500e70f500039003200ec
:104d80004b0037001e407800e24f40004a003a00d6
:104d90002000200000808800470037001e80fb00b4
:104da0004800dd001080880030002000008088006e
:104db000440037001e80fb001180800000807000de
:104dc0001080880040002000008088003d003700ef
:104dd0001e80fb004800dd0020808800500020007d
:104de00000808800370037001e80fb00208088008c
:104df000208080000000e00003003a0070002000e6
:104e0000008088002f00370021808000f03f2000c4
:104e1000808f500004003c0060002000008088006b
:104e20000630ef00270037000030ef002500370084
:104e3000318080000100e80030808800201f2100c0
:104e4000010040001e4878003180800020808000f2
:104e5000808f50001a00350070002000008088000c
:104e6000170037002180800010808000221f210061
:104e700004ff070008f0b7001e41780091002100f0
:104e800082487800810021009140780009d0bf005d
:104e900080cf500004003a00218080001080800004
:104ea000221f21000a0007000030ef000500370034
:104eb0000030ef0003003700000000000100370061
:104ec00000000000000000000080fa000000060062
:104ed0000600fa00000f78001107980022079800da
:104ee000200720009e007800808f500032003200a2
:104ef000200720009e007800808f50000d003c00ad
:104f0000100520009e007800808f50007401320050
:104f1000200520009e007800808f5000160032008f
:104f2000000220009e007800808f500000013200b7
:104f30006c013700400720009e007800808f5000f1
:104f400012003200400720009e007800808f500041
:104f500063003500500720009e007800808f5000cd
:104f6000a9003200000920009e007800808f5000c8
:104f7000e20032005b0137002e0090001040780004
:104f80000080fb00f20b0700560137008000eb00a9
:104f90002e009000be080700d08d8800e18d8800ab
:104fa000410020002e009000b9080700f08d880015
:104fb000018e88004b0137006000b800b08888007f
:104fc000c18888006000b800d0888800e188880027
:104fd0006000b800f0888800018988006000b8008f
:104fe00050888800618888006000b800908d880033
:104ff000a18d88006000b800d08d8800e18d880008
:105000008000eb002e009000a1080700a08088001f
:10501000b1808800410020002e0090009c0807000d
:10502000c0808800d1808800810020002e00900080
:1050300097080700e0808800f1808800a080800049
:10504000b18080000001be008000eb00a01d2100a7
:10505000b3080700c0808000d18080000001be003e
:1050600041002000a01d2100ad080700e080800065
:10507000f18080000001be0081002000a01d210001
:10508000a7080700e6808000f7808000c4808000c9
:10509000d5808000a2808000b380800000002000c6
:1050a000812c2400809fbe0000002000812c240061
:1050b000809fbe0000002000812c2400809fbe0045
:1050c000200f21000a010700ec875700a21d2100d4
:1050d000c100200020072000a0fe070001013700ca
:1050e0006000b800308a8800418a88006000b800fb
:1050f000508a8800618a88006000b800708a880041
:10510000818a88006000b800d0898800e189880021
:105110006000b800b08d8800c18d88006000b800c4
:10512000f08d8800018e88008000eb002e0090003a
:1051300057080700a0808800b18088004100200047
:105140002e00900052080700c0808800d18088009f
:10515000810020002e0090004d080700e0808800ac
:10516000f1808800a0808000b18080000001be0036
:105170008000eb00601e210069080700c0808000ed
:10518000d18080000001be0041002000601e21008f
:1051900063080700e0808000f18080000001be000d
:1051a00081002000601e21005d080700e68080006d
:1051b000f7808000c4808000d5808000a2808000bd
:1051c000b380800000002000812c2400809fbe005e
:1051d00000002000812c2400809fbe0000002000e1
:1051e000812c2400809fbe0020122100c0000700f7
:1051f000ec875700621e2100c1002000300720000c
:1052000056fe0700b70037006000b800308a8800fb
:10521000418a88006000b800508a8800618a88004e
:105220006000b800708a8800818a88006000b80039
:10523000d0898800e18988006000b800b0888800c3
:10524000c18888006000b800d0888800e1888800a4
:105250006000b800f0888800018988006000b8000c
:1052600050888800618888006000b800b08d880090
:10527000c18d88006000b800908d8800a18d8800e5
:1052800000002000812c2400809fbe000000200030
:10529000812c2400809fbe0000002000812c24006f
:1052a000809fbe006033b8006022b8006011b80073
:1052b000201221008e000700ec875700000020001c
:1052c000812c2400809fbe0000002000812c24003f
:1052d000809fbe0000002000812c2400809fbe0023
:1052e0006033b8006022b8006011b800200f2100c0
:1052f0007f000700ec8757007a003700100020007d
:10530000808188008000eb002e009000e0070700fd
:10531000508e8800618e8800410020002e00900091
:10532000db070700708e8800818e88006d003700d3
:105330002e009000104078000080fb00e30f50002a
:1053400018003200e30f500005003c00e10f500050
:1053500008003200e20f50000c003200230037003a
:10536000e40f500015003200e50f50001900320024
:105370001e003700640047001000e800104078006d
:105380000080fb0050808800180037006400470050
:105390001000e800104078000080fb00608088006a
:1053a00012003700640047001000e8001040780049
:1053b0000080fb00708088000c003700640047000c
:1053c0001000e800104078000080fb00808088001a
:1053d00006003700640047001000e8001040780025
:1053e0000080fb009080880000000000508080005a
:1053f000e10f500009003a00508080000040780022
:10540000614060000080fb0061006000217080004e
:105410000100a10001007000207088005080800011
:1054200000407800614060000080fb006100600087
:10543000217080000100a100010070002070880030
:105440006080800000407800614060000080fb00c8
:105450004f00dd00a174800001f0a1000100700088
:10546000a074880070808000004078006140600077
:105470000080fb00610060004a00dd0021708000b8
:1054800001a0a100010070002070880080808000d1
:1054900000407800614060000080fb006100600017
:1054a0004300dd00a17380000130a1000100700005
:1054b000a073880090808000004078006140600008
:1054c0000080fb00610060004900dd002170800069
:1054d0000190a100010070002070880001003700d9
:1054e00000000000000000000080fa00000006003c
:1054f0000e00fa00000f78001207980023079800aa
:1055000034079800450798005607980067079800e9
:105510001e0078001e019000ae0190000288be00bf
:105520001e0078003eb99700ceb99700620098003f
:10553000730098001e0078003e019000ce0190009c
:1055400022009800330098001e0078001eb99700d2
:10555000aeb9970002089800130898001e00780062
:105560005e019000ee019000420098005300980008
:105570001e0078007eb197008eb99700220898002f
:1055800033089800000000000080fa0000000600c8
:105590001200fa00889fbe008a9fbe008c9fbe004a
:1055a0006007980072079800030f98006e00900043
:1055b0007e0190008e099000021098001310980050
:1055c0006e00900060029000f00290006e0090006b
:1055d00090009000100078000001be000400be00a2
:1055e000ebed0700000178000100780082047800ec
:1055f000000478006e009000f000900060009000c1
:1056000001f0a2006e01900092019000120178005a
:10561000dfed0700000178000100780082017800ca
:105620000001780009007800880078000002be00c0
:1056300003007800820078000001be007e00900028
:105640008e089000d1070700008fbe006e0090000a
:1056500090009000100078001e0178009e019000dc
:10566000aaee0700800178000101780003007800ad
:10567000820078000001be006e00900022109800a9
:10568000331098006e009000400c9000d00c9000f9
:1056900002002000a33724007e0090008e089000b6
:1056a000bbed07000001780001007800820178005e
:1056b0000001780003007800820078000001be003d
:1056c0000800be00cdec07008001780001017800e1
:1056d00003007800820078000001be006e00900098
:1056e00042089800530898006e009000000a90004d
