:020000040000fa
:080000000002040000000000f2
:020000040000fa
:0400080016040000da
:020000040000fa
:04000c0016040000d6
:020000040000fa
:0400100016040000d2
:020000040000fa
:0400140016040000ce
:020000040000fa
:0400180016040000ca
:020000040000fa
:04001c0016040000c6
:020000040000fa
:0400200016040000c2
:020000040000fa
:0400240016040000be
:020000040000fa
:0400280016040000ba
:020000040000fa
:04002c0016040000b6
:020000040000fa
:0400300016040000b2
:020000040000fa
:04003400fa020000cc
:020000040000fa
:0400380016040000aa
:020000040000fa
:04003c0016040000a6
:020000040000fa
:0400400016040000a2
:020000040000fa
:04004400160400009e
:020000040000fa
:040048002803000089
:020000040000fa
:04004c001604000096
:020000040000fa
:040050001604000092
:020000040000fa
:04005400ce030000d7
:020000040000fa
:04005800a2030000ff
:020000040000fa
:04005c007c03000021
:020000040000fa
:040060001604000082
:020000040000fa
:04006400160400007e
:020000040000fa
:04006800160400007a
:020000040000fa
:04006c001604000076
:020000040000fa
:040070001604000072
:020000040000fa
:04007400160400006e
:020000040000fa
:04007800160400006a
:020000040000fa
:04007c001604000066
:020000040000fa
:040080001604000062
:020000040000fa
:04008400160400005e
:020000040000fa
:04008800160400005a
:020000040000fa
:04008c001604000056
:020000040000fa
:040090001604000052
:020000040000fa
:040094003203000033
:020000040000fa
:04009800160400004a
:020000040000fa
:04009c001604000046
:020000040000fa
:0400a0001604000042
:020000040000fa
:0400a400160400003e
:020000040000fa
:0400a800160400003a
:020000040000fa
:0400ac001604000036
:020000040000fa
:0400b0001604000032
:020000040000fa
:0400b400160400002e
:020000040000fa
:0400b800160400002a
:020000040000fa
:0400bc001604000026
:020000040000fa
:0400c0001604000022
:020000040000fa
:0400c400160400001e
:020000040000fa
:0400c800160400001a
:020000040000fa
:0400cc001604000016
:020000040000fa
:0400d0001604000012
:020000040000fa
:0400d400160400000e
:020000040000fa
:0400d800160400000a
:020000040000fa
:0400dc001604000006
:020000040000fa
:0400e0001604000002
:020000040000fa
:0400e40016040000fe
:020000040000fa
:0400e80016040000fa
:020000040000fa
:0400ec0016040000f6
:020000040000fa
:0400f00016040000f2
:020000040000fa
:0400f40016040000ee
:020000040000fa
:0400f80016040000ea
:020000040000fa
:0400fc0016040000e6
:020000040000fa
:0401000016040000e1
:020000040000fa
:0401040016040000dd
:020000040000fa
:0401080016040000d9
:020000040000fa
:04010c0016040000d5
:020000040000fa
:0401100016040000d1
:020000040000fa
:0401140016040000cd
:020000040000fa
:0401180016040000c9
:020000040000fa
:04011c0016040000c5
:020000040000fa
:0401200016040000c1
:020000040000fa
:0401240016040000bd
:020000040000fa
:0401280016040000b9
:020000040000fa
:04012c0016040000b5
:020000040000fa
:0401300016040000b1
:020000040000fa
:0401340016040000ad
:020000040000fa
:0401380016040000a9
:020000040000fa
:04013c0016040000a5
:020000040000fa
:0401400016040000a1
:020000040000fa
:04014400160400009d
:020000040000fa
:040148001604000099
:020000040000fa
:04014c001604000095
:020000040000fa
:040150001604000091
:020000040000fa
:04015400160400008d
:020000040000fa
:040158001604000089
:020000040000fa
:04015c001604000085
:020000040000fa
:040160001604000081
:020000040000fa
:04016400160400007d
:020000040000fa
:040168001604000079
:020000040000fa
:04016c001604000075
:020000040000fa
:040170001604000071
:020000040000fa
:04017400160400006d
:020000040000fa
:040178001604000069
:020000040000fa
:04017c001604000065
:020000040000fa
:040180001604000061
:020000040000fa
:04018400160400005d
:020000040000fa
:040188001604000059
:020000040000fa
:04018c001604000055
:020000040000fa
:040190001604000051
:020000040000fa
:04019400160400004d
:020000040000fa
:040198001604000049
:020000040000fa
:04019c001604000045
:020000040000fa
:0401a0001604000041
:020000040000fa
:0401a400160400003d
:020000040000fa
:0401a8001604000039
:020000040000fa
:0401ac001604000035
:020000040000fa
:0401b0001604000031
:020000040000fa
:0401b400160400002d
:020000040000fa
:0401b8001604000029
:020000040000fa
:0401bc001604000025
:020000040000fa
:0401c0001604000021
:020000040000fa
:0401c400160400001d
:020000040000fa
:0401c8001604000019
:020000040000fa
:0401cc001604000015
:020000040000fa
:0401d0001604000011
:020000040000fa
:0401d400160400000d
:020000040000fa
:0401d8001604000009
:020000040000fa
:0401dc001604000005
:020000040000fa
:0401e0001604000001
:020000040000fa
:0401e40016040000fd
:020000040000fa
:0401e80016040000f9
:020000040000fa
:0401ec0016040000f5
:020000040000fa
:0401f00016040000f1
:020000040000fa
:0401f40016040000ed
:020000040000fa
:0401f80016040000e9
:020000040000fa
:0401fc0016040000e5
:020000040000fa
:0402000016040000e0
:020000040000fa
:0402040016040000dc
:020000040000fa
:0402080016040000d8
:020000040000fa
:04020c0016040000d4
:020000040000fa
:0402100016040000d0
:020000040000fa
:0402140016040000cc
:020000040000fa
:0402180016040000c8
:020000040000fa
:04021c0016040000c4
:020000040000fa
:0402200016040000c0
:020000040000fa
:0402240016040000bc
:020000040000fa
:0402280016040000b8
:020000040000fa
:04022c0016040000b4
:020000040000fa
:0402300016040000b0
:020000040000fa
:0402340016040000ac
:020000040000fa
:0402380016040000a8
:020000040000fa
:04023c0016040000a4
:020000040000fa
:0402400016040000a0
:020000040000fa
:04024400160400009c
:020000040000fa
:040248001604000098
:020000040000fa
:04024c001604000094
:020000040000fa
:040250001604000090
:020000040000fa
:04025400160400008c
:020000040000fa
:040258001604000088
:020000040000fa
:04025c001604000084
:020000040000fa
:040260001604000080
:020000040000fa
:04026400160400007c
:020000040000fa
:10040000ef2421000eff27000e01880000000000ed
:10041000000020000000e000020032000001200087
:100420002002880014000700020107000000e0001d
:1004300003003a0060c222000100200002003700e1
:100440000000200001002000810f70000100320038
:100450000f000700000020000000e0000200320052
:100460000000020000000000a418020000000000cc
:100470000040da000000fe00200020000000e00044
:1004800002003200100020009001880000000600e9
:10049000a1028800800478000000eb001f003700f4
:1004a000e284440054a0b4009905ba00e2844400f8
:1004b00054a0b4009906ba00e284440054a0b400e9
:1004c0000006eb00476fde00fd07b200ae018800ba
:1004d000636ce10003003a000ad801000000eb0061
:1004e0000e003700606ce10008003a00004deb00a0
:1004f0000a05e800020039003420ec000af0a000f0
:100500008b05e900f9ff3e00040037006168e10057
:10051000010032000086eb000b00070019c7ba008b
:100520000e04e0001905ba0003003a000a00e000da
:10053000dbff3a0000000600fe07b200ae028800b2
:100540008a047800f5ff37000cd0a300e20f4d00bd
:100550001c003b0089027800354dba000a05e8000e
:10056000020039003420ec000af0a0008b05e900fd
:100570000f003200254dba000a05e80002003900dc
:100580003420ec000af0a0008b05e90008003200de
:100590000c00e0000600320015cdba000a05e800a4
:1005a000020039003420ec000af0a0008b05e900bd
:1005b0008984e80054a0b4000b00e000e2ff3a0098
:1005c000000006009902ba00055d78008b05e9007d
:1005d000f7ff3200c82ade00055d78008b05e900d0
:1005e000f3ff32000c00e000f1ff320019ddba0029
:1005f000eeff37003600f800809fbe00829fbe00ed
:10060000849fbe00869fbe000200fa000068a90019
:100610005f130700361007001e007800e90f500036
:1006200003003c00a40e0700e80f07001e0fe800bf
:10063000000000000080fa004f03be004f02be0021
:100640004f01be004f00be003600f900004006001a
:100650000000fa000108a900000000000080fa0074
:10066000004006003600f800809fbe00829fbe005a
:10067000849fbe00869fbe000000fa000368a900a8
:1006800022828000338280001000200001002000c0
:100690000200400083804800208288003182880068
:1006a000518280000100e80050828800703e2000e6
:1006b000808f5000030034004a30ef0010c0b300b8
:1006c0004cf0b700709080000000e00001003200a4
:1006d00028080700d2080700000000000080fa0088
:1006e0004f03be004f02be004f01be004f00be00d0
:1006f0003600f90000400600801f78000000fa0074
:1007000001a8a90000188000e0918800101880005e
:10071000f091880020188000009288003018800036
:1007200010928800401880002092880010c0b3000a
:1007300065f0b700000000000080fa004f0078006c
:10074000004006003600f800809fbe00829fbe0079
:10075000849fbe00869fbe000000fa000188a900a9
:10076000c1828000b0828000808f50000200320081
:10077000a5120700010037005a70ef0000000000ca
:100780000080fa004f03be004f02be004f01be00c2
:100790004f00be003600f900004006003600f800a9
:1007a000809fbe00829fbe00849fbe00869fbe00c9
:1007b0000000fa000168a900101180004200de006c
:1007c00061406000e14f500001003a002242a90060
:1007d000101180000000d10061406000e14f500026
:1007e00005003a002222a9000300370030118000e2
:1007f000004078009213070010118000004078003c
:1008000061406000e14f5000f8ff3200000000003e
:100810000080fa004f03be004f02be004f01be0031
:100820004f00be003600f900004006000040da002c
:100830000000fe000000050014002000ad0337009a
:10084000f4ff2f00ab0337000001be003f0007009c
:100850000470a70003f0a1006509b1001600320082
:100860000d0035006828e10006003500f0ff2f007c
:10087000f1ff27000300e00013003b000100280007
:100880000000050000004000818048008502e9006a
:10089000fcff3a0008003700f88f420002003c00dd
:1008a0008000eb00000005008100d1000080d30033
:1008b0008502e800fcff3a000300e00002003b0074
:1008c00060001000e0801800000006000001be007b
:1008d0001e0007000470a70003f0a10003f8a300a6
:1008e00013003a006509b10010003200090035001c
:1008f0006928e10002003500010028000000050021
:1009000000004000818048008502e900fcff3a00b9
:1009100000000600f88f4200050035008100d1007c
:100920000080d3008502e800fcff3a0000000600ca
:100930008000eb00000005004f89de008201780096
:10094000870337006011b80095033700c70ade003f
:10095000f107b200f50fb20008003200e1cf42000b
:10096000020032000170a00024000500810f700019
:10097000010032000408050044000500810f7000ea
:1009800002003a00140005008502e9000000400062
:1009900081c04800fcff3b000170a000240005005e
:1009a00007f82700078361000638e10004003a00d9
:1009b000f7072000878361008703710001003a0078
:1009c00003f0a200889fbe008a9fbe008c9fbe00dd
:1009d000470ade000480a100c71ade000580a100de
:1009e000070028000785600087856100f70f200059
:1009f0000720e1009e0032000728e1009c00320041
:100a0000010678000400e000b4003200f70720007f
:100a1000878060000170a0000500e000c000320087
:100a2000f7072000878161000370a00005065200cf
:100a30000f003a000b50e1000b0032000308e10008
:100a400002003a000200e1007e0032000204500081
:100a500083845800040031000001fd008101fd0085
:100a60008402fd008a05fd006044b80021003700c3
:100a70000520e10005003d000001fd008101fd00b1
:100a80008402fd008a05fd00050652007a60e1003f
:100a9000050035000170a1004722dd008480700050
:100aa0008a807000630037006044b800ef0266007f
:100ab00007ff2f00070666000500e000060034006f
:100ac000f08312008714dd000511de00071bdd0036
:100ad000060171008519de007060e1000500350037
:100ae0000904780082047800030178008001eb009b
:100af000700656000b50e10003003a00020040006f
:100b0000838048000400370060041400e0841c0067
:100b100002005800838058000188a30006003200bc
:100b20008100d1000080d3008984d3000884d300e1
:100b30000402e800270037000178a30025003a00ee
:100b40000100e000030032008186cf006986560074
:100b50000a0037008c0020000000e00004003a008a
:100b600009007800880478000004eb00700252004d
:100b70008086cf000d0646000c06e9007060e1009b
:100b800006003500800078000900780088047800ad
:100b90000004eb0070065600700252000c00e000ea
:100ba0000c0034008c08dd00f00316000703de00a3
:100bb000868070000c00dd00074bde000600700030
:100bc0008c4cdd000743de00868474000c44dd009d
:100bd0000c0252006120e10020003500610160003c
:100be0000700280087816400f7ff270087836400df
:100bf000070374000300e000060032008203730064
:100c0000040032000000e800e08048000188a300f2
:100c10000e003a00f70f20000720e1004a003d00d7
:100c20000170a1004722dd00810072008a807000ff
:100c30000000be004f06be004f05be004f04be00c0
:100c4000000006006000b800faff37008100d10004
:100c50000080d3000402e800eeff370004017800b2
:100c600089017400a10107008a807000f1ff37003c
:100c7000f7010700070278000001fd008101fd0077
:100c8000f301070087027800850372000778a3004c
:100c9000040032000001fd008101fd000602070092
:100ca000e4ff3700850362000768a30008003200f4
:100cb0000b50e10003003200f0ff2f00f1ff27008e
:100cc000dcff37000001fd008101fd00d9ff370086
:100cd0000468a300d7ff3200faff3700f8ff2700af
:100ce000888360000b003a000000e00009003a0031
:100cf0008303640082837300020032000200be009e
:100d0000ccff37000b50e100ceff3a000200be00de
:100d1000c8ff370014002000810064003eff370048
:100d2000f8ff27008883610004003a000200e00019
:100d300002003a008c007800beff3700150020004a
:100d40008301640039ff370001f82700000020000c
:100d500081007500b7ff3700889fbe008a9fbe00e4
:100d60008c9fbe001b0020000202be0005866800aa
:100d700006002800060666004709de00f20fb200f2
:100d8000820032000243e80080003200c729de0002
:100d9000f30fb2007d0032000343e8007b00320015
:100da000f107b2000170a000f507b2000570a000c5
:100db000c708dd004903de00868070004700dd00c3
:100dc000c72add004923de00868272004722dd004b
:100dd00003055100040350008583580003003100cf
:100de00000004000818048000a05e9008c1f78005f
:100df0008a9fbe0004005000858058000402420013
:100e000085824a0000004000818048000005eb0018
:100e10000004be006033b8000406be000d48e100c7
:100e200056003100110009004dccd8000c01b8006b
:100e30000d02b8008481410060824a008283530021
:100e400003045c0084845c0060055d000a00e0002f
:100e500025003a00800578000d40e100490031008e
:100e60008800780007007800110009004d88d8003c
:100e70000c01b8000d02b8008481410060824a0074
:100e80006003110083835b0004045c00e0845c0069
:100e90000900e00021003a004f01be000300e0001d
:100ea0002b003200e3016000070673008c817100a3
:100eb00001003200640070004200de004e5edd0082
:100ec0000c007000c258de0001e0a00083010700a2
:100ed000cf017800818071004f06be004f05be0033
:100ee0004f04be00000006008c8343000d044c003c
:100ef000e0844c0060054d000000e9000a00e000bd
:100f0000d4ff32008c8343000d044c00e0844c007d
:100f100060054d000000e900ceff37000c034300e0
:100f20008d834b0060044c00e0844c000000e9001d
:100f30000900e000d8ff32000c0343008d834b0012
:100f400060044c00e0844c000000e900d2ff370050
:100f50004200de004e5edd000c007000c258de0074
:100f600001e0a000cf0178000300e000daff3200ca
:100f700060001000e0801800d7ff3700f0ff2f005e
:100f8000aaff3700f0ff2f00b9ff37000404be00ae
:100f90002f010700870678000004fd008104fd0092
:100fa0002b010700078366000678a30003003200c8
:100fb0000960a7000800be002c0037000d78a300d0
:100fc000020032000800be00280037000778a300a6
:100fd00026003a0001f0a10009f0a1000668a30074
:100fe00003003200f1ff2700f0ff2f00baff3700a7
:100ff0000d68a300030032000800be008c80700062
:10100000b5ff37000768a30007003a000648a300b1
:1010100003003200f1ff2700f0ff2f00aeff370082
:101020000d48a300030032006000b8008c807000ff
:10103000a9ff37000748a3000400320001f8270089
:10104000000020008c807000a3ff370076010700ad
:101050000004fd008104fd00020578007201070014
:101060000802be008a01780059ff37000160a00025
:10107000120220003283880097ff37000100e00051
:10108000120032000500e00010003200889fbe0010
:101090008a9fbe008c9fbe000006eb0001f8a300f3
:1010a0000300320060001000e08018000cf0a00087
:1010b00005f8a3000300320060021200e0821a006b
:1010c0000cf0a2008005eb0041ff37006000b80083
:1010d000020005000383680007002800070363007f
:1010e000470ade000480a100c71ade000580a100c7
:1010f000f70f20000720e100420032000728e1003e
:1011000040003200889fbe008a9fbe008c1f78007e
:10111000f107b200f307b2000400e00064003200ff
:101120000170a0000500e000680032000370a0001c
:1011300085054200eb07b1000204b8000302b800c5
:101140008484440060854a00020ab8008484440014
:101150000a854a00030ab80004054500040033006c
:101160000804d0008984d2000a85d2008b05e900ea
:101170006158e1003d0035000210200009016100c6
:101180000308200089816100f7072000878364003d
:1011900008867300c84cde00c853dd0087847400e5
:1011a0004855de000300e0000600320082037600ae
:1011b000040032008904e80060054d000a88a3009d
:1011c0000c003a00f70f20000758e10044003d00f2
:1011d0000a70a100c75ddd000a8575008a007300f2
:1011e000090078004f0678004f05be004f04be008e
:1011f000000006000a05d1008984d3008b05e800b1
:10120000f0ff3700881f7800060478009000070080
:10121000070278000001fd008101fd008c0007003d
:1012200087027800850372000778a300050032006a
:101230000001fd008101fd009f0007004f047800c0
:1012400000000600850372000748a3000300320077
:10125000f0ff2f00f1ff2700f8ff3700000020000b
:1012600001f8270088807000f4ff370088017800bb
:101270004848dd00808171004848de00c850dd002c
:1012800001007000c850de00060478000b017800f1
:101290001600070088807000d2ff37000500e000cc
:1012a00005003200170020003a0007009dff3700bc
:1012b00081037000f9ff3a00860078004f0678003d
:1012c0004f05be004f04be000000050083037100ff
:1012d000f9ff3200270020002e00070094ff37009e
:1012e00001f8270086807000f4ff37000100e0005d
:1012f00026003200610111007810e10023003c005b
:101300006022b8007010e10004003500800278000f
:10131000010078008000eb00700151000200e00045
:101320000900340070031100062add00822ade0065
:101330008603dd00878272000200de00860bdd007e
:10134000070070008208de0084817100f4ff27002e
:10135000048262008481710004002800848262009b
:101360006102600005f0a600000006000482710022
:10137000070032000000e800e0804800000006009e
:101380000002be006000b800efff37006000b80048
:1013900000000600889fbe000004eb006138e100f9
:1013a00016003a000100e00008003a00c800de0024
:1013b0004800dd00880020000100e00003003a0042
:1013c000c800de004800dd00680444008184cf00ce
:1013d000e9845400060034008908dd00f08314001d
:1013e0008703de00878070000900dd0009044400e7
:1013f000610214004f04be00000006000300e0007c
:1014000008003a00c811de004811dd008800200005
:101410000300e00003003a00c811de004811dd00bf
:10142000680444008384cf00e9845400060034003b
:101430008919dd00f08314008713de0087817100b5
:101440000911dd0009044400e1021400e9ff37003e
:101450002700200001f0a70017002000470bde0046
:10146000f60fb200040032000643e8000a00320022
:101470004702b3000000060001037800f607b2003f
:101480000603700002003a000703b30000000600e4
:101490008702b3000000060001037800f607b200df
:1014a00006037000020032000770a0000000060072
:1014b0000760a000000006000478a30004003200ca
:1014c0000578a300030032000168a30001003a0080
:1014d0000200be000160a000000006008101700053
:1014e000270032008002eb0001f8a3000300320065
:1014f00060001000e080180015002000f4072000b4
:101500000202420020003400f7032000870360003d
:1015100006042000000363000208200000016100af
:101520004700de00c909dd0000807100c708de0049
:101530000600e00008003200870371000600320058
:101540001000b0000180b0000188a300020032004a
:10155000c108de000402e800f107b200f30f20002a
:101560000320e10003003d004722dd0081007200fe
:101570002900370001f827000000eb0026003700a3
:101580006000b80000000600680212007f20e10041
:10159000020034006000b8001f0037006011b8007e
:1015a0007020e1000400350080017800010078001f
:1015b0008000eb00700252000400e00009003400db
:1015c000f00312000719dd008419de000703dd00b7
:1015d000868171000400de00070bdd00060070004c
:1015e0008408de00f7ff2700838363008703710010
:1015f0000600280003036300070032000700e00034
:1016000003003a00610160000281730002003200b1
:101610001000b0000180b0000500a6000000060028
:1016200001f0a000000006004f0ade004709de00be
:10163000f107b200f20fb2000b003200f207b10066
:101640000170a000c708dd00c901de0083807000c2
:101650004700dd000400a600000006006000100046
:10166000e080180000000600810f700001003a00c1
:10167000000006008182cf000500e00010003e005f
:101680008082cf00ee8242007028e1000400390021
:1016900007003e00800078000000eb000e003700dd
:1016a000708312008600de000500dd000a003700ae
:1016b000708352008600dd000000eb00060037005a
:1016c000e28252008508dd00708312000603de000e
:1016d000868070000500dd007507b0000501ea0096
:1016e0000400a6000000060060001000e080180062
:1016f00000000600889fbe008a9fbe00841f7800fd
:101700007c0007004f00780011003300f0ff2f002d
:10171000838f6c0006003b00040565000a00a700eb
:101720000800370009f0a60010002000080037006c
:10173000820f5400838f5c000300390010002000ea
:1017400001003e000000200009f0a7000000ea00b0
:101750004f05be004f04be000000e0000000060080
:10176000881f7800030478000300e00007003d00b4
:1017700060001000e080180060011900e08119008d
:1017800002003b0001f02d000300370004000700b9
:1017900008f0a70001f0a0004f0478000000060048
:1017a000889fbe008a9fbe00008270000402710004
:1017b00004827100260032000004be000200be0058
:1017c0006011b8006b092000950220000182cf0053
:1017d0000a0039000541b1000082cf00070039003e
:1017e0000541b1000982cf00040039000541b10074
:1017f0000882cf00010039000541b10005425200c6
:10180000120032000a003b00828171006101640015
:101810008100d1000080d3008984d3000884d300e4
:101820008b05e8000442e800f7ff3a0007003700a4
:101830000804440089844c0000004800818048006e
:101840008b05e9000442e900f9ff3a0003000700b4
:101850004f05be004f04be000000060081002000be
:10186000618055000b003d000b00200061fe2f0041
:101870000100e1001d0034008281710061016400fb
:101880008904d1000884d3000000e800faff3a0080
:10189000710020006100640003007000020060001d
:1018a0000900320061044400e0844c000988a5006e
:1018b000050032008b05e8006808e10002003a00ec
:1018c0008904d1000884d300f20f20000258e100ff
:1018d00005003d00c75ddd00f907b2008980750095
:1018e00008007800000006000bf827008b00780045
:1018f000000005000004be0014fc07000003be0049
:101900000405be000200be0010fc0700844f7500f5
:10191000000006000400fa000001be0003f0a10070
:10192000a4fd200095f42300840f5100858f5900f9
:101930000e003e00f4ff2f00f5972300840f5100a6
:10194000858f59003a003e000200200003b82700ae
:101950001cfc0700e0bf9f00f1bf9f0000002000bb
:1019600001f823000080fa00000006004f0ade00a4
:1019700005002000163d2500b7072400860f510002
:10198000878f59001b003e0036be2c0067012400e3
:10199000860f5100878f59000a003600b2fd2000e3
:1019a000930424000400e0000400320005fc07005a
:1019b0005c01070001f0a200eaff3700f8fb070016
:1019c000fbff37000400e00005003200b2fd2000fc
:1019d00093fc2300fbfb0700dd010700e1ff37005c
:1019e0000001be00b0fd200091fc2300ecfb0700cd
:1019f000f9ff3700561d2300270e2400860f5100e3
:101a0000878f590014003e00f6dd2e00f70a2400ef
:101a1000860f5100878f590009003600b2fd200063
:101a2000930c24000400e00003003200e5fb0700f3
:101a30003c010700cbff3700d9fb0700fcff370054
:101a40000400e0000100320001f0a20042be2c00c0
:101a500063092400e5ff3700f4ff2f00f5f72700a6
:101a6000840f5100858f5900040036000001be002c
:101a70000200be00cafb0700baff3700c2ff2f00fa
:101a80000f0141005b010700630160006fb8970020
:101a9000ffb89700e10f510005003200e20f51003e
:101aa000c3ff32000200e000cbff3a00e0ff370046
:101ab00001f0a200c8ff37000400fa00889fbe00b2
:101ac0008a9fbe000203410083834900e00f530058
:101ad000e08f5b000f0032000202be0005f0a100a3
:101ae0000800200009f82700880f5200898f5a004b
:101af00008003e00a0bf9f00b1bf9f00470dde0061
:101b00000b002000f40f20000a056200840f55002e
:101b100007003a006ffd07000001be008efc0700c1
:101b20004f05be004f04be000080fa000000060012
:101b30000002400081824800840f5300858f5b00c3
:101b400006003900840f5300858f5b00f4ff3a00d4
:101b50006011b8005ffd0700f1ff37000a00e000e8
:101b60004c003a002fbb9700bfbb9700493add00fd
:101b7000c732de00850272004932dd00e00f5200fc
:101b8000e08f5a003f003d00610215002fbb970017
:101b9000bfbb9700040478000804e9000300330089
:101ba0000603430087834b00fbff37000602be009d
:101bb000471bde00070020000683fb000600e00054
:101bc0003d003a00491cdd00c714de0089047400a2
:101bd0004914dd00e00f5400e08f5c0032003d004e
:101be000e10313000204be008703e9000300330091
:101bf0000804440089844c00fbff370008015200b0
:101c000089815a00860f55002f003c00e00f5100db
:101c1000e08f590004003500e00f5100e08f5900bb
:101c2000cbff32000202be004728de000100200088
:101c3000e00f5000e08f58002e0032000a00e00054
:101c4000300034000000200001f82f0004024000a2
:101c5000858248006150b900c700dd000000200007
:101c600004007000858070006022b8000200280027
:101c7000bfb997008302610000007200818072008a
:101c8000a7ff37000a05e9000402420085824a00e6
:101c9000baff37002fba9700bfba9700f507b20016
:101ca0000570a000c2ff37000603e90008044400e5
:101cb00089844c00c7ff37000204be00f907b20058
:101cc0000970a000cdff3700e00f5100e08f5900f0
:101cd00004003500e00f5100e08f59009cff3200f6
:101ce0000202be000402420085824a000a05e900a1
:101cf000c2ff37000402420085824a000a05e9005b
:101d0000c9ff3700610515000400be000a05e9009f
:101d1000030033008100d1000080d300fbff3700b7
:101d2000d1ff37000400fa00889fbe000004be0007
:101d30008900780001f0a100a4fd200095f42300a3
:101d4000840f5000858f58001e003e00f4ff2f00c6
:101d5000f5972300840f5000858f580016003e0031
:101d60006000b80003f8270089806100e00f500090
:101d7000e08f58000b003a000200200003382000da
:101d80000800be00d3fc07000001be00c2bf9f00d8
:101d9000d3bf9f000800be004f04be000080fa00c1
:101da000000006000200200003b827000800be0063
:101db00004fb0700f4ff37000800be00e400070042
:101dc000180037004f49de0003002000143d2500b5
:101dd000b5072400840f5000858f58001d003e0079
:101de00034be2c0065012400840f5000858f5800fc
:101df0000e003e000800be000200e000b2fd200020
:101e000093fc230005003200eefa070045000700ae
:101e10000004be0009f0a200deff3700e0fa070070
:101e2000400007000004be00daff37000800be00d3
:101e30000200e000b2fd2000930424000300320001
:101e4000e0fa070001f0a200dcff3700d4fa070037
:101e5000fcff3700541d2300250e2400840f500082
:101e6000858f580017003e00f4dd2e00f50a24008f
:101e7000840f5000858f580009003e000800be0006
:101e80000200e00042be2c00630924000200320080
:101e9000ccfa0700e2ff3700c1fa0700dbff37008a
:101ea0000800be000200e000b2fd2000930c2400f8
:101eb00002003200c3fa0700c0ff3700b8fa07007b
:101ec000beff3700f2ff2f00f3f72700820f50000c
:101ed000838f5800050036000801be000800be00d0
:101ee000affa07000004be00aaff370082ff2f00f0
:101ef0000f0141000800be003e00070063016000c2
:101f00004fb89700dfb89700e10f5100c4ff3200cf
:101f1000e20f5100cbff32000200e000bbff3a00ad
:101f2000a6ff37000400fa00889fbe008a9fbe000b
:101f30008c9fbe000001be0066fc07000004be00ce
:101f40000001be0063fc07000005be000200200087
:101f500003f02b000800be005efc0700020020001a
:101f600003f8230097fa07000006be00f2a92a0032
:101f7000a3d223000a00be0056fc07000001be00e9
:101f80000c00be008ffa07000002be0072a12900fb
:101f9000c37c23000800be0084bf9f0095bf9f0044
:101fa0004cfc0700f243200063ab23007cfa0700df
:101fb0000006be000a01be000800be0045fc070086
:101fc0000001be000c00be0042fc07000001be0084
:101fd0000fba97009fba97000400be0079fa070075
:101fe0004f06be004f05be004f04be000080fa0041
:101ff000000006000400fa00889fbe008a9fbe0011
:102000008c9fbe000006780081047800820678006c
:1020100001f0a100a2fd200093dc2400820f5000fb
:10202000838f580023003e0032982f0023f22300b4
:102030008900780027fc07000200200003b4240078
:1020400060fa07000200200003b4240054fa0700dd
:102050000005be00fcf9070000047800a2fd200086
:1020600093fc23000a00be001afc07000001be001a
:102070000c0078008900780049fa07000002be00d1
:10208000325a2800832823000a00be0084bf9f0024
:1020900095bf9f000ffc07000001be000fba97001c
:1020a0009fba97000400be003dfa0700808ebe0074
:1020b0000b003700f2ff2f00f3f72700820f5000cc
:1020c000838f58000c0036000001780089017800e9
:1020d0008900780032fa0700808ebe000004eb0011
:1020e000080078004f06be004f05be004f04be003a
:1020f0000080fa0000000600890078004c0007000c
:102100000005be0032982f0023f22300f1fb0700e8
:102110000200200003f023002afa07005500070000
:10212000000478008efd070032982f0023f2230070
:1021300009fb07000001be000a00be0018fa0700f4
:102140006000b800a0069800b1069800d7ff3700dd
:102150000400fa00889fbe008a9fbe008c9fbe00cc
:102160000006be000001be00dafb07000004be004e
:102170000001be000c00be00d6fb07000005be003b
:102180000801be000800be00d2fb07000a01be0025
:10219000d0fb07000002be00c2c326006363230019
:1021a0000800be0084bf9f0095bf9f00c9fb0700c9
:1021b000f27c200003952300f9f907000001be001e
:1021c0000fba97009fba97000400be00c1fb07003a
:1021d0000002be004288280083c023000800be0021
:1021e00084bf9f0095bf9f00bafb0700b2aa2a00d8
:1021f000a3e22300eaf907000a01be00b5fb0700cd
:102200000c01be00eff907000001be000fba9700f5
:102210009fba97000400be00eaf907004f06be000f
:102220004f05be004f04be000080fa00000006000b
:102230000400fa006011b800e2bf9f00f3bf9f00e6
:102240006fbb9700ffbb97000002be00f0ff2f009e
:10225000f1ff2f00f2ff2f00f3ff270000006200c4
:102260008180620002016300838163000080fa00c4
:10227000000006000003be00b4f907006011b800ba
:102280000470a70007f0a1006509b1001b0032002f
:1022900012003500860220000628e1000800350003
:1022a000f3ff2700f2ff2f006110b9000700e000e4
:1022b00018003b00030028006000b8000200050081
:1022c00000004000818048000201490083814900ec
:1022d0008502e900faff3a0008003700f88f420053
:1022e00002003c008000eb00000005008100d100ee
:1022f0000080d3008502e800fcff3a000700e00000
:1023000004003b0060001000e0801800600119002c
:08231000e08119000000060045
:020000040000fa
:102318002200fa00889fbe00f08f800001908000a4
:1023280047f90700000f7800d08f8000e18f800008
:1023380043f9070010079800109080002190800052
:102348003ff90700200798003090800041908000f6
:102358003bf907003007980050908000619080009a
:1023680037f90700400798000e80e8009e007800c3
:10237800108040006100b9006df9070002002000dc
:102388000300240072fa07005007980061079800bc
:10239800e60047006800470011017800100041007e
:1023a8006100b90062f90700020020000300240060
:1023b80067fa070070079800010f98005e00900008
:1023c800ee0090000001be007cf9070000017800d3
:1023d8000100780082047800000478002e00900044
:1023e8006100b90052f907000001be000900780039
:1023f800880078000000be0070f90700000178002e
:1024080001007800820278000002780002002000b3
:102418000304240005007800840078000000be0052
:102428004bfa0700100f9800210f98007e009000cb
:102438008e0890000001be0060f9070000017800d6
:102448000100780082047800000478002e009000d3
:102458006100b90036f907000001be0009007800e4
:10246800880078000000be0054f9070000017800d9
:102478000100780082027800000278000200200043
:102488000304240005007800840078000000be00e2
:102498002ffa0700300f9800410f98000000200025
:1024a800811b2400500f9800610f98000000200045
:1024b80001142400700f98000117980002002000f2
:1024c800832c24001e089000ae08900020fa070014
:1024d8000001780001007800820478000004780088
:1024e8007e0990008e1190005e089000ee08900022
:1024f80029f90700000178000100780082017800be
:102508000001780003007800820078000001be0016
:1025180009007800880078000000be00ebfa070088
:10252800000178000100780082027800000278003b
:102538007e0990008e1190000500780084007800d4
:102548000000be001df907000001780001007800b6
:10255800820178000001780003007800820078008a
:102568000000be00b6f80700c08188000200200005
:10257800832c24003e089000ce089000f4f9070050
:1025880000017800010078008204780000047800d7
:102598007e0990008e1190005e089000ee08900071
:1025a800fdf807000001780001007800820178003a
:1025b8000001780003007800820078000001be0066
:1025c80009007800880078000000be00bffa070004
:1025d800000178000100780082027800000278008b
:1025e8007e0990008e119000050078008400780024
:1025f8000000be00f1f80700000178000100780033
:1026080082017800000178000300780082007800d9
:102618000000be008af80700b0818800b081800001
:10262800f70f500002003400040ea8000100370024
:10263800040ea900000000004f04be000080fa004c
:10264800000006000400fa00008fbe00020020000f
:10265800031f24001e0078009e00900074f80700f5
:102668000000e00002003d001000200001003700db
:102678000000eb000080fa00000006000400fa00e9
:10268800008fbe0002002000031f24001e007800f7
:102698009e00900066f807000000e00002003d0080
:1026a80010002000010037000000eb000080fa0055
:1026b800000006000200fa000040eb00004f78001e
:1026c800d08f8000e18f8000deff07000000e0006f
:1026d800030032001e4078000044a000004f78003c
:1026e800f08f800001908000d6ff07000000e00016
:1026f800030032001e4078000034a000004f78002c
:102708001090800021908000ceff07000000e000bc
:10271800030032001e4078000024a000004f78001b
:102728003090800041908000c6ff07000000e00064
:10273800030032001e4078000014a000004f78000b
:102748005090800061908000beff07000000e0000c
:10275800030032001e4078000004a000004f7800fb
:102768001e4078000080fa00000006000000fa0011
:102778003ed0bf000080fb006100b900f2002000dd
:1027880003002000820f5000838f58009c003e00f9
:10279800000601000f00370018003700210037003d
:1027a8003d0037003e00370048003700630037001f
:1027b8006d003700470037005100370052003700de
:1027c8005c0037006a003700790037007a0037006c
:1027d800890037004430ef004630ef000041eb003d
:1027e8006000b800be08070012c0b3006000b8005f
:1027f800bb08070010c0b3003ef0b700228280007b
:1028080033828000803e200001002000800f5100ac
:10281800818f59007c00360020c0b3003ef0b7001d
:10282800790037001090800021908000020020007d
:10283800032a240000f807000000e0000500340027
:1028480090012000e081880090012000d08188005c
:1028580004003700f0002000e0818800f00020002c
:10286800d0818800b08180006100b90030f807008d
:102878000041eb009a080700c08180006100b900a0
:102888002bf8070012c0b3009508070030c0b3004a
:102898003ef0b7005d0037008c0107005b00370091
:1028a8000041eb006000b8008d080700b08180008f
:1028b8006100b9001ef8070012c0b30088080700bd
:1028c80050c0b3003ef0b700500037007f0107004a
:1028d8004e0037000041eb006000b8008008070098
:1028e800b08180006100b90011f8070012c0b30080
:1028f8007b08070090c0b3003ef0b70043003700e4
:102908007201070041003700c08180006100b900f2
:1029180007f807000041eb007108070012c0b30078
:102928006000b8006e080700b0c0b3003ef0b70002
:10293800360037006501070034003700c081800089
:102948006100b900faf707000041eb0064080700ce
:1029580012c0b3006000b8006108070070c0b3007f
:102968003ef0b7002900370058010700270037005c
:10297800c08180006f0040006100b900ecf70700db
:102988000041eb0056080700b181800010ff2f00be
:10299800010050006100b900e5f7070012c0b3005c
:1029a8004f080700d0c0b3003ef0b700170037004b
:1029b8004601070015003700c181800010ff2f0075
:1029c800010050006100b900d9f707000041eb0091
:1029d80043080700b08180006f0040006100b90023
:1029e800d3f7070012c0b3003d080700f0c0b300da
:1029f8003ef0b70005003700340107000300370038
:102a08003e70ef00010037000000000000000000e9
:102a18000080fa00000006000600fa00630a0700ba
:102a28000004e00026013200640a07005b0a070080
:102a3800200798002e009000100078008000eb001e
:102a4800bef7070032332300330524009ff907003f
:102a58000001780001007800820278000002780006
:102a68000200200003582400050078008400780044
:102a78000000be00b6f80700008fbe0062662600a0
:102a880063ea23001e0078009e00900068f70700a4
:102a98000000e00003003d006066260061ea2300b4
:102aa800008fbe001e0178009e01900000002000eb
:102ab80081202400a6f807000001780001007800b2
:102ac800820278000002780002002000030a240035
:102ad80005007800840078000000be00aef707000b
:102ae80080017800010178000300780082007800f6
:102af8000000be00d08f8800e18f88006400470086
:102b08001080e800100078008000eb008bf70700c9
:102b180032332300330524006cf9070000017800e4
:102b2800010078008202780000027800020020008c
:102b38000358240005007800840078000000be00d7
:102b480083f80700008fbe006266260063ea230050
:102b58001e0078009e00900035f707000000e00096
:102b680003003d006066260061ea2300008fbe0076
:102b78001e0178009e0190000000200081202400a2
:102b880073f80700000178000100780082027800dd
:102b98000002780002002000030a240005007800e3
:102ba800840078000000be007bf7070080017800f1
:102bb8000101780003007800820078000000be0060
:102bc800f08f8800019088006400470041002000d1
:102bd80010804000100078008000eb0057f70700d5
:102be800323323003305240038f907000001780048
:102bf80001007800820278000002780002002000bc
:102c08000358240005007800840078000000be0006
:102c18004ff80700008fbe006266260063ea2300b3
:102c28001e0078009e00900001f707000000e000f9
:102c380003003d006066260061ea2300008fbe00a5
:102c48001e0178009e0190000000200081202400d1
:102c58003ff8070000017800010078008202780040
:102c68000002780002002000030a24000500780012
:102c7800840078000000be0047f707008001780054
:102c88000101780003007800820078000000be008f
:102c9800109088002190880064004700610020009f
:102ca80010804000100078008000eb0023f7070038
:102cb800323323003305240004f9070000017800ab
:102cc80001007800820278000002780002002000eb
:102cd8000358240005007800840078000000be0036
:102ce8001bf80700008fbe006266260063ea230017
:102cf8001e0078009e009000cdf607000000e0005e
:102d080003003d006066260061ea2300008fbe00d4
:102d18001e0178009e019000000020008120240000
:102d28000bf80700000178000100780082027800a3
:102d38000002780002002000030a24000500780041
:102d4800840078000000be0013f7070080017800b7
:102d58000101780003007800820078000000be00be
:102d6800309088004190880064004700810020006e
:102d780010804000100078008000eb00eff607009c
:102d88003233230033052400d0f80700000178000f
:102d9800010078008202780000027800020020001a
:102da8000358240005007800840078000000be0065
:102db800e7f70700008fbe006266260063ea23007b
:102dc8001e0078009e00900099f607000000e000c1
:102dd80003003d006066260061ea2300008fbe0004
:102de8001e0178009e019000000020008120240030
:102df800d7f7070000017800010078008202780008
:102e08000002780002002000030a24000500780070
:102e1800840078000000be00dff60700800178001b
:102e28000101780003007800820078000000be00ed
:102e38005090880061908800d08f8000e18f8000da
:102e4800a0f607008040780060242100014878003f
:102e5800f08f8000019080009af60700804078008b
:102e6800602421001140980010908000219080007b
:102e780094f60700804078006024210021409800e3
:102e880030908000419080008ef6070080407800e6
:102e980060242100314098005090800061908000ab
:102ea80088f607008040780060242100414098009f
:102eb8006224210051002000000320003b0107008c
:102ec800000000000080fa00000006000000fa0080
:102ed800f8fd07000080fb00008288000082800067
:102ee8006100b900f201200003002000820f5000a9
:102ef800838f58007e003e00000601001f00370047
:102f0800210037002300370025003700270037004d
:102f180079003700280037002a0037002c003700d6
:102f28002e003700300037003200370034003700f9
:102f380036003700380037003a0037003c003700c9
:102f48003e00370040003700420037004400370099
:102f580046003700480037004a0037004c00370069
:102f68004e00370050003700520037005400370039
:102f780056003700580037005a00370020c0b30009
:102f880042f0b7005d00370040c0b30042f0b70020
:102f98005a00370040c0b30042f0b700570037006e
:102fa80040c0b30042f0b70054003700c0c0b300bf
:102fb80042f0b7005100370040c0b30042f0b700fc
:102fc8004e00370040c0b30042f0b7004b00370056
:102fd800a0c0b30042f0b70048003700a0c0b3005b
:102fe80042f0b70045003700a0c0b30042f0b70078
:102ff80042003700a0c0b30042f0b7003f003700de
:10300800a0c0b30042f0b7003c003700e0c0b300f6
:1030180042f0b70039003700e0c0b30042f0b70013
:1030280036003700c0c0b30042f0b70033003700a5
:10303800a0c0b30042f0b7003000370020c0b30092
:1030480042f0b7002d00370040c0b30042f0b7008f
:103058002a003700e0c0b30042f0b700270037006d
:10306800e0c0b30042f0b70024003700e0c0b3006e
:1030780042f0b70021003700a0c0b30042f0b7000b
:103088001e003700e0c0b30042f0b7001b00370055
:10309800a0c0b30042f0b70018003700a0c0b300ca
:1030a80042f0b70015003700a0c0b30042f0b700e7
:1030b80012003700a0c0b30042f0b7000f0037007d
:1030c800a0c0b30042f0b7000c003700e0c0b30066
:1030d80042f0b70009003700e0c0b30042f0b70083
:1030e80006003700e0c0b30042f0b7000300370025
:1030f80000000000010037000000000042d0bf00bf
:103108000080fb00e1032100914078008180fb00f2
:103118008100e900810f50000600320042d0bf0054
:103128003ef0b700e103210091407800801e2100a5
:1031380001487800000000000080fa000000060046
:103148000000fa00a2080700ee08070084aea800f5
:1031580084cea800848ea800754ea800856ea800ad
:10316800c3030700ca030700290207001c0207005f
:1031780041020700400507004608070078090700d4
:10318800907380000000d100614060000004e000fe
:103198004d003a00020037003b090700f80007001d
:1031a8004e0907000004e000fbff3a004cd0bf00c6
:1031b8000004e000110032004c70ef00508f8000d6
:1031c800618f8000bff5070080407800b02421009f
:1031d80001487800b08f8000c18f8000b9f50700e2
:1031e80080407800b024210011409800b2242100ca
:1031f80021002000000420006c000700f08f8000f0
:103208000190800002002000031a24008af50700bc
:103218000000e0000200340084aea800010037007e
:1032280084aea900d08f8000e18f800002002000ca
:10323800031a240080f507000000e00002003400b3
:1032480084cea8000100370084cea9001090800029
:103258002190800002002000031a240076f5070060
:103268000000e00002003400848ea800010037004e
:10327800848ea90050908000619080000200200098
:10328800031a24006cf507000000e0000200340077
:10329800754ea80001003700754ea90030908000d7
:1032a8004190800002002000031a240062f5070004
:1032b8000000e00002003400856ea800b8ff370067
:1032c800856ea900b6ff37000000eb000080fa0009
:1032d800000006000a00fa0020079800310798004d
:1032e800420798000040eb00004f78009e407800ad
:1032f800e0cfb30000c06800004f78002e009000b7
:103308004880de00004078009e40780000c06800d9
:10331800004f78002e009000004078009e40780012
:1033280000c06800004f78003e0090004880de0032
:10333800004078009e40780000c06800004f780088
:103348003e009000004078009e40780000c0680071
:10335800004f78000000eb00100798000c003700c1
:103368001e009000e800470011004000104078005f
:103378009e40780000c06800004f78000e80e8008a
:103388008e80e8001108e800900078001107980086
:103398009e0090003e009000808f5000f0ff3500a6
:1033a8001e4078000080fa00000006000e00fa00b7
:1033b800889fbe008a1f7800400798005107980030
:1033c800620798008f0478000f00780000057800e5
:1033d8006a00470061002000108040008000e9007a
:1033e800210798000000e8000000d100800040009c
:1033f8000f00780081874700600040003007980080
:103408000000eb00100798009e0090000e80e80076
:103418000108e80010017800120798003e009000ab
:1034280001004000e1cfb300014878004e00900051
:10343800c880de001e0190000e80e8000208e80047
:103448009001780013079800814078003e009000b2
:1034580002004000014878009e0090000e80e800bd
:103468000108e80010017800120798004e0090004b
:10347800004178003e0090000100400002487800ba
:103488005e009000c880de001e0190000e80e800fb
:103498000208e8009001780013079800814078003e
:1034a8003e00900002004000014878009e00900015
:1034b8000e80e8000108e800100178001207980063
:1034c8005e009000004178003e009000010040003e
:1034d800024878000000eb00000f78000d0037006c
:1034e8001e007800ec004700910040001e0190008b
:1034f8000e80e8000208e8009001780013079800a1
:10350800914078003e009000020040000148780099
:103518001e0fe8005e0090009e007800808f50002b
:10352800efff35001e0490000e80e8000808e80050
:1035380090007800110798006e019000de0090005e
:103548004e00900063ff0700804078003e00900026
:1035580008004000014878003e0090009e0090005e
:10356800e90607008a07780000000000890778004c
:103578004f0578004f04be000080fa0000000600e6
:103588000200fa00004f780010818000e40f50001c
:1035980024003200e40f500007003c00e20f500006
:1035a80012003200e20f500017003c000000e0005b
:1035b8000800320056003700e60f50003400320091
:1035c800e60f50001e003500e70f50003d003200a6
:1035d8004f0037001e407800e24f40004e003a008e
:1035e80030002000108188004b0037001e80fb004f
:1035f80021818000010040002081880050002000c7
:1036080010818800470037001e80fb002181800060
:1036180001004000208188002000200010818800df
:10362800400037001e80fb0031818000010040000f
:103638003081880060002000108188003900370040
:103648001e80fb003181800001004000308188002d
:10365800308180000000e00003003a007000200084
:10366800108188002f00370031818000f03f200052
:10367800808f500004003c0060002000108188000a
:103688002830ef00270037002230ef0025003700f0
:10369800418180000100e8004081880080162100f7
:1036a800010040001e487800418180003081800080
:1036b800808f50001a0035007000200010818800ab
:1036c8001700370031818000208180008216210098
:1036d80000ff07002af0b7001e417800b102210060
:1036e80082487800a1022100914078002bd0bf00c9
:1036f80080cf500004003a00318180002081800092
:10370800821621000a0007002230ef00050037006a
:103718002230ef00030037000000000001003700ee
:1037280000000000000000000080fa000000060011
:103738000800fa001007980021079800320798003f
:1037480010002000000f78009e0090001005200057
:10375800808f50009c0032009e00900010052000d1
:10376800808f500005003c009e0090000002200061
:10377800808f500028003200950037009e0090008e
:1037880020052000808f50001f0032009e0090000e
:1037980000092000808f50008d003a003e00900004
:1037a80010407800e14f500002003a000080eb0022
:1037b800000f7800660047001000e800104078000d
:1037c8000080fb009e0078008180b9006100b9008c
:1037d80057f407000041eb00c104070066004700ea
:1037e8001080e800104078000080fb009e00780000
:1037f8008180b9006100b9004df4070012c0b30020
:10380800b7040700730037003e00900010407800ae
:103818000080fb00410807003e009000104078003f
:103828000080fb00e30f500018003200e30f500047
:1038380005003c00e10f500008003200e20f500084
:103848000c00320023003700e40f5000150032004e
:10385800e50f5000190032001e00370066004700cf
:103868001000e800104078000080fb0060818800ac
:1038780018003700660047001000e8001040780084
:103888000080fb0070818800120037006600470046
:103898001000e800104078000080fb00808188005c
:1038a8000c003700660047001000e8001040780060
:1038b8000080fb0090818800060037006600470002
:1038c8001000e800104078000080fb00a08188000c
:1038d8000000000060818000e10f500009003a00fc
:1038e8006081800000407800614060000080fb003b
:1038f80061006000217080000100a10001007000db
:10390800207088006081800000407800614060007d
:103918000080fb0061006000217080000100a100b0
:1039280001007000207088007081800000407800dd
:10393800614060000080fb004f00dd00a174800042
:1039480001f0a10001007000a0748800808180004f
:1039580000407800614060000080fb00610060006a
:103968004a00dd002170800001a0a1000100700064
:1039780020708800908180000040780061406000dd
:103988000080fb00610060004300dd00a17380003f
:103998000130a10001007000a0738800a0818000a0
:1039a80000407800614060000080fb00610060001a
:1039b8004900dd00217080000190a1000100700025
:1039c8002070880003003700000000000100370065
:1039d80000000000000000000080fa00000006005f
:1039e8000000fa0005e1a9000421a9000068a90067
:1039f8002068a80005e1a80000002000a1372400e5
:103a080031000700000000000080fa0000000600f6
:103a18000000fa0013e1a90011e1a9001061a80053
:103a28001021a900800880000040a1000050a100da
:103a3800800888000a21ef000621ef0030392000b5
:103a48007008880000702800600888002042800004
:103a58000000a0000010a1000020a1002042880062
:103a68000108a9002108a80011e1a8000000000031
:103a78000080fa00000006000000fa001fe1a9001b
:103a88001e21a9000368a9002368a8001fe1a80057
:103a980000002000a1472400c00007002282800007
:103aa8003382800010002000010020000200400046
:103ab800838048002082880031828800000000004e
:103ac8000080fa00000006000400fa00008fbe0023
:103ad800200880000040a1000050a10020088800b4
:103ae8001e0178009e019000001c2e0041c6240093
:103af80097f407000001780001007800820278003e
:103b08000002780002f02f00f37724000500780007
:103b1800840078000000be0047f307000000e000c2
:103b28008d003400200880000040a0000050a10053
:103b3800200888001e0178009e019000001c2e00bd
:103b480041c6240082f407000001780001007800d3
:103b5800820278000002780002002000031024008e
:103b680005007800840078000000be0078f40700a3
:103b780000017800010078008202780000027800d5
:103b880002f02f00f3772400050078008400780005
:103b98000000be0028f307000000e00055003400d4
:103ba800200880000040a1000050a00020088800e4
:103bb8001e0178009e019000001c2e0041c62400c2
:103bc80063f40700000178000100780082027800a1
:103bd8000002780002002000032824000500780075
:103be800840078000000be0059f407000001780046
:103bf80001007800820278000002780002f02f00ad
:103c0800f377240005007800840078000000be00e7
:103c180009f307000000e0001d00340020088000c0
:103c28000040a0000050a000200888001e01780075
:103c38009e019000001c2e0041c6240044f4070099
:103c48000001780001007800820278000002780004
:103c58000200200003382400050078008400780062
:103c68000000be003af40700000178000100780067
:103c78008201780000017800030078008200780053
:103c88000000be00eef20700100888004000370070
:103c98001e0178009e019000001c2e0041c62400e1
:103ca8002bf40700000178000100780082027800f8
:103cb8000002780002002000032824000500780094
:103cc800840078000000be0021f40700000178009d
:103cd8000100780082017800000178000300780074
:103ce800820078000000be00d5f2070010088800a6
:103cf800270037001e0178009e019000001c2e004e
:103d080041c6240012f40700000178000100780081
:103d180082027800000278000200200003102400cc
:103d280005007800840078000000be0008f4070051
:103d38000001780001007800820178000001780015
:103d480003007800820078000000be00bcf2070083
:103d5800100888000e0037001e0178009e019000b0
:103d6800001c2e0041c62400f9f30700000178006a
:103d780001007800820178000001780003007800d3
:103d8800820078000000be00adf20700100888002d
:103d9800000000000080fa00000006000400fa009d
:103da800008fbe00f00880000040a1000050a10074
:103db800f00888001e0178009e019000001c2e006b
:103dc80041c62400e2f307000001780001007800f2
:103dd800820278000002780002f02f00f3772400b6
:103de80005007800840078000000be0092f2070009
:103df8000000e0008d003400f00880000040a000c2
:103e08000050a100f00888001e0178009e01900073
:103e1800001c2e0041c62400cdf3070000017800e5
:103e28000100780082027800000278000200200079
:103e38000310240005007800840078000000be000c
:103e4800c3f30700000178000100780082027800bf
:103e58000002780002f02f00f377240005007800b4
:103e6800840078000000be0073f207000000e00044
:103e780055003400f00880000040a1000050a00068
:103e8800f00888001e0178009e019000001c2e009a
:103e980041c62400aef30700000178000100780055
:103ea8008202780000027800020020000328240023
:103eb80005007800840078000000be00a4f3070025
:103ec8000001780001007800820278000002780082
:103ed80002f02f00f37724000500780084007800b2
:103ee8000000be0054f207000000e0001d0034008e
:103ef800f00880000040a0000050a000f0088800f2
:103f08001e0178009e019000001c2e0041c624006e
:103f18008ff3070000017800010078008202780022
:103f28000002780002002000033824000500780011
:103f3800840078000000be0085f3070000017800c7
:103f48000100780082017800000178000300780001
:103f5800820078000000be0039f20700d00888000f
:103f6800400037001e0178009e019000001c2e00c2
:103f780041c6240076f307000001780001007800ac
:103f88008202780000027800020020000328240042
:103f980005007800840078000000be006cf307007c
:103fa80000017800010078008201780000017800a3
:103fb80003007800820078000000be0020f20700ad
:103fc800d0088800270037001e0178009e01900065
:103fd800001c2e0041c624005df307000001780094
:103fe80001007800820278000002780002002000b8
:103ff8000310240005007800840078000000be004b
:1040080053f307000001780001007800820178006e
:104018000001780003007800820078000000be00ec
:1040280007f20700d00888000e0037001e0178004c
:104038009e019000001c2e0041c6240044f3070096
:104048000001780001007800820178000001780002
:1040580003007800820078000000be00f8f1070035
:10406800d0088800000000000080fa000000060068
:104078000000fa00c301a800dca1ef00dea1ef00f8
:10408800c1e1a800000000000080fa00000006005e
:104098000000fa00c305a800dca5ef00dea5ef00cc
:1040a800c1e5a800000000000080fa00000006003a
:1040b8000800fa00889fbe008a9fbe00208080000a
:1040c8003180800000808800118088006080800036
:1040d800718080004080880051808800300e800008
:1040e8008000eb00008fbe00500e80008000eb00c7
:1040f800c000dd00000020001e0f40005e97480051
:10410800302e80008000eb002007980031079800cf
:10411800502e80008000eb00c000dd000000200071
:1041280064014700e4014700331940002391480027
:104138001202780092029000240798003507980030
:104148001e0078009e009000f9f10700c2532e006f
:1041580073782300ddf30700000178000100780080
:10416800820178000001780003007800820078005e
:1041780020808800318088002e009000be009000ca
:10418800ebf10700c2532e0073782b00cff3070022
:1041980000017800010078008201780000017800b1
:1041a80003007800820078006080880071808800b1
:1041b800248080003580800000808000118080008d
:1041c8000001be000400be00f3f107000001780002
:1041d800010078008201780000017800030078006f
:1041e8008200780080808800918088006480800048
:1041f8007580800040808000518080000001be00f2
:104208000400be00e4f10700000178000100780016
:1042180082017800000178000300780082007800ad
:10422800a0808800b180880084808000958080000c
:1042380000838000118380000001be000400be00de
:10424800a2f30700800178000101780003007800dc
:10425800820078000000be0080908800919088005d
:10426800a4808000b58080000083800011838000d6
:104278000001be000400be0094f30700800178002e
:104288000101780003007800820078000000be0079
:10429800a0908800b190880084908000959080005c
:1042a800a0908000b19080000001be000400be0014
:1042b800c2f107000001780001007800820278004e
:1042c80000027800020020000300240005007800a6
:1042d800840078000000be009df20700800178008d
:1042e8000101780003007800820078000000be0019
:1042f800c0908800d19088008490800095908000bc
:10430800a0908000b19080000001be000400be00b3
:10431800a1f107000001780001007800820278000e
:104328000002780022852b00e3e5230005007800d1
:10433800840078000000be0085f207008001780044
:104348000101780003007800820078000000be00b8
:10435800e0908800f19088002091800031918000e1
:10436800009188001191880060918000719180000f
:104378004091880051918800c0918000d1918000bf
:10438800a0918800b191880008918000199180005f
:10439800ca908000db908000a0918000b1918000dd
:1043a8005af507000001be000a00be0047f30700e7
:1043b800000178000100780082027800000278008d
:1043c80000838000118380000001be000500780092
:1043d800840078000000be005df20700000178004c
:1043e800010078008201780000017800030078005d
:1043f800820078000001be000800be006ff10700cf
:1044080080017800010178000300780082007800bc
:104418000000be00209188003191880048918000fa
:1044280059918000ca908000db908000a0918000a4
:10443800b191800039f607000001be000a00be00f5
:1044480022f307000001780001007800820278005a
:104458000002780000838000118380000001be0004
:1044680005007800840078000000be0038f20700dc
:1044780000017800010078008201780000017800ce
:1044880003007800820078000001be000800be002a
:104498004af10700800178000101780003007800e4
:1044a800820078000000be00609188007191880049
:1044b800a8918000b9918000e4908000f590800078
:1044c80000838000118380000001be000400be004c
:1044d8001ff20700000178000100780082017800cf
:1044e8000001780003007800820078000001be0017
:1044f8000800be0031f10700800178000101780052
:1045080003007800820078000000be00c091880097
:10451800d1918800c0918000d1918000b2fd200027
:1045280093042400c4f007000000e0000c003400ed
:10453800c0918000d1918000b2fd2000930c24002e
:1045480015f1070080017800010178000300780068
:10455800820078000000be00c0918800d1918800d8
:10456800c0918000d1918000b2fd200093042c00fe
:10457800aff007000000e000010035000c00370034
:10458800c0918000d1918000b2fd2000930c2400de
:104598000af1070080017800010178000300780023
:1045a800820078000000be00c0918800d191880088
:1045b800000000004f05be004f04be000080fa0056
:1045c800000006001800fa00208280003182800076
:1045d80000017800810178008000eb000e0078006f
:1045e800f101070020918000319180000001be0098
:1045f800410020000e007800ce0107006091800085
:10460800719180000001be00810020000e0078003a
:10461800c8010700c0918000d19180000001be0050
:10462800c10020000e007800c2010700c090800081
:10463800d19080000001be00010120000e0078002a
:10464800bc010700e0908000f19080000001be00ee
:10465800410120000e007800b60107000e01780025
:10466800810120001006200050fb07000000000018
:104678000080fa00000006000000fa0002ccbf002b
:104688000000a1000010a1000020a10002ecb7006a
:1046980000962000206088001061800000a0a00023
:1046a80000b0a0001061880023cca80023eca8006b
:1046b80030002000206188001062800000a0a00067
:1046c80000b0a0001062880043cca80043eca8000a
:1046d800300020002062880001eca80000000000e3
:1046e8000080fa00000006000000fa00889fbe0063
:1046f800948f8000a58f8000b08f8000c18f8000cc
:104708000001be000400be0049f007000000e00000
:1047180014003d00b88f8000c98f8000948f8000fe
:10472800a58f800070828000818280000001be0019
:104738000400be00a1f00700000178000100780025
:1047480082027800000278000801be0005007800a7
:10475800840078000000be00fa010700908f8800ee
:10476800a18f8800948f8000a58f8000b08f800073
:10477800c18f80000001be000400be002ef00700bb
:104788000000e00014003400b88f8000c98f80005a
:10479800948f8000a58f80007082800081828000c5
:1047a8000001be000400be007bf007000001780095
:1047b8000100780082027800000278000801be003b
:1047c80005007800840078000000be00c6010700dc
:1047d800908f8800a18f8800908f8000a18f800023
:1047e8006011b80014f007000000e0001e0035005a
:1047f800908f8000a18f800002002000031c2400fd
:1048080032f2070000017800010078008202780087
:104818000002780090828000a18280000001be0022
:1048280005007800840078000000be0063f00700ef
:10483800000178000100780082017800000178000a
:1048480003007800820078000000be001df0070019
:104858007061880090828000a182800019f00700b2
:10486800306188001e00370090828000a18280009d
:1048780014f0070070618800908f8000a18f80007d
:1048880001f0a20002002000031c24000ff2070020
:1048980000017800010078008202780000027800a8
:1048a80090828000a18280000001be00050078008f
:1048b800840078000000be0040f007000001780086
:1048c8000100780082017800000178000300780078
:1048d800820078000000be00faef0700306188000f
:1048e800748f8000858f8000508f8000618f8000da
:1048f8000001be000400be00cdef07000000e0008c
:1049080014003d00588f8000698f8000748f8000ec
:10491800858f800070828000818280000001be0047
:104928000400be0025f007000001780001007800af
:1049380082027800000278000801be0005007800b5
:10494800840078000000be007e010700708f880098
:10495800818f8800748f8000858f8000508f800041
:10496800618f80000001be000400be00b2ef0700a6
:104978000000e00014003400588f8000698f800028
:10498800748f8000858f8000708280008182800013
:104998000001be000400be00ffef07000001780020
:1049a8000100780082027800000278000801be0049
:1049b80005007800840078000000be004a01070066
:1049c800708f8800818f8800708f8000818f8000b1
:1049d8006011b80098ef07000000e0001e003400e6
:1049e800708f8000818f800002002000031c24004b
:1049f800b6f1070000017800010078008202780013
:104a08000002780090828000a18280000001be0030
:104a180005007800840078000000be00e7ef07007a
:104a28000001780001007800820178000001780018
:104a380003007800820078000000be00a1ef0700a4
:104a48007062880090828000a18280009def07003c
:104a5800306288001e00370090828000a1828000aa
:104a680098ef070070628800708f8000818f800047
:104a780001f0a20002002000031c240093f10700ab
:104a880000017800010078008202780000027800b6
:104a980090828000a18280000001be00050078009d
:104aa800840078000000be00c4ef07000001780011
:104ab8000100780082017800000178000300780086
:104ac800820078000000be007eef07003062880098
:104ad800000000004f04be000080fa00000006003d
:104ae8000c00fa003007980041079800224f980000
:104af80001000900001feb00005feb005e00b10041
:104b0800801e210010407800004f7800208280002d
:104b18000040780010479800208280003182800091
:104b28004809dd004800de0000007100c808de000a
:104b38000040780020479800208280003182800061
:104b48004008de000100200000407800304798004f
:104b580020828000318280004808de0001002000a9
:104b680000407800404798003e009000ce0090003a
:104b7800c800070002002000832c24002eef070045
:104b88000000e00012003c006a0047001000fb0033
:104b98000000e00007003200e10f50000d003a006d
:104ba8003e019000ce019000528f8800638f8800ec
:104bb800080037003e009000ce00900001f0a200ef
:104bc800b08f8800c18f8800000000000100370006
:104bd800000000000080fa00000006000800fa004b
:104be8002007980031079800b2fd200093042400a4
:104bf8002e009000be00900067ef070000017800cb
:104c0800010078008202780000027800b2fd2000de
:104c1800930c240005007800840078000000be0092
:104c2800a3f30700b2fd20009304240063ef0700fc
:104c3800008fbe00b2fd2000930424001e007800ff
:104c48009e0090005def07000001780001007800e9
:104c58008202780000027800b2fd2000930c240044
:104c680005007800840078000000be0090f307007b
:104c7800b2fd20009304240047ef070000017800ec
:104c88000100780082007800810178000001780036
:104c980003007800820078000000be000080fa005f
:104ca800000006000a00fa00300798004107980043
:104cb8004e009000e6004700110f40001e007800eb
:104cc80010017800900190001207980023079800bf
:104cd8009e0090002e00900081017800000178006d
:104ce80003007800820078000000be000080fa000f
:104cf800000006000600fa00100798002107980037
:104d08002e0090008e80e800110f40001e007800f1
:104d18009000780010009000810178000001780070
:104d280003007800820078000000be000080fa00ce
:104d3800000006000c00fa002007980031079800d0
:104d480042079800530798000e80e800680847005b
:104d580090007800110798000000eb00000f780021
:104d68000b0037001e0078008e80e800910040009c
:104d780066004700100178001e00410064014700ea
:104d88001200400091407800014878001e0fe800aa
:104d98001e007800e30f5000f2ff3400000000000e
:104da8000080fa00000006000c00fa0020079800b6
:104db8003107980042079800530798000e80e800d2
:104dc8006808470090007800110798000000eb0081
:104dd800000f78000c003700300020001e00500043
:104de8008e80e800910040006600470010017800be
:104df8001e00410064014700120040009140780005
:104e0800014878001e0fe8001e007800e30f5000ec
:104e1800f1ff3400000000000080fa0000000600e6
:104e28000c00fa0020079800310798004207980004
:104e3800530798000e80e800680847009000780043
:104e4800110798000000eb00000f78000b003700f6
:104e58001e0078008e80e800910040006600470040
:104e6800100178001e004100640147001200400054
:104e780091407800014878001e0fe8001e00780075
:104e8800e70f5000f2ff3400000000000080fa0035
:104e9800000006000400fa00008fbe006011b80090
:104ea8001e0078009e00900063ee07000000e000fe
:104eb800030035001e0078009e00900003003700b4
:104ec8001e0078009e00900001f0a200800178008a
:104ed8000101780003007800820078000000be001d
:104ee8000080fa00000006000800fa00008fbe00eb
:104ef80022079800330798002e019000be01900009
:104f08001e0078009e0090004bee07000000e000b5
:104f1800030034009e0078001e0090000200370055
:104f2800ae0090003e0090008101780000017800fa
:104f380003007800820078000000be000080fa00bc
:104f4800000006000800fa00008fbe002207980043
:104f5800330798002e019000be0190001e007800d3
:104f68009e00900032ee07000000e00003003d00c4
:104f78009e0078001e00900002003700ae009000ee
:104f88003e0090008101780000017800030078005d
:104f9800820078000000be000080fa0000000600d1
:104fa8000c00fa00008fbe00220798003307980013
:104fb80044079800550798004e019000de019000c4
:104fc8001e0078009e0090001bee07000000e00025
:104fd800040034004e019000de019000028fbe00f4
:104fe8000a0037002e019000be0190001e007800d4
:104ff8009e0090000eee07000000e00003003d0058
:105008002e019000be019000028fbe009e00780025
:105018001e009000810178000001780003007800ec
:10502800820078000000be000080fa000000060040
:105038000400fa00008fbe00b2fd20009304240093
:105048001e0078009e00900041ef070000017800e4
:105058000100780082027800000278000200200037
:105068004333240005007800840078000000be0067
:1050780016f007000001780001007800820078002f
:105088008101780000017800030078008200780030
:105098000000be000080fa00000006000400fa00cc
:1050a800008fbe00b2fd2000930424001e0078008b
:1050b8009e00900005f007000001780001007800cc
:1050c80082027800000278000200200043332400a6
:1050d80005007800840078000000be001cef07007f
:1050e80000017800010078008200780081017800d2
:1050f8000001780003007800820078000000be00fc
:105108000080fa00000006000600fa001007980068
:10511800210798000040eb00004f78005600070078
:10512800ae009000808f500013003c000040eb0060
:10513800004f7800080037001e80fb008e80e800d2
:1051480011004000104078000e0007001e40780053
:105158000040e800004f78001e80fb00ae00900081
:10516800808f5000f4ff3c002f0007000004e0008f
:1051780001003a0022000700000000000080fa0049
:10518800000006000200fa00004f7800b18280009b
:105198000100e800b082880080062100010040007c
:1051a8001e487800b1828000f0072000808f5000f0
:1051b800010034005630ef00000000000080fa00c3
:1051c800000006000200fa00c18280000100e80029
:1051d800c08288008006210001004000104f78003e
:1051e800c1828000f0072000808f50000100340049
:1051f8005830ef001e4078000080fa0000000600da
:105208000200fa0010c0b3005af0b700edff070023
:10521800004f78001e80fb0020118800000000006d
:105228000080fa00000006000000fa005ad0bf0013
:105238000080fa00000006000000fa00b182800039
:10524800c0828000808f500004003500b182800049
:10525800c08280000080500005003700c1828000b5
:105268000008200081005000b082800000804000cb
:105278000080fa00000006000000fa00eeff0700b8
:105288008000780000082000010050000080fa002b
:10529800000006000000fa0021e3a9002143a8004d
:1052a800001980000080a1000090a100001988006a
:1052b8002043a900001980000050a0000060a00051
:1052c8000070a000001988001019800000d0a1000b
:1052d80000e0a10000f0a100101988002343a800f5
:1052e800101980000080a1000090a100101988000a
:1052f8001119800030f82f00008060004001b300d1
:10530800101988002203a9002223a90025e3a90077
:10531800f0c0b30024e3b70021198000f00f2e007d
:105328008080600000f020000100700020198800d3
:105338003303a9001e0ea8001f0ea8001f2ea800e8
:105348001f4ea8001f6ea8003003a8003103a80054
:105358003123a8003143a8003163a8004119800017
:1053680000fe2f00008060004019880028e3a90093
:1053780001a8a90021a8a80021e3a80000000000b6
:105388000080fa00000006000000fa002023a800b0
:10539800000000000080fa00000006000000fa008b
:1053a800c02321000080fa00000006000000fa0077
:1053b80065d0bf000080fa00000006000000fa0077
:1053c8006570ef00000000000080fa000000060091
:1053d8000000fa00817420009140780000ccb300ee
:1053e80000c060007041b30048e7b700313a800060
:1053f80000e02f0080806000800520000100700020
:10540800303a8800203a80000060a1000070a100b6
:10541800203a8800213a800000fe2f0000806000ba
:105428000000a000203a8800120020008007200019
:10543800a109200033742000804978008149780050
:1054480082497800103a8000000178000200a0002c
:105458006004200071052000237420008049780032
:10546800814978008249780000000000103a8000e5
:105478004c00de0067406000e14f5000fbff3a003f
:105488005927a800c03a80000000a0000010a10021
:105498000020a100c03a88005ac7bf000000a00041
:1054a8000010a0000020a0005ae7b700c03a800012
:1054b8000050a1000060a0000070a000c03a880061
:1054c80059a7a80059e7a80000000000c03a8000ca
:1054d8004e00de0061406000e14f5000fbff3a00e3
:1054e80000000000103a80004500de0061406000c6
:1054f800e14f5000fbff3a00000000000080fa0076
:10550800000006000000fa000e2eef001e2eef002d
:105518003e2eef002e2eef004e2eef006e2eef00e7
:1055280080cea90080aea900808ea900816ea90056
:10553800714ea900706ea900000ea900012ea900e5
:1055480091eea900014ea900310007002136800024
:1055580000f82f0080806000e00420000100700047
:10556800203688004134800000fc2f000080600055
:105578000000a000403488000136800000f82f00a9
:10558800808060001006200001007000003688004e
:1055980001368000f00f280080806000001027008e
:1055a8000100700000368800e135800000f82f0007
:1055b80080806000e007200001007000e03588006e
:1055c800e1358000f00f28008080600000c02700cf
:1055d80001007000e03588000300070000000000ab
:1055e8000080fa00000006000000fa002174200084
:1055f8006204200073052000824878008348780000
:1056080042c7a800000000000080fa000000060061
:105618000000fa00217420006204200073052000b5
:10562800824878008348780042c7a900000000003b
:105638000080fa00000006000200fa00004f78001f
:10564800400007000000e0000c003400e182800008
:10565800800e2100010040001e487800e182800091
:10566800f0072000808f5000010034005c30ef000c
:10567800e08280000000e800e0828800000000006e
:105688000080fa00000006000200fa00f1828000a3
:10569800800e210001004000104f7800f182800048
:1056a800800e2100010040008040eb000148780096
:1056b800f1828000f0072000808f50000100340044
:1056c8005e30ef00f08280000000e800f082880081
:1056d8001e4078000080fa00000006000000fa0072
:1056e800e1828000f0828000808f5000020032004a
