:020000040000fa
:080000000002040000000000f2
:020000040000fa
:040008009004000060
:020000040000fa
:04000c00900400005c
:020000040000fa
:040010009004000058
:020000040000fa
:040014009004000054
:020000040000fa
:040018009004000050
:020000040000fa
:04001c00900400004c
:020000040000fa
:040020009004000048
:020000040000fa
:040024009004000044
:020000040000fa
:040028009004000040
:020000040000fa
:04002c00900400003c
:020000040000fa
:040030009004000038
:020000040000fa
:04003400fa020000cc
:020000040000fa
:040038009004000030
:020000040000fa
:04003c00900400002c
:020000040000fa
:040040009004000028
:020000040000fa
:040044009004000024
:020000040000fa
:04004800360300007b
:020000040000fa
:04004c00900400001c
:020000040000fa
:040050009004000018
:020000040000fa
:04005400d4030000d1
:020000040000fa
:04005800a8030000f9
:020000040000fa
:04005c00820300001b
:020000040000fa
:040060009004000008
:020000040000fa
:040064009004000004
:020000040000fa
:040068009004000000
:020000040000fa
:04006c0090040000fc
:020000040000fa
:0400700090040000f8
:020000040000fa
:0400740090040000f4
:020000040000fa
:0400780090040000f0
:020000040000fa
:04007c0090040000ec
:020000040000fa
:0400800090040000e8
:020000040000fa
:0400840090040000e4
:020000040000fa
:0400880090040000e0
:020000040000fa
:04008c0090040000dc
:020000040000fa
:0400900090040000d8
:020000040000fa
:040094004003000025
:020000040000fa
:0400980090040000d0
:020000040000fa
:04009c0090040000cc
:020000040000fa
:0400a0001c0400003c
:020000040000fa
:0400a40064040000f0
:020000040000fa
:0400a80090040000c0
:020000040000fa
:0400ac0090040000bc
:020000040000fa
:0400b00090040000b8
:020000040000fa
:0400b40090040000b4
:020000040000fa
:0400b80090040000b0
:020000040000fa
:0400bc0090040000ac
:020000040000fa
:0400c00090040000a8
:020000040000fa
:0400c40090040000a4
:020000040000fa
:0400c80090040000a0
:020000040000fa
:0400cc00900400009c
:020000040000fa
:0400d0009004000098
:020000040000fa
:0400d4009004000094
:020000040000fa
:0400d8009004000090
:020000040000fa
:0400dc00900400008c
:020000040000fa
:0400e0009004000088
:020000040000fa
:0400e4009004000084
:020000040000fa
:0400e8009004000080
:020000040000fa
:0400ec00900400007c
:020000040000fa
:0400f0009004000078
:020000040000fa
:0400f4009004000074
:020000040000fa
:0400f8009004000070
:020000040000fa
:0400fc00900400006c
:020000040000fa
:040100009004000067
:020000040000fa
:040104009004000063
:020000040000fa
:04010800900400005f
:020000040000fa
:04010c00900400005b
:020000040000fa
:040110009004000057
:020000040000fa
:040114009004000053
:020000040000fa
:04011800900400004f
:020000040000fa
:04011c00900400004b
:020000040000fa
:040120009004000047
:020000040000fa
:040124009004000043
:020000040000fa
:04012800900400003f
:020000040000fa
:04012c00900400003b
:020000040000fa
:040130009004000037
:020000040000fa
:040134009004000033
:020000040000fa
:04013800900400002f
:020000040000fa
:04013c00900400002b
:020000040000fa
:040140009004000027
:020000040000fa
:040144009004000023
:020000040000fa
:04014800900400001f
:020000040000fa
:04014c00900400001b
:020000040000fa
:040150009004000017
:020000040000fa
:040154009004000013
:020000040000fa
:04015800900400000f
:020000040000fa
:04015c00900400000b
:020000040000fa
:040160009004000007
:020000040000fa
:040164009004000003
:020000040000fa
:0401680090040000ff
:020000040000fa
:04016c0090040000fb
:020000040000fa
:0401700090040000f7
:020000040000fa
:0401740090040000f3
:020000040000fa
:0401780090040000ef
:020000040000fa
:04017c0090040000eb
:020000040000fa
:0401800090040000e7
:020000040000fa
:0401840090040000e3
:020000040000fa
:0401880090040000df
:020000040000fa
:04018c0090040000db
:020000040000fa
:0401900090040000d7
:020000040000fa
:0401940090040000d3
:020000040000fa
:0401980090040000cf
:020000040000fa
:04019c0090040000cb
:020000040000fa
:0401a00090040000c7
:020000040000fa
:0401a40090040000c3
:020000040000fa
:0401a80090040000bf
:020000040000fa
:0401ac0090040000bb
:020000040000fa
:0401b00090040000b7
:020000040000fa
:0401b40090040000b3
:020000040000fa
:0401b80090040000af
:020000040000fa
:0401bc0090040000ab
:020000040000fa
:0401c00090040000a7
:020000040000fa
:0401c40090040000a3
:020000040000fa
:0401c800900400009f
:020000040000fa
:0401cc00900400009b
:020000040000fa
:0401d0009004000097
:020000040000fa
:0401d4009004000093
:020000040000fa
:0401d800900400008f
:020000040000fa
:0401dc00900400008b
:020000040000fa
:0401e0009004000087
:020000040000fa
:0401e4009004000083
:020000040000fa
:0401e800900400007f
:020000040000fa
:0401ec00900400007b
:020000040000fa
:0401f0009004000077
:020000040000fa
:0401f4009004000073
:020000040000fa
:0401f800900400006f
:020000040000fa
:0401fc00900400006b
:020000040000fa
:040200009004000066
:020000040000fa
:040204009004000062
:020000040000fa
:04020800900400005e
:020000040000fa
:04020c00900400005a
:020000040000fa
:040210009004000056
:020000040000fa
:040214009004000052
:020000040000fa
:04021800900400004e
:020000040000fa
:04021c00900400004a
:020000040000fa
:040220009004000046
:020000040000fa
:040224009004000042
:020000040000fa
:04022800900400003e
:020000040000fa
:04022c00900400003a
:020000040000fa
:040230009004000036
:020000040000fa
:040234009004000032
:020000040000fa
:04023800900400002e
:020000040000fa
:04023c00900400002a
:020000040000fa
:040240009004000026
:020000040000fa
:040244009004000022
:020000040000fa
:04024800900400001e
:020000040000fa
:04024c00900400001a
:020000040000fa
:040250009004000016
:020000040000fa
:040254009004000012
:020000040000fa
:04025800900400000e
:020000040000fa
:04025c00900400000a
:020000040000fa
:040260009004000006
:020000040000fa
:040264009004000002
:020000040000fa
:100400008fc022000eff27000e01880000000000b0
:10041000000020000000e000020032000001200087
:1004200020028800140007003f0107000000e000e0
:1004300003003a0000a82400010020000200370059
:100440000000200001002000810f70000100320038
:100450000f000700000020000000e0000200320052
:1004600000000200000000008c2b020000000000d1
:100470000040da000000fe00c00120000000e000a3
:1004800002003200002020009001880000000600d9
:10049000a1028800800478000000eb001f003700f4
:1004a000e284440054a0b4009905ba00e2844400f8
:1004b00054a0b4009906ba00e284440054a0b400e9
:1004c0000006eb00476fde00fd07b200ae018800ba
:1004d000636ce10003003a000ad801000000eb0061
:1004e0000e003700606ce10008003a00004deb00a0
:1004f0000a05e800020039003420ec000af0a000f0
:100500008b05e900f9ff3e00040037006168e10057
:10051000010032000086eb000b00070019c7ba008b
:100520000e04e0001905ba0003003a000a00e000da
:10053000dbff3a0000000600fe07b200ae028800b2
:100540008a047800f5ff37000cd0a300e20f4d00bd
:100550001c003b0089027800354dba000a05e8000e
:10056000020039003420ec000af0a0008b05e900fd
:100570000f003200254dba000a05e80002003900dc
:100580003420ec000af0a0008b05e90008003200de
:100590000c00e0000600320015cdba000a05e800a4
:1005a000020039003420ec000af0a0008b05e900bd
:1005b0008984e80054a0b4000b00e000e2ff3a0098
:1005c000000006009902ba00055d78008b05e9007d
:1005d000f7ff3200c82ade00055d78008b05e900d0
:1005e000f3ff32000c00e000f1ff320019ddba0029
:1005f000eeff37003600f800809fbe00829fbe00ed
:10060000849fbe00869fbe000000fa000068a9001b
:10061000f12507003721070032180700161b0700d5
:10062000de1d0700508580000000e800508588002e
:1006300050858000f30f500004003400671b070052
:10064000b61807003a1f0700aa30ef0000000000ac
:100650000080fa004f03be004f02be004f01be00f3
:100660004f00be003600f900004006000000fa000e
:100670000108a900000000000080fa000040060008
:100680003600f800809fbe00829fbe00849fbe009f
:10069000869fbe000000fa000368a9006185800003
:1006a0000100e80060858800703e2000808f5000c7
:1006b00003003400ac30ef0010c0b300aef0b70060
:1006c0006d12070022858000338580001000200015
:1006d000010020000200400083804800208588003f
:1006e00031858800000000000080fa004f03be0042
:1006f0004f02be004f01be004f00be003600f900a1
:1007000000400600801f78000000fa0001a8a90040
:1007100000188000a05f890010188000b05f890079
:1007200020188000c05f890030188000d05f8900e9
:1007300040188000e05f890010c0b300d3f0b7001c
:10074000000000000080fa004f0078000040060022
:100750003600f800809fbe00829fbe00849fbe00ce
:10076000869fbe000000fa000188a900d1858000a4
:10077000c0858000808f50000200320025240700d1
:1007800001003700bc70ef00000000000080fa009c
:100790004f03be004f02be004f01be004f00be001f
:1007a0003600f900004006003600f800809fbe00c9
:1007b000829fbe00849fbe00869fbe000000fa009c
:1007c0000168a900101180004200de006140600055
:1007d000e14f500001003a002242a90010118000b0
:1007e0000000d10061406000e14f500005003a0078
:1007f0002222a90003003700301180000040780059
:100800001e26070010118000004078006140600043
:10081000e14f5000f8ff3200000000000080fa00b5
:100820004f03be004f02be004f01be004f00be008e
:100830003600f900004006003600f800809fbe0038
:10084000829fbe00849fbe00869fbe000000fa000b
:1008500003c8a900901180004200de0061406000e2
:10086000e14f500001003a003242a900901180008f
:100870000000d10061406000e14f500005003a00e7
:100880003222a90003003700b01180000040780038
:10089000b0250700901180000040780061406000a2
:1008a000e14f5000f8ff3200000000000080fa0025
:1008b0004f03be004f02be004f01be004f00be00fe
:1008c0003600f900004006003600f800809fbe00a8
:1008d000829fbe00849fbe00869fbe000000fa007b
:1008e00003e8a90001868000f0858000808f500019
:1008f000020032002d24070001003700c270ef0013
:10090000000000000080fa004f03be004f02be004e
:100910004f01be004f00be003600f9000040060047
:100920000040da000000fe00000005001400200076
:10093000ad033700f4ff2f00ab0337000001be000a
:100940003f0007000470a70003f0a1006509b10093
:10095000160032000d0035006828e1000600350061
:10096000f0ff2f00f1ff27000300e00013003b0021
:1009700001002800000005000000400081804800c0
:100980008502e900fcff3a0008003700f88f4200ba
:1009900002003c008000eb00000005008100d10057
:1009a0000080d3008502e800fcff3a000300e0006d
:1009b00002003b0060001000e0801800000006000c
:1009c0000001be001e0007000470a70003f0a10094
:1009d00003f8a30013003a006509b10010003200cb
:1009e000090035006928e1000200350001002800f7
:1009f0000000050000004000818048008502e900f9
:100a0000fcff3a0000000600f88f420005003500a8
:100a10008100d1000080d3008502e800fcff3a008d
:100a2000000006008000eb00000005004f89de009a
:100a300082017800870337006011b8009503370002
:100a4000c70ade00f107b200f50fb200080032005d
:100a5000e1cf4200020032000170a0002400050036
:100a6000810f7000010032000408050044000500f9
:100a7000810f700002003a00140005008502e900b1
:100a80000000400081c04800fcff3b000170a00056
:100a90002400050007f82700078361000638e100fd
:100aa00004003a00f7072000878361008703710084
:100ab00001003a0003f0a200889fbe008a9fbe009a
:100ac0008c9fbe00470ade000480a100c71ade002a
:100ad0000580a10007002800078560008785610068
:100ae000f70f20000720e1009e0032000728e100f8
:100af0009c003200010678000400e000b4003200df
:100b0000f7072000878060000170a0000500e0006a
:100b1000c0003200f7072000878161000370a00049
:100b2000050652000f003a000b50e1000b003200a6
:100b30000308e10002003a000200e1007e003200fa
:100b40000204500083845800040031000001fd00bd
:100b50008101fd008402fd008a05fd006044b800ab
:100b6000210037000520e10005003d000001fd00e7
:100b70008101fd008402fd008a05fd00050652008a
:100b80007a60e100050035000170a1004722dd0018
:100b9000848070008a807000630037006044b80071
:100ba000ef02660007ff2f00070666000500e00061
:100bb00006003400f08312008714dd000511de000a
:100bc000071bdd00060171008519de007060e10081
:100bd00005003500090478008204780003017800dc
:100be0008001eb00700656000b50e10003003a0054
:100bf00002004000838048000400370060041400b5
:100c0000e0841c0002005800838058000188a30083
:100c1000060032008100d1000080d3008984d30017
:100c20000884d3000402e800270037000178a300fd
:100c300025003a000100e000030032008186cf0069
:100c4000698656000a0037008c0020000000e00092
:100c500004003a0009007800880478000004eb00e2
:100c6000700252008086cf000d0646000c06e90097
:100c70007060e1000600350080007800090078000f
:100c8000880478000004eb007006560070025200e1
:100c90000c00e0000c0034008c08dd00f0031600ae
:100ca0000703de00868070000c00dd00074bde00cd
:100cb000060070008c4cdd000743de008684740063
:100cc0000c44dd000c0252006120e10020003500e0
:100cd000610160000700280087816400f7ff27009a
:100ce00087836400070374000300e00006003200fd
:100cf00082037300040032000000e800e080480036
:100d00000188a3000e003a00f70f20000720e10041
:100d10004a003d000170a1004722dd008100720001
:100d20008a8070000000be004f06be004f05be0066
:100d30004f04be00000006006000b800faff370054
:100d40008100d1000080d3000402e800eeff3700ec
:100d50000401780089017400a10107008a807000f5
:100d6000f1ff3700f7010700070278000001fd00de
:100d70008101fd00f30107008702780085037200fe
:100d80000778a300040032000001fd008101fd008e
:100d900006020700e4ff3700850362000768a3002e
:100da000080032000b50e10003003200f0ff2f007a
:100db000f1ff2700dcff37000001fd008101fd008d
:100dc000d9ff37000468a300d7ff3200faff3700cd
:100dd000f8ff2700888360000b003a000000e00065
:100de00009003a008303640082837300020032002a
:100df0000200be00ccff37000b50e100ceff3a00ee
:100e00000200be00c8ff370014002000810064000b
:100e10003eff3700f8ff27008883610004003a0096
:100e20000200e00002003a008c007800beff3700ac
:100e3000150020008301640039ff370001f8270006
:100e40000000200081007500b7ff3700889fbe00ba
:100e50008a9fbe008c9fbe001b0020000202be00c5
:100e60000586680006002800060666004709de00c1
:100e7000f20fb200820032000243e800800032002c
:100e8000c729de00f30fb2007d0032000343e80003
:100e90007b003200f107b2000170a000f507b2003c
:100ea0000570a000c708dd004903de0086807000e1
:100eb0004700dd00c72add004923de00868272007c
:100ec0004722dd00030551000403500085835800cc
:100ed0000300310000004000818048000a05e9005d
:100ee0008c1f78008a9fbe00040050008580580047
:100ef0000402420085824a000000400081804800d0
:100f00000005eb000004be006033b8000406be001c
:100f10000d48e10056003100110009004dccd80009
:100f20000c01b8000d02b8008481410060824a00c3
:100f30008283530003045c0084845c0060055d00d0
:100f40000a00e00025003a00800578000d40e1002d
:100f5000490031008800780007007800110009007e
:100f60004d88d8000c01b8000d02b8008481410002
:100f700060824a006003110083835b0004045c000c
:100f8000e0845c000900e00021003a004f01be004f
:100f90000300e0002b003200e3016000070673004d
:100fa0008c81710001003200640070004200de009c
:100fb0004e5edd000c007000c258de0001e0a000b3
:100fc00083010700cf017800818071004f06be00c9
:100fd0004f05be004f04be00000006008c83430096
:100fe0000d044c00e0844c0060054d000000e90059
:100ff0000a00e000d4ff32008c8343000d044c0053
:10100000e0844c0060054d000000e900ceff370091
:101010000c0343008d834b0060044c00e0844c00c3
:101020000000e9000900e000d8ff32000c03430093
:101030008d834b0060044c00e0844c000000e9000c
:10104000d2ff37004200de004e5edd000c00700073
:10105000c258de0001e0a000cf0178000300e000ec
:10106000daff320060001000e0801800d7ff370080
:10107000f0ff2f00aaff3700f0ff2f00b9ff370065
:101080000404be002f010700870678000004fd005d
:101090008104fd002b010700078366000678a3008a
:1010a000030032000960a7000800be002c003700d2
:1010b0000d78a300020032000800be0028003700af
:1010c0000778a30026003a0001f0a10009f0a10072
:1010d0000668a30003003200f1ff2700f0ff2f0095
:1010e000baff37000d68a300030032000800be00fd
:1010f0008c807000b5ff37000768a30007003a0036
:101100000648a30003003200f1ff2700f0ff2f0084
:10111000aeff37000d48a300030032006000b800a6
:101120008c807000a9ff37000748a300040032003c
:1011300001f82700000020008c807000a3ff37001a
:10114000760107000004fd008104fd00020578001f
:10115000720107000802be008a01780059ff3700bb
:101160000160a00012022000a286880097ff3700cd
:101170000100e000120032000500e0001000320023
:10118000889fbe008a9fbe008c9fbe000006eb00b9
:1011900001f8a3000300320060001000e080180096
:1011a0000cf0a00005f8a30003003200600212005a
:1011b000e0821a000cf0a2008005eb0041ff37002e
:1011c0006000b800020005000383680007002800e3
:1011d00007036300470ade000480a100c71ade008f
:1011e0000580a100f70f20000720e1004200320037
:1011f0000728e10040003200889fbe008a9fbe00a1
:101200008c1f7800f107b200f307b2000400e00081
:10121000640032000170a0000500e00068003200a8
:101220000370a00085054200eb07b1000204b8007e
:101230000302b8008484440060854a00020ab800b2
:10124000848444000a854a00030ab8000405450066
:10125000040033000804d0008984d2000a85d2003b
:101260008b05e9006158e1003d00350002102000c7
:10127000090161000308200089816100f70720004f
:101280008783640008867300c84cde00c853dd0005
:10129000878474004855de000300e0000600320039
:1012a00082037600040032008904e80060054d00e6
:1012b0000a88a3000c003a00f70f20000758e1004d
:1012c00044003d000a70a100c75ddd000a8575007d
:1012d0008a007300090078004f0678004f05be00b1
:1012e0004f04be00000006000a05d1008984d30027
:1012f0008b05e800f0ff3700881f780006047800af
:1013000090000700070278000001fd008101fd0048
:101310008c00070087027800850372000778a3001d
:10132000050032000001fd008101fd009f00070063
:101330004f04780000000600850372000748a300f0
:1013400003003200f0ff2f00f1ff2700f8ff370005
:101350000000200001f8270088807000f4ff3700ab
:10136000880178004848dd00808171004848de002f
:10137000c850dd0001007000c850de00060478008f
:101380000b0178001600070088807000d2ff37003c
:101390000500e00005003200170020003a000700b9
:1013a0009dff370081037000f9ff3a008600780046
:1013b0004f0678004f05be004f04be000000050038
:1013c00083037100f9ff3200270020002e00070080
:1013d00094ff370001f8270086807000f4ff370083
:1013e0000100e00026003200610111007810e100e8
:1013f00023003c006022b8007010e10004003500ba
:1014000080027800010078008000eb00700151003c
:101410000200e0000900340070031100062add001c
:10142000822ade008603dd00878272000200de0071
:10143000860bdd00070070008208de0084817100e9
:10144000f4ff2700048262008481710004002800f8
:10145000848262006102600005f0a60000000600c0
:1014600004827100070032000000e800e0804800bc
:10147000000006000002be006000b800efff370069
:101480006000b80000000600889fbe000004eb006a
:101490006138e10016003a000100e00008003a005f
:1014a000c800de004800dd00880020000100e000e8
:1014b00003003a00c800de004800dd006804440074
:1014c0008184cf00e9845400060034008908dd00df
:1014d000f08314008703de00878070000900dd00c0
:1014e00009044400610214004f04be00000006001d
:1014f0000300e00008003a00c811de004811dd00da
:10150000880020000300e00003003a00c811de005c
:101510004811dd00680444008384cf00e98454004e
:10152000060034008919dd00f08314008713de0003
:10153000878171000911dd0009044400e1021400f3
:10154000e9ff37002700200001f0a7001700200066
:10155000470bde00f60fb200040032000643e8003d
:101560000a0032004702b3000000060001037800c1
:10157000f607b2000603700002003a000703b3004a
:10158000000006008702b300000006000103780097
:10159000f607b20006037000020032000770a000d8
:1015a000000006000760a000000006000478a30009
:1015b000040032000578a300030032000168a30094
:1015c00001003a000200be000160a0000000060019
:1015d00081017000270032008002eb0001f8a300b7
:1015e0000300320060001000e080180015002000a9
:1015f000f40720000202420020003400f70320001c
:101600008703600006042000000363000208200036
:10161000000161004700de00c909dd0000807100a3
:10162000c708de000600e0000800320087037100f2
:10163000060032001000b0000180b0000188a30055
:1016400002003200c108de000402e800f107b20027
:10165000f30f20000320e10003003d004722dd00de
:10166000810072002900370001f827000000eb001c
:10167000260037006000b800000006006802120073
:101680007f20e100020034006000b8001f00370036
:101690006011b8007020e10004003500800178007e
:1016a000010078008000eb00700252000400e000ae
:1016b00009003400f00312000719dd008419de0070
:1016c0000703dd00868171000400de00070bdd00ea
:1016d000060070008408de00f7ff270083836300a4
:1016e000870371000600280003036300070032002f
:1016f0000700e00003003a0061016000028173000e
:10170000020032001000b0000180b0000500a60009
:101710000000060001f0a000000006004f0ade00f5
:101720004709de00f107b200f20fb2000b003200f1
:10173000f207b1000170a000c708dd00c901de009a
:10174000838070004700dd000400a6000000060052
:1017500060001000e080180000000600810f70009b
:1017600001003a00000006008182cf000500e00081
:1017700010003e008082cf00ee8242007028e1001f
:101780000400390007003e00800078000000eb00f4
:101790000e003700708312008600de000500dd00b9
:1017a0000a003700708352008600dd000000eb0065
:1017b00006003700e28252008508dd0070831200c7
:1017c0000603de00868070000500dd007507b000ae
:1017d0000501ea000400a6000000060060001000f9
:1017e000e080180000000600889fbe008a9fbe00af
:1017f000841f78007c0007004f0078001100330040
:10180000f0ff2f00838f6c0006003b00040565008d
:101810000a00a7000800370009f0a6001000200009
:1018200008003700820f5400838f5c0003003900ea
:101830001000200001003e000000200009f0a70079
:101840000000ea004f05be004f04be000000e000ab
:1018500000000600881f7800030478000300e00001
:1018600007003d0060001000e080180060011900d2
:10187000e081190002003b0001f02d000300370059
:101880000400070008f0a70001f0a0004f04780052
:1018900000000600889fbe008a9fbe000082700084
:1018a0000402710004827100260032000004be00b0
:1018b0000200be006011b8006b09200095022000f4
:1018c0000182cf000a0039000541b1000082cf003b
:1018d000070039000541b1000982cf00040039003a
:1018e0000541b1000882cf00010039000541b10077
:1018f00005425200120032000a003b008281710052
:10190000610164008100d1000080d3008984d3008c
:101910000884d3008b05e8000442e800f7ff3a0092
:10192000070037000804440089844c000000480088
:10193000818048008b05e9000442e900f9ff3a0084
:10194000030007004f05be004f04be000000060064
:1019500081002000618055000b003d000b0020003d
:1019600061fe2f000100e1001d0034008281710042
:10197000610164008904d1000884d3000000e800fc
:10198000faff3a007100200061006400030070005b
:10199000020060000900320061044400e0844c0051
:1019a0000988a500050032008b05e8006808e10001
:1019b00002003a008904d1000884d300f20f20000d
:1019c0000258e10005003d00c75ddd00f907b200e7
:1019d0008980750008007800000006000bf82700d9
:1019e0008b007800000005000004be0014fc070016
:1019f0000003be000405be000200be0010fc07008c
:101a0000844f7500000006001800fa00889fbe0091
:101a10008a9fbe008c9fbe000005be008206780033
:101a2000030678000200be0001f0a10002002000c1
:101a300003f82700820f5000838f580005003e00f6
:101a40000a00be0001f0a100820f5000838f5800f1
:101a5000060036000d0178008c0178000a00be00f7
:101a600015fc07000005be00250037000d007800ba
:101a70008c007800ad070700a0b79f00b1b79f00aa
:101a8000c2b79f00d3b79f000202be006033b80008
:101a9000e4b79f00f5b79f0086bf9f0097bf9f00e8
:101aa0000a00be00a10707000202be006033b800b2
:101ab000e4af9f00f5af9f0086b79f0097b79f00e8
:101ac0000400200005012c006fb39700ffb39700be
:101ad0000402430085824b002fb39700bfb39700e9
:101ae0000602720087827200e00f5200e08f5a00f7
:101af00009003a000a00be009e0607000005be006d
:101b00000a00be004f06be004f05be004f04be00d7
:101b10000080fa00000006006fb39700ffb3970043
:101b20004e3ade0005002000620462008004eb00f3
:101b30006fab9700ffab97004f3ade000500200027
:101b400004047400858474006fab9700ffab9700aa
:101b500007f0a1000000730081807300e00f5000c7
:101b6000e08f580009003a00e20f5400e08f5c005b
:101b70008c003200e20f5400e08f5c00e0ff39007f
:101b8000e30f5400e08f5c006b0032006fb09700f1
:101b9000ffb0970001f0a1002fb29700bfb29700ed
:101ba0000401700085817000e00f5100e08f590042
:101bb00008003a00610064008000eb00e00f500074
:101bc000e08f58007a003200bafd20009bfc2b0009
:101bd000cbff37000200200003ff2700820f5000d8
:101be000838f58000f003a00800f5300818f5b00f5
:101bf00045003a00e10f5400e08f5c005e003200c7
:101c0000e00f5400e08f5c005e003200e20f5400f1
:101c1000e08f5c0030003200e30f5400e08f5c0086
:101c20003600320004002000054020000001420080
:101c300081814a00860f5100878f5900ddff3900ee
:101c40000200200003ff2700820f5300838f5b00f8
:101c5000d8ff3200620164008001eb00e00f510008
:101c6000e08f5900050032000602420087824a00d8
:101c7000800f5200818f5a00320039000d01780028
:101c80008c0178000a00be0070fc070037020700d4
:101c9000380607000005be00e10f5400e08f5c002d
:101ca0002a003200e00f5400e08f5c0094ff320005
:101cb000e20f5400e08f5c00260032002213230064
:101cc000d35022000a00be0072fb0700b2fd2000c4
:101cd000930424002600370002002000030424009f
:101ce000b0fd20009104240037fd07000200200011
:101cf00003e8230034fd07005aff370002002000ec
:101d000003042c00f6ff3700e10f5400e08f5c0065
:101d10001f003200e00f5400e08f5c001f00320013
:101d2000e20f5400e08f5c001e003200e30f54000d
:101d3000e08f5c00bbff3a00bafd20009b042c0042
:101d40006fff37006055b800d3ff37000bf0a200db
:101d50006bff370022132300d35022000a00be007d
:101d60004cfb07000001be00b0fd200091042400e0
:101d700048fb07003bff3700bafd20009bf42b0017
:101d80005fff3700bafd20009bf423005cff3700a3
:101d90000a0020000b00280059ff37006055b800ea
:101da00057ff3700bafd20009b04240054ff370082
:101db000bafd20009bfc230051ff37000400fa000d
:101dc000889fbe008a9fbe008c9fbe000205be0099
:101dd0000bf0a1000800200009f82700880f55002b
:101de000898f5d0005003e000003be0007f0a100e2
:101df000880f5300898f5b00060036002efb07001a
:101e00004f06be004f05be004f04be000080fa0022
:101e1000000006000800200009f82300880f510088
:101e2000898f590002003a0097000700f4ff37003d
:101e30004e1cde000900200088bf9f0099bf9f0054
:101e40000fbe9700620466008004eb004f0ade00bc
:101e5000050020000404740085847400e00f530022
:101e6000e08f5b0009003a00e20f5400e08f5c0055
:101e70007f003200e20f5400e08f5c00e0ff390089
:101e8000e30f5400e08f5c005f003200e00f55006c
:101e9000e08f5d0008003a00610064008000eb0004
:101ea000e00f5000e08f580074003200b0fd2000b9
:101eb00091fc2b00d2ff37000400200005f827001a
:101ec000840f5500858f5d000f003a008a0f530084
:101ed0008b8f5b0040003a00e10f5400e08f5c0004
:101ee00058003200e00f5400e08f5c0058003200d0
:101ef000e20f5400e08f5c002b003200e30f54002f
:101f0000e08f5c00310032000c0020000dd020007a
:101f10000a0246008b824e00840f5300858f5b00bf
:101f2000ddff3e000400200005f82700840f530069
:101f3000858f5b00d8ff3200620264008002eb00f4
:101f4000e00f5200e08f5a000500320006064600fe
:101f500087864e008c0f55008d8f5d002d003e0052
:101f6000bafb07009201070047000700e10f540089
:101f7000e08f5c0029003200e00f5400e08f5c002d
:101f80009fff3200e20f5400e08f5c00250032001a
:101f9000e2d22b00b33b2300c7fa0700b2fd2000ba
:101fa00093042400250037000200200003042400cd
:101fb000b0fd20009104240083fc070002002000f3
:101fc00003e8230080fc07008dff3700020020009b
:101fd00003042c00f6ff3700e10f5400e08f5c0093
:101fe0001e003200e00f5400e08f5c001e00320043
:101ff000e20f5400e08f5c001d003200e30f54003c
:10200000e08f5c00c0ff3a00b0fd200091042c007e
:102010007bff37006000b800d4ff370001f0a2005a
:1020200077ff3700e2d22b00b33b2300a2fa070070
:102030000001be00b0fd20009104240095fa0700c5
:102040006fff3700b0fd200091f42b006cff3700cc
:10205000b0fd200091f4230069ff3700000020004c
:102060000100280066ff37006000b80064ff3700f9
:10207000b0fd20009104240061ff3700b0fd200076
:1020800091fc23005eff3700ea874700889fbe006f
:102090008a9fbe008c9fbe008e1f78000002be008b
:1020a0004f0dde000b00200000047800850478004e
:1020b00009f0a100f0ff2f00f1c72400800f5400a9
:1020c000818f5c00100036000000200001f827001e
:1020d000800f5400818f5c0025003e00020020002c
:1020e00003382000a0fd200091fc230072fa0700b5
:1020f0000002be00e00f5500e08f5d001c003200c2
:1021000005f0a2001a003700f0ff2f00f1ed2300c8
:10211000800f5400818f5c001c003e000087eb00a4
:10212000f0ff2f00f1972300800f5400818f5c0097
:1021300033003e006000b80003f82700858061008e
:10214000e00f5000e08f580009003a000401be0083
:102150000400be00f4b79f0085bf9f001afc070073
:10216000d0b79f00e1b79f007fb297008fba97006a
:102170000400be004f0778004f06be004f05be00aa
:102180004f04be00af00b100000006000400be0016
:10219000070107000006be00f0ff2f0071f92300c1
:1021a000800f5400818f5c0055003e00f0ff2f002f
:1021b000f1f22300800f5400818f5c0041003e004b
:1021c0000c01be000c00be003bfa0700020020001c
:1021d00003f823002ffa07000004be0002002000cd
:1021e000030024000c00be0033fa07000001be000b
:1021f0000800be0015fb07000002be000007eb0050
:102200000401be000400be00f4b79f0085bf9f001c
:10221000edfb07000006be000001be00eafb070060
:102220000004be0052c22a00c3d72300e6fb070009
:10223000d2502f0013e123001ffa07000801be004f
:10224000e1fb070092aa2a00a3ea23001afa07007a
:102250000c01be00dcfb07000006be00722421005a
:10226000a3dd2b000800be00d7fb070082a92c00cd
:10227000c3e4230007fa07000801be00d2fb0700f1
:102280000001be000c00be000bfa07007fb29700f1
:102290008fba97000401be00cbfb07000003be000d
:1022a0000e00e0007fb297008fba970032003d0029
:1022b0000001be000400be00f6f907000002be00e7
:1022c000abff37000200200003f823000c00be0023
:1022d000f0f907000004be000200200003f823000c
:1022e0000c00be00f4f907000001be000800be00ab
:1022f000d6fa07000002be001e002000c0ff370013
:10230000f0ff2f00b1012400800f5400818f5c008a
:1023100012003e000200200003fc23000c00be005f
:10232000dcf907000004be000200200003fc2300cb
:102330000c00be00a4fb07000200200003f82300ed
:10234000ddf907000001be000800be00bffa07006b
:102350000002be002e002000a9ff37000c01be00c5
:102360000000200001f82b00b8fa07000002be00b0
:102370003e002000a2ff37004277dd0068bb22004c
:102380000e04440060ba22000e0740001e017800cf
:102390009e0190000600be00f4b79f0085bf9f001d
:1023a000bcf907007fb297008fba97000401be0006
:1023b000b8f907000001be001800780098009000ee
:1023c000b4f907004aff37000400fa000001be001c
:1023d00003f0a100a4fd200095f42300840f510018
:1023e000858f59000e003e00f4ff2f00f597230063
:1023f000840f5100858f59003a003e0002002000f2
:1024000003b82700acf90700e0bf9f00f1bf9f00b1
:102410000000200001f823000080fa000000060000
:102420004f0ade0005002000163d2500b7072400f6
:10243000860f5100878f59001b003e0036be2c00ce
:1024400067012400860f5100878f59000a0036006b
:10245000b2fd2000930424000400e00004003200d8
:1024600095f907008003070001f0a200eaff37009a
:1024700088f90700fbff37000400e0000500320088
:10248000b2fd200093fc23008bf907000104070034
:10249000e1ff37000001be00b0fd200091fc2300e9
:1024a0007cf90700f9ff3700561d2300270e240092
:1024b000860f5100878f590014003e00f6dd2e0074
:1024c000f70a2400860f5100878f59000900360053
:1024d000b2fd2000930c24000400e0000300320051
:1024e00075f9070060030700cbff370069f90700a3
:1024f000fcff37000400e0000100320001f0a20000
:1025000042be2c0063092400e5ff3700f4ff2f00d2
:10251000f5f72700840f5100858f5900040036001d
:102520000001be000200be005af90700baff3700e2
:10253000c2ff2f000f0141007f030700630160000d
:102540006fb89700ffb89700e10f51000500320007
:10255000e20f5100c3ff32000200e000cbff3a005f
:10256000e0ff370001f0a200c8ff37000400fa00c6
:102570006011b800e2bf9f00f3bf9f006fbb9700e0
:10258000ffbb97000002be00f0ff2f00f1ff2f00fd
:10259000f2ff2f00f3ff270000006200818062003d
:1025a00002016300838163000080fa0000000600de
:1025b0000101780002f0a10082007800000006000e
:1025c000889fbe008a9fbe008004780001047800c6
:1025d000820578000305780001f0a10002002000c8
:1025e00003f82700820f5000838f580012003e002e
:1025f0000b0078008a00780001f0a100820f5000e3
:10260000838f58000d003e00090278008802780090
:102610004fc1de00820178004fd0de0080007800dc
:10262000800f5100818f590009003200e00f5200e5
:10263000e08f5a0001003d000a04be000900780046
:10264000880078004f05be004f04be000000060061
:102650000b0178008a017800090078008800780072
:10266000b2f807000000e000f2ff3700889fbe00cc
:102670008a9fbe00000578008104780082057800fa
:102680000304780001f0a1000200200003f82700f5
:10269000820f5000838f580014003e000b0078001a
:1026a0008800780001f0a100820f5000838f58004d
:1026b0000c003e000a007800890078004fcade0056
:1026c000840278004fc1de0082017800820f520040
:1026d000838f5a000a003200e00f5000e08f58004c
:1026e00002003d008a057800090478000b0078009c
:1026f000880078004f05be004f04be0000000600b1
:102700000b0178008801780088f807000000e000dd
:10271000f3ff37000400fa00889fbe008a9fbe00c6
:102720000203410083834900e00f5300e08f5b0008
:102730000f0032000202be0005f0a10008002000d8
:1027400009f82700880f5200898f5a0008003e00c0
:10275000a0bf9f00b1bf9f00470dde000b0020000f
:10276000f40f20000a056200840f550007003a00ac
:1027700095fa07000001be00b4f907004f05be003e
:102780004f04be000080fa00000006000002400076
:1027900081824800840f5300858f5b00060039005a
:1027a000840f5300858f5b00f4ff3a006011b8007e
:1027b00085fa0700f1ff37000a00e0004c003a00fc
:1027c0002fbb9700bfbb9700493add00c732de0040
:1027d000850272004932dd00e00f5200e08f5a009e
:1027e0003f003d00610215002fbb9700bfbb970063
:1027f000040478000804e9000300330006034300e2
:1028000087834b00fbff37000602be00471bde003c
:10281000070020000683fb000600e0003d003a00b0
:10282000491cdd00c714de00890474004914dd0072
:10283000e00f5400e08f5c0032003d00e103130024
:102840000204be008703e9000300330008044400cb
:1028500089844c00fbff37000801520089815a002f
:10286000860f55002f003c00e00f5100e08f59000b
:1028700004003500e00f5100e08f5900cbff32001b
:102880000202be004728de0001002000e00f5000d9
:10289000e08f58002e0032000a00e00030003400c3
:1028a0000000200001f82f0004024000858248004b
:1028b0006150b900c700dd00000020000400700076
:1028c000858070006022b80002002800bfb9970020
:1028d000830261000000720081807200a7ff370050
:1028e0000a05e9000402420085824a00baff370067
:1028f0002fba9700bfba9700f507b2000570a00085
:10290000c2ff37000603e9000804440089844c0034
:10291000c7ff37000204be00f907b2000970a0002b
:10292000cdff3700e00f5100e08f59000400350063
:10293000e00f5100e08f59009cff32000202be0000
:102940000402420085824a000a05e900c2ff3700fe
:102950000402420085824a000a05e900c9ff3700e7
:10296000610515000400be000a05e90003003300fc
:102970008100d1000080d300fbff3700d1ff37007a
:102980000400fa00889fbe000004be0089007800a1
:1029900001f0a100a4fd200095f42300840f500055
:1029a000858f58001e003e00f4ff2f00f59723008e
:1029b000840f5000858f580016003e006000b8005c
:1029c00003f8270089806100e00f5000e08f580075
:1029d0000b003a0002002000033820000800be006f
:1029e000f9f907000001be00c2bf9f00d3bf9f00de
:1029f0000800be004f04be000080fa000000060080
:102a00000200200003b827000800be002af80700d3
:102a1000f4ff37000800be009e02070018003700d0
:102a20004f49de0003002000143d2500b5072400b7
:102a3000840f5000858f58001d003e0034be2c00ce
:102a400065012400840f5000858f58000e003e0061
:102a50000800be000200e000b2fd200093fc23004d
:102a60000500320014f80700ff0107000004be0053
:102a700009f0a200deff370006f80700fa010700a0
:102a80000004be00daff37000800be000200e000cc
:102a9000b2fd2000930424000300320006f8070072
:102aa00001f0a200dcff3700faf70700fcff370057
:102ab000541d2300250e2400840f5000858f5800dc
:102ac00017003e00f4dd2e00f50a2400840f5000ac
:102ad000858f580009003e000800be000200e0009b
:102ae00042be2c006309240002003200f2f7070006
:102af000e2ff3700e7f70700dbff37000800be0002
:102b00000200e000b2fd2000930c2400020032001d
:102b1000e9f70700c0ff3700def70700beff370008
:102b2000f2ff2f00f3f72700820f5000838f580029
:102b3000050036000801be000800be00d5f70700fa
:102b40000004be00aaff370082ff2f000f014100e2
:102b50000800be00f8010700630160004fb897004d
:102b6000dfb89700e10f5100c4ff3200e20f5100bf
:102b7000cbff32000200e000bbff3a00a6ff3700a7
:102b8000f6874700889fbe008a9fbe008c9fbe00cc
:102b90008e1f78000006be00640307000202be001c
:102ba0006033b800d4b79f00e5b79f00f6b79f0029
:102bb00087bf9f005fb59700efb597000004be0088
:102bc0006022b800b4b79f00c5b79f000eff270072
:102bd000efb2970005076700ceb79f003fb397009d
:102be000cfb397000400200005ff2700840f530097
:102bf000858f5b000e003a000c01be000c00be0089
:102c000071f907000001be000c00be00aaf7070022
:102c10000006be000c00be004f0778004f06be0045
:102c20004f05be004f04be006f01b100000006005a
:102c3000e00f5500e08f5d0013003c005fb397008c
:102c4000efb3970007f0a1000001730081817300ca
:102c5000e00f5100e08f5900eeff3200e00f550009
:102c6000e08f5d0008003d00100220003060890008
:102c70000c01be000c00be0086f707000001be007c
:102c800072f80700e2ff3700efb2970044a8de00b9
:102c9000cfa8de00e00f5000e08f5800d4003200d3
:102ca000f03fb1000180b1000a017800ef816500ba
:102cb0000340a000610260008002eb00e00f5200c0
:102cc000e08f5a0008003200020141008381490070
:102cd0004f4ade00050020000201420083814a00c5
:102ce0000804440089844c008182d1000082d30012
:102cf000f4af9f0085b79f00020141008381490026
:102d00004f48de00010020000200400083804800a0
:102d10000802440089824c006a0120000200200061
:102d2000030220006033b800b6b79f00c7b79f000a
:102d30000604410087844900800f5400818f5c00a5
:102d40000a003c0008034100898349000800500044
:102d5000898058003fb49700cfb497000804410021
:102d600089844900b8b79f00c9b79f004f2cde0087
:102d70000900200000004000818048000800400059
:102d8000898048000402420085824a008301d10004
:102d90000281d3000a05e9000a00e000e4ff3a00de
:102da0000e0220006011b8006044b80098b79f0080
:102db000a9b79f000a0020000b0028001fb497004d
:102dc000afb497000a0644008b864c00860f500073
:102dd000878f580006003c00860f5000878f5800f0
:102de0001b003a00840f5600858f5e0018003e00dd
:102df0000c0445008d844d0098b79f00a9b79f0033
:102e0000e00f5600e08f5e0080003d00e00f5400b0
:102e1000e08f5c007d00350061044300e0844b00de
:102e20000600500087805800840f5600858f5e0092
:102e30000200360061005000e08058000c02520091
:102e40008d825a000201450083814d000803be00b7
:102e50004f2cde0009002000000040008180480067
:102e600008004000898048000402420085824a0030
:102e70008b05d1000a85d3000e07e9000e00e000a3
:102e8000ceff3a000400700085807000e00f500013
:102e9000e08f58000c003200e10f4100e08f490044
:102ea00010002000010020005a003a003fb19700b6
:102eb000cfb197000201400083814800b2b79f0064
:102ec000c3b79f006011b8003fb39700cfb397001e
:102ed0008782d1000682d3000000200001fe23007b
:102ee00004024000858248008304d1000284d3009c
:102ef000610063008000eb00e00f5000e08f58009d
:102f00000100320009f0a0007fa997008fb197005f
:102f1000c410dd00000020000000420081804a0053
:102f20000002be004fabde00860378000403be0043
:102f30006022b80004007400858074000601be00a1
:102f4000c202070032ff370075015100e0815900cd
:102f5000cb4dde00454bdd004b45de000a0573001e
:102f6000c544dd0008002000e00f5500e08f5d0043
:102f7000f5ff32008003eb0097b79f0044fe2f005f
:102f80000f024200708a65001fb39700afb397002d
:102f9000e00f5300e08f5b00170032006102500029
:102fa000e082580001022000808050000803be002b
:102fb0008100e900030033008703d1000683d300ba
:102fc000fbff37000a0573008b85730080037800d0
:102fd0008703e900030033000804440089844c009f
:102fe000fbff370004005100858059002cff37009b
:102ff0006011b800dcff37000a0545008b854d00e5
:1030000061004000e0804800daff37000604be009f
:1030100083ff3700020040008380480000017800f1
:103020000200a10081017800a7ff3700889fbe0041
:103030008a9fbe008c1f78000004be000003be0003
:103040006055b80004f827008905620004002000dc
:1030500005f82700840f5500858f5d000b003a00ae
:103060000001be0058f807000001be000800be00c5
:1030700091f607000004be000800be004f0678006d
:103080004f05be004f04be0000000600e00f5000d8
:10309000e08f580010003c000002be0005f0a100c7
:1030a000e00f5200e08f5a00f3ff3200e00f5000b3
:1030b000e08f580008003d001002200030608900b9
:1030c0000801be000800be0072f607000001be0045
:1030d0005ef70700e7ff370047bdde00cfbdde002b
:1030e000e00f5500e08f5d000c003a00060343003e
:1030f00087834b0061004500e0804d000001eb003c
:10310000870178000308b200e00f5100e08f5900fa
:103110004d00320060051500e0851d00fa07b10082
:103120000b80b1000600be00f107b2000170a000e4
:10313000610165008001eb00e00f5100e08f590054
:103140000200320000004000818048008b85d100e1
:103150000a85d30000004000818048009c012000c7
:1031600002002000031020006044b8006033b80063
:103170000602410087824900800f5200818f5a0069
:1031800006003c0004034100858349000400500010
:1031900085805800080441008984490000004000ef
:1031a000818048008301d1000281d3000c06e90030
:1031b0000c00e000eeff3a00e00f5000e08f5800f6
:1031c000160032000226240023da2000000020002e
:1031d00001f823002ff607000200200003f8230067
:1031e000d4f507000000e0000c00350002262400a2
:1031f00023da20000000200001f823002ef607004b
:103200000200200003f82300caf507000000e000d8
:103210000f00340062044400e0844c008984d10033
:103220000884d3000000200001f0230008004000c3
:1032300089804800c755dd000a0020000a044000cc
:103240008b8448008cff37000005be00a7ff3700c5
:1032500061004400e0804c00000478000800a100f8
:1032600081047800edff37000400fa00889fbe005b
:103270008a9fbe008c9fbe000001be00d2f70700ef
:103280000004be000001be00cff707000005be002d
:103290000200200003f02b000800be00caf7070060
:1032a0000200200003f8230003f607000006be001a
:1032b000f2a92a00a3d223000a00be00c2f7070029
:1032c0000001be000c00be00fbf507000002be00be
:1032d00072a12900c37c23000800be0084bf9f00a8
:1032e00095bf9f00b8f70700f243200063ab2300af
:1032f000e8f507000006be000a01be000800be0097
:10330000b1f707000001be000c00be00aef70700d9
:103310000001be000fba97009fba97000400be00dc
:10332000e5f507004f06be004f05be004f04be0086
:103330000080fa00000006000400fa00889fbe002a
:103340008a9fbe008c9fbe00000678008104780032
:103350008206780001f0a100a2fd200093dc240089
:10336000820f5000838f580023003e0032982f00b8
:1033700023f223008900780093f707000200200061
:1033800003b42400ccf507000200200003b424009d
:10339000c0f507000005be0068f5070000047800ce
:1033a000a2fd200093fc23000a00be0086f7070060
:1033b0000001be000c00780089007800b5f5070018
:1033c0000002be00325a2800832823000a00be00f3
:1033d00084bf9f0095bf9f007bf707000001be00e0
:1033e0000fba97009fba97000400be00a9f5070026
:1033f000808ebe000b003700f2ff2f00f3f727008e
:10340000820f5000838f58000c00360000017800b6
:1034100089017800890078009ef50700808ebe0043
:103420000004eb00080078004f06be004f05be0008
:103430004f04be000080fa000000060089007800fa
:103440004afc07000005be0032982f0023f223003b
:103450005df707000200200003f0230096f5070047
:103460005101070000047800faf8070032982f0095
:1034700023f2230075f607000001be000a00be001b
:1034800084f507006000b800a0069800b106980017
:10349000d7ff37000400fa00889fbe008a9fbe0055
:1034a0008c9fbe000006be000001be0046f707006c
:1034b0000004be000001be000c00be0042f7070081
:1034c0000005be000801be000800be003ef7070070
:1034d0000a01be003cf707000002be00c2c326007e
:1034e000636323000800be0084bf9f0095bf9f0058
:1034f00035f70700f27c20000395230065f50700ef
:103500000001be000fba97009fba97000400be00ea
:103510002df707000002be004288280083c0230068
:103520000800be0084bf9f0095bf9f0026f70700dc
:10353000b2aa2a00a3e2230056f507000a01be0042
:1035400021f707000c01be005bf507000001be007b
:103550000fba97009fba97000400be0056f5070007
:103560004f06be004f05be004f04be000080fa00ab
:10357000000006000c00fa00889fbe008a9fbe0073
:103580008c9fbe000004be00e80007000202be00df
:103590004f28de0001002000e0b79f00f1b79f0038
:1035a0000405be000bf0a100f0ff2f00f140240045
:1035b000800f5500818f5d00140036000800be00aa
:1035c00001f0a1000200200003f82700820f500044
:1035d000838f580020003e000200200003382000a6
:1035e000b0fd200091fc230033f507000004be006d
:1035f0006fb09700ffb09700e00f5000e08f5800c9
:103600001500320009f0a20013003700f0ff2f0070
:10361000b1fd2300800f5500818f5d0014003e0036
:103620000086eb00f0ff2f00f1e32300800f550030
:10363000818f5d002b003e006000b80002ff270074
:1036400085006100e00f5000e08f580002003a0052
:10365000c8b79f00d9b79f000800be004f06be0044
:103660004f05be004f04be000080fa0000000600b7
:103670000800be00bdfb07000004be00f0ff2f00e5
:1036800021ff2300800f5500818f5d0075003e00f3
:10369000f0ff2f0051fe2300800f5500818f5d0049
:1036a00061003e000801be000800be0002f50700f0
:1036b0000200200003f82300f6f407000005be0016
:1036c00002002000030024000800be00faf40700f6
:1036d0000001be000a00be00dcf507000004be00c9
:1036e0000006eb000801be000800be00b6f60700a9
:1036f0000002be000001be0080bf9f0095bf9f007a
:10370000b1f607000005be00729d260053c82300d5
:10371000adf6070092a52d00b3d42300e6f4070010
:103720000a01be00a8f6070052b3260083d8230082
:10373000e1f407000a01be00a3f60700e2e622005a
:10374000a3db2300dcf407000a01be009ef607009d
:103750005292240023e12300d7f407000a01be009f
:1037600099f60700b2aa2a00a3ea2300d2f40700c0
:103770000fba97009fba97000401be0092f60700a7
:103780000002be0012222a0053d12b000a00be0004
:1037900084bf9f0095bf9f008bf60700b2162f00d5
:1037a000e3d62300bbf407000a01be0086f607003b
:1037b00052792800d3d92300b6f407000a01be00cd
:1037c00081f6070082e3280033de2300b1f407000e
:1037d0000a01be007cf60700d2cc2c00c3e4230013
:1037e000acf407000a01be0077f607000001be0036
:1037f0000fba97009fba97000400be00aef407000e
:103800000801be0070f607000002be000c00e000d8
:1038100032003d000001be000800be009df407001c
:103820000004be008cff37000200200003f82300d4
:103830000800be0097f407000005be00020020004b
:1038400003f823000800be009bf407000001be003f
:103850000a00be007df507000004be001c00200029
:10386000a0ff3700f0ff270031002400800f550033
:10387000818f5d0012003e000200200003fc230047
:103880000800be0083f407000005be00020020000f
:1038900003fc23000800be004bf6070002002000d6
:1038a00003f8230084f407000001be000a00be00f4
:1038b00066f507000004be002c00200089ff3700d9
:1038c0000801be000000200001f82b005ff5070092
:1038d0000004be003c00200082ff37006166b90092
:1038e0004268dd00ce60de00810070004260dd00d5
:1038f0006abd22000005450061bc22000080400036
:1039000010017800900190000400be0061f40700ef
:103910000801be005ff407000001be001a00780035
:103920009a0090005bf4070030ff370081037800b5
:1039300043f407000001be006000b8000478a30053
:1039400013003a006220e10015003e000d0039002e
:103950008301d1000281d3008180d3008301d10093
:103960000281d3008180d3008301d1000281d30082
:103970008180d3000538b000c42add00f300b20016
:103980008381720007f0a70003f0a000000006008a
:1039900083ff2700020020006110b900f9ff370003
:1039a00003ff2700f7ff37000003be0024f40700e1
:1039b0006011b8000470a70007f0a1006509b1000c
:1039c0001b00320012003500860220000628e100ac
:1039d00008003500f3ff2700f2ff2f006110b90047
:1039e0000700e00018003b00030028006000b8005a
:1039f00002000500000040008180480002014900eb
:103a0000838149008502e900faff3a000800370087
:103a1000f88f420002003c008000eb00000005002f
:103a20008100d1000080d3008502e800fcff3a004d
:103a30000700e00004003b0060001000e080180078
:103a400060011900e0811900000006001400fa006e
:103a5000889fbe008a9fbe008c9fbe000005be00ee
:103a60000206be00680047000c90be000a90be002f
:103a7000210007006400e1001a00320016003e0039
:103a80006100e1001a0032006e049000fe04900014
:103a90000e0b90009e0b90006011b8009e059000e8
:103aa0000b38b100d50120008281710061016400f2
:103ab0008703d1000683d3008984d3000884d30010
:103ac0008502e900f8ff3a00a1f707000df0a70012
:103ad00001f0a0004300370001fc27000000200097
:103ae000faff370001f8270000002000f7ff370039
:103af0006000b800f5ff37005002be00e40050003f
:103b00005003be004439de00f700b200f37f20000e
:103b100003016100090032000218e10016003a00ba
:103b20008501720083017300838173000008200007
:103b300015003a0040002000130037008501720094
:103b4000830173008381730005003a0004a8be005e
:103b500006a8be00100020000b0037000201e9009b
:103b60000402420085824a0006034b0087834b0013
:103b70000748a300f9ff32000740a00004a8be00d8
:103b800006a8be0020002000800098009200980047
:103b900000000600680447000294be000094be00c6
:103ba000fc0447008694be008494be00090078009f
:103bb000d1ff070008007800cfff070099007800c8
:103bc000814f70000b003b000800be000a00070098
:103bd0004f00b10003003700f3ff2700f2ff2f0072
:103be0006110b9004f06be004f05be004f04be0075
:103bf0000080fa0000000600e48240001078a30074
:103c000007003200640240001178a3003400be00b7
:103c10001401be00050032000330a70000000600ba
:103c200035007800b50078001501be000330a00013
:043c3000000006008a
:020000040000fa
:103c3400000000004040000000000000a040000020
:103c44006f120000033b0000cdcc00004c3f00008d
:103c540000000000c03f0000295c00000f3e00008f
:083c6400295c00000f3e000086
:020000040000fa
:103c6c000a00fa00200798003107980042079800d4
:103c7c000040eb00004f78009e407800e0cfb3008e
:103c8c0000c06800004f78002e0090004880de00d5
:103c9c00004078009e40780000c06800004f78001b
:103cac002e009000004078009e40780000c0680014
:103cbc00004f78003e0090004880de000040780005
:103ccc009e40780000c06800004f78003e009000d5
:103cdc00004078009e40780000c06800004f7800db
:103cec000000eb00100798000c0037001e0090003d
:103cfc00e800470011004000104078009e4078001a
:103d0c0000c06800004f78000e80e8008e80e8004c
:103d1c001108e80090007800110798009e009000b0
:103d2c003e009000808f5000f0ff35001e40780060
:103d3c000080fa00000006000e00fa00889fbe000a
:103d4c008a1f780040079800510798006207980076
:103d5c008f0478000f007800000578006a00470097
:103d6c0061002000108040008000e90021079800cd
:103d7c000000e8000000d100800040000f00780037
:103d8c008187470060004000300798000000eb007e
:103d9c00100798009e0090000e80e8000108e800d3
:103dac0010017800120798003e00900001004000be
:103dbc00e1cfb300014878004e009000c880de00cf
:103dcc001e0190000e80e8000208e80090017800c7
:103ddc0013079800814078003e00900002004000dc
:103dec00014878009e0090000e80e8000108e80071
:103dfc0010017800120798004e00900000417800e6
:103e0c003e00900001004000024878005e009000e7
:103e1c00c880de001e0190000e80e8000208e80059
:103e2c009001780013079800814078003e009000c4
:103e3c0002004000014878009e0090000e80e800cf
:103e4c000108e80010017800120798005e0090004d
:103e5c00004178003e0090000100400002487800cc
:103e6c000000eb00000f78000d0037001e007800fa
:103e7c00ec004700910040001e0190000e80e8000d
:103e8c000208e80090017800130798009140780030
:103e9c003e00900002004000014878001e0fe80030
:103eac005e0090009e007800808f5000efff350080
:103ebc001e0490000e80e8000808e80090007800ce
:103ecc00110798006e019000de0090004e009000eb
:103edc0063ff0700804078003e009000080040001f
:103eec00014878003e0090009e00900005160700e7
:103efc008a07780000000000890778004f057800d9
:103f0c004f04be000080fa00000006000200fa0018
:103f1c00004f780030808000e40f50002400320005
:103f2c00e40f500007003c00e20f50001300320079
:103f3c00e20f500017003c000000e00008003200c7
:103f4c0055003700e60f500033003200e60f5000ea
:103f5c001d003500e70f50003c0032004e003700ca
:103f6c001e407800e24f40004d003a000c30ef004c
:103f7c002000200030808800490037001e80fb00a4
:103f8c004800dd0040808800300020003080880030
:103f9c00460037001e80fb004180800000807000ce
:103fac004080880040002000308088003f003700af
:103fbc001e80fb004800dd0050808800500020006f
:103fcc0030808800390037001e80fb005180800053
:103fdc0000807000508088000c30ef005080800012
:103fec000000e00003003a007000200030808800e0
:103ffc002e00370051808000f03f2000808f500051
:10400c0003003c006000200030808800270037004f
:10401c000630ef0025003700618080000100e800c9
:10402c0060808800a00f2100010040001e4878002d
:10403c006180800050808000808f50001a00350015
:10404c0070002000308088001700370051808000fd
:10405c0040808000a20f210001ff07000ef0b70086
:10406c001e417800f100210082487800e100210017
:10407c00914078000fd0bf0080cf500004003a0070
:10408c005180800040808000a20f21007500070045
:10409c000630ef00050037000630ef000300370054
:1040ac0000000000010037000000000000000000cc
:1040bc000080fa00000006000200fa00004f7800b1
:1040cc0080808000e40f500024003200e40f500088
:1040dc0007003c00e20f500013003200e20f5000ca
:1040ec0017003c000000e0000800320055003700cb
:1040fc00e60f500033003200e60f50001d00350073
:10410c00e70f50003c0032004e0037001e40780094
:10411c00e24f40004d003a001630ef002000200026
:10412c0080808800490037001e80fb004800dd00bd
:10413c009080880030002000808088004600370086
:10414c001e80fb00918080000080700090808800b1
:10415c0040002000808088003f0037001e80fb005c
:10416c004800dd00a080880050002000808088007e
:10417c00390037001e80fb00a18080000080700099
:10418c00a08088001630ef00a08080000000e000c6
:10419c0003003a0070002000808088002e00370059
:1041ac00a1808000f03f2000808f500003003c0075
:1041bc006000200080808800270037001030ef005e
:1041cc0025003700b18080000100e800b080880035
:1041dc00a04f2100010040001e487800b1808000f3
:1041ec00a0808000808f50001a00350070002000e5
:1041fc008080880017003700a180800090808000ac
:10420c00a24f210096fe070018f0b7001e4178005f
:10421c0091012100824878008101210091407800b1
:10422c0019d0bf0080cf500004003a00a18080005c
:10423c0090808000a24f21000a0007001030ef0090
:10424c00050037001030ef000300370000000000bd
:10425c000100370000000000000000000080fa00a0
:10426c00000006001200fa00600798007107980021
:10427c00020f9800ee00900020072000808f500065
:10428c0044003200ee00900020072000808f500088
:10429c0016003c00ee00900000052000808f5000be
:1042ac00bd013200ee00900000052000808f500010
:1042bc0005003c00ee00900000022000808f5000b2
:1042cc00e30132004f023700ee0090001005200091
:1042dc00808f50004a023200ee0090002005200032
:1042ec00808f50001b00320046023700ee00900019
:1042fc0050072000808f5000a8003200ee00900084
:10430c0050072000808f500009003c00ee00900008
:10431c0030072000808f500056003200ee009000d5
:10432c0040072000808f50000f003200350237000c
:10433c00ee00900060072000808f50000a013200d0
:10434c00ee00900000092000808f500085013200a3
:10435c002c0237000e089000104078000080fb0003
:10436c008c170700270237008000eb000e08900026
:10437c0010130700b0568900c15689004100200077
:10438c000e0890000b130700d0568900e1568900e7
:10439c001c0237006000b800d04b8900e14b89004b
:1043ac006000b800f04b8900014c89006000b80037
:1043bc00104c8900214c89006000b800704b8900ba
:1043cc00814b89006000b800305689004156890045
:1043dc006000b800b0568900c15689008000eb001f
:1043ec000e089000f31207002081880031818800ac
:1043fc00410020000e089000ee120700408188005a
:10440c0051818800810020000e089000e9120700fd
:10441c0060818800718188006681800077818000ce
:10442c00448180005581800022818000338180008e
:10443c0000002000812c2400809fbe000000200082
:10444c00812c2400809fbe0000002000812c2400c1
:10445c00809fbe00609522004b090700ec87570037
:10446c00620d2100c10020002007200032fe070051
:10447c00e40137006000b800504d8900614d89009f
:10448c006000b800704d8900814d89006000b80053
:10449c00904d8900a14d89006000b800f04c890056
:1044ac00014d89006000b8005056890061568900a2
:1044bc006000b800d0568900e15689008000eb00fe
:1044cc000e089000bb120700208188003181880003
:1044dc00410020000e089000b612070040818800b1
:1044ec0051818800810020000e089000b112070055
:1044fc00608188007181880020818000318180007a
:10450c000001be008000eb00200e21000413070008
:10451c0040818000518180000001be0041002000dc
:10452c00200e2100fe120700608180007181800046
:10453c000001be0081002000200e2100f8120700af
:10454c0066818000778180004481800055818000e5
:10455c00228180003381800000002000812c240007
:10456c00809fbe0000002000812c2400809fbe0094
:10457c0000002000812c2400809fbe006098220047
:10458c0001090700ec875700220e2100c100200012
:10459c0030072000e8fd07009a0137006000b800e2
:1045ac00504d8900614d89006000b800704d890044
:1045bc00814d89006000b800904d8900a14d8900a3
:1045cc006000b800f04c8900014d89006000b80013
:1045dc00d04b8900e14b89006000b800f04b89009a
:1045ec00014c89006000b800104c8900214c8900f6
:1045fc006000b800704b8900814b89006000b800e6
:10460c0050568900615689006000b8003056890008
:10461c00415689006000b800d0518900e1518900f1
:10462c006000b800f0518900015289006000b800a8
:10463c0010528900215289006000b8007051890025
:10464c00815189006000b800505389006153890082
:10465c006000b80070538900815389006000b80075
:10466c0090538900a15389006000b800f052890072
:10467c000153890000002000812c2400809fbe0083
:10468c0000002000812c2400809fbe000000200030
:10469c00812c2400809fbe006033b8006022b800db
:1046ac006011b80060982200b7080700ec8757002b
:1046bc0000002000812c2400809fbe000000200000
:1046cc00812c2400809fbe0000002000812c24003f
:1046dc00809fbe006033b8006022b8006011b80043
:1046ec0060952200a8080700ec8757000000200006
:1046fc00812c2400809fbe0000002000812c24000f
:10470c00809fbe0000002000812c2400809fbe00f2
:10471c006033b8006022b8006011b80060a12200bc
:10472c0099080700ec87570000002000812c24001a
:10473c00809fbe0000002000812c2400809fbe00c2
:10474c0000002000812c2400809fbe006033b80044
:10475c006022b8006011b80060a422008a0807002b
:10476c00ec875700270137006000b800d051890052
:10477c00e15189006000b800f051890001528900b4
:10478c006000b80010528900215289006000b80006
:10479c0070518900815189006000b8005053890024
:1047ac00615389006000b8007053890081538900ff
:1047bc006000b80090538900a15389006000b800d4
:1047cc00f0528900015389008000eb000e08900024
:1047dc00f811070080818800918188004100200039
:1047ec000e089000f3110700a0818800b1818800a9
:1047fc00810020000e089000ee110700c081880097
:10480c00d1818800c10020000e089000e91107003a
:10481c00e0818800f1818800010120000e089000e1
:10482c00e4110700008288001182880041012000f9
:10483c000e089000df11070020828800318288006a
:10484c0080818000918180000001be008000eb001f
:10485c00200e210032120700a0818000b18180005f
:10486c000001be0041002000200e21002c12070088
:10487c00c0818000d18180000001be008100200039
:10488c00200e210026120700e0818000f1818000bb
:10489c000001be00c1002000200e210020120700e4
:1048ac0000828000118280000001be000101200006
:1048bc00200e21001a120700208280003182800015
:1048cc000001be0041012000200e2100141207003f
:1048dc00c6818000d7818000a4818000b5818000d2
:1048ec00828180009381800000002000812c2400b4
:1048fc00809fbe0000002000812c2400809fbe0001
:10490c0000002000812c2400809fbe0060a12200aa
:10491c001d080700ec875700268280003782800034
:10492c000482800015828000e2818000f381800087
:10493c0000002000812c2400809fbe00000020007d
:10494c00812c2400809fbe0000002000812c2400bc
:10495c00809fbe0060a422000b080700ec87570064
:10496c00a800370010002000c08288008000eb00f7
:10497c000e0890008f11070070578900815789002d
:10498c00410020000e0890008a1107009057890002
:10499c00a15789009b0037002070800000407800f0
:1049ac0061406000614068000080fb0061006000b5
:1049bc00217080000100a1000100700020708800af
:1049cc00210020000e0890007a110700008fbe0015
:1049dc00610020000e089000761107002007980057
:1049ec0031079800a10020000e08900071110700fb
:1049fc004007980051079800208580003185800081
:104a0c0010808800218088008000eb000e08900048
:104a1c007c110700805589001e0178009e019000d2
:104a2c0092558900a35589002e019000be0190007b
:104a3c00b2558900c35589004e019000de019000eb
:104a4c00d2558900e35589001c0b07006d00370017
:104a5c000e089000104078000080fb00e30f50001f
:104a6c0018003200e30f500005003c00e10f50002d
:104a7c0008003200e20f50000c0032002300370017
:104a8c00e40f500015003200e50f50001900320001
:104a9c001e003700700047001000e800104078003e
:104aac000080fb00d08088001800370070004700a1
:104abc001000e800104078000080fb00e0808800c7
:104acc0012003700700047001000e800104078001a
:104adc000080fb00f08088000c003700700047005d
:104aec001000e800104078000080fb000081880076
:104afc0006003700700047001000e80010407800f6
:104b0c000080fb001081880000000000d080800035
:104b1c00e10f500009003a00d0808000004078007e
:104b2c00614060000080fb0061006000217080002b
:104b3c000100a1000100700020708800d08080006e
:104b4c0000407800614060000080fb006100600064
:104b5c00217080000100a10001007000207088000d
:104b6c00e080800000407800614060000080fb0025
:104b7c004f00dd00a174800001f0a1000100700065
:104b8c00a0748800f08080000040780061406000d4
:104b9c000080fb00610060004a00dd002170800095
:104bac0001a0a1000100700020708800008180002d
:104bbc0000407800614060000080fb0061006000f4
:104bcc004300dd00a17380000130a10001007000e2
:104bdc00a073880010818000004078006140600064
:104bec000080fb00610060004900dd002170800046
:104bfc000190a100010070002070880001003700b6
:104c0c0000000000000000000080fa000000060018
:104c1c002200fa00889fbe00c0488100d148810064
:104c2c0043ef0700000f7800a0488100b1488100d5
:104c3c003fef070010079800e0488100f148810021
:104c4c003bef0700200798000049810011498100c3
:104c5c0037ef070030079800204981003149810067
:104c6c0033ef0700400798000e80e8009e007800a4
:104c7c00108040006100b90069ef070002002000bd
:104c8c00030024006ef0070050079800610798009d
:104c9c00e600470068004700110178001000410051
:104cac006100b9005eef0700020020000300240041
:104cbc0063f0070070079800010f98005e009000e9
:104ccc00ee0090000001be0078ef070000017800b4
:104cdc000100780082047800000478002e00900017
:104cec006100b9004eef07000001be00090078001a
:104cfc00880078000000be006cef0700000178000f
:104d0c000100780082027800000278000200200086
:104d1c000304240005007800840078000000be0025
:104d2c0047f00700100f9800210f98007e009000ac
:104d3c008e0890000001be005cef070000017800b7
:104d4c000100780082047800000478002e009000a6
:104d5c006100b90032ef07000001be0009007800c5
:104d6c00880078000000be0050ef070000017800ba
:104d7c000100780082027800000278000200200016
:104d8c000304240005007800840078000000be00b5
:104d9c002bf00700300f9800410f98000000200006
:104dac00811b2400500f9800610f98000000200018
:104dbc0001142400700f98000117980002002000c5
:104dcc00832c24001e089000ae0890001cf00700f5
:104ddc00000178000100780082047800000478005b
:104dec007e0990008e1190005e089000ee089000f5
:104dfc0025ef07000001780001007800820178009f
:104e0c000001780003007800820078000001be00e9
:104e1c0009007800880078000000be00e7f0070069
:104e2c00000178000100780082027800000278000e
:104e3c007e0990008e1190000500780084007800a7
:104e4c000000be0019ef0700000178000100780097
:104e5c00820178000001780003007800820078005d
:104e6c000000be00b2ee0700a08488000200200003
:104e7c00832c24003e089000ce089000f0ef070031
:104e8c0000017800010078008204780000047800aa
:104e9c007e0990008e1190005e089000ee08900044
:104eac00f9ee07000001780001007800820178001b
:104ebc000001780003007800820078000001be0039
:104ecc0009007800880078000000be00bbf00700e5
:104edc00000178000100780082027800000278005e
:104eec007e0990008e1190000500780084007800f7
:104efc000000be00edee0700000178000100780014
:104f0c0082017800000178000300780082007800ac
:104f1c000000be0086ee070090848800908480001c
:104f2c00f70f500002003400040ea80001003700f7
:104f3c00040ea900000000004f04be000080fa001f
:104f4c00000006000400fa00008fbe0002002000e2
:104f5c00031f24001e0078009e00900070ee0700d6
:104f6c000000e00002003d001000200001003700ae
:104f7c000000eb000080fa00000006000400fa00bc
:104f8c00008fbe0002002000031f24001e007800ca
:104f9c009e00900062ee07000000e00002003d0061
:104fac0010002000010037000000eb000080fa0028
:104fbc00000006000200fa000040eb00004f7800f1
:104fcc00a0488100b1488100deff07000000e0002e
:104fdc00030032001e4078000044a000004f78000f
:104fec00c0488100d1488100d6ff07000000e000d6
:104ffc00030032001e4078000034a000004f7800ff
:10500c00e0488100f1488100ceff07000000e0007d
:10501c00030032001e4078000024a000004f7800ee
:10502c000049810011498100c6ff07000000e00023
:10503c00030032001e4078000014a000004f7800de
:10504c002049810031498100beff07000000e000cb
:10505c00030032001e4078000004a000004f7800ce
:10506c001e4078000080fa00000006000600fa00de
:10507c005f1307000004e000040132006013070016
:10508c0057130700200798002e009000100078009e
:10509c008000eb0065ee070032332300330524005b
:1050ac0046f00700000178000100780082027800c9
:1050bc00000278000200200003582400050078004c
:1050cc00840078000000be005def0700008fbe007a
:1050dc006266260063ea23001e0078009e009000a2
:1050ec000fee07000000e00003003d0060662600a4
:1050fc0061ea2300008fbe001e0178009e01900023
:10510c0000002000812024004def070000017800f2
:10511c000100780082027800000278000200200072
:10512c00030a240005007800840078000000be000b
:10513c0055ee07008001780001017800030078002b
:10514c00820078000000be00a0488900b1488900a8
:10515c00640047001080e800100078008000eb002d
:10516c0032ee0700323323003305240013f007001e
:10517c0000017800010078008202780000027800bb
:10518c0002002000035824000500780084007800f9
:10519c000000be002aef0700008fbe0062662600ea
:1051ac0063ea23001e0078009e009000dced0700ef
:1051bc000000e00003003d006066260061ea230069
:1051cc00008fbe001e0178009e01900000002000a0
:1051dc00812024001aef07000001780001007800fc
:1051ec00820278000002780002002000030a2400ea
:1051fc0005007800840078000000be0022ee070055
:10520c0080017800010178000300780082007800aa
:10521c000000be00c0488900d148890064004700e6
:10522c004100200010804000100078008000eb004e
:10523c00feed07003233230033052400dfef0700b7
:10524c0000017800010078008202780000027800ea
:10525c000200200003582400050078008400780028
:10526c000000be00f6ee0700008fbe00626626004e
:10527c0063ea23001e0078009e009000a8ed070052
:10528c000000e00003003d006066260061ea230098
:10529c00008fbe001e0178009e01900000002000cf
:1052ac0081202400e6ee0700000178000100780060
:1052bc00820278000002780002002000030a240019
:1052cc0005007800840078000000be00eeed0700b9
:1052dc0080017800010178000300780082007800da
:1052ec000000be00e0488900f148890064004700d6
:1052fc006100200010804000100078008000eb005e
:10530c00caed07003233230033052400abef07004e
:10531c000001780001007800820278000002780019
:10532c000200200003582400050078008400780057
:10533c000000be00c2ee0700008fbe0062662600b1
:10534c0063ea23001e0078009e00900074ed0700b5
:10535c000000e00003003d006066260061ea2300c7
:10536c00008fbe001e0178009e01900000002000fe
:10537c0081202400b2ee07000001780001007800c3
:10538c00820278000002780002002000030a240048
:10539c0005007800840078000000be00baed07001c
:1053ac008001780001017800030078008200780009
:1053bc000000be00004989001149890064004700c3
:1053cc008100200010804000100078008000eb006d
:1053dc0096ed0700323323003305240077ef0700e6
:1053ec000001780001007800820278000002780049
:1053fc000200200003582400050078008400780087
:10540c000000be008eee0700008fbe006266260014
:10541c0063ea23001e0078009e00900040ed070018
:10542c000000e00003003d006066260061ea2300f6
:10543c00008fbe001e0178009e019000000020002d
:10544c00812024007eee0700000178000100780026
:10545c00820278000002780002002000030a240077
:10546c0005007800840078000000be0086ed07007f
:10547c008001780001017800030078008200780038
:10548c000000be002049890031498900000000005d
:10549c000080fa00000006000000fa00c5fe0700bc
:1054ac000080fb00e0848800e08480006100b9008b
:1054bc00f201200003002000820f5000838f58005f
:1054cc007e003e00000601001f003700210037005f
:1054dc0023003700250037002700370079003700fc
:1054ec00280037002a0037002c0037002e00370028
:1054fc0030003700320037003400370036003700f8
:10550c00380037003a0037003c0037003e003700c7
:10551c004000370042003700440037004600370097
:10552c00480037004a0037004c0037004e00370067
:10553c005000370052003700540037005600370037
:10554c00580037005a00370020c0b300a2f0b70053
:10555c005d00370040c0b300a2f0b7005a0037001e
:10556c0040c0b300a2f0b7005700370040c0b300f2
:10557c00a2f0b70054003700c0c0b300a2f0b700cf
:10558c005100370040c0b300a2f0b7004e00370006
:10559c0040c0b300a2f0b7004b003700a0c0b3006e
:1055ac00a2f0b70048003700a0c0b300a2f0b700cb
:1055bc0045003700a0c0b300a2f0b700420037008e
:1055cc00a0c0b300a2f0b7003f003700a0c0b300ea
:1055dc00a2f0b7003c003700e0c0b300a2f0b70067
:1055ec0039003700e0c0b300a2f0b7003600370036
:1055fc00c0c0b300a2f0b70033003700a0c0b300a6
:10560c00a2f0b7003000370020c0b300a2f0b70002
:10561c002d00370040c0b300a2f0b7002a003700bd
:10562c00e0c0b300a2f0b70027003700e0c0b30021
:10563c00a2f0b70024003700e0c0b300a2f0b7001e
:10564c0021003700a0c0b300a2f0b7001e00370045
:10565c00e0c0b300a2f0b7001b003700a0c0b3003d
:10566c00a2f0b70018003700a0c0b300a2f0b7003a
:10567c0015003700a0c0b300a2f0b700120037002d
:10568c00a0c0b300a2f0b7000f003700a0c0b30059
:10569c00a2f0b7000c003700e0c0b300a2f0b700d6
:1056ac0009003700e0c0b300a2f0b70006003700d5
:1056bc00e0c0b300a2f0b700030037000000000008
:1056cc000100370000000000a2d0bf000080fb00ea
:1056dc00a1092100914078008180fb008100e90044
:1056ec00810f500006003200a2d0bf009af0b70024
