:020000040000fa
:080000000002040000000000f2
:020000040000fa
:040008008a04000066
:020000040000fa
:04000c008a04000062
:020000040000fa
:040010008a0400005e
:020000040000fa
:040014008a0400005a
:020000040000fa
:040018008a04000056
:020000040000fa
:04001c008a04000052
:020000040000fa
:040020008a0400004e
:020000040000fa
:040024008a0400004a
:020000040000fa
:040028008a04000046
:020000040000fa
:04002c008a04000042
:020000040000fa
:040030008a0400003e
:020000040000fa
:04003400fa020000cc
:020000040000fa
:040038008a04000036
:020000040000fa
:04003c008a04000032
:020000040000fa
:040040008a0400002e
:020000040000fa
:040044008a0400002a
:020000040000fa
:040048002e03000083
:020000040000fa
:04004c008a04000022
:020000040000fa
:040050008a0400001e
:020000040000fa
:04005400ce030000d7
:020000040000fa
:04005800a2030000ff
:020000040000fa
:04005c007c03000021
:020000040000fa
:040060008a0400000e
:020000040000fa
:040064008a0400000a
:020000040000fa
:040068008a04000006
:020000040000fa
:04006c008a04000002
:020000040000fa
:040070008a040000fe
:020000040000fa
:040074008a040000fa
:020000040000fa
:040078008a040000f6
:020000040000fa
:04007c008a040000f2
:020000040000fa
:040080008a040000ee
:020000040000fa
:040084008a040000ea
:020000040000fa
:040088008a040000e6
:020000040000fa
:04008c008a040000e2
:020000040000fa
:040090008a040000de
:020000040000fa
:04009400380300002d
:020000040000fa
:040098008a040000d6
:020000040000fa
:04009c008a040000d2
:020000040000fa
:0400a0001604000042
:020000040000fa
:0400a4005e040000f6
:020000040000fa
:0400a8008a040000c6
:020000040000fa
:0400ac008a040000c2
:020000040000fa
:0400b0008a040000be
:020000040000fa
:0400b4008a040000ba
:020000040000fa
:0400b8008a040000b6
:020000040000fa
:0400bc008a040000b2
:020000040000fa
:0400c0008a040000ae
:020000040000fa
:0400c4008a040000aa
:020000040000fa
:0400c8008a040000a6
:020000040000fa
:0400cc008a040000a2
:020000040000fa
:0400d0008a0400009e
:020000040000fa
:0400d4008a0400009a
:020000040000fa
:0400d8008a04000096
:020000040000fa
:0400dc008a04000092
:020000040000fa
:0400e0008a0400008e
:020000040000fa
:0400e4008a0400008a
:020000040000fa
:0400e8008a04000086
:020000040000fa
:0400ec008a04000082
:020000040000fa
:0400f0008a0400007e
:020000040000fa
:0400f4008a0400007a
:020000040000fa
:0400f8008a04000076
:020000040000fa
:0400fc008a04000072
:020000040000fa
:040100008a0400006d
:020000040000fa
:040104008a04000069
:020000040000fa
:040108008a04000065
:020000040000fa
:04010c008a04000061
:020000040000fa
:040110008a0400005d
:020000040000fa
:040114008a04000059
:020000040000fa
:040118008a04000055
:020000040000fa
:04011c008a04000051
:020000040000fa
:040120008a0400004d
:020000040000fa
:040124008a04000049
:020000040000fa
:040128008a04000045
:020000040000fa
:04012c008a04000041
:020000040000fa
:040130008a0400003d
:020000040000fa
:040134008a04000039
:020000040000fa
:040138008a04000035
:020000040000fa
:04013c008a04000031
:020000040000fa
:040140008a0400002d
:020000040000fa
:040144008a04000029
:020000040000fa
:040148008a04000025
:020000040000fa
:04014c008a04000021
:020000040000fa
:040150008a0400001d
:020000040000fa
:040154008a04000019
:020000040000fa
:040158008a04000015
:020000040000fa
:04015c008a04000011
:020000040000fa
:040160008a0400000d
:020000040000fa
:040164008a04000009
:020000040000fa
:040168008a04000005
:020000040000fa
:04016c008a04000001
:020000040000fa
:040170008a040000fd
:020000040000fa
:040174008a040000f9
:020000040000fa
:040178008a040000f5
:020000040000fa
:04017c008a040000f1
:020000040000fa
:040180008a040000ed
:020000040000fa
:040184008a040000e9
:020000040000fa
:040188008a040000e5
:020000040000fa
:04018c008a040000e1
:020000040000fa
:040190008a040000dd
:020000040000fa
:040194008a040000d9
:020000040000fa
:040198008a040000d5
:020000040000fa
:04019c008a040000d1
:020000040000fa
:0401a0008a040000cd
:020000040000fa
:0401a4008a040000c9
:020000040000fa
:0401a8008a040000c5
:020000040000fa
:0401ac008a040000c1
:020000040000fa
:0401b0008a040000bd
:020000040000fa
:0401b4008a040000b9
:020000040000fa
:0401b8008a040000b5
:020000040000fa
:0401bc008a040000b1
:020000040000fa
:0401c0008a040000ad
:020000040000fa
:0401c4008a040000a9
:020000040000fa
:0401c8008a040000a5
:020000040000fa
:0401cc008a040000a1
:020000040000fa
:0401d0008a0400009d
:020000040000fa
:0401d4008a04000099
:020000040000fa
:0401d8008a04000095
:020000040000fa
:0401dc008a04000091
:020000040000fa
:0401e0008a0400008d
:020000040000fa
:0401e4008a04000089
:020000040000fa
:0401e8008a04000085
:020000040000fa
:0401ec008a04000081
:020000040000fa
:0401f0008a0400007d
:020000040000fa
:0401f4008a04000079
:020000040000fa
:0401f8008a04000075
:020000040000fa
:0401fc008a04000071
:020000040000fa
:040200008a0400006c
:020000040000fa
:040204008a04000068
:020000040000fa
:040208008a04000064
:020000040000fa
:04020c008a04000060
:020000040000fa
:040210008a0400005c
:020000040000fa
:040214008a04000058
:020000040000fa
:040218008a04000054
:020000040000fa
:04021c008a04000050
:020000040000fa
:040220008a0400004c
:020000040000fa
:040224008a04000048
:020000040000fa
:040228008a04000044
:020000040000fa
:04022c008a04000040
:020000040000fa
:040230008a0400003c
:020000040000fa
:040234008a04000038
:020000040000fa
:040238008a04000034
:020000040000fa
:04023c008a04000030
:020000040000fa
:040240008a0400002c
:020000040000fa
:040244008a04000028
:020000040000fa
:040248008a04000024
:020000040000fa
:04024c008a04000020
:020000040000fa
:040250008a0400001c
:020000040000fa
:040254008a04000018
:020000040000fa
:040258008a04000014
:020000040000fa
:04025c008a04000010
:020000040000fa
:040260008a0400000c
:020000040000fa
:040264008a04000008
:020000040000fa
:100400000fc022000eff27000e0188000000000030
:10041000000020000000e000020032000001200087
:1004200020028800140007003c0107000000e000e3
:1004300003003a006056240001002000020037004b
:100440000000200001002000810f70000100320038
:100450000f000700000020000000e0000200320052
:10046000000002000000000056240200000000000e
:100470000040da000000fe00c00120000000e000a3
:1004800002003200002020009001880000000600d9
:10049000a1028800800478000000eb001f003700f4
:1004a000e284440054a0b4009905ba00e2844400f8
:1004b00054a0b4009906ba00e284440054a0b400e9
:1004c0000006eb00476fde00fd07b200ae018800ba
:1004d000636ce10003003a000ad801000000eb0061
:1004e0000e003700606ce10008003a00004deb00a0
:1004f0000a05e800020039003420ec000af0a000f0
:100500008b05e900f9ff3e00040037006168e10057
:10051000010032000086eb000b00070019c7ba008b
:100520000e04e0001905ba0003003a000a00e000da
:10053000dbff3a0000000600fe07b200ae028800b2
:100540008a047800f5ff37000cd0a300e20f4d00bd
:100550001c003b0089027800354dba000a05e8000e
:10056000020039003420ec000af0a0008b05e900fd
:100570000f003200254dba000a05e80002003900dc
:100580003420ec000af0a0008b05e90008003200de
:100590000c00e0000600320015cdba000a05e800a4
:1005a000020039003420ec000af0a0008b05e900bd
:1005b0008984e80054a0b4000b00e000e2ff3a0098
:1005c000000006009902ba00055d78008b05e9007d
:1005d000f7ff3200c82ade00055d78008b05e900d0
:1005e000f3ff32000c00e000f1ff320019ddba0029
:1005f000eeff37003600f800809fbe00829fbe00ed
:10060000849fbe00869fbe000000fa000068a9001b
:100610005e230700aa1e0700531b07008717070069
:10062000f08580000000e800f0858800f0858000fb
:10063000f30f500001003400be30ef000000000056
:100640000080fa004f03be004f02be004f01be0003
:100650004f00be003600f900004006000000fa001e
:100660000108a900000000000080fa000040060018
:100670003600f800809fbe00829fbe00849fbe00af
:10068000869fbe000000fa000368a9000186800072
:100690000100e80000868800703e2000808f500036
:1006a00003003400c030ef0010c0b300c2f0b70048
:1006b00065180700d50e0700c2858000d38580002d
:1006c000100020000100200002004000838048004c
:1006d000c0858800d1858800000000000080fa00f5
:1006e0004f03be004f02be004f01be004f00be00d0
:1006f0003600f90000400600801f78000000fa0074
:1007000001a8a90000188000605f8900101880000f
:10071000705f890020188000805f89003018800099
:10072000905f890040188000a05f890010c0b3006e
:10073000ebf0b700000000000080fa004f007800e6
:10074000004006003600f800809fbe00829fbe0079
:10075000849fbe00869fbe000000fa000188a900a9
:100760007186800060868000808f50000200320019
:100770009521070001003700d070ef000000000055
:100780000080fa004f03be004f02be004f01be00c2
:100790004f00be003600f900004006003600f800a9
:1007a000809fbe00829fbe00849fbe00869fbe00c9
:1007b0000000fa000168a900101180004200de006c
:1007c00061406000e14f500001003a002242a90060
:1007d000101180000000d10061406000e14f500026
:1007e00005003a002222a9000300370030118000e2
:1007f000004078008e230700101180000040780030
:1008000061406000e14f5000f8ff3200000000003e
:100810000080fa004f03be004f02be004f01be0031
:100820004f00be003600f900004006003600f80018
:10083000809fbe00829fbe00849fbe00869fbe0038
:100840000000fa0003c8a900901180004200de00f9
:1008500061406000e14f500001003a003242a900bf
:10086000901180000000d10061406000e14f500015
:1008700005003a003222a90003003700b0118000c1
:10088000004078002023070090118000004078008d
:1008900061406000e14f5000f8ff320000000000ae
:1008a0000080fa004f03be004f02be004f01be00a1
:1008b0004f00be003600f900004006003600f80088
:1008c000809fbe00829fbe00849fbe00869fbe00a8
:1008d0000000fa0003e8a900a1868000908680004d
:1008e000808f5000020032009d2107000100370078
:1008f000d670ef00000000000080fa004f03be0039
:100900004f02be004f01be004f00be003600f9008e
:10091000004006000040da000000fe000000050074
:1009200014002000af033700f4ff2f00ad033700a1
:100930000001be00410007000470a70003f0a10001
:100940006509b100160032000d0035006828e1008d
:1009500006003500f0ff2f00f1ff27000300e00044
:1009600013003b00010028000000050000004000cb
:10097000818048008502e900fcff3a00080037004a
:10098000f88f420002003c008000eb0000000500f0
:100990008100d1000080d3008502e800fcff3a000e
:1009a0000300e00002003b0060001000e08018003f
:1009b000000006000001be00200007000470a70030
:1009c00003f0a10003f8a30013003a006509b10089
:1009d00010003200090035006928e10002003500ee
:1009e0000100280000000500000040008180480050
:1009f0008502e900fcff3a0000000600f88f420083
:100a0000050035008100d1000080d3008502e80098
:100a1000fcff3a00000006008000eb00000005002b
:100a20004f89de0082017800890337006011b80029
:100a300097033700040020006a033700c70ade006e
:100a4000f107b200f50fb20008003200e1cf42001a
:100a5000020032000170a00024000500810f700028
:100a6000010032000408050044000500810f7000f9
:100a700002003a00140005008502e9000000400071
:100a800081c04800fcff3b000170a000240005006d
:100a900007f82700078361000638e10004003a00e8
:100aa000f7072000878361008703710001003a0087
:100ab00003f0a200889fbe008a9fbe008c9fbe00ec
:100ac000470ade000480a100c71ade000580a100ed
:100ad000070028000785600087856100f70f200068
:100ae0000720e1009e0032000728e1009c00320050
:100af000010678000400e000b4003200f70720008f
:100b0000878060000170a0000500e000c000320096
:100b1000f7072000878161000370a00005065200de
:100b20000f003a000b50e1000b0032000308e10017
:100b300002003a000200e1007e0032000204500090
:100b400083845800040031000001fd008101fd0094
:100b50008402fd008a05fd006044b80021003700d2
:100b60000520e10005003d000001fd008101fd00c0
:100b70008402fd008a05fd00050652007a60e1004e
:100b8000050035000170a1004722dd00848070005f
:100b90008a807000630037006044b800ef0266008e
:100ba00007ff2f00070666000500e000060034007e
:100bb000f08312008714dd000511de00071bdd0045
:100bc000060171008519de007060e1000500350046
:100bd0000904780082047800030178008001eb00aa
:100be000700656000b50e10003003a00020040007e
:100bf000838048000400370060041400e0841c0077
:100c000002005800838058000188a30006003200cb
:100c10008100d1000080d3008984d3000884d300f0
:100c20000402e800270037000178a30025003a00fd
:100c30000100e000030032008186cf006986560083
:100c40000a0037008c0020000000e00004003a0099
:100c500009007800880478000004eb00700252005c
:100c60008086cf000d0646000c06e9007060e100aa
:100c700006003500800078000900780088047800bc
:100c80000004eb0070065600700252000c00e000f9
:100c90000c0034008c08dd00f00316000703de00b2
:100ca000868070000c00dd00074bde00060070003f
:100cb0008c4cdd000743de00868474000c44dd00ac
:100cc0000c0252006120e10020003500610160004b
:100cd0000700280087816400f7ff270087836400ee
:100ce000070374000300e000060032008203730073
:100cf000040032000000e800e08048000188a30002
:100d00000e003a00f70f20000720e1004a003d00e6
:100d10000170a1004722dd00810072008a8070000e
:100d20000000be004f06be004f05be004f04be00cf
:100d3000000006006000b800faff37008100d10013
:100d40000080d3000402e800eeff370004017800c1
:100d500089017400a10107008a807000f1ff37004b
:100d6000f7010700070278000001fd008101fd0086
:100d7000f301070087027800850372000778a3005b
:100d8000040032000001fd008101fd0006020700a1
:100d9000e4ff3700850362000768a3000800320003
:100da0000b50e10003003200f0ff2f00f1ff27009d
:100db000dcff37000001fd008101fd00d9ff370095
:100dc0000468a300d7ff3200faff3700f8ff2700be
:100dd000888360000b003a000000e00009003a0040
:100de0008303640082837300020032000200be00ad
:100df000ccff37000b50e100ceff3a000200be00ee
:100e0000c8ff370014002000810064003eff370057
:100e1000f8ff27008883610004003a000200e00028
:100e200002003a008c007800beff37001500200059
:100e30008301640039ff370001f82700000020001b
:100e400081007500b7ff3700889fbe008a9fbe00f3
:100e50008c9fbe001b0020000202be0005866800b9
:100e600006002800060666004709de00f20fb20001
:100e7000820032000243e80080003200c729de0011
:100e8000f30fb2007d0032000343e8007b00320024
:100e9000f107b2000170a000f507b2000570a000d4
:100ea000c708dd004903de00868070004700dd00d2
:100eb000c72add004923de00868272004722dd005a
:100ec00003055100040350008583580003003100de
:100ed00000004000818048000a05e9008c1f78006e
:100ee0008a9fbe0004005000858058000402420022
:100ef00085824a0000004000818048000005eb0028
:100f00000004be006033b8000406be000d48e100d6
:100f100056003100110009004dccd8000c01b8007a
:100f20000d02b8008481410060824a008283530030
:100f300003045c0084845c0060055d000a00e0003e
:100f400025003a00800578000d40e100490031009d
:100f50008800780007007800110009004d88d8004b
:100f60000c01b8000d02b8008481410060824a0083
:100f70006003110083835b0004045c00e0845c0078
:100f80000900e00021003a004f01be000300e0002c
:100f90002b003200e3016000070673008c817100b2
:100fa00001003200640070004200de004e5edd0091
:100fb0000c007000c258de0001e0a00083010700b1
:100fc000cf017800818071004f06be004f05be0042
:100fd0004f04be00000006008c8343000d044c004b
:100fe000e0844c0060054d000000e9000a00e000cc
:100ff000d4ff32008c8343000d044c00e0844c008d
:1010000060054d000000e900ceff37000c034300ef
:101010008d834b0060044c00e0844c000000e9002c
:101020000900e000d8ff32000c0343008d834b0021
:1010300060044c00e0844c000000e900d2ff37005f
:101040004200de004e5edd000c007000c258de0083
:1010500001e0a000cf0178000300e000daff3200d9
:1010600060001000e0801800d7ff3700f0ff2f006d
:10107000aaff3700f0ff2f00b9ff37000404be00bd
:101080002f010700870678000004fd008104fd00a1
:101090002b010700078366000678a30003003200d7
:1010a0000960a7000800be002c0037000d78a300df
:1010b000020032000800be00280037000778a300b5
:1010c00026003a0001f0a10009f0a1000668a30083
:1010d00003003200f1ff2700f0ff2f00baff3700b6
:1010e0000d68a300030032000800be008c80700071
:1010f000b5ff37000768a30007003a000648a300c1
:1011000003003200f1ff2700f0ff2f00aeff370091
:101110000d48a300030032006000b8008c8070000e
:10112000a9ff37000748a3000400320001f8270098
:10113000000020008c807000a3ff370076010700bc
:101140000004fd008104fd00020578007201070023
:101150000802be008a01780059ff37000160a00034
:10116000120220006287880097ff37000100e0002c
:10117000120032000500e00010003200889fbe001f
:101180008a9fbe008c9fbe000006eb0001f8a30002
:101190000300320060001000e08018000cf0a00096
:1011a00005f8a3000300320060021200e0821a007a
:1011b0000cf0a2008005eb0041ff37006000b80092
:1011c000020005000383680007002800070363008e
:1011d000470ade000480a100c71ade000580a100d6
:1011e000f70f20000720e100420032000728e1004d
:1011f00040003200889fbe008a9fbe008c1f78008e
:10120000f107b200f307b2000400e000640032000e
:101210000170a0000500e000680032000370a0002b
:1012200085054200eb07b1000204b8000302b800d4
:101230008484440060854a00020ab8008484440023
:101240000a854a00030ab80004054500040033007b
:101250000804d0008984d2000a85d2008b05e900f9
:101260006158e1003d0035000210200009016100d5
:101270000308200089816100f7072000878364004c
:1012800008867300c84cde00c853dd0087847400f4
:101290004855de000300e0000600320082037600bd
:1012a000040032008904e80060054d000a88a300ac
:1012b0000c003a00f70f20000758e10044003d0001
:1012c0000a70a100c75ddd000a8575008a00730001
:1012d000090078004f0678004f05be004f04be009d
:1012e000000006000a05d1008984d3008b05e800c0
:1012f000f0ff3700881f7800060478009000070090
:10130000070278000001fd008101fd008c0007004c
:1013100087027800850372000778a3000500320079
:101320000001fd008101fd009f0007004f047800cf
:1013300000000600850372000748a3000300320086
:10134000f0ff2f00f1ff2700f8ff3700000020001a
:1013500001f8270088807000f4ff370088017800ca
:101360004848dd00808171004848de00c850dd003b
:1013700001007000c850de00060478000b01780000
:101380001600070088807000d2ff37000500e000db
:1013900005003200170020003a0007009dff3700cb
:1013a00081037000f9ff3a00860078004f0678004c
:1013b0004f05be004f04be0000000500830371000e
:1013c000f9ff3200270020002e00070094ff3700ad
:1013d00001f8270086807000f4ff37000100e0006c
:1013e00026003200610111007810e10023003c006a
:1013f0006022b8007010e10004003500800278001f
:10140000010078008000eb00700151000200e00054
:101410000900340070031100062add00822ade0074
:101420008603dd00878272000200de00860bdd008d
:10143000070070008208de0084817100f4ff27003d
:1014400004826200848171000400280084826200aa
:101450006102600005f0a600000006000482710031
:10146000070032000000e800e080480000000600ad
:101470000002be006000b800efff37006000b80057
:1014800000000600889fbe000004eb006138e10008
:1014900016003a000100e00008003a00c800de0033
:1014a0004800dd00880020000100e00003003a0051
:1014b000c800de004800dd00680444008184cf00dd
:1014c000e9845400060034008908dd00f08314002c
:1014d0008703de00878070000900dd0009044400f6
:1014e000610214004f04be00000006000300e0008b
:1014f00008003a00c811de004811dd008800200015
:101500000300e00003003a00c811de004811dd00ce
:10151000680444008384cf00e9845400060034004a
:101520008919dd00f08314008713de0087817100c4
:101530000911dd0009044400e1021400e9ff37004d
:101540002700200001f0a70017002000470bde0055
:10155000f60fb200040032000643e8000a00320031
:101560004702b3000000060001037800f607b2004e
:101570000603700002003a000703b30000000600f3
:101580008702b3000000060001037800f607b200ee
:1015900006037000020032000770a0000000060081
:1015a0000760a000000006000478a30004003200d9
:1015b0000578a300030032000168a30001003a008f
:1015c0000200be000160a000000006008101700062
:1015d000270032008002eb0001f8a3000300320074
:1015e00060001000e080180015002000f4072000c3
:1015f0000202420020003400f7032000870360004d
:1016000006042000000363000208200000016100be
:101610004700de00c909dd0000807100c708de0058
:101620000600e00008003200870371000600320067
:101630001000b0000180b0000188a3000200320059
:10164000c108de000402e800f107b200f30f200039
:101650000320e10003003d004722dd00810072000d
:101660002900370001f827000000eb0026003700b2
:101670006000b80000000600680212007f20e10050
:10168000020034006000b8001f0037006011b8008d
:101690007020e1000400350080017800010078002e
:1016a0008000eb00700252000400e00009003400ea
:1016b000f00312000719dd008419de000703dd00c6
:1016c000868171000400de00070bdd00060070005b
:1016d0008408de00f7ff270083836300870371001f
:1016e0000600280003036300070032000700e00043
:1016f00003003a00610160000281730002003200c1
:101700001000b0000180b0000500a6000000060037
:1017100001f0a000000006004f0ade004709de00cd
:10172000f107b200f20fb2000b003200f207b10075
:101730000170a000c708dd00c901de0083807000d1
:101740004700dd000400a600000006006000100055
:10175000e080180000000600810f700001003a00d0
:10176000000006008182cf000500e00010003e006e
:101770008082cf00ee8242007028e1000400390030
:1017800007003e00800078000000eb000e003700ec
:10179000708312008600de000500dd000a003700bd
:1017a000708352008600dd000000eb000600370069
:1017b000e28252008508dd00708312000603de001d
:1017c000868070000500dd007507b0000501ea00a5
:1017d0000400a6000000060060001000e080180071
:1017e00000000600889fbe008a9fbe00841f78000c
:1017f0007c0007004f00780011003300f0ff2f003d
:10180000838f6c0006003b00040565000a00a700fa
:101810000800370009f0a60010002000080037007b
:10182000820f5400838f5c000300390010002000f9
:1018300001003e000000200009f0a7000000ea00bf
:101840004f05be004f04be000000e000000006008f
:10185000881f7800030478000300e00007003d00c3
:1018600060001000e080180060011900e08119009c
:1018700002003b0001f02d000300370004000700c8
:1018800008f0a70001f0a0004f0478000000060057
:10189000889fbe008a9fbe00008270000402710013
:1018a00004827100260032000004be000200be0067
:1018b0006011b8006b092000950220000182cf0062
:1018c0000a0039000541b1000082cf00070039004d
:1018d0000541b1000982cf00040039000541b10083
:1018e0000882cf00010039000541b10005425200d5
:1018f000120032000a003b00828171006101640025
:101900008100d1000080d3008984d3000884d300f3
:101910008b05e8000442e800f7ff3a0007003700b3
:101920000804440089844c0000004800818048007d
:101930008b05e9000442e900f9ff3a0003000700c3
:101940004f05be004f04be000000060081002000cd
:10195000618055000b003d000b00200061fe2f0050
:101960000100e1001d00340082817100610164000a
:101970008904d1000884d3000000e800faff3a008f
:10198000710020006100640003007000020060002c
:101990000900320061044400e0844c000988a5007d
:1019a000050032008b05e8006808e10002003a00fb
:1019b0008904d1000884d300f20f20000258e1000e
:1019c00005003d00c75ddd00f907b20089807500a4
:1019d00008007800000006000bf827008b00780054
:1019e000000005000004be0014fc07000003be0058
:1019f0000405be000200be0010fc0700844f750005
:101a0000000006000400fa00889fbe008a9fbe0006
:101a10008c9fbe000205be000bf0a1000800200054
:101a200009f82700880f5500898f5d0005003e00ea
:101a30000003be0007f0a100880f5300898f5b00f0
:101a4000060036001bfc07004f06be004f05be0017
:101a50004f04be000080fa000000060008002000cd
:101a600009f82300880f5100898f590002003a00bd
:101a700097000700f4ff37004e1cde00090020002d
:101a800088bf9f0099bf9f000fbe97006204660049
:101a90008004eb004f0ade000500200004047400ff
:101aa00085847400e00f5300e08f5b0009003a006a
:101ab000e20f5400e08f5c007f003200e20f540020
:101ac000e08f5c00e0ff3900e30f5400e08f5c0022
:101ad0005f003200e00f5500e08f5d0008003a0023
:101ae000610064008000eb00e00f5000e08f5800c0
:101af00074003200b0fd200091fc2b00d2ff3700b3
:101b00000400200005f82700840f5500858f5d0034
:101b10000f003a008a0f53008b8f5b0040003a00a1
:101b2000e10f5400e08f5c0058003200e00f5400d9
:101b3000e08f5c0058003200e20f5400e08f5c0040
:101b40002b003200e30f5400e08f5c0031003200c4
:101b50000c0020000dd020000a0246008b824e00af
:101b6000840f5300858f5b00ddff3e0004002000e2
:101b700005f82700840f5300858f5b00d8ff3200e3
:101b8000620264008002eb00e00f5200e08f5a0016
:101b9000050032000606460087864e008c0f550071
:101ba0008d8f5d002d003e00a7fc0700810107001e
:101bb00047000700e10f5400e08f5c00290032006d
:101bc000e00f5400e08f5c009fff3200e20f5400f2
:101bd000e08f5c0025003200e2d22b00b33b2300f3
:101be000b4fb0700b2fd2000930424002500370059
:101bf0000200200003042400b0fd20009104240012
:101c000070fd07000200200003e823006dfd0700bf
:101c10008dff37000200200003042c00f6ff370080
:101c2000e10f5400e08f5c001e003200e00f540012
:101c3000e08f5c001e003200e20f5400e08f5c0079
:101c40001d003200e30f5400e08f5c00c0ff3a003b
:101c5000b0fd200091042c007bff37006000b8002d
:101c6000d4ff370001f0a20077ff3700e2d22b004b
:101c7000b33b23008ffb07000001be00b0fd200036
:101c80009104240082fb07006fff3700b0fd2000a5
:101c900091f42b006cff3700b0fd200091f423007d
:101ca00069ff3700000020000100280066ff3700b0
:101cb0006000b80064ff3700b0fd200091042400ec
:101cc00061ff3700b0fd200091fc23005eff37006c
:101cd000ea874700889fbe008a9fbe008c9fbe0097
:101ce0008e1f78000002be004f0dde000b002000aa
:101cf000000478008504780009f0a100f0ff2f00af
:101d0000f1c72400800f5400818f5c001000360062
:101d10000000200001f82700800f5400818f5c0034
:101d200025003e000200200003382000a0fd200016
:101d300091fc23005ffb07000002be00e00f55008e
:101d4000e08f5d001c00320005f0a2001a00370091
:101d5000f0ff2f00f1ed2300800f5400818f5c0015
:101d60001c003e000087eb00f0ff2f00f1972300de
:101d7000800f5400818f5c0033003e006000b8008b
:101d800003f8270085806100e00f5000e08f5800c5
:101d900009003a000401be000400be00f4b79f0031
:101da00085bf9f0007fd0700d0b79f00e1b79f00e8
:101db0007fb297008fba97000400be004f077800eb
:101dc0004f06be004f05be004f04be00af00b1007d
:101dd000000006000400be00f60007000006be007a
:101de000f0ff2f0071f92300800f5400818f5c00f9
:101df00055003e00f0ff2f00f1f22300800f540049
:101e0000818f5c0041003e000c01be000c00be0052
:101e100028fb07000200200003f823001cfb07003a
:101e20000004be0002002000030024000c00be00dd
:101e300020fb07000001be000800be0002fc0700f6
:101e40000002be000007eb000401be000400be005b
:101e5000f4b79f0085bf9f00dafc07000006be00b4
:101e60000001be00d7fc07000004be0052c22a00d9
:101e7000c3d72300d3fc0700d2502f0013e1230067
:101e80000cfb07000801be00cefc070092aa2a0046
:101e9000a3ea230007fb07000c01be00c9fc0700f2
:101ea0000006be0072242100a3dd2b000800be0046
:101eb000c4fc070082a92c00c3e42300f4fa070045
:101ec0000801be00bffc07000001be000c00be0000
:101ed000f8fa07007fb297008fba97000401be009e
:101ee000b8fc07000003be000e00e0007fb29700c0
:101ef0008fba970032003d000001be000400be0012
:101f0000e3fa07000002be00abff3700020020002a
:101f100003f823000c00be00ddfa07000004be0039
:101f20000200200003f823000c00be00e1fa0700c5
:101f30000001be000800be00c3fb07000002be0097
:101f40001e002000c0ff3700f0ff2f00b101240069
:101f5000800f5400818f5c0012003e0002002000c0
:101f600003fc23000c00be00c9fa07000004be00f9
:101f70000200200003fc23000c00be0091fc0700bf
:101f80000200200003f82300cafa07000001be0087
:101f90000800be00acfb07000002be002e002000bf
:101fa000a9ff37000c01be000000200001f82b0043
:101fb000a5fb07000002be003e002000a2ff370084
:101fc0004277dd00e8bc22000e044400e0bb2200a2
:101fd0000e0740001e0178009e0190000600be0022
:101fe000f4b79f0085bf9f00a9fa07007fb2970052
:101ff0008fba97000401be00a5fa07000001be00d9
:102000001800780098009000a1fa07004aff3700f6
:102010000400fa000001be0003f0a100a4fd2000ae
:1020200095f42300840f5100858f59000e003e0067
:10203000f4ff2f00f5972300840f5100858f59007e
:102040003a003e000200200003b8270099fa07007a
:10205000e0bf9f00f1bf9f000000200001f82300b7
:102060000080fa00000006004f0ade000500200094
:10207000163d2500b7072400860f5100878f5900b1
:102080001b003e0036be2c0067012400860f510065
:10209000878f59000a003600b2fd20009304240007
:1020a0000400e0000400320082fa07004402070046
:1020b00001f0a200eaff370075fa0700fbff3700c6
:1020c0000400e00005003200b2fd200093fc230074
:1020d00078fa0700c5020700e1ff37000001be00e3
:1020e000b0fd200091fc230069fa0700f9ff3700da
:1020f000561d2300270e2400860f5100878f59009c
:1021000014003e00f6dd2e00f70a2400860f510071
:10211000878f590009003600b2fd2000930c24007f
:102120000400e0000300320062fa07002402070006
:10213000cbff370056fa0700fcff37000400e00031
:102140000100320001f0a20042be2c00630924000d
:10215000e5ff3700f4ff2f00f5f72700840f51004b
:10216000858f5900040036000001be000200be0049
:1021700047fa0700baff3700c2ff2f000f014100e6
:1021800043020700630160006fb89700ffb8970033
:10219000e10f510005003200e20f5100c3ff320091
:1021a0000200e000cbff3a00e0ff370001f0a200a0
:1021b000c8ff37000101780002f0a100820078001a
:1021c00000000600889fbe008a9fbe008004780041
:1021d00001047800820578000305780001f0a10071
:1021e0000200200003f82700820f5000838f580060
:1021f00012003e000b0078008a00780001f0a10078
:10220000820f5000838f58000d003e0009027800b5
:10221000880278004fc1de00820178004fd0de00d6
:1022200080007800800f5100818f59000900320032
:10223000e00f5200e08f5a0001003d000a04be008a
:1022400009007800880078004f05be004f04be00ea
:10225000000006000b0178008a0178000900780070
:1022600088007800aef907000000e000f2ff3700b8
:10227000889fbe008a9fbe00000578008104780018
:10228000820578000304780001f0a100020020001c
:1022900003f82700820f5000838f580014003e007f
:1022a0000b0078008800780001f0a100820f500038
:1022b000838f58000c003e000a00780089007800e7
:1022c0004fcade00840278004fc1de008201780030
:1022d000820f5200838f5a000a003200e00f500034
:1022e000e08f580002003d008a057800090478005c
:1022f0000b007800880078004f05be004f04be0038
:10230000000006000b0178008801780084f90700be
:102310000000e000f3ff37000400fa00889fbe00d1
:102320008a9fbe000203410083834900e00f5300ef
:10233000e08f5b000f0032000202be0005f0a1003a
:102340000800200009f82700880f5200898f5a00e2
:1023500008003e00a0bf9f00b1bf9f00470dde00f8
:102360000b002000f40f20000a056200840f5500c6
:1023700007003a0093fb07000001be00b2fa070015
:102380004f05be004f04be000080fa0000000600aa
:102390000002400081824800840f5300858f5b005b
:1023a00006003900840f5300858f5b00f4ff3a006c
:1023b0006011b80083fb0700f1ff37000a00e0005e
:1023c0004c003a002fbb9700bfbb9700493add0095
:1023d000c732de00850272004932dd00e00f520094
:1023e000e08f5a003f003d00610215002fbb9700af
:1023f000bfbb9700040478000804e9000300330021
:102400000603430087834b00fbff37000602be0034
:10241000471bde00070020000683fb000600e000eb
:102420003d003a00491cdd00c714de008904740039
:102430004914dd00e00f5400e08f5c0032003d00e5
:10244000e10313000204be008703e9000300330028
:102450000804440089844c00fbff37000801520047
:1024600089815a00860f55002f003c00e00f510073
:10247000e08f590004003500e00f5100e08f590053
:10248000cbff32000202be004728de000100200020
:10249000e00f5000e08f58002e0032000a00e000ec
:1024a000300034000000200001f82f00040240003a
:1024b000858248006150b900c700dd00000020009f
:1024c00004007000858070006022b80002002800bf
:1024d000bfb9970083026100000072008180720022
:1024e000a7ff37000a05e9000402420085824a007e
:1024f000baff37002fba9700bfba9700f507b200ae
:102500000570a000c2ff37000603e900080444007c
:1025100089844c00c7ff37000204be00f907b200ef
:102520000970a000cdff3700e00f5100e08f590087
:1025300004003500e00f5100e08f59009cff32008d
:102540000202be000402420085824a000a05e90038
:10255000c2ff37000402420085824a000a05e900f2
:10256000c9ff3700610515000400be000a05e90037
:10257000030033008100d1000080d300fbff37004f
:10258000d1ff37000400fa00889fbe000004be009f
:102590008900780001f0a100a4fd200095f423003b
:1025a000840f5000858f58001e003e00f4ff2f005e
:1025b000f5972300840f5000858f580016003e00c9
:1025c0006000b80003f8270089806100e00f500028
:1025d000e08f58000b003a00020020000338200072
:1025e0000800be00f7fa07000001be00c2bf9f004e
:1025f000d3bf9f000800be004f04be000080fa0059
:10260000000006000200200003b827000800be00fa
:1026100028f90700f4ff37000800be007301070027
:10262000180037004f49de0003002000143d25004c
:10263000b5072400840f5000858f58001d003e0010
:1026400034be2c0065012400840f5000858f580093
:102650000e003e000800be000200e000b2fd2000b7
:1026600093fc23000500320012f90700d400070094
:102670000004be0009f0a200deff370004f90700e5
:10268000cf0007000004be00daff37000800be00dc
:102690000200e000b2fd2000930424000300320099
:1026a00004f9070001f0a200dcff3700f8f807008a
:1026b000fcff3700541d2300250e2400840f50001a
:1026c000858f580017003e00f4dd2e00f50a240027
:1026d000840f5000858f580009003e000800be009e
:1026e0000200e00042be2c00630924000200320018
:1026f000f0f80700e2ff3700e5f80700dbff3700de
:102700000800be000200e000b2fd2000930c24008f
:1027100002003200e7f80700c0ff3700dcf80700ce
:10272000beff3700f2ff2f00f3f72700820f5000a3
:10273000838f5800050036000801be000800be0067
:10274000d3f807000004be00aaff370082ff2f0065
:102750000f0141000800be00cd00070063016000ca
:102760004fb89700dfb89700e10f5100c4ff320067
:10277000e20f5100cbff32000200e000bbff3a0045
:10278000a6ff3700889fbe008a9fbe008c1f78007e
:102790000004be000003be006055b80004f8270026
:1027a000890562000400200005f82700840f550009
:1027b000858f5d000b003a000001be0081fa070022
:1027c0000001be000800be00baf807000004be0009
:1027d0000800be004f0678004f05be004f04be0043
:1027e00000000600e00f5000e08f580010003c0091
:1027f0000002be0005f0a100e00f5200e08f5a0079
:10280000f3ff3200e00f5000e08f580008003d0059
:1028100010022000f05f89000801be000800be0021
:102820009bf807000001be0087f90700e7ff3700ab
:1028300047bdde00cfbdde00e00f5500e08f5d003c
:102840000c003a000603430087834b0061004500fb
:10285000e0804d000001eb00870178000308b20022
:10286000e00f5100e08f59004d0032006005150067
:10287000e0851d00fa07b1000b80b1000600be0024
:10288000f107b2000170a000610165008001eb005a
:10289000e00f5100e08f59000200320000004000bc
:1028a000818048008b85d1000a85d300000040005c
:1028b000818048009c0120000200200003102000bd
:1028c0006044b8006033b8000602410087824900c6
:1028d000800f5200818f5a0006003c000403410023
:1028e0008583490004005000858058000804410099
:1028f0008984490000004000818048008301d100a4
:102900000281d3000c06e9000c00e000eeff3a0063
:10291000e00f5000e08f580016003200022624001d
:1029200023da20000000200001f8230058f80700f7
:102930000200200003f82300fbf707000000e0007e
:102940000c0035000226240023da200000002000bd
:1029500001f8230057f807000200200003f82300c5
:10296000f1f707000000e0000f00340062044400ab
:10297000e0844c008984d1000884d300000020004a
:1029800001f023000800400089804800c755dd00a1
:102990000a0020000a0440008b8448008cff3700a6
:1029a0000005be00a7ff370061004400e0804c0036
:1029b000000478000800a10081047800edff3700d2
:1029c0000400fa00889fbe008a9fbe008c9fbe0054
:1029d0000001be00fbf907000004be000001be00bc
:1029e000f8f907000005be000200200003f02b00ec
:1029f0000800be00f3f907000200200003f82300de
:102a00002cf807000006be00f2a92a00a3d223007a
:102a10000a00be00ebf907000001be000c00be007a
:102a200024f807000002be0072a12900c37c230025
:102a30000800be0084bf9f0095bf9f00e1f907001a
:102a4000f243200063ab230011f807000006be002c
:102a50000a01be000800be00daf907000001be004e
:102a60000c00be00d7f907000001be000fba9700a6
:102a70009fba97000400be000ef807004f06be0084
:102a80004f05be004f04be000080fa0000000600a3
:102a90000400fa00889fbe008a9fbe008c9fbe0083
:102aa00000067800810478008206780001f0a10019
:102ab000a2fd200093dc2400820f5000838f580079
:102ac00023003e0032982f0023f223008900780073
:102ad000bcf907000200200003b42400f5f707004a
:102ae0000200200003b42400e9f707000005be003f
:102af0008ff7070000047800a2fd200093fc23005c
:102b00000a00be00aff907000001be000c0078000b
:102b100089007800def707000002be00325a280064
:102b2000832823000a00be0084bf9f0095bf9f003a
:102b3000a4f907000001be000fba97009fba9700e2
:102b40000400be00d2f70700808ebe000b003700e5
:102b5000f2ff2f00f3f72700820f5000838f5800f9
:102b60000c003600000178008901780089007800a7
:102b7000c7f70700808ebe000004eb000800780055
:102b80004f06be004f05be004f04be000080fa0095
:102b900000000600890078004c0007000005be0018
:102ba00032982f0023f2230086f90700020020004c
:102bb00003f02300bff7070055000700000478006a
:102bc00023fb070032982f0023f223009ef8070012
:102bd0000001be000a00be00adf707006000b800ab
:102be000a0069800b1069800d7ff37000400fa004d
:102bf000889fbe008a9fbe008c9fbe000006be005c
:102c00000001be006ff907000004be000001be0015
:102c10000c00be006bf907000005be000801be00f5
:102c20000800be0067f907000a01be0065f9070049
:102c30000002be00c2c32600636323000800be007a
:102c400084bf9f0095bf9f005ef90700f27c2000c3
:102c5000039523008ef707000001be000fba97000e
:102c60009fba97000400be0056f907000002be009c
:102c70004288280083c023000800be0084bf9f0054
:102c800095bf9f004ff90700b2aa2a00a3e22300d4
:102c90007ff707000a01be004af907000c01be00d9
:102ca00084f707000001be000fba97009fba970093
:102cb0000400be007ff707004f06be004f05be00b0
:102cc0004f04be000080fa00000006000400fa0075
:102cd0006011b800e2bf9f00f3bf9f006fbb970079
:102ce000ffbb97000002be00f0ff2f00f1ff2f0096
:102cf000f2ff2f00f3ff27000000620081806200d6
:102d000002016300838163000080fa000000060076
:102d10000003be0049f707006011b8000470a70067
:102d200007f0a1006509b1001b0032001200350058
:102d3000860220000628e10008003500f3ff270086
:102d4000f2ff2f006110b9000700e00018003b00ff
:102d5000030028006000b8000200050000004000e9
:102d60008180480002014900838149008502e90011
:102d7000faff3a0008003700f88f420002003c00da
:102d80008000eb00000005008100d1000080d3002e
:102d90008502e800fcff3a000700e00004003b0069
:102da00060001000e080180060011900e081190047
:042db0000000060019
:020000040000fa
:102db400000000004040000000000000a0400000af
:102dc4006f120000033b0000cdcc00004c3f00001c
:102dd40000000000c03f0000295c00000f3e00001e
:082de40000000000803f000028
:020000040000fa
:102dec000a00fa0020079800310798004207980063
:102dfc000040eb00004f78009e407800e0cfb3001d
:102e0c0000c06800004f78002e0090004880de0063
:102e1c00004078009e40780000c06800004f7800a9
:102e2c002e009000004078009e40780000c06800a2
:102e3c00004f78003e0090004880de000040780093
:102e4c009e40780000c06800004f78003e00900063
:102e5c00004078009e40780000c06800004f780069
:102e6c000000eb00100798000c0037001e009000cb
:102e7c00e800470011004000104078009e407800a8
:102e8c0000c06800004f78000e80e8008e80e800db
:102e9c001108e80090007800110798009e0090003f
:102eac003e009000808f5000f0ff35001e407800ef
:102ebc000080fa00000006000e00fa00889fbe0099
:102ecc008a1f780040079800510798006207980005
:102edc008f0478000f007800000578006a00470026
:102eec0061002000108040008000e900210798005c
:102efc000000e8000000d100800040000f007800c6
:102f0c008187470060004000300798000000eb000c
:102f1c00100798009e0090000e80e8000108e80061
:102f2c0010017800120798003e009000010040004c
:102f3c00e1cfb300014878004e009000c880de005d
:102f4c001e0190000e80e8000208e8009001780055
:102f5c0013079800814078003e009000020040006a
:102f6c00014878009e0090000e80e8000108e800ff
:102f7c0010017800120798004e0090000041780074
:102f8c003e00900001004000024878005e00900076
:102f9c00c880de001e0190000e80e8000208e800e8
:102fac009001780013079800814078003e00900053
:102fbc0002004000014878009e0090000e80e8005e
:102fcc000108e80010017800120798005e009000dc
:102fdc00004178003e00900001004000024878005b
:102fec000000eb00000f78000d0037001e00780089
:102ffc00ec004700910040001e0190000e80e8009c
:10300c000208e800900178001307980091407800be
:10301c003e00900002004000014878001e0fe800be
:10302c005e0090009e007800808f5000efff35000e
:10303c001e0490000e80e8000808e800900078005c
:10304c00110798006e019000de0090004e00900079
:10305c0063ff0700804078003e00900008004000ad
:10306c00014878003e0090009e0090001217070067
:10307c008a07780000000000890778004f05780067
:10308c004f04be000080fa00000006000200fa00a7
:10309c00004f780030808000e40f50002400320094
:1030ac00e40f500007003c00e20f50001300320008
:1030bc00e20f500017003c000000e0000800320056
:1030cc0055003700e60f500033003200e60f500079
:1030dc001d003500e70f50003c0032004e00370059
:1030ec001e407800e24f40004d003a000c30ef00db
:1030fc002000200030808800490037001e80fb0033
:10310c004800dd00408088003000200030808800be
:10311c00460037001e80fb0041808000008070005c
:10312c004080880040002000308088003f0037003d
:10313c001e80fb004800dd005080880050002000fd
:10314c0030808800390037001e80fb0051808000e1
:10315c0000807000508088000c30ef0050808000a0
:10316c000000e00003003a0070002000308088006e
:10317c002e00370051808000f03f2000808f5000df
:10318c0003003c00600020003080880027003700de
:10319c000630ef0025003700618080000100e80058
:1031ac006080880020112100010040001e4878003a
:1031bc006180800050808000808f50001a003500a4
:1031cc00700020003080880017003700518080008c
:1031dc00408080002211210001ff07000ef0b70093
:1031ec001e417800f100210082487800e1002100a6
:1031fc00914078000fd0bf0080cf500004003a00ff
:10320c005180800040808000221121007500070051
:10321c000630ef00050037000630ef0003003700e2
:10322c00000000000100370000000000000000005a
:10323c000080fa00000006000200fa00004f78003f
:10324c0080808000e40f500024003200e40f500016
:10325c0007003c00e20f500013003200e20f500058
:10326c0017003c000000e000080032005500370059
:10327c00e60f500033003200e60f50001d00350001
:10328c00e70f50003c0032004e0037001e40780023
:10329c00e24f40004d003a001630ef0020002000b5
:1032ac0080808800490037001e80fb004800dd004c
:1032bc009080880030002000808088004600370015
:1032cc001e80fb0091808000008070009080880040
:1032dc0040002000808088003f0037001e80fb00eb
:1032ec004800dd00a080880050002000808088000d
:1032fc00390037001e80fb00a18080000080700028
:10330c00a08088001630ef00a08080000000e00054
:10331c0003003a0070002000808088002e003700e7
:10332c00a1808000f03f2000808f500003003c0003
:10333c006000200080808800270037001030ef00ec
:10334c0025003700b18080000100e800b0808800c3
:10335c0020512100010040001e487800b1808000ff
:10336c00a0808000808f50001a0035007000200073
:10337c008080880017003700a1808000908080003a
:10338c002251210096fe070018f0b7001e4178006c
:10339c009101210082487800810121009140780040
:1033ac0019d0bf0080cf500004003a00a1808000eb
:1033bc0090808000225121000a0007001030ef009d
:1033cc00050037001030ef0003003700000000004c
:1033dc000100370000000000000000000080fa002f
:1033ec00000006001200fa006007980071079800b0
:1033fc00020f9800ee00900020072000808f5000f4
:10340c0044003200ee00900020072000808f500016
:10341c0016003c00ee00900000052000808f50004c
:10342c00bd013200ee00900000052000808f50009e
:10343c0005003c00ee00900000022000808f500040
:10344c00e601320054023700ee0090001005200017
:10345c00808f50004d023200ee00900020052000bd
:10346c00808f50001b0032004b023700ee009000a2
:10347c0050072000808f5000a8003200ee00900012
:10348c0050072000808f500009003c00ee00900097
:10349c0030072000808f500056003200ee00900064
:1034ac0040072000808f50000f0032003a02370096
:1034bc00ee00900060072000808f50000a0132005f
:1034cc00ee00900000092000808f50008501320032
:1034dc00310237000e089000104078000080fb008d
:1034ec00991807002c0237008000eb000e089000a2
:1034fc002314070070578900815789004100200070
:10350c000e0890001e14070090578900a1578900df
:10351c00210237006000b800904c8900a14c890052
:10352c006000b800b04c8900c14c89006000b80044
:10353c00d04c8900e14c89006000b800304c890007
:10354c00414c89006000b800f05689000157890091
:10355c006000b80070578900815789008000eb002b
:10356c000e08900006140700208188003181880025
:10357c00410020000e0890000114070040818800d3
:10358c0051818800810020000e089000fc13070078
:10359c00608188007181880066818000778180005d
:1035ac00448180005581800022818000338180001d
:1035bc0000002000812c2400809fbe000000200011
:1035cc00812c2400809fbe0000002000812c240050
:1035dc00809fbe00e096220056090700ec8757003a
:1035ec00e20e2100c10020002007200032fe07005f
:1035fc00e90137006000b800104e8900214e8900a7
:10360c006000b800304e8900414e89006000b8005f
:10361c00504e8900614e89006000b800b04d8900a1
:10362c00c14d89006000b8001057890021578900ee
:10363c006000b80090578900a15789008000eb000a
:10364c000e089000ce13070020818800318188007d
:10365c00410020000e089000c9130700408188002b
:10366c0051818800810020000e089000c4130700cf
:10367c006081880071818800208180003181800008
:10368c000001be008000eb00a00f21001714070002
:10369c0040818000518180000001be00410020006b
:1036ac00a00f21001114070060818000718180003f
:1036bc000001be0081002000a00f21000b140700a8
:1036cc006681800077818000448180005581800074
:1036dc00228180003381800000002000812c240096
:1036ec00809fbe0000002000812c2400809fbe0023
:1036fc0000002000812c2400809fbe00e099220055
:10370c000c090700ec875700a20f2100c100200014
:10371c0030072000e8fd07009f0137006000b8006b
:10372c00104e8900214e89006000b800304e89008f
:10373c00414e89006000b800504e8900614e8900ee
:10374c006000b800b04d8900c14d89006000b80020
:10375c00904c8900a14c89006000b800b04c8900e5
:10376c00c14c89006000b800d04c8900e14c890044
:10377c006000b800304c8900414c89006000b800f2
:10378c0010578900215789006000b800f056890055
:10379c00015789006000b80090528900a15289003d
:1037ac006000b800b0528900c15289006000b800b6
:1037bc00d0528900e15289006000b8003052890073
:1037cc00415289006000b8001054890021548900ce
:1037dc006000b80030548900415489006000b80082
:1037ec0050548900615489006000b800b0538900be
:1037fc00c153890000002000812c2400809fbe0052
:10380c0000002000812c2400809fbe0000002000be
:10381c00812c2400809fbe006033b8006022b80069
:10382c006011b800e0992200c2080700ec8757002d
:10383c0000002000812c2400809fbe00000020008e
:10384c00812c2400809fbe0000002000812c2400cd
:10385c00809fbe006033b8006022b8006011b800d1
:10386c00e0962200b3080700ec8757000000200008
:10387c00812c2400809fbe0000002000812c24009d
:10388c00809fbe0000002000812c2400809fbe0081
:10389c006033b8006022b8006011b800e0a22200ca
:1038ac00a4080700ec87570000002000812c24009e
:1038bc00809fbe0000002000812c2400809fbe0051
:1038cc0000002000812c2400809fbe006033b800d3
:1038dc006022b8006011b800e0a52200950807002e
:1038ec00ec8757002c0137006000b800905289001b
:1038fc00a15289006000b800b0528900c152890001
:10390c006000b800d0528900e15289006000b80014
:10391c0030528900415289006000b800105489006f
:10392c00215489006000b80030548900415489004a
:10393c006000b80050548900615489006000b800e0
:10394c00b0538900c15389008000eb000e08900031
:10395c000b130700808188009181880041002000b2
:10396c000e08900006130700a0818800b181880022
:10397c00810020000e08900001130700c081880010
:10398c00d1818800c10020000e089000fc120700b5
:10399c00e0818800f1818800010120000e08900070
:1039ac00f712070000828800118288004101200074
:1039bc000e089000f21207002082880031828800e5
:1039cc0080818000918180000001be008000eb00ae
:1039dc00a00f210045130700a0818000b181800059
:1039ec000001be0041002000a00f21003f13070082
:1039fc00c0818000d18180000001be0081002000c8
:103a0c00a00f210039130700e0818000f1818000b4
:103a1c000001be00c1002000a00f210033130700dd
:103a2c0000828000118280000001be000101200094
:103a3c00a00f21002d13070020828000318280000e
:103a4c000001be0041012000a00f21002713070038
:103a5c00c6818000d7818000a4818000b581800060
:103a6c00828180009381800000002000812c240042
:103a7c00809fbe0000002000812c2400809fbe008f
:103a8c0000002000812c2400809fbe00e0a22200b8
:103a9c0028080700ec8757002682800037828000b8
:103aac000482800015828000e2818000f381800016
:103abc0000002000812c2400809fbe00000020000c
:103acc00812c2400809fbe0000002000812c24004b
:103adc00809fbe00e0a5220016080700ec87570067
:103aec00ad00370010002000c08288008000eb0081
:103afc000e089000a2120700305889004158890026
:103b0c00410020000e0890009d12070050588900bb
:103b1c0061588900a00037002070800000407800b8
:103b2c0061406000614068000080fb006100600043
:103b3c00217080000100a10001007000207088003d
:103b4c00210020000e0890008d120700008fbe008f
:103b5c00610020000e0890008912070020079800d1
:103b6c0031079800a10020000e0890008412070075
:103b7c0040079800510798008000eb000e08900059
:103b8c00931207004056890041568100f002200034
:103b9c00808f50007f003a00c0858000d185800066
:103bac0010808800218088001e0178009e01900002
:103bbc0052568900635689002e019000be01900078
:103bcc0072568900835689004e019000de019000e8
:103bdc0092568900a35689006e0037000e0890009b
:103bec00104078000080fb00e30f500018003200fa
:103bfc00e30f500005003c00e10f500008003200bc
:103c0c00e20f50000c00320023003700e40f50008c
:103c1c0015003200e50f5000190032001e0037006d
:103c2c00700047001000e800104078000080fb0096
:103c3c00d080880018003700700047001000e800a2
:103c4c00104078000080fb00e080880012003700f4
:103c5c00700047001000e800104078000080fb0066
:103c6c00f08088000c003700700047001000e8005e
:103c7c00104078000080fb000081880006003700af
:103c8c00700047001000e800104078000080fb0036
:103c9c001081880000000000d0808000e10f5000ef
:103cac0009003a00d080800000407800614060003c
:103cbc000080fb0061006000217080000100a10009
:103ccc000100700020708800d080800000407800d7
:103cdc00614060000080fb0061006000217080008a
:103cec000100a1000100700020708800e0808000bd
:103cfc0000407800614060000080fb004f00dd0058
:103d0c00a174800001f0a10001007000a074880073
:103d1c00f080800000407800614060000080fb0073
:103d2c00610060004a00dd002170800001a0a1004c
:103d3c000100700020708800008180000040780035
:103d4c00614060000080fb00610060004300dd000a
:103d5c00a17380000130a10001007000a0738800e5
:103d6c001081800000407800614060000080fb0002
:103d7c00610060004900dd00217080000190a1000d
:103d8c000100700020708800030037000000000064
:103d9c000100370000000000000000000080fa0065
:103dac00000006002200fa00889fbe0080498100b6
:103dbc0091498100dbf20700000f78006049810017
:103dcc0071498100d7f2070010079800a0498100c3
:103ddc00b1498100d3f2070020079800c049810047
:103dec00d1498100cff2070030079800e0498100eb
:103dfc00f1498100cbf20700400798000e80e800e3
:103e0c009e007800108040006100b90001f30700ab
:103e1c00020020000300240008f40700500798005b
:103e2c0061079800e6004700680047001101780020
:103e3c00100041006100b900f6f2070002002000fa
:103e4c0003002400fdf3070070079800010f980091
:103e5c005e009000ee0090000001be0012f307001f
:103e6c0000017800010078008204780000047800da
:103e7c002e0090006100b900e6f207000001be00c0
:103e8c0009007800880078000000be0006f30700e7
:103e9c0000017800010078008202780000027800ae
:103eac000200200003042400050078008400780040
:103ebc000000be00e1f30700100f9800210f9800de
:103ecc007e0090008e0890000001be00f6f2070004
:103edc00000178000100780082047800000478006a
:103eec002e0090006100b900caf207000001be006c
:103efc0009007800880078000000be00eaf2070094
:103f0c00000178000100780082027800000278003d
:103f1c0002002000030424000500780084007800cf
:103f2c000000be00c5f30700300f9800410f980049
:103f3c0000002000811b2400500f9800610f980096
:103f4c000000200001142400700f98000117980045
:103f5c0002002000832c24001e089000ae08900064
:103f6c00b6f30700000178000100780082047800a5
:103f7c00000478007e0990008e1190005e0890007d
:103f8c00ee089000bff207000001780001007800f5
:103f9c00820178000001780003007800820078002c
:103fac000001be0009007800880078000000be0007
:103fbc0081f407000001780001007800820278008b
:103fcc00000278007e0990008e11900005007800a8
:103fdc00840078000000be00b3f2070000017800f6
:103fec00010078008201780000017800030078005d
:103ffc00820078000000be004af20700408588006d
:10400c0002002000832c24003e089000ce08900073
:10401c008af3070000017800010078008204780020
:10402c00000478007e0990008e1190005e089000cc
:10403c00ee08900093f20700000178000100780070
:10404c00820178000001780003007800820078007b
:10405c000001be0009007800880078000000be0056
:10406c0055f4070000017800010078008202780006
:10407c00000278007e0990008e11900005007800f7
:10408c00840078000000be0087f207000001780071
:10409c0001007800820178000001780003007800ac
:1040ac00820078000000be001ef2070030858800f8
:1040bc0030858000f70f500002003400040ea80079
:1040cc0001003700040ea900000000004f04be00e0
:1040dc000080fa00000006000400fa00008fbe0009
:1040ec0002002000031f24001e0078009e00900098
:1040fc0008f207000000e00002003d001000200064
:10410c00010037000000eb000080fa000000060000
:10411c000400fa00008fbe0002002000031f2400e0
:10412c001e0078009e009000faf107000000e000ed
:10413c0002003d0010002000010037000000eb00e1
:10414c000080fa00000006000200fa000040eb00bc
:10415c00004f78006049810071498100deff070043
:10416c000000e000030032001e4078000044a00074
:10417c00004f78008049810091498100d6ff0700eb
:10418c000000e000030032001e4078000034a00064
:10419c00004f7800a0498100b1498100ceff070093
:1041ac000000e000030032001e4078000024a00054
:1041bc00004f7800c0498100d1498100c6ff07003b
:1041cc000000e000030032001e4078000014a00044
:1041dc00004f7800e0498100f1498100beff0700e3
:1041ec000000e000030032001e4078000004a00034
:1041fc00004f78001e4078000080fa000000060096
:10420c000600fa00671407000004e0000401320005
:10421c00681407005f140700200798002e00900018
:10422c00100078008000eb00fdf107003233230012
:10423c0033052400e0f3070000017800010078004a
:10424c00820278000002780002002000035824004b
:10425c0005007800840078000000be00f7f207002b
:10426c00008fbe006266260063ea23001e00780001
:10427c009e009000a7f107000000e00003003d0045
:10428c006066260061ea2300008fbe001e017800e4
:10429c009e0190000000200081202400e7f207001e
:1042ac00000178000100780082027800000278009a
:1042bc0002002000030a2400050078008400780026
:1042cc000000be00eff107008001780001017800ca
:1042dc0003007800820078000000be00604989006d
:1042ec0071498900640047001080e80010007800d4
:1042fc008000eb00caf107003233230033052400a1
:10430c00adf307000001780001007800820278000c
:10431c0000027800020020000358240005007800f9
:10432c00840078000000be00c4f20700008fbe00bd
:10433c006266260063ea23001e0078009e0090004f
:10434c0074f107000000e00003003d0060662600e9
:10435c0061ea2300008fbe001e0178009e019000d0
:10436c000000200081202400b4f207000001780036
:10437c000100780082027800000278000200200020
:10438c00030a240005007800840078000000be00b9
:10439c00bcf107008001780001017800030078006f
:1043ac00820078000000be00804989009149890094
:1043bc00640047004100200010804000100078008d
:1043cc008000eb0096f10700323323003305240004
:1043dc0079f3070000017800010078008202780070
:1043ec000002780002002000035824000500780029
:1043fc00840078000000be0090f20700008fbe0021
:10440c006266260063ea23001e0078009e0090007e
:10441c0040f107000000e00003003d00606626004c
:10442c0061ea2300008fbe001e0178009e019000ff
:10443c00000020008120240080f207000001780099
:10444c00010078008202780000027800020020004f
:10445c00030a240005007800840078000000be00e8
:10446c0088f10700800178000101780003007800d2
:10447c00820078000000be00a0498900b149890083
:10448c00640047006100200010804000100078009c
:10449c008000eb0062f10700323323003305240067
:1044ac0045f30700000178000100780082027800d3
:1044bc000002780002002000035824000500780058
:1044cc00840078000000be005cf20700008fbe0084
:1044dc006266260063ea23001e0078009e009000ae
:1044ec000cf107000000e00003003d0060662600b0
:1044fc0061ea2300008fbe001e0178009e0190002f
:10450c0000002000812024004cf2070000017800fc
:10451c00010078008202780000027800020020007e
:10452c00030a240005007800840078000000be0017
:10453c0054f1070080017800010178000300780035
:10454c00820078000000be00c0498900d149890072
:10455c0064004700810020001080400010007800ab
:10456c008000eb002ef107003233230033052400ca
:10457c0011f3070000017800010078008202780036
:10458c000002780002002000035824000500780087
:10459c00840078000000be0028f20700008fbe00e7
:1045ac006266260063ea23001e0078009e009000dd
:1045bc00d8f007000000e00003003d006066260014
:1045cc0061ea2300008fbe001e0178009e0190005e
:1045dc00000020008120240018f207000001780060
:1045ec0001007800820278000002780002002000ae
:1045fc00030a240005007800840078000000be0047
:10460c0020f1070080017800010178000300780098
:10461c00820078000000be00e0498900f149890061
:10462c00000000000080fa00000006000000fa0004
:10463c00c5fe07000080fb00808588008085800017
:10464c006100b900f201200003002000820f50002d
:10465c00838f58007e003e00000601001f003700cb
:10466c0021003700230037002500370027003700d2
:10467c0079003700280037002a0037002c0037005b
:10468c002e0037003000370032003700340037007e
:10469c0036003700380037003a0037003c0037004e
:1046ac003e0037004000370042003700440037001e
:1046bc0046003700480037004a0037004c003700ee
:1046cc004e003700500037005200370054003700be
:1046dc0056003700580037005a00370020c0b3008e
:1046ec00b6f0b7005d00370040c0b300b6f0b700bd
:1046fc005a00370040c0b300b6f0b700570037007f
:10470c0040c0b300b6f0b70054003700c0c0b300cf
:10471c00b6f0b7005100370040c0b300b6f0b70098
:10472c004e00370040c0b300b6f0b7004b00370066
:10473c00a0c0b300b6f0b70048003700a0c0b3006b
:10474c00b6f0b70045003700a0c0b300b6f0b70014
:10475c0042003700a0c0b300b6f0b7003f003700ee
:10476c00a0c0b300b6f0b7003c003700e0c0b30007
:10477c00b6f0b70039003700e0c0b300b6f0b700b0
:10478c0036003700c0c0b300b6f0b70033003700b6
:10479c00a0c0b300b6f0b7003000370020c0b300a3
:1047ac00b6f0b7002d00370040c0b300b6f0b7002c
:1047bc002a003700e0c0b300b6f0b700270037007e
:1047cc00e0c0b300b6f0b70024003700e0c0b3007f
:1047dc00b6f0b70021003700a0c0b300b6f0b700a8
:1047ec001e003700e0c0b300b6f0b7001b00370066
:1047fc00a0c0b300b6f0b70018003700a0c0b300db
:10480c00b6f0b70015003700a0c0b300b6f0b70083
:10481c0012003700a0c0b300b6f0b7000f0037008d
:10482c00a0c0b300b6f0b7000c003700e0c0b30076
:10483c00b6f0b70009003700e0c0b300b6f0b7001f
:10484c0006003700e0c0b300b6f0b7000300370035
:10485c00000000000100370000000000b6d0bf00cf
:10486c000080fb00e10a2100914078008180fb0070
:10487c008100e900810f500006003200b6d0bf0065
:10488c00aef0b700e10a210091407800209122009f
:10489c0001487800000000000080fa0000000600cb
:1048ac000000fa0000000000907380000000d100ae
:1048bc00614060000004e000fbff3200c212070000
:1048cc00c911070084aea80084cea800848ea8006d
:1048dc00754ea800856ea800900a0700970a07007d
:1048ec00480c07003b0c0700600c0700d50d0700b7
:1048fc00661207002c12070012120700000020009d
:10490c0001002400f04f89000150890000002000b4
:10491c00011a24001050890021508900a0702d002c
:10492c0031ba23003050890041508900000020002a
:10493c0001002400704e8900814e89000000200087
:10494c00011a2400904e8900a14e8900a0702d0000
:10495c0031ba2300b04e8900c14e890000002000fe
:10496c0001fc230050508900615089000000200098
:10497c0001fc230070508900815089000000200048
:10498c0001fc230090508900a150890000002000f8
:10499c0001fc2300d04e8900e14e8900000020006c
:1049ac0001fc2300f04e8900014f8900000020001b
:1049bc0001fc2300104f8900214f8900b04a81006f
:1049cc00c14a81006011b80037f0070080017800ff
:1049dc000101780003007800820078000000be001e
:1049ec00b04a8900c14a8900f04a8100014b81001c
:1049fc006011b8002cf007008001780001017800ec
:104a0c0003007800820078000000be00f04a8900a4
:104a1c00014b89006000b8007058890081588900ea
:104a2c006000b80090588900a15889006000b80057
:104a3c0090528900a15289006000b800b0528900e0
:104a4c00c15289006000b800d0528900e15289003f
:104a5c006000b80030528900415289006000b800f3
:104a6c0010548900215489006000b800305489002a
:104a7c00415489006000b800505489006154890089
:104a8c006000b800b0538900c15389006000b800c1
:104a9c0090558900a15589006000b800b055890077
:104aac00c15589006000b800d0558900e1558900d6
:104abc006000b80030558900415589000000200085
:104acc00812c2400809fbe0000002000812c24003b
:104adc00809fbe0000002000812c2400809fbe001f
:104aec0006002000070a24006022b800d2cc2c005b
:104afc00c3e42300e0a822000e040700ec87570053
:104b0c0090c22500f1e0230070588900815889007b
:104b1c000000200001f8230090588900a15889005a
:104b2c0090c22500f1e02300b04a8900c14a8900f7
:104b3c000000200001f82300f04a8900014b890095
:104b4c000000200001002400809fbe000000200017
:104b5c0001002400809fbe00000020000100240002
:104b6c00809fbe00d6cc2c00c7e423006022b80086
:104b7c000200200003122400e0a52200ed03070030
:104b8c00ec8757000000200001f82300809fbe0036
:104b9c000000200001f82300809fbe0000002000d0
:104bac0001f82300809fbe00d6cc2c00c7e4230064
:104bbc006022b8000200200003122400e0a22200b0
:104bcc00dc030700ec8757000000000090738000a6
:104bdc000000d10061406000e14f5000fbff32004b
:104bec0002003700a712070028f90700b5120700ca
:104bfc000004e000fbff3a000200370058120700e7
:104c0c008df90700661207000004e000fbff3a0074
:104c1c00604981007149810002002000031a2400c0
:104c2c003eef07000000e0000200340084cea80034
:104c3c000100370084cea900a0498100b149810050
:104c4c0002002000031a240034ef07000000e000eb
:104c5c0002003400848ea80001003700848ea90065
:104c6c00e0498100f149810002002000031a240070
:104c7c002aef07000000e00002003400754ea80087
:104c8c0001003700754ea900c0498100d14981004f
:104c9c0002002000031a240020ef07000000e000af
:104cac0002003400856ea80001003700856ea90053
:104cbc00804981009149810002002000031a2400e0
:104ccc0016ef07000000e0000200340084aea800dc
:104cdc00c6ff370084aea900c4ff37000c00fa00f1
:104cec00889fbe008a9fbe00145881002558810001
:104cfc00f0578100015881000001be000400be0085
:104d0c0060ef070000017800010078008201780054
:104d1c000001780003007800820078000000be00db
:104d2c00a0020700400798005107980044848000b7
:104d3c005584800040848000518480000001be00b6
:104d4c000400be001cf1070000017800010078008f
:104d5c008204780000047800000020000104240084
:104d6c000001be0050ef0700000178000100780040
:104d7c00820178000001780003007800820078003e
:104d8c000001be0009007800880078000000be0019
:104d9c002af00700008fbe00408480005184800000
:104dac006011b800dbee07000000e00004003d00dd
:104dbc001e0078009e00900001f0a200008fbe0043
:104dcc004484800055848000f026210031b02300fb
:104ddc000001be000400be00f7f007002007980099
:104dec00310798006011b8001e0078009e009000fa
:104dfc00caee07000000e000060035006011b800a4
:104e0c004e009000de009000c4ee07000000e000b1
:104e1c000c003d006011b8001e0078009e00900050
:104e2c00bcee07000000e0005a003c006011b80026
:104e3c004e009000de009000b6ee07000000e0008f
:104e4c0054003c004e009000de0090000002be00ba
:104e5c0005f0a1001e0078009e00900001f0a1005a
:104e6c000001be000400be00acee07000000e00034
:104e7c00480035006011b8004e009000de00900034
:104e8c00a6ee07000000e00020003400080020001f
:104e9c00090a24000400200005042400f026210047
:104eac0031b023000001be000400be00c2f00700b8
:104ebc00000178000100780082027800000278007e
:104ecc0040848000518480000001be000500780001
:104edc00840078000000be00f3ee070000017800ab
:104eec000100780082027800000278000801be0000
:104efc0005007800840078000000be00d9f407009b
:104f0c00408488005184880069003700000020002c
:104f1c00010a24000004be0009f0a2004a848000ab
:104f2c005b8480000400200005042400f02621008e
:104f3c0031b023000001be000400be009ef007004b
:104f4c0000017800010078008201780000017800ef
:104f5c0003007800820078000001be000a00be0049
:104f6c00c8ee07000001780001007800820278008a
:104f7c00000278000801be0005007800840078006b
:104f8c000000be008cf40700408488005184880027
:104f9c004700370040848000518480006011b800c5
:104fac005eee07000000e0001e0034004884800024
:104fbc00598480000400200005042400f026210000
:104fcc0031b023000001be000400be007af00700df
:104fdc00000178000100780082017800000178005f
:104fec0003007800820078000001be000800be00bb
:104ffc00a4ee07000001780001007800820278001e
:10500c00000278006011b800050078008400780078
:10501c000000be0068f407004084880051848800ba
:10502c002300370040848000518480006011b80058
:10503c0038ee07000000e0001d003d0004002000d9
:10504c0005042400f026210031b023000001be002d
:10505c000400be0058f00700000178000100780041
:10506c008202780000027800408480005184800025
:10507c000001be0005007800840078000000be002e
:10508c0089ee0700000178000100780082027800a8
:10509c00000278006011b8000500780084007800e8
:1050ac000000be006ff40700408488005184880023
:1050bc004e009000de0090000002be0005f0a10042
:1050cc002e009000be00900001f0a1000001be0077
:1050dc000400be000fee07000000e00004003d00dd
:1050ec004e019000de0190002207980033079800d3
:1050fc00f0578100015881002e019000be019000f4
:10510c0069ee070080017800010178000300780047
:10511c00820078000000be00f05789000158890019
:10512c00f0578100015881009e010700f05789005b
:10513c00015889004084800051848000d057890038
:10514c00e15789004e009000de00900001f0a100b4
:10515c00a2702d0033c22300eeed07000000e0002a
:10516c000100350014003700408480005184800019
:10517c0001f0a100f226210033a82300e5ed070081
:10518c000000e000010035000b00370010588100d2
:10519c0021588100f0578900015889006000b8003f
:1051ac0040848800518488004084800051848000b1
:1051bc00d0578900e1578900000000004f05be0060
:1051cc004f04be000080fa00000006001800fa0030
:1051dc00889fbe003458810045588100705881006a
:1051ec00815881000001be000400be0025ee0700be
:1051fc00000f9800110f98005458810065588100d9
:10520c0090588100a15881000001be000400be002e
:10521c001cee0700200f9800310f98006000b800ba
:10522c00008fbe006000b80020079800310798007e
:10523c00e4838000f5838000f026210031b0230048
:10524c000001be000400be00dbef07004007980021
:10525c0051079800e4838000f5838000e083800090
:10526c00f18380000001be000400be00d2ef0700f5
:10527c0000017800010078008204780000047800b6
:10528c00d0cc2c00c1f423000001be0006ee0700b8
:10529c00000178000100780082017800000178009c
:1052ac0003007800820078000001be00090078003d
:1052bc00880078000000be00e0ee07006007980050
:1052cc0071079800e0838000f18380006011b800c2
:1052dc0090ed07000000e00005003d006e0090001e
:1052ec00fe00900001f0a200600798007107980082
:1052fc000e0990009e0990000e0890009e089000e8
:10530c00adef0700000178000100780082047800fe
:10531c00000478002e099000be0990002e08900021
:10532c00be089000a4ef070000017800010078008f
:10533c008201780000017800030078008200780078
:10534c000001be0009007800880078000000be0053
:10535c00d5ed07000001780001007800820178008b
:10536c000001780003007800820078000000be0085
:10537c0001f5070020848800318488002084800097
:10538c0031848000d27b23006358230061ed070039
:10539c000000e00009003d006000b800008fbe0076
:1053ac006000b80020079800310798006000b80032
:1053bc0040079800510798000f00370020848000a8
:1053cc00318480000001be000e0890009e08900001
:1053dc009aee0700008fbe0020848000318480008c
:1053ec000001be002e089000be08900093ee07004e
:1053fc0020079800310798006011b8006e009000eb
:10540c00fe00900045ed07000000e00006003500ae
:10541c0020848000318480006011b8003fed0700cb
:10542c000000e0000c003d006011b8006e00900020
:10543c00fe00900037ed07000000e00032003c0059
:10544c0020848000318480006011b80031ed0700a9
:10545c000000e0002c003c0020848000318480009f
:10546c000002be0005f0a1006e009000fe0090004e
:10547c0001f0a1000001be000400be0027ed0700f2
:10548c000000e000200035000800200009fc23008b
:10549c00d4cc2c00c5f42300f026210031b023001d
:1054ac000001be000400be0043ef070000017800bd
:1054bc00010078008202780000027800e08380000e
:1054cc00f18380000001be000500780084007800a4
:1054dc000000be0074ed07000001780001007800a8
:1054ec0082027800000278000801be0005007800f6
:1054fc00840078000000be00000d0700e0838800e7
:10550c00f18388001d003700e8838000f983800058
:10551c00d4cc2c00c5f42300f026210031b023009c
:10552c000001be000400be0023ef0700000178005c
:10553c0001007800820178000001780003007800f7
:10554c00820078000001be000800be004ded07008f
:10555c0000017800010078008202780000027800d7
:10556c006011b80005007800840078000000be00cf
:10557c00cb0c0700e0838800f18388002084800036
:10558c00318480000002be0005f0a1004e009000a6
:10559c00de00900001f0a1000001be000400be007e
:1055ac00dcec07000000e00004003d0022848000d9
:1055bc003384800042079800530798007858810084
:1055cc00895881004e019000de0190001e00780089
:1055dc009e009000f8ee07000001780001007800b2
:1055ec0082017800000178000300780082007800c6
:1055fc000001be000800be002bed07008001780002
:10560c000101780003007800820078000000be00e1
:10561c00705889008158890098588100a9588100d8
:10562c004e019000de0190002e009000be00900014
:10563c00e1ee07000001780001007800820178009b
:10564c000001780003007800820078000001be00a1
:10565c000800be0014ed07008001780001017800fd
:10566c0003007800820078000000be00905889008a
:10567c00a1588900e0838000f18380006011b8009c
:10568c00a4ec07000000e00011003a002084800028
:10569c0031848000a2702d0033c223009dec0700e2
:1056ac000000e0000a003d00209122002191220020
:1056bc0021ba9100b1ba910041bb9100d1bb9100cc
:1056cc0064b8990075b8990006009a0017009a0002
:1056dc00e0838000f1838000b0578900c1578900b6
:1056ec00000000004f04be000080fa00000006001d
