:020000040000fa
:080000000002040000000000f2
:020000040000fa
:0400080034040000bc
:020000040000fa
:04000c0034040000b8
:020000040000fa
:0400100034040000b4
:020000040000fa
:0400140034040000b0
:020000040000fa
:0400180034040000ac
:020000040000fa
:04001c0034040000a8
:020000040000fa
:0400200034040000a4
:020000040000fa
:0400240034040000a0
:020000040000fa
:04002800340400009c
:020000040000fa
:04002c003404000098
:020000040000fa
:040030003404000094
:020000040000fa
:04003400fa020000cc
:020000040000fa
:04003800340400008c
:020000040000fa
:04003c003404000088
:020000040000fa
:040040003404000084
:020000040000fa
:040044003404000080
:020000040000fa
:04004800360300007b
:020000040000fa
:04004c003404000078
:020000040000fa
:040050003404000074
:020000040000fa
:04005400ec030000b9
:020000040000fa
:04005800c0030000e1
:020000040000fa
:04005c009a03000003
:020000040000fa
:040060003404000064
:020000040000fa
:040064003404000060
:020000040000fa
:04006800340400005c
:020000040000fa
:04006c003404000058
:020000040000fa
:040070003404000054
:020000040000fa
:040074003404000050
:020000040000fa
:04007800340400004c
:020000040000fa
:04007c003404000048
:020000040000fa
:040080003404000044
:020000040000fa
:040084003404000040
:020000040000fa
:04008800340400003c
:020000040000fa
:04008c003404000038
:020000040000fa
:040090003404000034
:020000040000fa
:040094004003000025
:020000040000fa
:04009800340400002c
:020000040000fa
:04009c003404000028
:020000040000fa
:0400a0003404000024
:020000040000fa
:0400a4003404000020
:020000040000fa
:0400a800340400001c
:020000040000fa
:0400ac003404000018
:020000040000fa
:0400b0003404000014
:020000040000fa
:0400b4003404000010
:020000040000fa
:0400b800340400000c
:020000040000fa
:0400bc003404000008
:020000040000fa
:0400c0003404000004
:020000040000fa
:0400c4003404000000
:020000040000fa
:0400c80034040000fc
:020000040000fa
:0400cc0034040000f8
:020000040000fa
:0400d00034040000f4
:020000040000fa
:0400d40034040000f0
:020000040000fa
:0400d80034040000ec
:020000040000fa
:0400dc0034040000e8
:020000040000fa
:0400e00034040000e4
:020000040000fa
:0400e40034040000e0
:020000040000fa
:0400e80034040000dc
:020000040000fa
:0400ec0034040000d8
:020000040000fa
:0400f00034040000d4
:020000040000fa
:0400f40034040000d0
:020000040000fa
:0400f80034040000cc
:020000040000fa
:0400fc0034040000c8
:020000040000fa
:0401000034040000c3
:020000040000fa
:0401040034040000bf
:020000040000fa
:0401080034040000bb
:020000040000fa
:04010c0034040000b7
:020000040000fa
:0401100034040000b3
:020000040000fa
:0401140034040000af
:020000040000fa
:0401180034040000ab
:020000040000fa
:04011c0034040000a7
:020000040000fa
:0401200034040000a3
:020000040000fa
:04012400340400009f
:020000040000fa
:04012800340400009b
:020000040000fa
:04012c003404000097
:020000040000fa
:040130003404000093
:020000040000fa
:04013400340400008f
:020000040000fa
:04013800340400008b
:020000040000fa
:04013c003404000087
:020000040000fa
:040140003404000083
:020000040000fa
:04014400340400007f
:020000040000fa
:04014800340400007b
:020000040000fa
:04014c003404000077
:020000040000fa
:040150003404000073
:020000040000fa
:04015400340400006f
:020000040000fa
:04015800340400006b
:020000040000fa
:04015c003404000067
:020000040000fa
:040160003404000063
:020000040000fa
:04016400340400005f
:020000040000fa
:04016800340400005b
:020000040000fa
:04016c003404000057
:020000040000fa
:040170003404000053
:020000040000fa
:04017400340400004f
:020000040000fa
:04017800340400004b
:020000040000fa
:04017c003404000047
:020000040000fa
:040180003404000043
:020000040000fa
:04018400340400003f
:020000040000fa
:04018800340400003b
:020000040000fa
:04018c003404000037
:020000040000fa
:040190003404000033
:020000040000fa
:04019400340400002f
:020000040000fa
:04019800340400002b
:020000040000fa
:04019c003404000027
:020000040000fa
:0401a0003404000023
:020000040000fa
:0401a400340400001f
:020000040000fa
:0401a800340400001b
:020000040000fa
:0401ac003404000017
:020000040000fa
:0401b0003404000013
:020000040000fa
:0401b400340400000f
:020000040000fa
:0401b800340400000b
:020000040000fa
:0401bc003404000007
:020000040000fa
:0401c0003404000003
:020000040000fa
:0401c40034040000ff
:020000040000fa
:0401c80034040000fb
:020000040000fa
:0401cc0034040000f7
:020000040000fa
:0401d00034040000f3
:020000040000fa
:0401d40034040000ef
:020000040000fa
:0401d80034040000eb
:020000040000fa
:0401dc0034040000e7
:020000040000fa
:0401e00034040000e3
:020000040000fa
:0401e40034040000df
:020000040000fa
:0401e80034040000db
:020000040000fa
:0401ec0034040000d7
:020000040000fa
:0401f00034040000d3
:020000040000fa
:0401f40034040000cf
:020000040000fa
:0401f80034040000cb
:020000040000fa
:0401fc0034040000c7
:020000040000fa
:0402000034040000c2
:020000040000fa
:0402040034040000be
:020000040000fa
:0402080034040000ba
:020000040000fa
:04020c0034040000b6
:020000040000fa
:0402100034040000b2
:020000040000fa
:0402140034040000ae
:020000040000fa
:0402180034040000aa
:020000040000fa
:04021c0034040000a6
:020000040000fa
:0402200034040000a2
:020000040000fa
:04022400340400009e
:020000040000fa
:04022800340400009a
:020000040000fa
:04022c003404000096
:020000040000fa
:040230003404000092
:020000040000fa
:04023400340400008e
:020000040000fa
:04023800340400008a
:020000040000fa
:04023c003404000086
:020000040000fa
:040240003404000082
:020000040000fa
:04024400340400007e
:020000040000fa
:04024800340400007a
:020000040000fa
:04024c003404000076
:020000040000fa
:040250003404000072
:020000040000fa
:04025400340400006e
:020000040000fa
:04025800340400006a
:020000040000fa
:04025c003404000066
:020000040000fa
:040260003404000062
:020000040000fa
:04026400340400005e
:020000040000fa
:10040000afb721000eff27000e018800000000009a
:10041000000020000000e000020032000001200087
:100420002002880014000700110107000000e0000e
:1004300003003a00a0e4230001002000020037007e
:100440000000200001002000810f70000100320038
:100450000f000700000020000000e0000200320052
:100460000000020000000000701d020000000000fb
:100470000040da000000fe00c00120000000e000a3
:1004800002003200002020009001880000000600d9
:10049000a1028800800478000000eb001f003700f4
:1004a000e284440054a0b4009905ba00e2844400f8
:1004b00054a0b4009906ba00e284440054a0b400e9
:1004c0000006eb00476fde00fd07b200ae018800ba
:1004d000636ce10003003a000ad801000000eb0061
:1004e0000e003700606ce10008003a00004deb00a0
:1004f0000a05e800020039003420ec000af0a000f0
:100500008b05e900f9ff3e00040037006168e10057
:10051000010032000086eb000b00070019c7ba008b
:100520000e04e0001905ba0003003a000a00e000da
:10053000dbff3a0000000600fe07b200ae028800b2
:100540008a047800f5ff37000cd0a300e20f4d00bd
:100550001c003b0089027800354dba000a05e8000e
:10056000020039003420ec000af0a0008b05e900fd
:100570000f003200254dba000a05e80002003900dc
:100580003420ec000af0a0008b05e90008003200de
:100590000c00e0000600320015cdba000a05e800a4
:1005a000020039003420ec000af0a0008b05e900bd
:1005b0008984e80054a0b4000b00e000e2ff3a0098
:1005c000000006009902ba00055d78008b05e9007d
:1005d000f7ff3200c82ade00055d78008b05e900d0
:1005e000f3ff32000c00e000f1ff320019ddba0029
:1005f000eeff37003600f800809fbe00829fbe00ed
:10060000849fbe00869fbe000000fa000068a9001b
:10061000aa1e0700ec1a070051190700661607000a
:10062000d08480000000e800d0848800fc1007001f
:1006300090110700d0848000f90f500003003400af
:10064000f71607008b1a07009a30ef000000000031
:100650000080fa004f03be004f02be004f01be00f3
:100660004f00be003600f900004006000000fa000e
:100670000108a900000000000080fa000040060008
:100680003600f800809fbe00829fbe00849fbe009f
:10069000869fbe000000fa000368a900a2848000c3
:1006a000b384800010002000010020000200400000
:1006b00083804800a0848800b1848800e1848000a1
:1006c0000100e800e0848800703e2000808f500028
:1006d000030034009c30ef0010c0b3009ef0b70060
:1006e00010c780000000e00001003200a90a0700e6
:1006f000530b0700a2848000b38480001000200008
:10070000010020000200400083804800a08488008f
:10071000b1848800000000000080fa004f03be0092
:100720004f02be004f01be004f00be003600f90070
:1007300000400600801f78000000fa0001a8a90010
:100740000018800030db88001018800040db880033
:100750002018800050db88003018800060db8800a3
:100760004018800070db880010c0b300b9f0b700fb
:10077000000000000080fa004f00780000400600f2
:100780003600f800809fbe00829fbe00849fbe009e
:10079000869fbe000000fa000188a90051858000f4
:1007a00040858000808f500002003200e11d07006c
:1007b00001003700ac70ef00000000000080fa007c
:1007c0004f03be004f02be004f01be004f00be00ef
:1007d0003600f900004006003600f800809fbe0099
:1007e000829fbe00849fbe00869fbe000000fa006c
:1007f0000168a900101180004200de006140600025
:10080000e14f500001003a002242a900101180007f
:100810000000d10061406000e14f500005003a0047
:100820002222a90003003700301180000040780028
:10083000cd1e07001011800000407800614060006c
:10084000e14f5000f8ff3200000000000080fa0085
:100850004f03be004f02be004f01be004f00be005e
:100860003600f900004006000040da000000fe00fb
:100870000000050014002000ad033700f4ff2f0036
:10088000ab0337000001be003f0007000470a70063
:1008900003f0a1006509b100160032000d0035001b
:1008a0006828e10006003500f0ff2f00f1ff270067
:1008b0000300e00013003b000100280000000500d9
:1008c00000004000818048008502e900fcff3a00fa
:1008d00008003700f88f420002003c008000eb0067
:1008e000000005008100d1000080d3008502e800ef
:1008f000fcff3a000300e00002003b006000100033
:10090000e0801800000006000001be001e00070085
:100910000470a70003f0a10003f8a30013003a003d
:100920006509b10010003200090035006928e100b6
:100930000200350001002800000005000000400012
:10094000818048008502e900fcff3a0000000600b3
:10095000f88f4200050035008100d1000080d300ef
:100960008502e800fcff3a00000006008000eb0072
:10097000000005004f89de00820178008703370000
:100980006011b80095033700c70ade00f107b20016
:10099000f50fb20008003200e1cf42000200320041
:1009a0000170a00024000500810f700001003200da
:1009b0000408050044000500810f700002003a00a1
:1009c000140005008502e9000000400081c04800d5
:1009d000fcff3b000170a0002400050007f8270081
:1009e000078361000638e10004003a00f7072000a1
:1009f000878361008703710001003a0003f0a200c1
:100a0000889fbe008a9fbe008c9fbe00470ade0002
:100a10000480a100c71ade000580a100070028009d
:100a20000785600087856100f70f20000720e1003f
:100a30009e0032000728e1009c0032000106780089
:100a40000400e000b4003200f70720008780600057
:100a50000170a0000500e000c0003200f707200090
:100a6000878161000370a000050652000f003a0064
:100a70000b50e1000b0032000308e10002003a00d5
:100a80000200e1007e00320002045000838458001e
:100a9000040031000001fd008101fd008402fd0021
:100aa0008a05fd006044b800210037000520e10000
:100ab00005003d000001fd008101fd008402fd00f4
:100ac0008a05fd00050652007a60e1000500350048
:100ad0000170a1004722dd00848070008a807000d0
:100ae000630037006044b800ef02660007ff2f0084
:100af000070666000500e00006003400f0831200df
:100b00008714dd000511de00071bdd000601710002
:100b10008519de007060e1000500350009047800e9
:100b200082047800030178008001eb007006560013
:100b30000b50e10003003a000200400083804800af
:100b40000400370060041400e0841c000200580018
:100b5000838058000188a300060032008100d10084
:100b60000080d3008984d3000884d3000402e80005
:100b7000270037000178a30025003a000100e000bb
:100b8000030032008186cf00698656000a003700d4
:100b90008c0020000000e00004003a00090078000a
:100ba000880478000004eb00700252008086cf00b9
:100bb0000d0646000c06e9007060e10006003500f5
:100bc0008000780009007800880478000004eb00b9
:100bd00070065600700252000c00e0000c00340059
:100be0008c08dd00f00316000703de00868070002d
:100bf0000c00dd00074bde00060070008c4cdd00b1
:100c00000743de00868474000c44dd000c025200b1
:100c10006120e1002000350061016000070028002c
:100c200087816400f7ff270087836400070374004f
:100c30000300e0000600320082037300040032006b
:100c40000000e800e08048000188a3000e003a00a0
:100c5000f70f20000720e1004a003d000170a100cd
:100c60004722dd00810072008a8070000000be0013
:100c70004f06be004f05be004f04be000000060038
:100c80006000b800faff37008100d1000080d30077
:100c90000402e800eeff37000401780089017400c7
:100ca000a10107008a807000f1ff3700f7010700fb
:100cb000070278000001fd008101fd00f30107003b
:100cc00087027800850372000778a30004003200d1
:100cd0000001fd008101fd0006020700e4ff37006e
:100ce000850362000768a300080032000b50e10092
:100cf00003003200f0ff2f00f1ff2700dcff370078
:100d00000001fd008101fd00d9ff37000468a30048
:100d1000d7ff3200faff3700f8ff27008883600012
:100d20000b003a000000e00009003a008303640071
:100d300082837300020032000200be00ccff370045
:100d40000b50e100ceff3a000200be00c8ff3700a2
:100d500014002000810064003eff3700f8ff2700e8
:100d60008883610004003a000200e00002003a00bb
:100d70008c007800beff370015002000830164005e
:100d800039ff370001f827000000200081007500be
:100d9000b7ff3700889fbe008a9fbe008c9fbe00b1
:100da0001b0020000202be00058668000600280025
:100db000060666004709de00f20fb200820032002c
:100dc0000243e80080003200c729de00f30fb200c2
:100dd0007d0032000343e8007b003200f107b200df
:100de0000170a000f507b2000570a000c708dd0083
:100df0004903de00868070004700dd00c72add0061
:100e00004923de00868272004722dd00030551007f
:100e100004035000858358000300310000004000a7
:100e2000818048000a05e9008c1f78008a9fbe0077
:100e300004005000858058000402420085824a0068
:100e400000004000818048000005eb000004be0067
:100e50006033b8000406be000d48e10056003100c2
:100e6000110009004dccd8000c01b8000d02b800eb
:100e70008481410060824a008283530003045c0045
:100e800084845c0060055d000a00e00025003a00f3
:100e9000800578000d40e1004900310088007800ad
:100ea00007007800110009004d88d8000c01b80037
:100eb0000d02b8008481410060824a006003110085
:100ec00083835b0004045c00e0845c000900e000b4
:100ed00021003a004f01be000300e0002b00320069
:100ee000e3016000070673008c817100010032008d
:100ef000640070004200de004e5edd000c007000f9
:100f0000c258de0001e0a00083010700cf01780095
:100f1000818071004f06be004f05be004f04be0029
:100f2000000006008c8343000d044c00e0844c005c
:100f300060054d000000e9000a00e000d4ff320027
:100f40008c8343000d044c00e0844c0060054d0090
:100f50000000e900ceff37000c0343008d834b00f7
:100f600060044c00e0844c000000e9000900e0004f
:100f7000d8ff32000c0343008d834b0060044c000b
:100f8000e0844c000000e900d2ff37004200de00a0
:100f90004e5edd000c007000c258de0001e0a000d3
:100fa000cf0178000300e000daff3200600010009b
:100fb000e0801800d7ff3700f0ff2f00aaff3700ae
:100fc000f0ff2f00b9ff37000404be002f01070017
:100fd000870678000004fd008104fd002b01070056
:100fe000078366000678a300030032000960a700ab
:100ff0000800be002c0037000d78a300020032006c
:101000000800be00280037000778a30026003a0039
:1010100001f0a10009f0a1000668a300030032005e
:10102000f1ff2700f0ff2f00baff37000d68a30083
:10103000030032000800be008c807000b5ff37004e
:101040000768a30007003a000648a3000300320027
:10105000f1ff2700f0ff2f00aeff37000d48a3007f
:10106000030032006000b8008c807000a9ff3700d8
:101070000748a3000400320001f827000000200008
:101080008c807000a3ff3700760107000004fd008c
:101090008104fd0002057800720107000802be000d
:1010a0008a01780059ff37000160a0001202200079
:1010b000d285880097ff37000100e000120032005f
:1010c0000500e00010003200889fbe008a9fbe002d
:1010d0008c9fbe000006eb0001f8a3000300320065
:1010e00060001000e08018000cf0a00005f8a300dc
:1010f0000300320060021200e0821a000cf0a2002d
:101100008005eb0041ff37006000b80002000500d9
:10111000038368000700280007036300470ade0016
:101120000480a100c71ade000580a100f70f20008f
:101130000720e100420032000728e10040003200b1
:10114000889fbe008a9fbe008c1f7800f107b20006
:10115000f307b2000400e000640032000170a00058
:101160000500e000680032000370a0008505420021
:10117000eb07b1000204b8000302b8008484440005
:1011800060854a00020ab800848444000a854a0047
:10119000030ab80004054500040033000804d00029
:1011a0008984d2000a85d2008b05e9006158e100ec
:1011b0003d003500021020000901610003082000f5
:1011c00089816100f7072000878364000886730027
:1011d000c84cde00c853dd00878474004855de002b
:1011e0000300e000060032008203760004003200b3
:1011f0008904e80060054d000a88a3000c003a004d
:10120000f70f20000758e10044003d000a70a100dc
:10121000c75ddd000a8575008a007300090078004b
:101220004f0678004f05be004f04be0000000600c8
:101230000a05d1008984d3008b05e800f0ff370050
:10124000881f7800060478009000070007027800e5
:101250000001fd008101fd008c000700870278007d
:10126000850372000778a300050032000001fd002d
:101270008101fd009f0007004f0478000000060078
:10128000850372000748a30003003200f0ff2f001f
:10129000f1ff2700f8ff37000000200001f82700c9
:1012a00088807000f4ff3700880178004848dd002e
:1012b000808171004848de00c850dd0001007000e8
:1012c000c850de00060478000b0178001600070005
:1012d00088807000d2ff37000500e0000500320072
:1012e000170020003a0007009dff370081037000bf
:1012f000f9ff3a00860078004f0678004f05be00df
:101300004f04be000000050083037100f9ff3200a6
:10131000270020002e00070094ff370001f8270067
:1013200086807000f4ff37000100e00026003200e4
:10133000610111007810e10023003c006022b80038
:101340007010e10004003500800278000100780090
:101350008000eb00700151000200e0000900340041
:1013600070031100062add00822ade008603dd00fc
:10137000878272000200de00860bdd00070070002d
:101380008208de0084817100f4ff2700048262007d
:101390008481710004002800848262006102600080
:1013a00005f0a6000000060004827100070032006c
:1013b0000000e800e0804800000006000002be00d7
:1013c0006000b800efff37006000b80000000600c2
:1013d000889fbe000004eb006138e10016003a006f
:1013e0000100e00008003a00c800de004800dd000f
:1013f000880020000100e00003003a00c800de0081
:101400004800dd00680444008184cf00e984540072
:10141000060034008908dd00f08314008703de0035
:10142000878070000900dd00090444006102140097
:101430004f04be00000006000300e00008003a0070
:10144000c811de004811dd00880020000300e00024
:1014500003003a00c811de004811dd0068044400b2
:101460008384cf00e9845400060034008919dd002c
:10147000f08314008713de00878171000911dd00fd
:1014800009044400e1021400e9ff370027002000ae
:1014900001f0a70017002000470bde00f60fb20096
:1014a000040032000643e8000a0032004702b3009d
:1014b0000000060001037800f607b2000603700082
:1014c00002003a000703b300000006008702b300e1
:1014d0000000060001037800f607b2000603700062
:1014e000020032000770a000000006000760a000a4
:1014f000000006000478a300040032000578a30071
:10150000030032000168a30001003a000200be009f
:101510000160a00000000600810170002700320079
:101520008002eb0001f8a30003003200600010000d
:10153000e080180015002000f4072000020242009d
:1015400020003400f7032000870360000604200019
:101550000003630002082000000161004700de0074
:10156000c909dd0000807100c708de000600e00048
:101570000800320087037100060032001000b0003e
:101580000180b0000188a30002003200c108de0023
:101590000402e800f107b200f30f20000320e1008d
:1015a00003003d004722dd00810072002900370062
:1015b00001f827000000eb00260037006000b800ab
:1015c00000000600680212007f20e10002003400e3
:1015d0006000b8001f0037006011b8007020e10003
:1015e0000400350080017800010078008000eb00e5
:1015f000700252000400e00009003400f003120001
:101600000719dd008419de000703dd008681710003
:101610000400de00070bdd00060070008408de0019
:10162000f7ff27008383630087037100060028000b
:1016300003036300070032000700e00003003a00e4
:101640006101600002817300020032001000b000ee
:101650000180b0000500a6000000060001f0a00017
:10166000000006004f0ade004709de00f107b20065
:10167000f20fb2000b003200f207b1000170a000bf
:10168000c708dd00c901de00838070004700dd006f
:101690000400a6000000060060001000e0801800b2
:1016a00000000600810f700001003a0000000600f3
:1016b0008182cf000500e00010003e008082cf0054
:1016c000ee8242007028e1000400390007003e006d
:1016d000800078000000eb000e00370070831200dd
:1016e0008600de000500dd000a003700708352002e
:1016f0008600dd000000eb0006003700e2825200a9
:101700008508dd00708312000603de00868070000d
:101710000500dd007507b0000501ea000400a60021
:101720000000060060001000e080180000000600c5
:10173000889fbe008a9fbe00841f78007c0007003f
:101740004f00780011003300f0ff2f00838f6c00f2
:1017500006003b00040565000a00a70008003700ea
:1017600009f0a6001000200008003700820f540086
:10177000838f5c00030039001000200001003e0050
:101780000000200009f0a7000000ea004f05be009d
:101790004f04be000000e00000000600881f780033
:1017a000030478000300e00007003d006000100023
:1017b000e080180060011900e081190002003b0080
:1017c00001f02d00030037000400070008f0a70017
:1017d00001f0a0004f04780000000600889fbe00c2
:1017e0008a9fbe00008270000402710004827100b2
:1017f000260032000004be000200be006011b800e6
:101800006b092000950220000182cf000a003900f8
:101810000541b1000082cf00070039000541b10049
:101820000982cf00040039000541b1000882cf00d1
:10183000010039000541b10005425200120032009a
:101840000a003b0082817100610164008100d100c7
:101850000080d3008984d3000884d3008b05e8007e
:101860000442e800f7ff3a0007003700080444008c
:1018700089844c0000004800818048008b05e90005
:101880000442e900f9ff3a00030007004f05be00db
:101890004f04be000000060081002000618055005a
:1018a0000b003d000b00200061fe2f000100e10055
:1018b0001d00340082817100610164008904d1003f
:1018c0000884d3000000e800faff3a00710020000d
:1018d0006100640003007000020060000900320033
:1018e00061044400e0844c000988a5000500320032
:1018f0008b05e8006808e10002003a008904d10085
:101900000884d300f20f20000258e10005003d00da
:10191000c75ddd00f907b200898075000800780016
:10192000000006000bf827008b007800000005007f
:101930000004be0014fc07000003be000405be0046
:101940000200be0010fc0700844f75000000060076
:101950000400fa00889fbe008a9fbe008c9fbe00d4
:101960000205be000bf0a1000800200009f82700c6
:10197000880f5500898f5d0005003e000003be0002
:1019800007f0a100880f5300898f5b000600360026
:101990001bfc07004f06be004f05be004f04be00f3
:1019a0000080fa00000006000800200009f823006b
:1019b000880f5100898f590002003a0097000700f4
:1019c000f4ff37004e1cde000900200088bf9f0096
:1019d00099bf9f000fbe9700620466008004eb0071
:1019e0004f0ade00050020000404740085847400a2
:1019f000e00f5300e08f5b0009003a00e20f540053
:101a0000e08f5c007f003200e20f5400e08f5c004a
:101a1000e0ff3900e30f5400e08f5c005f0032000c
:101a2000e00f5500e08f5d0008003a00610064009f
:101a30008000eb00e00f5000e08f5800740032008f
:101a4000b0fd200091fc2b00d2ff370004002000e5
:101a500005f82700840f5500858f5d000f003a00c0
:101a60008a0f53008b8f5b0040003a00e10f540057
:101a7000e08f5c0058003200e00f5400e08f5c0003
:101a800058003200e20f5400e08f5c002b0032005f
:101a9000e30f5400e08f5c00310032000c002000a6
:101aa0000dd020000a0246008b824e00840f5300a6
:101ab000858f5b00ddff3e000400200005f8270055
:101ac000840f5300858f5b00d8ff320062026400f0
:101ad0008002eb00e00f5200e08f5a000500320058
:101ae0000606460087864e008c0f55008d8f5d00e0
:101af0002d003e00a7fc07008101070047000700fa
:101b0000e10f5400e08f5c0029003200e00f540028
:101b1000e08f5c009fff3200e20f5400e08f5c001a
:101b200025003200e2d22b00b33b2300b4fb0700b8
:101b3000b2fd20009304240025003700020020009d
:101b400003042400b0fd20009104240070fd070070
:101b50000200200003e823006dfd07008dff370021
:101b60000200200003042c00f6ff3700e10f5400b0
:101b7000e08f5c001e003200e00f5400e08f5c003c
:101b80001e003200e20f5400e08f5c001d003200a6
:101b9000e30f5400e08f5c00c0ff3a00b0fd20006e
:101ba00091042c007bff37006000b800d4ff3700a1
:101bb00001f0a20077ff3700e2d22b00b33b2300f5
:101bc0008ffb07000001be00b0fd2000910424003f
:101bd00082fb07006fff3700b0fd200091f42b005f
:101be0006cff3700b0fd200091f4230069ff37003f
:101bf000000020000100280066ff37006000b800e8
:101c000064ff3700b0fd20009104240061ff37001d
:101c1000b0fd200091fc23005eff3700ea874700fb
:101c2000889fbe008a9fbe008c9fbe008e1f7800da
:101c30000002be004f0dde000b0020000004780003
:101c40008504780009f0a100f0ff2f00f1c72400ff
:101c5000800f5400818f5c001000360000002000cf
:101c600001f82700800f5400818f5c0025003e00a2
:101c70000200200003382000a0fd200091fc23007a
:101c80005ffb07000002be00e00f5500e08f5d0023
:101c90001c00320005f0a2001a003700f0ff2f00f0
:101ca000f1ed2300800f5400818f5c001c003e008a
:101cb0000087eb00f0ff2f00f1972300800f540006
:101cc000818f5c0033003e006000b80003f82700fd
:101cd00085806100e00f5000e08f580009003a0055
:101ce0000401be000400be00f4b79f0085bf9f0042
:101cf00007fd0700d0b79f00e1b79f007fb29700b4
:101d00008fba97000400be004f0778004f06be0050
:101d10004f05be004f04be00af00b100000006003a
:101d20000400be00f60007000006be00f0ff2f0012
:101d300071f92300800f5400818f5c0055003e0034
:101d4000f0ff2f00f1f22300800f5400818f5c0020
:101d500041003e000c01be000c00be0028fb070045
:101d60000200200003f823001cfb07000004be0053
:101d700002002000030024000c00be0020fb07002e
:101d80000001be000800be0002fc07000002be0009
:101d90000007eb000401be000400be00f4b79f0082
:101da00085bf9f00dafc07000006be000001be00f0
:101db000d7fc07000004be0052c22a00c3d723008c
:101dc000d3fc0700d2502f0013e123000cfb0700c7
:101dd0000801be00cefc070092aa2a00a3ea230055
:101de00007fb07000c01be00c9fc07000006be008f
:101df00072242100a3dd2b000800be00c4fc0700f4
:101e000082a92c00c3e42300f4fa07000801be00f5
:101e1000bffc07000001be000c00be00f8fa07007e
:101e20007fb297008fba97000401be00b8fc07008c
:101e30000003be000e00e0007fb297008fba97004b
:101e400032003d000001be000400be00e3fa0700be
:101e50000002be00abff37000200200003f82300a1
:101e60000c00be00ddfa07000004be0002002000e6
:101e700003f823000c00be00e1fa07000001be00d9
:101e80000800be00c3fb07000002be001e002000c9
:101e9000c0ff3700f0ff2f00b1012400800f540075
:101ea000818f5c0012003e000200200003fc230032
:101eb0000c00be00c9fa07000004be0002002000aa
:101ec00003fc23000c00be0091fc07000200200070
:101ed00003f82300cafa07000001be000800be0094
:101ee000acfb07000002be002e002000a9ff370057
:101ef0000c01be000000200001f82b00a5fb07002c
:101f00000002be003e002000a2ff37004277dd0045
:101f100088b421000e04440080b321000e07400065
:101f20001e0178009e0190000600be00f4b79f00dd
:101f300085bf9f00a9fa07007fb297008fba97006c
:101f40000401be00a5fa07000001be0018007800d9
:101f500098009000a1fa07004aff37000400fa0039
:101f60000001be0003f0a100a4fd200095f42300b1
:101f7000840f5100858f59000e003e00f4ff2f00a2
:101f8000f5972300840f5100858f59003a003e00d9
:101f90000200200003b8270099fa0700e0bf9f0065
:101fa000f1bf9f000000200001f823000080fa002c
:101fb000000006004f0ade0005002000163d250047
:101fc000b7072400860f5100878f59001b003e0081
:101fd00036be2c0067012400860f5100878f590000
:101fe0000a003600b2fd2000930424000400e00043
:101ff0000400320082fa07004402070001f0a20048
:10200000eaff370075fa0700fbff37000400e00025
:1020100005003200b2fd200093fc230078fa07008f
:10202000c5020700e1ff37000001be00b0fd20003f
:1020300091fc230069fa0700f9ff3700561d2300c1
:10204000270e2400860f5100878f590014003e0090
:10205000f6dd2e00f70a2400860f5100878f590005
:1020600009003600b2fd2000930c24000400e000bb
:102070000300320062fa070024020700cbff37009a
:1020800056fa0700fcff37000400e00001003200b0
:1020900001f0a20042be2c0063092400e5ff3700d6
:1020a000f4ff2f00f5f72700840f5100858f5900aa
:1020b000040036000001be000200be0047fa07001f
:1020c000baff3700c2ff2f000f0141004302070093
:1020d000630160006fb89700ffb89700e10f5100ef
:1020e00005003200e20f5100c3ff32000200e000a1
:1020f000cbff3a00e0ff370001f0a200c8ff370035
:102100000101780002f0a1008200780000000600c2
:10211000889fbe008a9fbe0080047800010478007a
:10212000820578000305780001f0a100020020007c
:1021300003f82700820f5000838f580012003e00e2
:102140000b0078008a00780001f0a100820f500097
:10215000838f58000d003e00090278008802780045
:102160004fc1de00820178004fd0de008000780091
:10217000800f5100818f590009003200e00f52009a
:10218000e08f5a0001003d000a04be0009007800fb
:10219000880078004f05be004f04be000000060016
:1021a0000b0178008a017800090078008800780027
:1021b000b0f907000000e000f2ff3700889fbe0082
:1021c0008a9fbe00000578008104780082057800af
:1021d0000304780001f0a1000200200003f82700aa
:1021e000820f5000838f580014003e000b007800cf
:1021f0008800780001f0a100820f5000838f580002
:102200000c003e000a007800890078004fcade000a
:10221000840278004fc1de0082017800820f5200f4
:10222000838f5a000a003200e00f5000e08f580000
:1022300002003d008a057800090478000b00780050
:10224000880078004f05be004f04be000000060065
:102250000b0178008801780086f907000000e00093
:10226000f3ff37000400fa00889fbe008a9fbe007b
:102270000203410083834900e00f5300e08f5b00bd
:102280000f0032000202be0005f0a100080020008d
:1022900009f82700880f5200898f5a0008003e0075
:1022a000a0bf9f00b1bf9f00470dde000b002000c4
:1022b000f40f20000a056200840f550007003a0061
:1022c00093fb07000001be00b2fa07004f05be00f5
:1022d0004f04be000080fa0000000600000240002b
:1022e00081824800840f5300858f5b00060039000f
:1022f000840f5300858f5b00f4ff3a006011b80033
:1023000083fb0700f1ff37000a00e0004c003a00b1
:102310002fbb9700bfbb9700493add00c732de00f4
:10232000850272004932dd00e00f5200e08f5a0052
:102330003f003d00610215002fbb9700bfbb970017
:10234000040478000804e900030033000603430096
:1023500087834b00fbff37000602be00471bde00f1
:10236000070020000683fb000600e0003d003a0065
:10237000491cdd00c714de00890474004914dd0027
:10238000e00f5400e08f5c0032003d00e1031300d9
:102390000204be008703e900030033000804440080
:1023a00089844c00fbff37000801520089815a00e4
:1023b000860f55002f003c00e00f5100e08f5900c0
:1023c00004003500e00f5100e08f5900cbff3200d0
:1023d0000202be004728de0001002000e00f50008e
:1023e000e08f58002e0032000a00e0003000340078
:1023f0000000200001f82f00040240008582480000
:102400006150b900c700dd0000002000040070002a
:10241000858070006022b80002002800bfb99700d4
:10242000830261000000720081807200a7ff370004
:102430000a05e9000402420085824a00baff37001b
:102440002fba9700bfba9700f507b2000570a00039
:10245000c2ff37000603e9000804440089844c00e9
:10246000c7ff37000204be00f907b2000970a000e0
:10247000cdff3700e00f5100e08f59000400350018
:10248000e00f5100e08f59009cff32000202be00b5
:102490000402420085824a000a05e900c2ff3700b3
:1024a0000402420085824a000a05e900c9ff37009c
:1024b000610515000400be000a05e90003003300b1
:1024c0008100d1000080d300fbff3700d1ff37002f
:1024d0000400fa00889fbe000004be008900780056
:1024e00001f0a100a4fd200095f42300840f50000a
:1024f000858f58001e003e00f4ff2f00f597230043
:10250000840f5000858f580016003e006000b80010
:1025100003f8270089806100e00f5000e08f580029
:102520000b003a0002002000033820000800be0023
:10253000f7fa07000001be00c2bf9f00d3bf9f0093
:102540000800be004f04be000080fa000000060034
:102550000200200003b827000800be0028f9070089
:10256000f4ff37000800be007301070018003700b1
:102570004f49de0003002000143d2500b50724006c
:10258000840f5000858f58001d003e0034be2c0083
:1025900065012400840f5000858f58000e003e0016
:1025a0000800be000200e000b2fd200093fc230002
:1025b0000500320012f90700d40007000004be0035
:1025c00009f0a200deff370004f90700cf00070082
:1025d0000004be00daff37000800be000200e00081
:1025e000b2fd2000930424000300320004f9070028
:1025f00001f0a200dcff3700f8f80700fcff37000d
:10260000541d2300250e2400840f5000858f580090
:1026100017003e00f4dd2e00f50a2400840f500060
:10262000858f580009003e000800be000200e0004f
:1026300042be2c006309240002003200f0f80700bb
:10264000e2ff3700e5f80700dbff37000800be00b7
:102650000200e000b2fd2000930c240002003200d2
:10266000e7f80700c0ff3700dcf80700beff3700bf
:10267000f2ff2f00f3f72700820f5000838f5800de
:10268000050036000801be000800be00d3f80700b0
:102690000004be00aaff370082ff2f000f01410097
:1026a0000800be00cd000700630160004fb897002e
:1026b000dfb89700e10f5100c4ff3200e20f510074
:1026c000cbff32000200e000bbff3a00a6ff37005c
:1026d000889fbe008a9fbe008c1f78000004be0049
:1026e0000003be006055b80004f8270089056200a9
:1026f0000400200005f82700840f5500858f5d0039
:102700000b003a000001be0081fa07000001be0084
:102710000800be00baf807000004be000800be00b2
:102720004f0678004f05be004f04be0000000600b3
:10273000e00f5000e08f580010003c000002be0087
:1027400005f0a100e00f5200e08f5a00f3ff3200c5
:10275000e00f5000e08f580008003d0010022000fc
:10276000c0db88000801be000800be009bf807001f
:102770000001be0087f90700e7ff370047bdde0014
:10278000cfbdde00e00f5500e08f5d000c003a0089
:102790000603430087834b0061004500e0804d0045
:1027a0000001eb00870178000308b200e00f510040
:1027b000e08f59004d00320060051500e0851d00d6
:1027c000fa07b1000b80b1000600be00f107b200ad
:1027d0000170a000610165008001eb00e00f510075
:1027e000e08f590002003200000040008180480064
:1027f0008b85d1000a85d30000004000818048000d
:102800009c01200002002000031020006044b8005a
:102810006033b8000602410087824900800f5200f1
:10282000818f5a0006003c00040341008583490063
:102830000400500085805800080441008984490044
:1028400000004000818048008301d1000281d30054
:102850000c06e9000c00e000eeff3a00e00f50002b
:10286000e08f5800160032000226240023da2000f0
:102870000000200001f8230058f8070002002000a3
:1028800003f82300fdf707000000e0000c0035000e
:102890000226240023da20000000200001f8230093
:1028a00057f807000200200003f82300f3f70700a1
:1028b0000000e0000f00340062044400e0844c009b
:1028c0008984d1000884d3000000200001f0230097
:1028d0000800400089804800c755dd000a0020003c
:1028e0000a0440008b8448008cff37000005be00be
:1028f000a7ff370061004400e0804c00000478002e
:102900000800a10081047800edff37000400fa0000
:10291000889fbe008a9fbe008c9fbe000001be0043
:10292000fbf907000004be000001be00f8f9070033
:102930000005be000200200003f02b000800be00ce
:10294000f3f907000200200003f823002cf8070029
:102950000006be00f2a92a00a3d223000a00be008e
:10296000ebf907000001be000c00be0024f80700d0
:102970000002be0072a12900c37c23000800be0033
:1029800084bf9f0095bf9f00e1f90700f24320003c
:1029900063ab230011f807000006be000a01be0069
:1029a0000800be00daf907000001be000c00be00fe
:1029b000d7f907000001be000fba97009fba970031
:1029c0000400be000ef807004f06be004f05be0013
:1029d0004f04be000080fa00000006000400fa0068
:1029e000889fbe008a9fbe008c9fbe0000067800b4
:1029f000810478008206780001f0a100a2fd200089
:102a000093dc2400820f5000838f580023003e0087
:102a100032982f0023f2230089007800bcf90700c8
:102a20000200200003b42400f5f707000200200094
:102a300003b42400e9f707000005be0091f7070082
:102a400000047800a2fd200093fc23000a00be00d1
:102a5000aff907000001be000c0078008900780083
:102a6000def707000002be00325a28008328230048
:102a70000a00be0084bf9f0095bf9f00a4f9070015
:102a80000001be000fba97009fba97000400be0075
:102a9000d2f70700808ebe000b003700f2ff2f0038
:102aa000f3f72700820f5000838f58000c00360088
:102ab000000178008901780089007800c7f70700d5
:102ac000808ebe000004eb00080078004f06be00b8
:102ad0004f05be004f04be000080fa000000060053
:102ae000890078004c0007000005be0032982f00d6
:102af00023f2230086f907000200200003f02300e0
:102b0000bff70700550007000004780023fb07000b
:102b100032982f0023f223009ef807000001be0028
:102b20000a00be00adf707006000b800a0069800dc
:102b3000b1069800d7ff37000400fa00889fbe0056
:102b40008a9fbe008c9fbe000006be000001be0032
:102b50006ff907000004be000001be000c00be00bb
:102b60006bf907000005be000801be000800be00aa
:102b700067f907000a01be0065f907000002be0000
:102b8000c2c32600636323000800be0084bf9f0009
:102b900095bf9f005ef90700f27c2000039523009b
:102ba0008ef707000001be000fba97009fba97008a
:102bb0000400be0056f907000002be00428828004b
:102bc00083c023000800be0084bf9f0095bf9f0004
:102bd0004ff90700b2aa2a00a3e223007ff70700fb
:102be0000a01be004af907000c01be0084f7070085
:102bf0000001be000fba97009fba97000400be0004
:102c00007ff707004f06be004f05be004f04be0011
:102c10000080fa00000006000400fa006011b8000d
:102c2000e2bf9f00f3bf9f006fbb9700ffbb970001
:102c30000002be00f0ff2f00f1ff2f00f2ff2f0077
:102c4000f3ff270000006200818062000201630040
:102c5000838163000080fa00000006000003be00cc
:102c600049f707006011b8000470a70007f0a10041
:102c70006509b1001b0032001200350086022000f9
:102c80000628e10008003500f3ff2700f2ff2f00bf
:102c90006110b9000700e00018003b0003002800a5
:102ca0006000b8000200050000004000818048007c
:102cb00002014900838149008502e900faff3a00d8
:102cc00008003700f88f420002003c008000eb0053
:102cd000000005008100d1000080d3008502e800db
:102ce000fcff3a000700e00004003b006000100019
:102cf000e080180060011900e08119000000060062
:020000040000fa
:102d000000000000f0410000000000004842000008
:102d10000ad70000233c0000cdcc00004c3d000051
:102d2000cdcc0000cc3d0000713d00000a3e00000b
:082d30008fc20000f53c000019
:020000040000fa
:102d38002200fa00889fbe0090c68000a1c68000cd
:102d4800cef60700000f780070c6800081c68000ac
:102d5800caf6070010079800b0c68000c1c68000f8
:102d6800c6f6070020079800d0c68000e1c680009c
:102d7800c2f6070030079800f0c6800001c780003f
:102d8800bef60700400798000e80e8009e00780015
:102d9800108040006100b900f4f60700020020002e
:102da80003002400f9f7070050079800610798000e
:102db800e600470068004700110178001000410054
:102dc8006100b900e9f607000200200003002400b2
:102dd800eef7070070079800010f98005e0090005a
:102de800ee0090000001be0003f707000001780024
:102df8000100780082047800000478002e0090001a
:102e08006100b900d9f607000001be00090078008a
:102e1800880078000000be00f7f60700000178007f
:102e28000100780082027800000278000200200089
:102e38000304240005007800840078000000be0028
:102e4800d2f70700100f9800210f98007e0090001d
:102e58008e0890000001be00e7f607000001780028
:102e68000100780082047800000478002e009000a9
:102e78006100b900bdf607000001be000900780036
:102e8800880078000000be00dbf60700000178002b
:102e98000100780082027800000278000200200019
:102ea8000304240005007800840078000000be00b8
:102eb800b6f70700300f9800410f98000000200077
:102ec800811b2400500f9800610f9800000020001b
:102ed80001142400700f98000117980002002000c8
:102ee800832c24001e089000ae089000a7f7070066
:102ef800000178000100780082047800000478005e
:102f08007e0990008e1190005e089000ee089000f7
:102f1800b0f607000001780001007800820178000f
:102f28000001780003007800820078000001be00ec
:102f380009007800880078000000be0072f80700d9
:102f48000001780001007800820278000002780011
:102f58007e0990008e1190000500780084007800aa
:102f68000000be00a4f60700000178000100780008
:102f78008201780000017800030078008200780060
:102f88000000be003df607002084880002002000f3
:102f9800832c24003e089000ce0890007bf70700a1
:102fa80000017800010078008204780000047800ad
:102fb8007e0990008e1190005e089000ee08900047
:102fc80084f607000001780001007800820178008b
:102fd8000001780003007800820078000001be003c
:102fe80009007800880078000000be0046f8070055
:102ff8000001780001007800820278000002780061
:103008007e0990008e1190000500780084007800f9
:103018000000be0078f60700000178000100780083
:1030280082017800000178000300780082007800af
:103038000000be0011f6070010848800108480008c
:10304800f70f500002003400040ea80001003700fa
:10305800040ea900000000004f04be000080fa0022
:10306800000006000400fa00008fbe0002002000e5
:10307800031f24001e0078009e009000fbf5070047
:103088000000e00002003d001000200001003700b1
:103098000000eb000080fa00000006000400fa00bf
:1030a800008fbe0002002000031f24001e007800cd
:1030b8009e009000edf507000000e00002003d00d2
:1030c80010002000010037000000eb000080fa002b
:1030d800000006000200fa000040eb00004f7800f4
:1030e80070c6800081c68000deff07000000e00097
:1030f800030032001e4078000044a000004f780012
:1031080090c68000a1c68000d6ff07000000e0003e
:10311800030032001e4078000034a000004f780001
:10312800b0c68000c1c68000ceff07000000e000e6
:10313800030032001e4078000024a000004f7800f1
:10314800d0c68000e1c68000c6ff07000000e0008e
:10315800030032001e4078000014a000004f7800e1
:10316800f0c6800001c78000beff07000000e00035
:10317800030032001e4078000004a000004f7800d1
:103188001e4078000080fa00000006000000fa00e7
:103198008ad0bf000080fb006100b900f200200067
:1031a80003002000820f5000838f58009c003e00cf
:1031b800000601000f003700180037002100370013
:1031c8003d0037003e0037004800370063003700f5
:1031d8006d003700470037005100370052003700b4
:1031e8005c0037006a003700790037007a00370042
:1031f800890037009430ef009630ef000041eb0073
:103208006000b800ec10070012c0b3006000b800fe
:10321800e910070010c0b3008af0b700a28480004c
:10322800b3848000803e200001002000800f510000
:10323800818f59007c00360020c0b3008af0b700a7
:1032480079003700b0c68000c1c6800002002000a7
:10325800032a240087f507000000e0000500340079
:10326800900120004084880090012000308488006c
:1032780004003700f000200040848800f00020009f
:1032880030848800108480006100b900b7f5070019
:103298000041eb00c8100700208480006100b900dd
:1032a800b2f5070012c0b300c310070030c0b30066
:1032b8008af0b7005d0037006a0107005b0037003d
:1032c8000041eb006000b800bb10070010848000cc
:1032d8006100b900a5f5070012c0b300b6100700d9
:1032e80050c0b3008af0b700500037005d010700f6
:1032f8004e0037000041eb006000b800ae10070038
:10330800108480006100b90098f5070012c0b3006e
:10331800a910070090c0b3008af0b7004300370037
:103328005001070041003700208480006100b90087
:103338008ef507000041eb009f10070012c0b30094
:103348006000b8009c100700b0c0b3008af0b70056
:10335800360037004301070034003700208480001e
:103368006100b90081f507000041eb0092100700e9
:1033780012c0b3006000b8008f10070070c0b3001f
:103388008af0b70029003700360107002700370008
:10339800208480006f0040006100b90073f50700c9
:1033a8000041eb00841007001184800010ff2f00fb
:1033b800010050006100b9006cf5070012c0b300ad
:1033c8007d100700d0c0b3008af0b700170037009f
:1033d80024010700150037002184800010ff2f000a
:1033e800010050006100b90060f507000041eb00e2
:1033f80071100700108480006f0040006100b90060
:103408005af5070012c0b3006b100700f0c0b300f4
:103418008af0b700050037001201070003003700e3
:103428008a70ef0001003700000000000000000073
:103438000080fa00000006000600fa0026130700c4
:103448000004e00004013200271307001e130700e0
:10345800200798002e009000100078008000eb00f4
:1034680045f50700323323003305240026f707000b
:1034780000017800010078008202780000027800dc
:10348800020020000358240005007800840078001a
:103498000000be003df60700008fbe0062662600f1
:1034a80063ea23001e0078009e009000eff40700f6
:1034b8000000e00003003d006066260061ea23008a
:1034c800008fbe001e0178009e01900000002000c1
:1034d800812024002df60700000178000100780003
:1034e800820278000002780002002000030a24000b
:1034f80005007800840078000000be0035f507005c
:1035080080017800010178000300780082007800cb
:103518000000be0070c6880081c6880064004700ad
:103528001080e800100078008000eb0012f507001a
:103538003233230033052400f3f607000001780036
:103548000100780082027800000278000200200062
:103558000358240005007800840078000000be00ad
:103568000af60700008fbe006266260063ea2300a1
:103578001e0078009e009000bcf407000000e000e8
:1035880003003d006066260061ea2300008fbe004c
:103598001e0178009e019000000020008120240078
:1035a800faf507000001780001007800820278002f
:1035b8000002780002002000030a240005007800b9
:1035c800840078000000be0002f507008001780042
:1035d8000101780003007800820078000000be0036
:1035e80090c68800a1c688006400470041002000fa
:1035f80010804000100078008000eb00def4070027
:103608003233230033052400bff607000001780099
:103618000100780082027800000278000200200091
:103628000358240005007800840078000000be00dc
:10363800d6f50700008fbe006266260063ea230005
:103648001e0078009e00900088f407000000e0004b
:1036580003003d006066260061ea2300008fbe007b
:103668001e0178009e0190000000200081202400a7
:10367800c6f5070000017800010078008202780092
:103688000002780002002000030a240005007800e8
:10369800840078000000be00cef4070080017800a6
:1036a8000101780003007800820078000000be0065
:1036b800b0c68800c1c688006400470061002000c9
:1036c80010804000100078008000eb00aaf407008a
:1036d80032332300330524008bf6070000017800fd
:1036e80001007800820278000002780002002000c1
:1036f8000358240005007800840078000000be000c
:10370800a2f50700008fbe006266260063ea230068
:103718001e0078009e00900054f407000000e000ae
:1037280003003d006066260061ea2300008fbe00aa
:103738001e0178009e0190000000200081202400d6
:1037480092f50700000178000100780082027800f5
:103758000002780002002000030a24000500780017
:10376800840078000000be009af407008001780009
:103778000101780003007800820078000000be0094
:10378800d0c68800e1c68800640047008100200098
:1037980010804000100078008000eb0076f40700ed
:1037a800323323003305240057f607000001780060
:1037b80001007800820278000002780002002000f0
:1037c8000358240005007800840078000000be003b
:1037d8006ef50700008fbe006266260063ea2300cc
:1037e8001e0078009e00900020f407000000e00012
:1037f80003003d006066260061ea2300008fbe00da
:103808001e0178009e019000000020008120240005
:103818005ef5070000017800010078008202780058
:103828000002780002002000030a24000500780046
:10383800840078000000be0066f40700800178006c
:103848000101780003007800820078000000be00c3
:10385800f0c6880001c78800000000000080fa0058
:10386800000006000000fa001afe07000080fb00b6
:1038780060848800608480006100b900f201200043
:1038880003002000820f5000838f58007e003e0006
:10389800000601001f003700210037002300370011
:1038a8002500370027003700790037002800370047
:1038b8002a0037002c0037002e0037003000370070
:1038c8003200370034003700360037003800370040
:1038d8003a0037003c0037003e0037004000370010
:1038e80042003700440037004600370048003700e0
:1038f8004a0037004c0037004e00370050003700b0
:10390800520037005400370056003700580037007f
:103918005a00370020c0b30092f0b7005d003700ae
:1039280040c0b30092f0b7005a00370040c0b3005f
:1039380092f0b7005700370040c0b30092f0b700cc
:1039480054003700c0c0b30092f0b70051003700f0
:1039580040c0b30092f0b7004e00370040c0b3003b
:1039680092f0b7004b003700a0c0b30092f0b70048
:1039780048003700a0c0b30092f0b70045003700f8
:10398800a0c0b30092f0b70042003700a0c0b30057
:1039980092f0b7003f003700a0c0b30092f0b70024
:1039a8003c003700e0c0b30092f0b70039003700a0
:1039b800e0c0b30092f0b70036003700c0c0b300d3
:1039c80092f0b70033003700a0c0b30092f0b70000
:1039d8003000370020c0b30092f0b7002d00370048
:1039e80040c0b30092f0b7002a003700e0c0b3002f
:1039f80092f0b70027003700e0c0b30092f0b7009c
:103a080024003700e0c0b30092f0b700210037006f
:103a1800a0c0b30092f0b7001e003700e0c0b300aa
:103a280092f0b7001b003700a0c0b30092f0b700b7
:103a380018003700a0c0b30092f0b7001500370097
:103a4800a0c0b30092f0b70012003700a0c0b300c6
:103a580092f0b7000f003700a0c0b30092f0b70093
:103a68000c003700e0c0b30092f0b700090037003f
:103a7800e0c0b30092f0b70006003700e0c0b30022
:103a880092f0b70003003700000000000100370083
:103a98000000000092d0bf000080fb00a1082100b8
:103aa800914078008180fb008100e900810f50007f
:103ab8000600320092d0bf008af0b700a1082100aa
:103ac80091407800c08b2100014878000000000078
:103ad8000080fa00000006000000fa0087110700c5
:103ae800d311070084aea80084cea800848ea80055
:103af800754ea800856ea800070c07000e0c07007d
:103b0800750a0700680a07008d0a0700900d07006c
:103b18002b110700551207000000200001042400a3
:103b280080c8880091c8880000002000811c2400fb
:103b3800a0c88800b1c888006000b800c0c8880064
:103b4800d1c88800000020000100240000ca8800b5
:103b580011ca8800000020000112240020ca880031
:103b680031ca88006000b80040ca880051ca88007d
:103b780000002000812c240060ca880071ca8800d7
:103b880000002000812c240080ca880091ca880087
:103b980000002000812c2400a0ca8800b1ca880037
:103ba80000002000812c2400e0c88800f1c88800ab
:103bb80000002000812c240000c9880011c9880059
:103bc80000002000812c240020c9880031c9880009
:103bd800c0c78000d1c780006011b80086f3070015
:103be80080017800010178000300780082007800e5
:103bf8000000be00c0c78800d1c7880000c8800088
:103c080011c880006011b8007bf3070080017800bc
:103c18000101780003007800820078000000be00ef
:103c280000c8880011c888006000b80080cf8800ec
:103c380091cf88006000b800a0cf8800b1cf88007d
:103c48006000b800a0cc8800b1cc88006000b80043
:103c5800c0cc8800d1cc88006000b800e0cc8800d7
:103c6800f1cc88006000b80040cc880051cc8800b6
:103c78006000b80020ce880031ce88006000b8000f
:103c880040ce880051ce88006000b80060ce880021
:103c980071ce88006000b800c0cd8800d1cd880002
:103ca80000002000812c2400809fbe00000020001e
:103cb800812c2400809fbe0000002000812c24005d
:103cc800809fbe00a6702d0037c223006022b80076
:103cd8000200200003fc2300009a21004807070087
:103ce800ec87570000002000812c2400809fbe0034
:103cf80000002000812c2400809fbe0000002000ce
:103d0800812c2400809fbe00a6702d0037c223009e
:103d18006022b8000200200003fc23000097210065
:103d280037070700ec875700020037009f1107008c
:103d380097040700ac1107000004e000fbff3a00fd
:103d4800907380000000d10061406000e14f500096
:103d580012003a008ed0bf000004e0000f003a00c5
:103d6800408280000000e0000c003a00808480005f
:103d780001b021004300dd00008040009000900069
:103d880020019000b0019000100078001203070095
:103d9800808480000000e8008084880090738000a0
:103da8000000d100614060008ef0b70090c680002e
:103db800a1c6800002002000031a2400adf207000b
:103dc8000000e0000200340084aea80001003700c3
:103dd80084aea90070c6800081c680000200200061
:103de800031a2400a3f207000000e00002003400d8
:103df80084cea8000100370084cea900b0c6800098
:103e0800c1c6800002002000031a240099f20700ae
:103e18000000e00002003400848ea8000100370092
:103e2800848ea900f0c6800001c78000020020002f
:103e3800031a24008ff207000000e000020034009b
:103e4800754ea80001003700754ea900d0c6800045
:103e5800e1c6800002002000031a240085f2070052
:103e68000000e00002003400856ea800b1ff3700b2
:103e7800856ea900afff37000c00fa00889fbe00ce
:103e88008a9fbe0024cf800035cf800000cf8000fd
:103e980011cf80000001be000400be00cdf2070073
:103ea80000017800010078008201780000017800a4
:103eb80003007800820078000000be009f0207001f
:103ec8004007980051079800c4838000d58380007c
:103ed800c0838000d18380000001be000400be00c2
:103ee80089f4070000017800010078008204780056
:103ef8000004780000002000011f24000001be001b
:103f0800bdf2070000017800010078008201780006
:103f18000001780003007800820078000001be00ec
:103f280009007800880078000000be0097f30700b9
:103f3800008fbe00c0838000d18380006011b8006c
:103f48004af207000000e00004003d001e0078006f
:103f58009e00900001f0a200008fbe00c483800084
:103f6800d5838000a0702d0031c223000001be005f
:103f78000400be0064f40700200798003107980089
:103f88006011b8001e0078009e00900039f207000a
:103f98000000e000060035006011b8004e009000f7
:103fa800de00900033f207000000e0000c003d0046
:103fb8006011b8001e0078009e0090002bf20700e8
:103fc8000000e0005a003c006011b8004e0090006c
:103fd800de00900025f207000000e00054003c00dd
:103fe8004e009000de0090000002be0005f0a10027
:103ff8001e0078009e00900001f0a1000001be00a4
:104008000400be001bf207000000e0004800350075
:104018006011b8004e009000de00900015f2070015
:104028000000e0002000340008002000892424005b
:1040380004002000051f2400a0702d0031c22300b9
:104048000001be000400be002ff407000001780044
:10405800010078008202780000027800c0838000a6
:10406800d18380000001be0005007800840078003c
:104078000000be0060f2070000017800010078002f
:1040880082027800000278000801be00050078006e
:10409800840078000000be0046f80700c08388004e
:1040a800d1838800690037000000200081242400a3
:1040b8000004be0009f0a200ca838000db838000f0
:1040c80004002000051f2400a0702d0031c2230029
:1040d8000001be000400be000bf4070000017800d8
:1040e8000100780082017800000178000300780060
:1040f800820078000001be000a00be0035f2070009
:10410800000178000100780082027800000278003f
:104118000801be0005007800840078000000be0099
:10412800f9f70700c0838800d1838800470037006b
:10413800c0838000d18380006011b800cdf10700f2
:104148000000e0001e003400c8838000d98380008e
:1041580004002000051f2400a0702d0031c2230098
:104168000001be000400be00e7f30700000178006c
:1041780001007800820178000001780003007800cf
:10418800820078000001be000800be0011f207009e
:1041980000017800010078008202780000027800af
:1041a8006011b80005007800840078000000be00a7
:1041b800d5f70700c0838800d18388002300370023
:1041c800c0838000d18380006011b800a7f1070088
:1041d8000000e0001d003d0004002000051f240031
:1041e800a0702d0031c223000001be000400be00f3
:1041f800c5f307000001780001007800820278000a
:1042080000027800c0838000d18380000001be00d6
:1042180005007800840078000000be00f6f1070071
:10422800000178000100780082027800000278001e
:104238006011b80005007800840078000000be0016
:10424800dcf70700c0838800d18388004e00900007
:10425800de0090000002be0005f0a1002e009000d4
:10426800be00900001f0a1000001be000400be00e5
:104278007ef107000000e00004003d004e019000c0
:10428800de019000220798003307980000cf8000d5
:1042980011cf80002e019000be019000d6f10700da
:1042a800800178000101780003007800820078001e
:1042b8000000be0000cf880011cf880000cf80002a
:1042c80011cf80009d01070000cf880011cf880022
:1042d8004e009000de00900001f0a100a2702d00b9
:1042e80033c2230061f107000000e000010035003f
:1042f80010003700c0838000d183800001f0a10046
:10430800f226210033a8230058f107000000e0003e
:10431800010035000700370020cf800031cf800032
:1043280000cf880011cf88006000b800c0838800e3
:10433800d1838800000000004f05be004f04be0076
:104348000080fa00000006001800fa00889fbe00ee
:1043580044cf800055cf800080cf800091cf80006f
:104368000001be000400be009af10700000f98008b
:10437800110f980064cf800075cf8000a0cf800017
:10438800b1cf80000001be000400be0091f107001b
:10439800200f9800310f98006000b800008fbe0011
:1043a8006000b800200798003107980064838000f7
:1043b80075838000a0702d0031c223000001be006b
:1043c8000400be0050f3070040079800510798000a
:1043d800648380007583800060838000718380001f
:1043e8000001be000400be0047f30700000178008a
:1043f800010078008204780000047800d0cc2c00fa
:10440800c1d423000001be007bf107000001780041
:10441800010078008201780000017800030078002c
:10442800820078000001be0009007800880078004a
:104438000000be0055f20700600798007107980059
:1044480060838000718380006011b80007f1070065
:104458000000e00005003d006e009000fe009000a6
:1044680001f0a20060079800710798000e099000fb
:104478009e0990000e0890009e08900022f3070005
:1044880000017800010078008204780000047800b8
:104498002e099000be0990002e089000be089000da
:1044a80019f3070000017800010078008201780004
:1044b8000001780003007800820078000001be0047
:1044c80009007800880078000000be004af1070063
:1044d800000178000100780082017800000178006e
:1044e80003007800820078000000be0076f807001c
:1044f800a0838800b1838800a0838000b1838000f6
:10450800d27b230063582300d8f007000000e000a6
:1045180009003d006000b800008fbe006000b800d0
:1045280020079800310798006000b80040079800fd
:10453800510798000f003700a0838000b1838000e6
:104548000001be000e0890009e0890000ff20700c0
:10455800008fbe00a0838000b18380000001be00f0
:104568002e089000be08900008f207002007980067
:10457800310798006011b8006e009000fe009000ae
:10458800bcf007000000e00006003500a0838000b2
:10459800b18380006011b800b6f007000000e000a9
:1045a8000c003d006011b8006e009000fe00900005
:1045b800aef007000000e00032003c00a08380005d
:1045c800b18380006011b800a8f007000000e00087
:1045d8002c003c00a0838000b18380000002be0054
:1045e80005f0a1006e009000fe00900001f0a1000f
:1045f8000001be000400be009ef007000000e000bd
:1046080020003500d8cc2c00c9dc2300d4cc2c00e9
:10461800c5d42300a0702d0031c223000001be00c4
:104628000400be00b8f2070000017800010078001d
:104638008202780000027800608380007183800025
:104648000001be0005007800840078000000be006c
:10465800e9f0070000017800010078008202780084
:10466800000278000801be00050078008400780088
:104678000000be00140d0700608388007183880065
:104688001d0037006883800079838000d4cc2c001b
:10469800c5d42300a0702d0031c223000001be0044
:1046a8000400be0098f207000001780001007800bd
:1046b8008201780000017800030078008200780009
:1046c8000001be000800be00c2f00700000178002b
:1046d8000100780082027800000278006011b800ba
:1046e80005007800840078000000be00df0c070099
:1046f8006083880071838800a0838000b183800074
:104708000002be0005f0a1004e009000de009000ff
:1047180001f0a1000001be000400be0053f0070034
:104728000000e00004003d00a2838000b383800005
:10473800420798005307980088cf800099cf8000df
:104748004e019000de0190001e0078009e0090004f
:104758006df20700000178000100780082017800fe
:104768000001780003007800820078000001be0094
:104778000800be00a0f00700800178000101780061
:1047880003007800820078000000be0080cf880017
:1047980091cf8800a8cf8000b9cf80004e0190004b
:1047a800de0190002e009000be00900056f2070037
:1047b800000178000100780082017800000178008b
:1047c80003007800820078000001be000800be00e7
:1047d80089f0070080017800010178000300780063
:1047e800820078000000be00a0cf8800b1cf88000a
:1047f80060838000718380006011b8001bf007009f
:104808000000e0000100320012003700a0838000a1
:10481800b1838000a2702d0033c2230013f007007b
:104828000000e000010035000a003700c08b2100bd
:10483800c18b210061129100f1129100011b9100be
:10484800911b910024189900351899004618990071
:1048580057189900000000004f04be000080fa00bd
:10486800000006001c00fa00600798007107980015
:10487800020f9800130f9800240f9800350f980026
:10488800460f9800570f98002e0a9000be0a900015
:104898006e009000fe0090000001be000400be0003
:1048a8004cf00700008fbe004e0a9000de0a900010
:1048b8000e0890009e0890000001be000400be0093
:1048c80044f0070020079800310798001e0178007f
:1048d8009e0190002e009000be0090001af4070080
:1048e8004007980051079800b2fd200093fc230070
:1048f8004e009000de00900036f007004007980058
:10490800510798004e009000de0090000b00070051
:104918004007980051079800ce0090005e00900074
:104928008101780000017800030078008200780097
:104938000000be000080fa00000006000400fa0033
:10494800008fbe0006003700b2fd2000930c240043
:104958001e0078009e0090001ef00700008fbe0029
:10496800b2fd2000930424001e0078009e009000f1
:10497800c0ef07000000e000f3ff3c00060037002e
:10498800b2fd2000930c24001e0078009e009000c9
:1049980019f00700008fbe00b2fd200093042c0020
:1049a8001e0078009e009000b0ef07000000e000b5
:1049b800f3ff35009e0078001e009000810178000a
:1049c8000001780003007800820078000000be0033
:1049d8000080fa00000006000800fa00009fbe00f0
:1049e8000297be001e0078009e00900040cf88000d
:1049f80051cf88002e009000be00900060cf880044
:104a080071cf88001000200040828800000000005c
:104a18000080fa00000006000400fa00e08380002d
:104a2800e10f50000a003200e20f50003600320059
:104a38000000e00044003a00408280000000e000ee
:104a48004000320010002000e08388003d0037005d
:104a5800c18b2100c08b210061129100f1129100dd
:104a6800011b9100911b9100b01891004019910011
:104a7800d0199100201891007aff0700f083880070
:104a880001848800f08380000184800020cf8800a2
:104a980031cf8800f8fc070064c8800075c8800022
:104aa800f0838000018480000001be000400be0085
:104ab800c8ef070000017800010078008201780043
:104ac8000001780003007800820078000000be0032
:104ad8009aff0700008fbe001e0078009e0090001d
:104ae80001f0a100d2cc2c00c3d423005fef070053
:104af8000000e0000100350013003700200020000e
:104b0800e0838800100037000ffe0700a0838000b4
:104b1800b1838000d27b23006358230053ef070042
:104b28000000e00001003500070037006000b80011
:104b380060838800718388004830ef007c30ef0084
:104b48000100370000000000000000000080fa00ab
:104b5800000006001800fa00889fbe004007980071
:104b6800510798006207980073079800040f98008f
:104b7800150f9800260f9800370f98004e029000e6
:104b8800de0290000e0890009e0890000001be0012
:104b98000400be008fef0700008fbe006e02900079
:104ba800fe0290002e089000be0890000001be0092
:104bb8000400be0087ef070020079800310798001f
:104bc8001e0178009e0190001e0078009e00900053
:104bd8004df1070000017800010078008204780098
:104be800000478002e019000be0190002e00900075
:104bf800be00900044f10700000178000100780031
:104c080082017800000178000300780082007800b3
:104c18000001be0009007800880078000000be008e
:104c280075ef070000017800010078008201780024
:104c38000001780003007800820078000000be00c0
:104c4800a1f60700000178000100780082017800d1
:104c58000001780003007800820078000000be00a0
:104c68004f04be000080fa00000006000000fa00b1
:104c780080cf800091cf80000001be008000eb0053
:104c8800e0b521000c0b0700a0cf8000b1cf800059
:104c98000001be0041002000e0b52100060b07001e
:104ca800e2b52100a1002000100920004300070000
:104cb80000cf800011cf80000001be008000eb0013
:104cc80080b52100fc0a070082b5210061002000a0
:104cd8000009200039000700000000000080fa00e9
:104ce800000006000a00fa00200798003107980023
:104cf800420798000040eb00004f78009e40780083
:104d0800e0cfb30000c06800004f78002e0090008c
:104d18004880de00004078009e40780000c06800af
:104d2800004f78002e009000004078009e407800e8
:104d380000c06800004f78003e0090004880de0008
:104d4800004078009e40780000c06800004f78005e
:104d58003e009000004078009e40780000c0680047
:104d6800004f78000000eb00100798000c00370097
:104d78001e009000e8004700110040001040780035
:104d88009e40780000c06800004f78000e80e80060
:104d98008e80e8001108e80090007800110798005c
:104da8009e0090003e009000808f5000f0ff35007c
:104db8001e4078000080fa00000006000e00fa008d
:104dc800889fbe008a1f7800400798005107980006
:104dd800620798008f0478000f00780000057800bb
:104de8006a00470061002000108040008000e90050
:104df800210798000000e8000000d1008000400072
:104e08000f00780081874700600040003007980055
:104e18000000eb00100798009e0090000e80e8004c
:104e28000108e80010017800120798003e00900081
:104e380001004000e1cfb300014878004e00900027
:104e4800c880de001e0190000e80e8000208e8001d
:104e58009001780013079800814078003e00900088
:104e680002004000014878009e0090000e80e80093
:104e78000108e80010017800120798004e00900021
:104e8800004178003e009000010040000248780090
:104e98005e009000c880de001e0190000e80e800d1
:104ea8000208e80090017800130798008140780014
:104eb8003e00900002004000014878009e009000eb
:104ec8000e80e8000108e800100178001207980039
:104ed8005e009000004178003e0090000100400014
:104ee800024878000000eb00000f78000d00370042
:104ef8001e007800ec004700910040001e01900061
:104f08000e80e8000208e800900178001307980076
:104f1800914078003e00900002004000014878006f
:104f28001e0fe8005e0090009e007800808f500001
:104f3800efff35001e0490000e80e8000808e80026
:104f480090007800110798006e019000de00900034
:104f58004e00900063ff0700804078003e009000fc
:104f680008004000014878003e0090009e00900034
:104f7800b00b07008a077800000000008907780056
:104f88004f0578004f04be000080fa0000000600bc
:104f98000200fa00004f780000808000e40f500003
:104fa80023003200e40f500007003c00e20f5000dd
:104fb80012003200e20f500016003c000000e00032
:104fc8000800320052003700e60f5000300032006f
:104fd800e60f50001c003500e70f50003900320082
:104fe8004b0037001e407800e24f40004a003a006c
:104ff8002000200000808800470037001e80fb004a
:105008004800dd0010808800300020000080880003
:10501800440037001e80fb00118080000080700073
:105028001080880040002000008088003d00370084
:105038001e80fb004800dd00208088005000200012
:1050480000808800370037001e80fb002080880021
:10505800208080000000e00003003a00700020007b
:10506800008088002f00370021808000f03f20005a
:10507800808f500004003c00600020000080880001
:105088000630ef00270037000030ef00250037001a
:10509800318080000100e8003080880080a1210074
:1050a800010040001e487800318080002080800088
:1050b800808f50001a0035007000200000808800a2
:1050c80017003700218080001080800082a1210015
:1050d80004ff070008f0b7001e4178009100210086
:1050e80082487800810021009140780009d0bf00f3
:1050f80080cf500004003a0021808000108080009a
:1051080082a121000a0007000030ef0005003700e7
:105118000030ef00030037000000000001003700f6
:1051280000000000000000000080fa0000000600f7
:105138000600fa00000f780011079800220798006f
:10514800300720009e007800808f500073003200e6
:10515800300720009e007800808f500016003c0029
:10516800100520009e007800808f50002002320039
:10517800100520009e007800808f500005003c003c
:10518800000220009e007800808f5000ac013200a1
:1051980018023700200520009e007800808f5000fc
:1051a80016003200200720009e007800808f5000f3
:1051b800220032000f023700500720009e007800be
:1051c800808f50009f003200500720009e0078001a
:1051d800808f50000e003500600720009e00780088
:1051e800808f50000a013200000920009e007800dc
:1051f800808f500085013200fe0137002e0090009c
:10520800104078000080fb00d10c0700f90137003e
:105218008000eb002e00900083090700c0ce8800b4
:10522800d1ce8800410020002e0090007e090700a2
:10523800e0ce8800f1ce8800ee0137006000b800ab
:10524800a0c98800b1c988006000b800c0c988003a
:10525800d1c988006000b800e0c98800f1c9880099
:105268006000b80040c9880051c988006000b800d3
:1052780080ce880091ce88006000b800c0ce88003b
:10528800d1ce88008000eb002e0090006609070050
:10529800a0808800b1808800410020002e00900086
:1052a80061090700c0808800d18088008100200043
:1052b8002e0090005c090700e0808800f1808800db
:1052c800e6808000f7808000c4808000d580800060
:1052d800a2808000b380800000002000812c240080
:1052e800809fbe0000002000812c2400809fbe000b
:1052f80000002000812c2400809fbe000091210026
:10530800bf010700ec87570002a02100c100200060
:1053180020072000a9fe0700b60137006000b8008a
:1053280020cb880031cb88006000b80040cb8800d3
:1053380051cb88006000b80060cb880071cb880032
:105348006000b800c0ca8800d1ca88006000b800f0
:10535800a0ce8800b1ce88006000b800e0ce8800fa
:10536800f1ce88008000eb002e0090002e09070087
:10537800a0808800b1808800410020002e009000a5
:1053880029090700c0808800d1808800810020009a
:105398002e00900024090700e0808800f180880032
:1053a800a0808000b18080000001be008000eb007a
:1053b800c0a0210040090700c0808000d180800083
:1053c8000001be0041002000c0a021003a090700ea
:1053d800e0808000f18080000001be008100200094
:1053e800c0a0210034090700e6808000f780800013
:1053f800c4808000d5808000a2808000b3808000b7
:1054080000002000812c2400809fbe0000002000a6
:10541800812c2400809fbe0000002000812c2400e5
:10542800809fbe000094210075010700ec8757009b
:10543800c2a02100c1002000300720005ffe070045
:105448006c0137006000b80020cb880031cb8800a1
:105458006000b80040cb880051cb88006000b800dd
:1054680060cb880071cb88006000b800c0ca880093
:10547800d1ca88006000b800a0c98800b1c98800f6
:105488006000b800c0c98800d1c988006000b800b1
:10549800e0c98800f1c988006000b80040c98800e8
:1054a80051c988006000b800a0ce8800b1ce88003d
:1054b8006000b80080ce880091ce88006000b800f7
:1054c800a0cc8800b1cc88006000b800c0cc8800af
:1054d800d1cc88006000b800e0cc8800f1cc88000e
:1054e8006000b80040cc880051cc88006000b8004b
:1054f80020ce880031ce88006000b80040ce8800f9
:1055080051ce88006000b80060ce880071ce880057
:105518006000b800c0cd8800d1cd88000000200010
:10552800812c2400809fbe0000002000812c2400d4
:10553800809fbe0000002000812c2400809fbe00b8
:105548006033b8006022b8006011b80000942100f0
:105558002b010700ec87570000002000812c240055
:10556800809fbe0000002000812c2400809fbe0088
:1055780000002000812c2400809fbe006033b8000a
:105588006022b8006011b800009121001c010700da
:10559800ec87570000002000812c2400809fbe006b
:1055a80000002000812c2400809fbe000000200005
:1055b800812c2400809fbe006033b8006022b800b0
:1055c8006011b800009721000d010700ec87570013
:1055d80000002000812c2400809fbe0000002000d5
:1055e800812c2400809fbe0000002000812c240014
:1055f800809fbe006033b8006022b8006011b80018
:10560800009a2100fe000700ec875700f9003700d8
:105618006000b800a0cc8800b1cc88006000b80059
:10562800c0cc8800d1cc88006000b800e0cc8800ed
:10563800f1cc88006000b80040cc880051cc8800cc
:105648006000b80020ce880031ce88006000b80025
:1056580040ce880051ce88006000b80060ce880037
:1056680071ce88006000b800c0cd8800d1cd880018
:105678008000eb002e0090006b0807000081880076
:1056880011818800410020002e0090006608070064
:105698002081880031818800810020002e00900040
:1056a800610807004081880051818800c1002000fe
:1056b8002e0090005c0807006081880071818800d6
:1056c800010120002e009000570807008081880003
:1056d80091818800410120002e00900052080700a7
:1056e800a0818800b181880000818000118180003c
