:020000040000fa
:080000000002040000000000f2
:020000040000fa
:04000800960400005a
:020000040000fa
:04000c009604000056
:020000040000fa
:040010009604000052
:020000040000fa
:04001400960400004e
:020000040000fa
:04001800960400004a
:020000040000fa
:04001c009604000046
:020000040000fa
:040020009604000042
:020000040000fa
:04002400960400003e
:020000040000fa
:04002800960400003a
:020000040000fa
:04002c009604000036
:020000040000fa
:040030009604000032
:020000040000fa
:04003400fa020000cc
:020000040000fa
:04003800960400002a
:020000040000fa
:04003c009604000026
:020000040000fa
:040040009604000022
:020000040000fa
:04004400960400001e
:020000040000fa
:04004800340300007d
:020000040000fa
:04004c009604000016
:020000040000fa
:040050009604000012
:020000040000fa
:04005400da030000cb
:020000040000fa
:04005800ae030000f3
:020000040000fa
:04005c008803000015
:020000040000fa
:040060009604000002
:020000040000fa
:0400640096040000fe
:020000040000fa
:0400680096040000fa
:020000040000fa
:04006c0096040000f6
:020000040000fa
:0400700096040000f2
:020000040000fa
:0400740096040000ee
:020000040000fa
:0400780096040000ea
:020000040000fa
:04007c0096040000e6
:020000040000fa
:0400800096040000e2
:020000040000fa
:0400840096040000de
:020000040000fa
:0400880096040000da
:020000040000fa
:04008c0096040000d6
:020000040000fa
:0400900096040000d2
:020000040000fa
:040094003e03000027
:020000040000fa
:0400980096040000ca
:020000040000fa
:04009c0096040000c6
:020000040000fa
:0400a0002204000036
:020000040000fa
:0400a4006a040000ea
:020000040000fa
:0400a80096040000ba
:020000040000fa
:0400ac0096040000b6
:020000040000fa
:0400b00096040000b2
:020000040000fa
:0400b40096040000ae
:020000040000fa
:0400b80096040000aa
:020000040000fa
:0400bc0096040000a6
:020000040000fa
:0400c00096040000a2
:020000040000fa
:0400c400960400009e
:020000040000fa
:0400c800960400009a
:020000040000fa
:0400cc009604000096
:020000040000fa
:0400d0009604000092
:020000040000fa
:0400d400960400008e
:020000040000fa
:0400d800960400008a
:020000040000fa
:0400dc009604000086
:020000040000fa
:0400e0009604000082
:020000040000fa
:0400e400960400007e
:020000040000fa
:0400e800960400007a
:020000040000fa
:0400ec009604000076
:020000040000fa
:0400f0009604000072
:020000040000fa
:0400f400960400006e
:020000040000fa
:0400f800960400006a
:020000040000fa
:0400fc009604000066
:020000040000fa
:040100009604000061
:020000040000fa
:04010400960400005d
:020000040000fa
:040108009604000059
:020000040000fa
:04010c009604000055
:020000040000fa
:040110009604000051
:020000040000fa
:04011400960400004d
:020000040000fa
:040118009604000049
:020000040000fa
:04011c009604000045
:020000040000fa
:040120009604000041
:020000040000fa
:04012400960400003d
:020000040000fa
:040128009604000039
:020000040000fa
:04012c009604000035
:020000040000fa
:040130009604000031
:020000040000fa
:04013400960400002d
:020000040000fa
:040138009604000029
:020000040000fa
:04013c009604000025
:020000040000fa
:040140009604000021
:020000040000fa
:04014400960400001d
:020000040000fa
:040148009604000019
:020000040000fa
:04014c009604000015
:020000040000fa
:040150009604000011
:020000040000fa
:04015400960400000d
:020000040000fa
:040158009604000009
:020000040000fa
:04015c009604000005
:020000040000fa
:040160009604000001
:020000040000fa
:0401640096040000fd
:020000040000fa
:0401680096040000f9
:020000040000fa
:04016c0096040000f5
:020000040000fa
:0401700096040000f1
:020000040000fa
:0401740096040000ed
:020000040000fa
:0401780096040000e9
:020000040000fa
:04017c0096040000e5
:020000040000fa
:0401800096040000e1
:020000040000fa
:0401840096040000dd
:020000040000fa
:0401880096040000d9
:020000040000fa
:04018c0096040000d5
:020000040000fa
:0401900096040000d1
:020000040000fa
:0401940096040000cd
:020000040000fa
:0401980096040000c9
:020000040000fa
:04019c0096040000c5
:020000040000fa
:0401a00096040000c1
:020000040000fa
:0401a40096040000bd
:020000040000fa
:0401a80096040000b9
:020000040000fa
:0401ac0096040000b5
:020000040000fa
:0401b00096040000b1
:020000040000fa
:0401b40096040000ad
:020000040000fa
:0401b80096040000a9
:020000040000fa
:0401bc0096040000a5
:020000040000fa
:0401c00096040000a1
:020000040000fa
:0401c400960400009d
:020000040000fa
:0401c8009604000099
:020000040000fa
:0401cc009604000095
:020000040000fa
:0401d0009604000091
:020000040000fa
:0401d400960400008d
:020000040000fa
:0401d8009604000089
:020000040000fa
:0401dc009604000085
:020000040000fa
:0401e0009604000081
:020000040000fa
:0401e400960400007d
:020000040000fa
:0401e8009604000079
:020000040000fa
:0401ec009604000075
:020000040000fa
:0401f0009604000071
:020000040000fa
:0401f400960400006d
:020000040000fa
:0401f8009604000069
:020000040000fa
:0401fc009604000065
:020000040000fa
:040200009604000060
:020000040000fa
:04020400960400005c
:020000040000fa
:040208009604000058
:020000040000fa
:04020c009604000054
:020000040000fa
:040210009604000050
:020000040000fa
:04021400960400004c
:020000040000fa
:040218009604000048
:020000040000fa
:04021c009604000044
:020000040000fa
:040220009604000040
:020000040000fa
:04022400960400003c
:020000040000fa
:040228009604000038
:020000040000fa
:04022c009604000034
:020000040000fa
:040230009604000030
:020000040000fa
:04023400960400002c
:020000040000fa
:040238009604000028
:020000040000fa
:04023c009604000024
:020000040000fa
:040240009604000020
:020000040000fa
:04024400960400001c
:020000040000fa
:040248009604000018
:020000040000fa
:04024c009604000014
:020000040000fa
:040250009604000010
:020000040000fa
:04025400960400000c
:020000040000fa
:040258009604000008
:020000040000fa
:04025c009604000004
:020000040000fa
:040260009604000000
:020000040000fa
:0402640096040000fc
:020000040000fa
:100400000fbc22000eff27000e0188000000000034
:10041000000020000000e000020032000001200087
:100420002002880014000700420107000000e000dd
:1004300003003a0080e7230001002000020037009b
:100440000000200001002000810f70000100320038
:100450000f000700000020000000e0000200320052
:100460000000020000000000142402000000000050
:100470000040da000000fe00c00120000000e000a3
:1004800002003200002020009001880000000600d9
:10049000a1028800800478000000eb001f003700f4
:1004a000e284440054a0b4009905ba00e2844400f8
:1004b00054a0b4009906ba00e284440054a0b400e9
:1004c0000006eb00476fde00fd07b200ae018800ba
:1004d000636ce10003003a000ad801000000eb0061
:1004e0000e003700606ce10008003a00004deb00a0
:1004f0000a05e800020039003420ec000af0a000f0
:100500008b05e900f9ff3e00040037006168e10057
:10051000010032000086eb000b00070019c7ba008b
:100520000e04e0001905ba0003003a000a00e000da
:10053000dbff3a0000000600fe07b200ae028800b2
:100540008a047800f5ff37000cd0a300e20f4d00bd
:100550001c003b0089027800354dba000a05e8000e
:10056000020039003420ec000af0a0008b05e900fd
:100570000f003200254dba000a05e80002003900dc
:100580003420ec000af0a0008b05e90008003200de
:100590000c00e0000600320015cdba000a05e800a4
:1005a000020039003420ec000af0a0008b05e900bd
:1005b0008984e80054a0b4000b00e000e2ff3a0098
:1005c000000006009902ba00055d78008b05e9007d
:1005d000f7ff3200c82ade00055d78008b05e900d0
:1005e000f3ff32000c00e000f1ff320019ddba0029
:1005f000eeff37003600f800809fbe00829fbe00ed
:10060000849fbe00869fbe000000fa000068a9001b
:10061000df1f07006a1b0700761407001218070087
:10062000308580000000e80030858800308580003b
:10063000f30f50000400340057170700fb140700a5
:100640006e190700a630ef00000000000080fa00dd
:100650004f03be004f02be004f01be004f00be0060
:100660003600f900004006000000fa000108a90069
:10067000000000000080fa00004006003600f8008c
:10068000809fbe00829fbe00849fbe00869fbe00ea
:100690000000fa000368a900008580001185800031
:1006a00061004000e08048000085880011858800d6
:1006b000418580000100e80040858800703e2000f0
:1006c000808f500003003400a830ef0010c0b3004a
:1006d000aaf0b700ac0e07000085800011858000ed
:1006e00061004000e0804800008588001185880096
:1006f000000000000080fa004f03be004f02be0061
:100700004f01be004f00be003600f9000040060059
:10071000801f78000000fa0001a8a90000188000de
:10072000605d890010188000705d890020188000cd
:10073000805d890030188000905d8900401880003d
:10074000a05d890010c0b300cff0b700000000002a
:100750000080fa004f007800004006003600f800e4
:10076000809fbe00829fbe00849fbe00869fbe0009
:100770000000fa000188a900b1858000a0858000f2
:10078000808f500002003200101e07000100370069
:10079000b870ef00000000000080fa004f03be00b8
:1007a0004f02be004f01be004f00be003600f900f0
:1007b000004006003600f800809fbe00829fbe0009
:1007c000849fbe00869fbe000000fa000168a90059
:1007d000101180004200de0061406000e14f5000d7
:1007e00001003a002242a900101180000000d1004f
:1007f00061406000e14f500005003a002222a9004c
:100800000300370030118000004078000a20070004
:10081000101180000040780061406000e14f5000fe
:10082000f8ff3200000000000080fa004f03be0015
:100830004f02be004f01be004f00be003600f9005f
:10084000004006003600f800809fbe00829fbe0078
:10085000849fbe00869fbe000000fa0003c8a90066
:10086000901180004200de0061406000e14f5000c6
:1008700001003a003242a900901180000000d1002e
:1008800061406000e14f500005003a003222a900ab
:1008900003003700b0118000004078009c1f070063
:1008a000901180000040780061406000e14f5000ee
:1008b000f8ff3200000000000080fa004f03be0085
:1008c0004f02be004f01be004f00be003600f900cf
:1008d000004006003600f800809fbe00829fbe00e8
:1008e000849fbe00869fbe000000fa0003e8a900b6
:1008f000e1858000d0858000808f500002003200aa
:10090000181e070001003700be70ef000000000055
:100910000080fa004f03be004f02be004f01be0030
:100920004f00be003600f900004006000040da002b
:100930000000fe000000050014002000ad03370099
:10094000f4ff2f00ab0337000001be003f0007009b
:100950000470a70003f0a1006509b1001600320081
:100960000d0035006828e10006003500f0ff2f007b
:10097000f1ff27000300e00013003b000100280006
:100980000000050000004000818048008502e90069
:10099000fcff3a0008003700f88f420002003c00dc
:1009a0008000eb00000005008100d1000080d30032
:1009b0008502e800fcff3a000300e00002003b0073
:1009c00060001000e0801800000006000001be007a
:1009d0001e0007000470a70003f0a10003f8a300a5
:1009e00013003a006509b10010003200090035001b
:1009f0006928e10002003500010028000000050020
:100a000000004000818048008502e900fcff3a00b8
:100a100000000600f88f4200050035008100d1007b
:100a20000080d3008502e800fcff3a0000000600c9
:100a30008000eb00000005004f89de008201780095
:100a4000870337006011b80095033700c70ade003e
:100a5000f107b200f50fb20008003200e1cf42000a
:100a6000020032000170a00024000500810f700018
:100a7000010032000408050044000500810f7000e9
:100a800002003a00140005008502e9000000400061
:100a900081c04800fcff3b000170a000240005005d
:100aa00007f82700078361000638e10004003a00d8
:100ab000f7072000878361008703710001003a0077
:100ac00003f0a200889fbe008a9fbe008c9fbe00dc
:100ad000470ade000480a100c71ade000580a100dd
:100ae000070028000785600087856100f70f200058
:100af0000720e1009e0032000728e1009c00320040
:100b0000010678000400e000b4003200f70720007e
:100b1000878060000170a0000500e000c000320086
:100b2000f7072000878161000370a00005065200ce
:100b30000f003a000b50e1000b0032000308e10007
:100b400002003a000200e1007e0032000204500080
:100b500083845800040031000001fd008101fd0084
:100b60008402fd008a05fd006044b80021003700c2
:100b70000520e10005003d000001fd008101fd00b0
:100b80008402fd008a05fd00050652007a60e1003e
:100b9000050035000170a1004722dd00848070004f
:100ba0008a807000630037006044b800ef0266007e
:100bb00007ff2f00070666000500e000060034006e
:100bc000f08312008714dd000511de00071bdd0035
:100bd000060171008519de007060e1000500350036
:100be0000904780082047800030178008001eb009a
:100bf000700656000b50e10003003a00020040006e
:100c0000838048000400370060041400e0841c0066
:100c100002005800838058000188a30006003200bb
:100c20008100d1000080d3008984d3000884d300e0
:100c30000402e800270037000178a30025003a00ed
:100c40000100e000030032008186cf006986560073
:100c50000a0037008c0020000000e00004003a0089
:100c600009007800880478000004eb00700252004c
:100c70008086cf000d0646000c06e9007060e1009a
:100c800006003500800078000900780088047800ac
:100c90000004eb0070065600700252000c00e000e9
:100ca0000c0034008c08dd00f00316000703de00a2
:100cb000868070000c00dd00074bde00060070002f
:100cc0008c4cdd000743de00868474000c44dd009c
:100cd0000c0252006120e10020003500610160003b
:100ce0000700280087816400f7ff270087836400de
:100cf000070374000300e000060032008203730063
:100d0000040032000000e800e08048000188a300f1
:100d10000e003a00f70f20000720e1004a003d00d6
:100d20000170a1004722dd00810072008a807000fe
:100d30000000be004f06be004f05be004f04be00bf
:100d4000000006006000b800faff37008100d10003
:100d50000080d3000402e800eeff370004017800b1
:100d600089017400a10107008a807000f1ff37003b
:100d7000f7010700070278000001fd008101fd0076
:100d8000f301070087027800850372000778a3004b
:100d9000040032000001fd008101fd000602070091
:100da000e4ff3700850362000768a30008003200f3
:100db0000b50e10003003200f0ff2f00f1ff27008d
:100dc000dcff37000001fd008101fd00d9ff370085
:100dd0000468a300d7ff3200faff3700f8ff2700ae
:100de000888360000b003a000000e00009003a0030
:100df0008303640082837300020032000200be009d
:100e0000ccff37000b50e100ceff3a000200be00dd
:100e1000c8ff370014002000810064003eff370047
:100e2000f8ff27008883610004003a000200e00018
:100e300002003a008c007800beff37001500200049
:100e40008301640039ff370001f82700000020000b
:100e500081007500b7ff3700889fbe008a9fbe00e3
:100e60008c9fbe001b0020000202be0005866800a9
:100e700006002800060666004709de00f20fb200f1
:100e8000820032000243e80080003200c729de0001
:100e9000f30fb2007d0032000343e8007b00320014
:100ea000f107b2000170a000f507b2000570a000c4
:100eb000c708dd004903de00868070004700dd00c2
:100ec000c72add004923de00868272004722dd004a
:100ed00003055100040350008583580003003100ce
:100ee00000004000818048000a05e9008c1f78005e
:100ef0008a9fbe0004005000858058000402420012
:100f000085824a0000004000818048000005eb0017
:100f10000004be006033b8000406be000d48e100c6
:100f200056003100110009004dccd8000c01b8006a
:100f30000d02b8008481410060824a008283530020
:100f400003045c0084845c0060055d000a00e0002e
:100f500025003a00800578000d40e100490031008d
:100f60008800780007007800110009004d88d8003b
:100f70000c01b8000d02b8008481410060824a0073
:100f80006003110083835b0004045c00e0845c0068
:100f90000900e00021003a004f01be000300e0001c
:100fa0002b003200e3016000070673008c817100a2
:100fb00001003200640070004200de004e5edd0081
:100fc0000c007000c258de0001e0a00083010700a1
:100fd000cf017800818071004f06be004f05be0032
:100fe0004f04be00000006008c8343000d044c003b
:100ff000e0844c0060054d000000e9000a00e000bc
:10100000d4ff32008c8343000d044c00e0844c007c
:1010100060054d000000e900ceff37000c034300df
:101020008d834b0060044c00e0844c000000e9001c
:101030000900e000d8ff32000c0343008d834b0011
:1010400060044c00e0844c000000e900d2ff37004f
:101050004200de004e5edd000c007000c258de0073
:1010600001e0a000cf0178000300e000daff3200c9
:1010700060001000e0801800d7ff3700f0ff2f005d
:10108000aaff3700f0ff2f00b9ff37000404be00ad
:101090002f010700870678000004fd008104fd0091
:1010a0002b010700078366000678a30003003200c7
:1010b0000960a7000800be002c0037000d78a300cf
:1010c000020032000800be00280037000778a300a5
:1010d00026003a0001f0a10009f0a1000668a30073
:1010e00003003200f1ff2700f0ff2f00baff3700a6
:1010f0000d68a300030032000800be008c80700061
:10110000b5ff37000768a30007003a000648a300b0
:1011100003003200f1ff2700f0ff2f00aeff370081
:101120000d48a300030032006000b8008c807000fe
:10113000a9ff37000748a3000400320001f8270088
:10114000000020008c807000a3ff370076010700ac
:101150000004fd008104fd00020578007201070013
:101160000802be008a01780059ff37000160a00024
:10117000120220008286880097ff37000100e000fd
:10118000120032000500e00010003200889fbe000f
:101190008a9fbe008c9fbe000006eb0001f8a300f2
:1011a0000300320060001000e08018000cf0a00086
:1011b00005f8a3000300320060021200e0821a006a
:1011c0000cf0a2008005eb0041ff37006000b80082
:1011d000020005000383680007002800070363007e
:1011e000470ade000480a100c71ade000580a100c6
:1011f000f70f20000720e100420032000728e1003d
:1012000040003200889fbe008a9fbe008c1f78007d
:10121000f107b200f307b2000400e00064003200fe
:101220000170a0000500e000680032000370a0001b
:1012300085054200eb07b1000204b8000302b800c4
:101240008484440060854a00020ab8008484440013
:101250000a854a00030ab80004054500040033006b
:101260000804d0008984d2000a85d2008b05e900e9
:101270006158e1003d0035000210200009016100c5
:101280000308200089816100f7072000878364003c
:1012900008867300c84cde00c853dd0087847400e4
:1012a0004855de000300e0000600320082037600ad
:1012b000040032008904e80060054d000a88a3009c
:1012c0000c003a00f70f20000758e10044003d00f1
:1012d0000a70a100c75ddd000a8575008a007300f1
:1012e000090078004f0678004f05be004f04be008d
:1012f000000006000a05d1008984d3008b05e800b0
:10130000f0ff3700881f780006047800900007007f
:10131000070278000001fd008101fd008c0007003c
:1013200087027800850372000778a3000500320069
:101330000001fd008101fd009f0007004f047800bf
:1013400000000600850372000748a3000300320076
:10135000f0ff2f00f1ff2700f8ff3700000020000a
:1013600001f8270088807000f4ff370088017800ba
:101370004848dd00808171004848de00c850dd002b
:1013800001007000c850de00060478000b017800f0
:101390001600070088807000d2ff37000500e000cb
:1013a00005003200170020003a0007009dff3700bb
:1013b00081037000f9ff3a00860078004f0678003c
:1013c0004f05be004f04be000000050083037100fe
:1013d000f9ff3200270020002e00070094ff37009d
:1013e00001f8270086807000f4ff37000100e0005c
:1013f00026003200610111007810e10023003c005a
:101400006022b8007010e10004003500800278000e
:10141000010078008000eb00700151000200e00044
:101420000900340070031100062add00822ade0064
:101430008603dd00878272000200de00860bdd007d
:10144000070070008208de0084817100f4ff27002d
:10145000048262008481710004002800848262009a
:101460006102600005f0a600000006000482710021
:10147000070032000000e800e0804800000006009d
:101480000002be006000b800efff37006000b80047
:1014900000000600889fbe000004eb006138e100f8
:1014a00016003a000100e00008003a00c800de0023
:1014b0004800dd00880020000100e00003003a0041
:1014c000c800de004800dd00680444008184cf00cd
:1014d000e9845400060034008908dd00f08314001c
:1014e0008703de00878070000900dd0009044400e6
:1014f000610214004f04be00000006000300e0007b
:1015000008003a00c811de004811dd008800200004
:101510000300e00003003a00c811de004811dd00be
:10152000680444008384cf00e9845400060034003a
:101530008919dd00f08314008713de0087817100b4
:101540000911dd0009044400e1021400e9ff37003d
:101550002700200001f0a70017002000470bde0045
:10156000f60fb200040032000643e8000a00320021
:101570004702b3000000060001037800f607b2003e
:101580000603700002003a000703b30000000600e3
:101590008702b3000000060001037800f607b200de
:1015a00006037000020032000770a0000000060071
:1015b0000760a000000006000478a30004003200c9
:1015c0000578a300030032000168a30001003a007f
:1015d0000200be000160a000000006008101700052
:1015e000270032008002eb0001f8a3000300320064
:1015f00060001000e080180015002000f4072000b3
:101600000202420020003400f7032000870360003c
:1016100006042000000363000208200000016100ae
:101620004700de00c909dd0000807100c708de0048
:101630000600e00008003200870371000600320057
:101640001000b0000180b0000188a3000200320049
:10165000c108de000402e800f107b200f30f200029
:101660000320e10003003d004722dd0081007200fd
:101670002900370001f827000000eb0026003700a2
:101680006000b80000000600680212007f20e10040
:10169000020034006000b8001f0037006011b8007d
:1016a0007020e1000400350080017800010078001e
:1016b0008000eb00700252000400e00009003400da
:1016c000f00312000719dd008419de000703dd00b6
:1016d000868171000400de00070bdd00060070004b
:1016e0008408de00f7ff270083836300870371000f
:1016f0000600280003036300070032000700e00033
:1017000003003a00610160000281730002003200b0
:101710001000b0000180b0000500a6000000060027
:1017200001f0a000000006004f0ade004709de00bd
:10173000f107b200f20fb2000b003200f207b10065
:101740000170a000c708dd00c901de0083807000c1
:101750004700dd000400a600000006006000100045
:10176000e080180000000600810f700001003a00c0
:10177000000006008182cf000500e00010003e005e
:101780008082cf00ee8242007028e1000400390020
:1017900007003e00800078000000eb000e003700dc
:1017a000708312008600de000500dd000a003700ad
:1017b000708352008600dd000000eb000600370059
:1017c000e28252008508dd00708312000603de000d
:1017d000868070000500dd007507b0000501ea0095
:1017e0000400a6000000060060001000e080180061
:1017f00000000600889fbe008a9fbe00841f7800fc
:101800007c0007004f00780011003300f0ff2f002c
:10181000838f6c0006003b00040565000a00a700ea
:101820000800370009f0a60010002000080037006b
:10183000820f5400838f5c000300390010002000e9
:1018400001003e000000200009f0a7000000ea00af
:101850004f05be004f04be000000e000000006007f
:10186000881f7800030478000300e00007003d00b3
:1018700060001000e080180060011900e08119008c
:1018800002003b0001f02d000300370004000700b8
:1018900008f0a70001f0a0004f0478000000060047
:1018a000889fbe008a9fbe00008270000402710003
:1018b00004827100260032000004be000200be0057
:1018c0006011b8006b092000950220000182cf0052
:1018d0000a0039000541b1000082cf00070039003d
:1018e0000541b1000982cf00040039000541b10073
:1018f0000882cf00010039000541b10005425200c5
:10190000120032000a003b00828171006101640014
:101910008100d1000080d3008984d3000884d300e3
:101920008b05e8000442e800f7ff3a0007003700a3
:101930000804440089844c0000004800818048006d
:101940008b05e9000442e900f9ff3a0003000700b3
:101950004f05be004f04be000000060081002000bd
:10196000618055000b003d000b00200061fe2f0040
:101970000100e1001d0034008281710061016400fa
:101980008904d1000884d3000000e800faff3a007f
:10199000710020006100640003007000020060001c
:1019a0000900320061044400e0844c000988a5006d
:1019b000050032008b05e8006808e10002003a00eb
:1019c0008904d1000884d300f20f20000258e100fe
:1019d00005003d00c75ddd00f907b2008980750094
:1019e00008007800000006000bf827008b00780044
:1019f000000005000004be0014fc07000003be0048
:101a00000405be000200be0010fc0700844f7500f4
:101a1000000006000400fa00889fbe008a9fbe00f6
:101a20008c9fbe0002057800830578000bf0a100b2
:101a30000800200009f82700880f5500898f5d00f5
:101a400006003e00000378008103780007f0a10043
:101a5000880f5300898f5b000600360019fc0700d1
:101a60004f06be004f05be004f04be000080fa00c6
:101a7000000006000800200009f82300880f51002c
:101a8000898f590002003a0097000700f4ff3700e1
:101a90004e1cde000900200088bf9f0099bf9f00f8
:101aa0000fbe9700620466008004eb004f0ade0060
:101ab000050020000404740085847400e00f5300c6
:101ac000e08f5b0009003a00e20f5400e08f5c00f9
:101ad0007f003200e20f5400e08f5c00e0ff39002d
:101ae000e30f5400e08f5c005f003200e00f550010
:101af000e08f5d0008003a00610064008000eb00a8
:101b0000e00f5000e08f580074003200b0fd20005c
:101b100091fc2b00d2ff37000400200005f82700bd
:101b2000840f5500858f5d000f003a008a0f530027
:101b30008b8f5b0040003a00e10f5400e08f5c00a7
:101b400058003200e00f5400e08f5c005800320073
:101b5000e20f5400e08f5c002b003200e30f5400d2
:101b6000e08f5c00310032000c0020000dd020001e
:101b70000a0246008b824e00840f5300858f5b0063
:101b8000ddff3e000400200005f82700840f53000d
:101b9000858f5b00d8ff3200620264008002eb0098
:101ba000e00f5200e08f5a000500320006064600a2
:101bb00087864e008c0f55008d8f5d002d003e00f6
:101bc000a5fc07008101070047000700e10f540052
:101bd000e08f5c0029003200e00f5400e08f5c00d1
:101be0009fff3200e20f5400e08f5c0025003200be
:101bf000e2d22b00b33b2300b2fb0700b2fd200072
:101c00009304240025003700020020000304240070
:101c1000b0fd2000910424006efd070002002000aa
:101c200003e823006bfd07008dff37000200200052
:101c300003042c00f6ff3700e10f5400e08f5c0036
:101c40001e003200e00f5400e08f5c001e003200e6
:101c5000e20f5400e08f5c001d003200e30f5400df
:101c6000e08f5c00c0ff3a00b0fd200091042c0022
:101c70007bff37006000b800d4ff370001f0a200fe
:101c800077ff3700e2d22b00b33b23008dfb070028
:101c90000001be00b0fd20009104240080fb07007d
:101ca0006fff3700b0fd200091f42b006cff370070
:101cb000b0fd200091f4230069ff370000002000f0
:101cc0000100280066ff37006000b80064ff37009d
:101cd000b0fd20009104240061ff3700b0fd20001a
:101ce00091fc23005eff3700ea874700889fbe0013
:101cf0008a9fbe008c9fbe008e1f78000002be002f
:101d00004f0dde000b0020000004780085047800f1
:101d100009f0a100f0ff2f00f1c72400800f54004c
:101d2000818f5c00100036000000200001f82700c1
:101d3000800f5400818f5c0025003e0002002000cf
:101d400003382000a0fd200091fc23005dfb07006c
:101d50000002be00e00f5500e08f5d001c00320065
:101d600005f0a2001a003700f0ff2f00f1ed23006c
:101d7000800f5400818f5c001c003e000087eb0048
:101d8000f0ff2f00f1972300800f5400818f5c003b
:101d900033003e006000b80003f827008580610032
:101da000e00f5000e08f580009003a000401be0027
:101db0000400be00f4b79f0085bf9f0005fd07002b
:101dc000d0b79f00e1b79f007fb297008fba97000e
:101dd0000400be004f0778004f06be004f05be004e
:101de0004f04be00af00b100000006000400be00ba
:101df000f60007000006be00f0ff2f0071f9230077
:101e0000800f5400818f5c0055003e00f0ff2f00d2
:101e1000f1f22300800f5400818f5c0041003e00ee
:101e20000c01be000c00be0026fb070002002000d3
:101e300003f823001afb07000004be000200200084
:101e4000030024000c00be001efb07000001be00c2
:101e50000800be0000fc07000002be000007eb0007
:101e60000401be000400be00f4b79f0085bf9f00c0
:101e7000d8fc07000006be000001be00d5fc07002c
:101e80000004be0052c22a00c3d72300d1fc0700c1
:101e9000d2502f0013e123000afb07000801be0007
:101ea000ccfc070092aa2a00a3ea230005fb070046
:101eb0000c01be00c7fc07000006be007224210012
:101ec000a3dd2b000800be00c2fc070082a92c0085
:101ed000c3e42300f2fa07000801be00bdfc0700be
:101ee0000001be000c00be00f6fa07007fb29700aa
:101ef0008fba97000401be00b6fc07000003be00c5
:101f00007fb297008fba97000e00e00032003d00cc
:101f10000001be000400be00e1fa07000002be009e
:101f2000abff37000200200003f823000c00be00c6
:101f3000dbfa07000004be000200200003f82300c3
:101f40000c00be00dffa07000001be000800be0062
:101f5000c1fb07000002be001e002000c0ff3700ca
:101f6000f0ff2f00b1012400800f5400818f5c002e
:101f700012003e000200200003fc23000c00be0003
:101f8000c7fa07000004be000200200003fc230083
:101f90000c00be008ffc07000200200003f82300a5
:101fa000c8fa07000001be000800be00aafb070037
:101fb0000002be002e002000a9ff37000c01be0069
:101fc0000000200001f82b00a3fb07000002be0068
:101fd0003e002000a2ff37004277dd00e8b8220073
:101fe0000e044400e0b722000e0740001e017800f6
:101ff0009e0190000600be00f4b79f0085bf9f00c1
:10200000a7fa07007fb297008fba97000401be00bd
:10201000a3fa07000001be001800780098009000a5
:102020009ffa07004aff37000400fa000001780019
:102030008101780003f0a100a4fd200095f42300a5
:10204000840f5100858f59000e003e00f4ff2f00d1
:10205000f5972300840f5100858f59003a003e0008
:102060000200200003b8270096fa0700e0bf9f0097
:10207000f1bf9f000000200001f823000080fa005b
:10208000000006004f0ade0005002000163d250076
:10209000b7072400860f5100878f59001b003e00b0
:1020a00036be2c0067012400860f5100878f59002f
:1020b0000a003600b2fd2000930424000400e00072
:1020c000040032007ffa07004202070001f0a2007c
:1020d000eaff370072fa0700fbff37000400e00058
:1020e00005003200b2fd200093fc230075fa0700c2
:1020f000c3020700e1ff37000001be00b0fd200071
:1021000091fc230066fa0700f9ff3700561d2300f3
:10211000270e2400860f5100878f590014003e00bf
:10212000f6dd2e00f70a2400860f5100878f590034
:1021300009003600b2fd2000930c24000400e000ea
:10214000030032005ffa070022020700cbff3700ce
:1021500053fa0700fcff37000400e00001003200e2
:1021600001f0a20042be2c0063092400e5ff370005
:10217000f4ff2f00f5f72700840f5100858f5900d9
:10218000040036000001be000200be0044fa070051
:10219000baff370064815700420207006301600004
:1021a0006fb89700ffb89700e10f510005003200ab
:1021b000e20f5100c4ff32000200e000ccff3a0001
:1021c000e1ff370001f0a200c9ff370001017800ec
:1021d00002f0a1008200780000000600889fbe0087
:1021e0008a9fbe0080047800010478008205780090
:1021f0000305780001f0a1000200200003f8270089
:10220000820f5000838f580012003e000b007800b0
:102210008a00780001f0a100820f5000838f5800df
:102220000d003e0009027800880278004fc1de00f0
:10223000820178004fd0de0080007800800f5100ce
:10224000818f590009003200e00f5200e08f5a00e0
:1022500001003d000a04be000900780088007800f3
:102260004f05be004f04be00000006000b017800c1
:102270008a0178000900780088007800aef907002c
:102280000000e000f2ff3700889fbe008a9fbe007a
:102290000005be00820478000304780001f0a1006c
:1022a0000200200003f82700820f5000838f58009f
:1022b00013003e00090078008800780001f0a100ba
:1022c000820f5000838f58000b003e000a00be00b2
:1022d0004fdade00840278004fc1de008201780010
:1022e000820f5200838f5a000a003200e00f500024
:1022f000e08f580002003d008a0478000b0478004b
:1023000009007800880078004f05be004f04be0029
:1023100000000600090178008801780086f90700ae
:102320000000e000f3ff37000400fa00889fbe00c1
:102330008a9fbe000203410083834900e00f5300df
:10234000e08f5b0010003200020278008302780008
:1023500005f0a1000800200009f82700880f5200ae
:10236000898f5a0008003e00a0bf9f00b1bf9f00a8
:10237000470dde000b002000f40f20000a0562006c
:10238000840f550007003a0092fb07000001be00d1
:10239000b1fa07004f05be004f04be000080fa00ee
:1023a000000006000002400081824800840f5300b4
:1023b000858f5b0006003900840f5300858f5b001a
:1023c000f4ff3a006011b80082fb0700f1ff37000c
:1023d0000a00e0004c003a002fbb9700bfbb9700fb
:1023e000493add00c732de00850272004932dd0065
:1023f000e00f5200e08f5a003f003d0061021500df
:102400002fbb9700bfbb9700040478000804e900c5
:10241000030033000603430087834b00fbff3700b4
:102420000602be00471bde00070020000683fb00fb
:102430000600e0003d003a00491cdd00c714de0044
:10244000890474004914dd00e00f5400e08f5c0043
:1024500032003d00e10313000204be008703e900df
:10246000030033000804440089844c00fbff37005c
:102470000801520089815a00860f55002f003c0048
:10248000e00f5100e08f590004003500e00f5100cb
:10249000e08f5900cbff32000202be004728de0069
:1024a00001002000e00f5000e08f58002e003200a5
:1024b0000a00e000300034000000200001f82f0086
:1024c00004024000858248006150b900c700dd0069
:1024d0000000200004007000858070006022b800b9
:1024e00002002800bfb9970083026100000072005b
:1024f00081807200a7ff37000a05e900040242004c
:1025000085824a00baff37002fba9700bfba9700fa
:10251000f507b2000570a000c2ff37000603e9000e
:102520000804440089844c00c7ff37000204be0041
:10253000f907b2000970a000cdff3700e00f51008d
:10254000e08f590004003500e00f5100e08f590082
:102550009cff32000202be000402420085824a0053
:102560000a05e900c2ff37000402420085824a00e2
:102570000a05e900c9ff3700610515000400be0027
:102580000a05e900030033008100d1000080d30078
:10259000fbff3700d1ff37000400fa00889fbe0020
:1025a0000004be008900780001f0a100a4fd200015
:1025b00095f42300840f5000858f58001e003e00c4
:1025c000f4ff2f00f5972300840f5000858f5800eb
:1025d00016003e006000b80003f827008980610003
:1025e000e00f5000e08f58000b003a00020020007e
:1025f000033820000800be00f6fa07000001be0004
:10260000c2bf9f00d3bf9f000800be004f04be00a2
:102610000080fa00000006000200200003b8270036
:102620000800be0027f90700f4ff37000800be00cd
:1026300073010700180037004f49de000300200037
:10264000143d2500b5072400840f5000858f5800e5
:102650001d003e0034be2c0065012400840f500094
:10266000858f58000e003e000800be000200e0000a
:10267000b2fd200093fc23000500320011f9070091
:10268000d40007000004be0009f0a200deff3700fe
:1026900003f90700cf0007000004be00daff37008f
:1026a0000800be000200e000b2fd200093042400f8
:1026b0000300320003f9070001f0a200dcff37003d
:1026c000f7f80700fcff3700541d2300250e2400f7
:1026d000840f5000858f580017003e00f4dd2e0057
:1026e000f50a2400840f5000858f580009003e0031
:1026f0000800be000200e00042be2c006309240076
:1027000002003200eff80700e2ff3700e4f80700ac
:10271000dbff37000800be000200e000b2fd200031
:10272000930c240002003200e6f80700c0ff3700d7
:10273000dbf80700beff3700f2ff2f00f3f727009a
:10274000820f5000838f5800050036000801be003c
:102750000800be00d2f807000004be00aaff370040
:10276000688157000800be00ce00070063016000ca
:102770004fb89700dfb89700e10f5100c5ff320056
:10278000e20f5100ccff32000200e000bcff3a0033
:10279000a7ff3700889fbe008a9fbe008c1f78006d
:1027a0000004be000003be006055b80004f8270016
:1027b000890562000400200005f82700840f5500f9
:1027c000858f5d000b003a000001be0081fa070012
:1027d0000001be000800be00baf807000004be00f9
:1027e0000800be004f0678004f05be004f04be0033
:1027f00000000600e00f5000e08f580011003c0080
:10280000000278008102780005f0a100e00f52007c
:10281000e08f5a00f2ff3200e00f5000e08f5800c6
:1028200008003d0010022000f05d89000801be0094
:102830000800be009af807000001be0086f90700f4
:10284000e6ff370047bdde00cfbdde00e00f5500dc
:10285000e08f5d000c003a000603430087834b00c5
:1028600061004500e0804d000001eb008701780029
:102870000308b200e00f5100e08f59004d00320014
:1028800060051500e0851d00fa07b1000b80b1005e
:102890000600be00f107b2000170a00061016500f2
:1028a0008001eb00e00f5100e08f59000200320080
:1028b00000004000818048008b85d1000a85d3004c
:1028c00000004000818048009c01200002002000a0
:1028d000031020006044b8006033b80006024100d5
:1028e00087824900800f5200818f5a0006003c0009
:1028f000040341008583490004005000858058008e
:10290000080441008984490000004000818048009b
:102910008301d1000281d3000c06e9000c00e00025
:10292000eeff3a00e00f5000e08f58001600320032
:102930000226240023da20000000200001f82300f2
:1029400057f807000200200003f82300fcf70700f7
:102950000000e0000c0035000226240023da2000ed
:102960000000200001f8230056f8070002002000b4
:1029700003f82300f2f707000000e0000f00340026
:1029800062044400e0844c008984d1000884d300b0
:102990000000200001f0230008004000898048006a
:1029a000c755dd000a0020000a0440008b8448005f
:1029b0008bff37000005be00a7ff37006100440011
:1029c000e0804c00000478000800a1008104780039
:1029d000edff37000400fa00889fbe008a9fbe000a
:1029e0008c9fbe000001be00faf907000004be0083
:1029f0000001be00f7f907000005be00020020003c
:102a000003f02b000800be00f2f9070002002000ce
:102a100003f823002bf807000006be00f2a92a00e5
:102a2000a3d223000a00be00eaf907000001be009d
:102a30000c00be0023f807000002be0072a12900ae
:102a4000c37c23000800be0084bf9f0095bf9f0089
:102a5000e0f90700f243200063ab230010f8070001
:102a60000006be000a01be000800be00d9f907003a
:102a70000001be000c00be00d6f907000001be0038
:102a80000fba97009fba97000400be000df8070028
:102a90004f06be004f05be004f04be000080fa0086
:102aa000000006000400fa00889fbe008a9fbe0056
:102ab0008c9fbe00000678008104780082067800b2
:102ac00001f0a100a2fd200093dc2400820f500041
:102ad000838f580023003e0032982f0023f22300fa
:102ae00089007800bbf907000200200003b424002d
:102af000f4f707000200200003b42400e8f7070001
:102b00000005be0090f7070000047800a2fd200039
:102b100093fc23000a00be00aef907000001be00ce
:102b20000c00780089007800ddf707000002be0085
:102b3000325a2800832823000a00be0084bf9f0069
:102b400095bf9f00a3f907000001be000fba9700d0
:102b50009fba97000400be00d1f70700808ebe0028
:102b60000b003700f2ff2f00f3f72700820f500011
:102b7000838f58000c00360000017800890178002e
:102b800089007800c6f70700808ebe000004eb00c5
:102b9000080078004f06be004f05be004f04be007f
:102ba0000080fa0000000600890078004c00070051
:102bb0000005be0032982f0023f2230085f907009c
:102bc0000200200003f02300bef7070055000700b5
:102bd0000004780022fb070032982f0023f2230024
:102be0009df807000001be000a00be00acf7070018
:102bf0006000b800a0069800b1069800d7ff370023
:102c00000400fa00889fbe008a9fbe008c9fbe0011
:102c10000006be000001be006ef907000004be0001
:102c20000001be000c00be006af907000005be00ee
:102c30000801be000800be0066f907000a01be00d8
:102c400064f907000002be00c2c3260063632300cc
:102c50000800be0084bf9f0095bf9f005df907007c
:102c6000f27c2000039523008df707000001be00d1
:102c70000fba97009fba97000400be0055f90700ed
:102c80000002be004288280083c023000800be0066
:102c900084bf9f0095bf9f004ef90700b2aa2a008b
:102ca000a3e223007ef707000a01be0049f90700ee
:102cb0000c01be0083f707000001be000fba9700a9
:102cc0009fba97000400be007ef707004f06be00c3
:102cd0004f05be004f04be000080fa000000060051
:102ce0000400fa006011b800e2bf9f00f3bf9f002c
:102cf0006fbb9700ffbb97000002be00f0ff2f00e4
:102d0000f1ff2f00f2ff2f00f3ff27000000620009
:102d10008180620002016300838163000080fa0009
:102d2000000006000003be0048f707006011b8006d
:102d30000470a70007f0a1006509b1001b00320074
:102d400012003500860220000628e1000800350048
:102d5000f3ff2700f2ff2f006110b9000700e00029
:102d600018003b00030028006000b80002000500c6
:102d70000000400081804800020149008381490031
:102d80008502e900faff3a0008003700f88f420098
:102d900002003c008000eb00000005008100d10033
:102da0000080d3008502e800fcff3a000700e00045
:102db00004003b0060001000e08018006001190072
:082dc000e0811900000006008b
:020000040000fa
:102dc800000000004040000000000000a04000009b
:102dd8006f120000033b0000cdcc00004c3f000008
:102de80000000000c03f0000295c00000f3e00000a
:082df800295c00000f3e000001
:020000040000fa
:102e00000a00fa002007980031079800420798004e
:102e10000040eb00004f78009e407800e0cfb30008
:102e200000c06800004f78002e0090004880de004f
:102e3000004078009e40780000c06800004f780095
:102e40002e009000004078009e40780000c068008e
:102e5000004f78003e0090004880de00004078007f
:102e60009e40780000c06800004f78003e0090004f
:102e7000004078009e40780000c06800004f780055
:102e80000000eb00100798000c0037001e009000b7
:102e9000e800470011004000104078009e40780094
:102ea00000c06800004f78000e80e8008e80e800c7
:102eb0001108e80090007800110798009e0090002b
:102ec0003e009000808f5000f0ff35001e407800db
:102ed0000080fa00000006000e00fa00889fbe0085
:102ee0008a1f7800400798005107980062079800f1
:102ef0008f0478000f007800000578006a00470012
:102f000061002000108040008000e9002107980047
:102f10000000e8000000d100800040000f007800b1
:102f20008187470060004000300798000000eb00f8
:102f3000100798009e0090000e80e8000108e8004d
:102f400010017800120798003e0090000100400038
:102f5000e1cfb300014878004e009000c880de0049
:102f60001e0190000e80e8000208e8009001780041
:102f700013079800814078003e0090000200400056
:102f8000014878009e0090000e80e8000108e800eb
:102f900010017800120798004e0090000041780060
:102fa0003e00900001004000024878005e00900062
:102fb000c880de001e0190000e80e8000208e800d4
:102fc0009001780013079800814078003e0090003f
:102fd00002004000014878009e0090000e80e8004a
:102fe0000108e80010017800120798005e009000c8
:102ff000004178003e009000010040000248780047
:103000000000eb00000f78000d0037001e00780074
:10301000ec004700910040001e0190000e80e80087
:103020000208e800900178001307980091407800aa
:103030003e00900002004000014878001e0fe800aa
:103040005e0090009e007800808f5000efff3500fa
:103050001e0490000e80e8000808e8009000780048
:10306000110798006e019000de0090004e00900065
:1030700063ff0700804078003e0090000800400099
:10308000014878003e0090009e0090008e130700db
:103090008a07780000000000890778004f05780053
:1030a0004f04be000080fa00000006000200fa0093
:1030b000004f780010808000e40f500024003200a0
:1030c000e40f500007003c00e20f500013003200f4
:1030d000e20f500017003c000000e0000800320042
:1030e00055003700e60f500033003200e60f500065
:1030f0001d003500e70f50003c0032004e00370045
:103100001e407800e24f40004d003a000830ef00ca
:103110002000200010808800490037001e80fb003e
:103120004800dd00208088003000200010808800ea
:10313000460037001e80fb00218080000080700068
:103140002080880040002000108088003f00370069
:103150001e80fb004800dd00308088005000200009
:1031600010808800390037001e80fb00318080000d
:1031700000807000308088000830ef0030808000d0
:103180000000e00003003a0070002000108088007a
:103190002e00370031808000f03f2000808f5000eb
:1031a00003003c00600020001080880027003700ea
:1031b0000230ef0025003700418080000100e80068
:1031c00040808800a00e2100010040001e487800c9
:1031d0004180800030808000808f50001a003500d0
:1031e00070002000108088001700370031808000b8
:1031f00020808000a20e210001ff07000af0b70026
:103200001e417800b100210082487800a100210011
:10321000914078000bd0bf0080cf500004003a00ee
:103220003180800020808000a20e21007500070000
:103230000230ef00050037000230ef0003003700d6
:103240000000000001003700000000000000000046
:103250000080fa00000006000200fa00004f78002b
:1032600060808000e40f500024003200e40f500022
:1032700007003c00e20f500013003200e20f500044
:1032800017003c000000e000080032005500370045
:10329000e60f500033003200e60f50001d003500ed
:1032a000e70f50003c0032004e0037001e4078000f
:1032b000e24f40004d003a001230ef0020002000a5
:1032c00060808800490037001e80fb004800dd0058
:1032d0007080880030002000608088004600370041
:1032e0001e80fb007180800000807000708088006c
:1032f00040002000608088003f0037001e80fb00f7
:103300004800dd0080808800500020006080880038
:10331000390037001e80fb00818080000080700033
:10332000808088001230ef00808080000000e00084
:1033300003003a0070002000608088002e003700f3
:1033400081808000f03f2000808f500003003c000f
:103350006000200060808800270037000c30ef00fc
:1033600025003700918080000100e80090808800ef
:10337000a04e2100010040001e487800918080008e
:1033800080808000808f50001a003500700020007f
:103390006080880017003700818080007080800086
:1033a000a24e210096fe070014f0b7001e417800df
:1033b00051012100824878004101210091407800ac
:1033c00015d0bf0080cf500004003a0081808000fb
:1033d00070808000a24e21000a0007000c30ef0030
:1033e000050037000c30ef0003003700000000003c
:1033f0000100370000000000000000000080fa001b
:10340000000006000600fa00000f7800110798007f
:1034100022079800200720009e007800808f50002f
:1034200044003200200720009e007800808f50006a
:1034300016003c00000520009e007800808f5000a0
:10344000bd013200000520009e007800808f5000f2
:1034500005003c00000220009e007800808f500094
:10346000c20132002e023700100520009e007800b5
:10347000808f500029023200200520009e00780035
:10348000808f50001b0032002502370050072000bb
:103490009e007800808f5000a80032005007200066
:1034a0009e007800808f500009003c00300720000b
:1034b0009e007800808f50005600320040072000a8
:1034c0009e007800808f50000f00320014023700f9
:1034d000600720009e007800808f50000a013200b3
:1034e000000920009e007800808f50008501320086
:1034f0000b0237002e009000104078000080fb0087
:1035000034150700060237008000eb002e00900003
:10351000de100700705589008155890041002000a8
:103520002e009000d910070090558900a155890000
:10353000fb0137006000b800504b8900614b8900e7
:103540006000b800704b8900814b89006000b800b2
:10355000904b8900a14b89006000b800f04a8900b7
:10356000014b89006000b800f054890001558900c2
:103570006000b80070558900815589008000eb001b
:103580002e009000c1100700008188001181880082
:10359000410020002e009000bc1007002081880010
:1035a00031818800810020002e009000b7100700b4
:1035b00040818800518188004681800057818000c9
:1035c0002481800035818000028180001381800089
:1035d00000002000812c2400809fbe0000002000fd
:1035e000812c2400809fbe0000002000812c24003c
:1035f000809fbe00609422002a090700ec875700d4
:10360000220d2100c10020002007200032fe07000b
:10361000c30137006000b800d04c8900e14c89003c
:103620006000b800f04c8900014d89006000b800ce
:10363000104d8900214d89006000b800704c890050
:10364000814c89006000b80010558900215589001f
:103650006000b80090558900a15589008000eb00fa
:103660002e009000891007000081880011818800d9
:10367000410020002e009000841007002081880067
:1036800031818800810020002e0090007f1007000b
:103690004081880051818800008180001181800074
:1036a0000001be008000eb00e00d21009b10070030
:1036b00020818000318180000001be004100200097
:1036c000e00d2100951007004081800051818000ad
:1036d0000001be0081002000e00d21008f100700d6
:1036e00046818000578180002481800035818000e0
:1036f000028180001381800000002000812c2400c2
:10370000809fbe0000002000812c2400809fbe000e
:1037100000002000812c2400809fbe0060972200c2
:10372000e0080700ec875700e20d2100c1002000ef
:1037300030072000e8fd0700790137006000b8007d
:10374000d04c8900e14c89006000b800f04c890041
:10375000014d89006000b800104d8900214d89009d
:103760006000b800704c8900814c89006000b8008e
:10377000504b8900614b89006000b800704b890094
:10378000814b89006000b800904b8900a14b8900f3
:103790006000b800f04a8900014b89006000b80061
:1037a00010558900215589006000b800f054890047
:1037b000015589006000b8005051890061518900ad
:1037c0006000b80070518900815189006000b80024
:1037d00090518900a15189006000b800f050890023
:1037e000015189006000b800d0528900e15289007f
:1037f0006000b800f0528900015389006000b800f1
:1038000010538900215389006000b800705289006c
:103810008152890000002000812c2400809fbe007e
:1038200000002000812c2400809fbe0000002000aa
:10383000812c2400809fbe006033b8006022b80055
:103840006011b8006097220096080700ec875700c7
:1038500000002000812c2400809fbe00000020007a
:10386000812c2400809fbe0000002000812c2400b9
:10387000809fbe006033b8006022b8006011b800bd
:103880006094220087080700ec87570000002000a2
:10389000812c2400809fbe0000002000812c240089
:1038a000809fbe0000002000812c2400809fbe006d
:1038b0006033b8006022b8006011b80060a0220038
:1038c00078080700ec87570000002000812c2400b6
:1038d000809fbe0000002000812c2400809fbe003d
:1038e00000002000812c2400809fbe006033b800bf
:1038f0006022b8006011b80060a3220069080700c8
:10390000ec875700060137006000b800505189006d
:10391000615189006000b8007051890081518900af
:103920006000b80090518900a15189006000b80082
:10393000f0508900015189006000b800d052890020
:10394000e15289006000b800f052890001538900fb
:103950006000b80010538900215389006000b8004e
:1039600070528900815289008000eb002e00900087
:10397000c60f070060818800718188004100200027
:103980002e009000c10f070080818800918188007f
:10399000810020002e009000bc0f0700a08188004d
:1039a000b1818800c10020002e009000b70f0700f1
:1039b000c0818800d1818800010120002e00900084
:1039c000b20f0700e0818800f181880041012000ea
:1039d0002e009000ad0f0700008288001182880041
:1039e00060818000718180000001be008000eb00da
:1039f000e00d2100c90f07008081800091818000c7
:103a00000001be0041002000e00d2100c30f0700af
:103a1000a0818000b18180000001be0081002000f3
:103a2000e00d2100bd0f0700c0818000d181800022
:103a30000001be00c1002000e00d2100b70f07000b
:103a4000e0818000f18180000001be0001012000c2
:103a5000e00d2100b10f070000828000118280007c
:103a60000001be0041012000e00d2100ab0f070066
:103a7000a6818000b78180008481800095818000cc
:103a8000628180007381800000002000812c24006e
:103a9000809fbe0000002000812c2400809fbe007b
:103aa00000002000812c2400809fbe0060a0220026
:103ab000fc070700ec875700068280001782800011
:103ac000e4818000f5818000c2818000d381800084
:103ad00000002000812c2400809fbe0000002000f8
:103ae000812c2400809fbe0000002000812c240037
:103af000809fbe0060a32200ea070700ec87570002
:103b00008700370010002000a08288008000eb00b2
:103b10002e0090005d0f0700305689004156890045
:103b2000410020002e009000580f070050568900d9
:103b3000615689007a0037002070800000407800cc
:103b400061406000614068000080fb00e1006000af
:103b5000207080000000a1000080700020708800ac
:103b600010c0b30000f0b7006d0037002e009000c9
:103b7000104078000080fb00e30f50001800320076
:103b8000e30f500005003c00e10f50000800320038
:103b9000e20f50000c00320023003700e40f500009
:103ba00015003200e50f5000190032001e003700ea
:103bb000640047001000e800104078000080fb001f
:103bc000b080880018003700640047001000e8004b
:103bd000104078000080fb00c08088001200370091
:103be000640047001000e800104078000080fb00ef
:103bf000d08088000c003700640047001000e80007
:103c0000104078000080fb00e0808800060037004c
:103c1000640047001000e800104078000080fb00be
:103c2000f080880000000000b0808000e10f5000ac
:103c300009003a00b08080000040780061406000d8
:103c40000080fb00e1006000207080000000a10007
:103c50000080700020708800b080800000407800f4
:103c6000614060000080fb00e10060002070800087
:103c70000000a1000080700020708800c0808000db
:103c800000407800614060000080fb004f00dd00d4
:103c9000a174800001f0a10001007000a0748800f0
:103ca000d080800000407800614060000080fb0010
:103cb000610060004a00dd002170800001a0a100c9
:103cc0000100700020708800e080800000407800d3
:103cd000614060000080fb00610060004300dd0087
:103ce000a17380000130a10001007000a073880062
:103cf000f080800000407800614060000080fb00a0
:103d0000610060004900dd00217080000190a10089
:103d100001007000207088000100370000000000e2
:103d2000000000000080fa00000006002200fa00f7
:103d3000889fbe00404881005148810002f307007f
:103d4000000f78002048810031488100fef2070012
:103d5000100798006048810071488100faf207005e
:103d6000200798008048810091488100f6f2070002
:103d700030079800a0488100b1488100f2f20700a6
:103d8000400798000e80e8009e00780010804000f8
:103d90006100b90028f3070002002000030024009e
:103da0002df407005007980061079800e6004700cf
:103db0006800470011017800100041006100b9005f
:103dc0001df30700020020000300240022f4070076
:103dd00070079800010f98005e009000ee009000c0
:103de0000001be0037f307000001780001007800f1
:103df00082047800000478002e0090006100b90071
:103e00000df307000001be0009007800880078006b
:103e10000000be002bf307000001780001007800cd
:103e200082027800000278000200200003042400cf
:103e300005007800840078000000be0006f407004a
:103e4000100f9800210f98007e0090008e089000bf
:103e50000001be001bf3070000017800010078009c
:103e600082047800000478002e0090006100b90000
:103e7000f1f207000001be00090078008800780018
:103e80000000be000ff30700000178000100780079
:103e9000820278000002780002002000030424005f
:103ea00005007800840078000000be00eaf30700f7
:103eb000300f9800410f980000002000811b240063
:103ec000500f9800610f980000002000011424009a
:103ed000700f98000117980002002000832c240026
:103ee0001e089000ae089000dbf307000001780088
:103ef0000100780082047800000478007e099000b8
:103f00008e1190005e089000ee089000e4f2070029
:103f1000000178000100780082017800000178003b
:103f200003007800820078000001be0009007800dc
:103f3000880078000000be00a6f4070000017800a9
:103f40000100780082027800000278007e0990006b
:103f50008e11900005007800840078000000be00fb
:103f6000d8f2070000017800010078008201780093
:103f70000001780003007800820078000000be0095
:103f800071f207008084880002002000832c240046
:103f90003e089000ce089000aff3070000017800c3
:103fa0000100780082047800000478007e09900007
:103fb0008e1190005e089000ee089000b8f20700a5
:103fc000000178000100780082017800000178008b
:103fd00003007800820078000001be00090078002c
:103fe000880078000000be007af407000001780025
:103ff0000100780082027800000278007e099000bb
:104000008e11900005007800840078000000be004a
:10401000acf207000001780001007800820178000e
:104020000001780003007800820078000000be00e4
:1040300045f207007084880070848000f70f5000fc
:1040400002003400040ea80001003700040ea9008d
:10405000000000004f04be000080fa0000000600cf
:104060000400fa00008fbe0002002000031f24009d
:104070001e0078009e0090002ff207000000e00074
:1040800002003d0010002000010037000000eb009e
:104090000080fa00000006000400fa00008fbe0055
:1040a00002002000031f24001e0078009e009000e4
:1040b00021f207000000e00002003d001000200097
:1040c000010037000000eb000080fa00000006004d
:1040d0000200fa000040eb00004f78002048810009
:1040e00031488100deff07000000e00003003200dd
:1040f0001e4078000044a000004f78004048810036
:1041000051488100d6ff07000000e00003003200a4
:104110001e4078000034a000004f78006048810005
:1041200071488100ceff07000000e000030032006c
:104130001e4078000024a000004f780080488100d5
:1041400091488100c6ff07000000e0000300320034
:104150001e4078000014a000004f7800a0488100a5
:10416000b1488100beff07000000e00003003200fc
:104170001e4078000004a000004f78001e40780028
:104180000080fa00000006000600fa00091107008e
:104190000004e000040132000a11070001110700c9
:1041a000200798002e009000100078008000eb009f
:1041b00024f20700323323003305240005f40700fe
:1041c0000001780001007800820278000002780087
:1041d00002002000035824000500780084007800c5
:1041e0000000be001cf30700008fbe0062662600c0
:1041f00063ea23001e0078009e009000cef10700c5
:104200000000e00003003d006066260061ea230034
:10421000008fbe001e0178009e019000000020006b
:10422000812024000cf307000001780001007800d1
:10423000820278000002780002002000030a2400b5
:1042400005007800840078000000be0014f207002a
:104250008001780001017800030078008200780076
:104260000000be00204889003148890064004700f2
:104270001080e800100078008000eb00f1f10700ea
:104280003233230033052400d2f307000001780005
:10429000010078008202780000027800020020000d
:1042a0000358240005007800840078000000be0058
:1042b000e9f20700008fbe006266260063ea230071
:1042c0001e0078009e0090009bf107000000e000b7
:1042d00003003d006066260061ea2300008fbe00f7
:1042e0001e0178009e019000000020008120240023
:1042f000d9f20700000178000100780082027800fe
:104300000002780002002000030a24000500780063
:10431000840078000000be00e1f107008001780011
:104320000101780003007800820078000000be00e0
:10433000404889005148890064004700410020003e
:1043400010804000100078008000eb00bdf10700f5
:1043500032332300330524009ef307000001780068
:10436000010078008202780000027800020020003c
:104370000358240005007800840078000000be0087
:10438000b5f20700008fbe006266260063ea2300d4
:104390001e0078009e00900067f107000000e0001a
:1043a00003003d006066260061ea2300008fbe0026
:1043b0001e0178009e019000000020008120240052
:1043c000a5f2070000017800010078008202780061
:1043d0000002780002002000030a24000500780093
:1043e000840078000000be00adf107008001780075
:1043f0000101780003007800820078000000be0010
:10440000604889007148890064004700610020000d
:1044100010804000100078008000eb0089f1070058
:1044200032332300330524006af3070000017800cb
:10443000010078008202780000027800020020006b
:104440000358240005007800840078000000be00b6
:1044500081f20700008fbe006266260063ea230037
:104460001e0078009e00900033f107000000e0007d
:1044700003003d006066260061ea2300008fbe0055
:104480001e0178009e019000000020008120240081
:1044900071f20700000178000100780082027800c4
:1044a0000002780002002000030a240005007800c2
:1044b000840078000000be0079f1070080017800d8
:1044c0000101780003007800820078000000be003f
:1044d00080488900914889006400470081002000dd
:1044e00010804000100078008000eb0055f10700bc
:1044f000323323003305240036f30700000178002f
:10450000010078008202780000027800020020009a
:104510000358240005007800840078000000be00e5
:104520004df20700008fbe006266260063ea23009a
:104530001e0078009e009000fff007000000e000e1
:1045400003003d006066260061ea2300008fbe0084
:104550001e0178009e0190000000200081202400b0
:104560003df2070000017800010078008202780027
:104570000002780002002000030a240005007800f1
:10458000840078000000be0045f10700800178003b
:104590000101780003007800820078000000be006e
:1045a000a0488900b1488900000000000080fa009e
:1045b000000006000000fa00c5fe07000080fb00b6
:1045c000c0848800c08480006100b900f20120002e
:1045d00003002000820f5000838f58007e003e00b1
:1045e000000601001f0037002100370023003700bc
:1045f00025003700270037007900370028003700f2
:104600002a0037002c0037002e003700300037001a
:1046100032003700340037003600370038003700ea
:104620003a0037003c0037003e00370040003700ba
:10463000420037004400370046003700480037008a
:104640004a0037004c0037004e003700500037005a
:10465000520037005400370056003700580037002a
:104660005a00370020c0b3009ef0b7005d0037004d
:1046700040c0b3009ef0b7005a00370040c0b300fe
:104680009ef0b7005700370040c0b3009ef0b7005f
:1046900054003700c0c0b3009ef0b700510037008f
:1046a00040c0b3009ef0b7004e00370040c0b300da
:1046b0009ef0b7004b003700a0c0b3009ef0b700db
:1046c00048003700a0c0b3009ef0b7004500370097
:1046d000a0c0b3009ef0b70042003700a0c0b300f6
:1046e0009ef0b7003f003700a0c0b3009ef0b700b7
:1046f0003c003700e0c0b3009ef0b700390037003f
:10470000e0c0b3009ef0b70036003700c0c0b30071
:104710009ef0b70033003700a0c0b3009ef0b70092
:104720003000370020c0b3009ef0b7002d003700e6
:1047300040c0b3009ef0b7002a003700e0c0b300cd
:104740009ef0b70027003700e0c0b3009ef0b7002e
:1047500024003700e0c0b3009ef0b700210037000e
:10476000a0c0b3009ef0b7001e003700e0c0b30049
:104770009ef0b7001b003700a0c0b3009ef0b7004a
:1047800018003700a0c0b3009ef0b7001500370036
:10479000a0c0b3009ef0b70012003700a0c0b30065
:1047a0009ef0b7000f003700a0c0b3009ef0b70026
:1047b0000c003700e0c0b3009ef0b70009003700de
:1047c000e0c0b3009ef0b70006003700e0c0b300c1
:1047d0009ef0b70003003700000000000100370022
:1047e000000000009ed0bf000080fb006109210096
:1047f000914078008180fb008100e900810f50002a
:10480000060032009ed0bf0096f0b700610921007b
:1048100091407800a08e220001487800000000003e
:104820000080fa00000006000000fa006a0f07008e
:10483000710e070084aea80084cea800848ea80064
:10484000754ea800856ea800770707007e07070051
:104850002f0907002209070047090700bc0a0700c3
:104860000e0f0700d40e0700ba0e0700000020004c
:1048700001fc2300b04e8900c14e890000002000d9
:10488000011f2400d04e8900e14e89006000b8006d
:10489000f04e8900014f89000000200001fc230038
:1048a000304d8900414d890000002000011f240087
:1048b000504d8900614d89006000b800704d89003d
:1048c000814d890000002000812c2400104f8900b8
:1048d000214f890000002000812c2400304f8900e6
:1048e000414f890000002000812c2400504f890096
:1048f000614f890000002000812c2400904d890028
:10490000a14d890000002000812c2400b04d8900b9
:10491000c14d890000002000812c2400d04d890069
:10492000e14d890070498100814981006011b80022
:1049300064f007008001780001017800030078002e
:10494000820078000000be0070498900814989001a
:10495000b0498100c14981006011b80059f00700d9
:10496000800178000101780003007800820078005f
:104970000000be00b0498900c14989006000b8004c
:1049800070568900815689006000b80090568900f1
:10499000a15689006000b80050518900615189001a
:1049a0006000b80070518900815189006000b80032
:1049b00090518900a15189006000b800f050890031
:1049c000015189006000b800d0528900e15289008d
:1049d0006000b800f0528900015389006000b800ff
:1049e00010538900215389006000b800705289007b
:1049f000815289006000b8005054890061548900d8
:104a00006000b80070548900815489006000b800cb
:104a100090548900a15489006000b800f0538900c7
:104a20000154890000002000812c2400809fbe00da
:104a300000002000812c2400809fbe000000200088
:104a4000812c2400809fbe00d6cc2c00c7dc230024
:104a50006022b800020020000308240060a62200a3
:104a600010040700ec87570090c22500f1e02300f6
:104a7000705689008156890090c22500f1e023001c
:104a800090568900a156890090c22500f1e02300cc
:104a9000704989008149890090c22500f1e0230016
:104aa000b0498900c149890000002000812c240000
:104ab000809fbe0000002000812c2400809fbe004b
:104ac00000002000812c2400809fbe00d6cc2c004a
:104ad000c7e423006022b80002002000031a24006b
:104ae00060a32200ef030700ec87570000002000be
:104af000812c2400809fbe0000002000812c240017
:104b0000809fbe0000002000812c2400809fbe00fa
:104b1000d6cc2c00c7e423006022b800020020009d
:104b20000317240060a02200de030700ec87570073
:104b300002003700580f07005cf90700660f0700f6
:104b40000004e000fbff3a0002003700090f0700f5
:104b5000c1f90700170f07000004e000fbff3a004f
:104b6000907380000000d10061406000e14f500070
:104b700002003a0010c0b3009bf0b700e18480004f
:104b800060868000808f500012003d009bd0bf00e7
:104b9000e14f50000f003a00a08280000000e000ca
:104ba0000c003a00e084800061b422004300dd0084
:104bb000008040009000900020019000b001900023
:104bc00010007800fb020700e08480000000e8008d
:104bd000e0848800204881003148810002002000e4
:104be000031a240056ef07000000e0000200340022
:104bf00084cea8000100370084cea900604881005f
:104c00007148810002002000031a24004cef0700c5
:104c10000000e00002003400848ea800010037008c
:104c2000848ea900a0488100b148810002002000c4
:104c3000031a240042ef07000000e00002003400e5
:104c4000754ea800bdff3700754ea900bbff3700a9
:104c50000c00fa00889fbe008a9fbe001456810097
:104c600025568100f0558100015681000001be00eb
:104c70000400be008aef0700000178000100780000
:104c8000820178000001780003007800820078003b
:104c90000000be00a00207004007980051079800de
:104ca000248480003584800020848000318480004a
:104cb0000001be000400be0046f1070000017800bc
:104cc00001007800820478000004780000002000d1
:104cd000010424000001be007aef07000001780003
:104ce000010078008201780000017800030078005c
:104cf000820078000001be0009007800880078007a
:104d00000000be0054f00700008fbe002084800029
:104d1000318480006011b80007ef07000000e00058
:104d200004003d001e0078009e00900001f0a200eb
:104d3000008fbe002484800035848000f02621008e
:104d400031b023000001be000400be0021f10700c5
:104d500020079800310798006011b8001e00780005
:104d60009e009000f6ee07000000e000060035000f
:104d70006011b8004e009000de009000f0ee0700d9
:104d80000000e0000c003d006011b8001e0078003b
:104d90009e009000e8ee07000000e0005a003c0092
:104da0006011b8004e009000de009000e2ee0700b7
:104db0000000e00054003c004e009000de00900037
:104dc0000002be0005f0a1001e0078009e009000c9
:104dd00001f0a1000001be000400be00d8ee0700f3
:104de0000000e000480035006011b8004e0090005f
:104df000de009000d2ee07000000e000200034004a
:104e000008002000090a24000400200005042400f2
:104e1000f026210031b023000001be000400be00d6
:104e2000ecf00700000178000100780082027800b1
:104e30000002780020848000318480000001be00e0
:104e400005007800840078000000be001def070018
:104e500000017800010078008202780000027800ea
:104e60000801be0005007800840078000000be0044
:104e700005f5070020848800318488006900370028
:104e800000002000010a24000004be0009f0a20076
:104e90002a8480003b848000040020000504240054
:104ea000f026210031b023000001be000400be0046
:104eb000c8f0070000017800010078008201780046
:104ec0000001780003007800820078000001be0035
:104ed0000a00be00f2ee0700000178000100780031
:104ee00082027800000278000801be000500780008
:104ef000840078000000be00b8f407002084880019
:104f0000318488004700370020848000318480008d
:104f10006011b8008aee07000000e0001e003400b7
:104f200028848000398480000400200005042400c7
:104f3000f026210031b023000001be000400be00b5
:104f4000a4f00700000178000100780082017800d9
:104f50000001780003007800820078000001be00a4
:104f60000800be00ceee07000001780001007800c6
:104f700082027800000278006011b8000500780015
:104f8000840078000000be0094f4070020848800ac
:104f90003184880023003700208480003184800021
:104fa0006011b80064ee07000000e0001d003d0045
:104fb0000400200005042400f026210031b0230065
:104fc0000001be000400be0082f00700000178006e
:104fd00001007800820278000002780020848000be
:104fe000318480000001be00050078008400780054
:104ff0000000be00b3ee0700000178000100780059
:1050000082027800000278006011b8000500780084
:10501000840078000000be009bf407002084880014
:10502000318488004e009000de0090000002be0037
:1050300005f0a1002e009000be00900001f0a1003c
:105040000001be000400be003bee07000000e000cf
:1050500004003d004e019000de0190002207980000
:1050600033079800f0558100015681002e01900011
:10507000be01900093ee07008001780001017800e6
:1050800003007800820078000000be00f05589001f
:1050900001568900f0558100015681009e010700ec
:1050a000f0558900015689002084800031848000f9
:1050b000d0558900e15589004e009000de00900037
:1050c00001f0a100a2702d0033c223001aee0700e8
:1050d0000000e0000100350014003700208480004b
:1050e0003184800001f0a100f226210033a82300c2
:1050f00011ee07000000e000010035000b00370052
:105100001056810021568100f05589000156890012
:105110006000b800208488003184880020848000ea
:1051200031848000d0558900e155890000000000dd
:105130004f05be004f04be000080fa0000000600cc
:105140001800fa00889fbe00345681004556810041
:1051500070568100815681000001be000400be002f
:105160004fee0700000f9800110f98005456810071
:105170006556810090568100a15681000001be0055
:105180000400be0046ee0700200f9800310f980083
:105190006000b800008fbe006000b80020079800d3
:1051a00031079800c4838000d5838000f026210059
:1051b00031b023000001be000400be0005f007006e
:1051c0004007980051079800c4838000d583800071
:1051d000c0838000d18380000001be000400be00b7
:1051e000fcef0700000178000100780082047800dd
:1051f00000047800d0cc2c00c1f423000001be00d4
:1052000030ee07000001780001007800820178008c
:105210000001780003007800820078000001be00e1
:1052200009007800880078000000be000aef07003f
:105230006007980071079800c0838000d1838000c8
:105240006011b800bced07000000e00005003d0063
:105250006e009000fe00900001f0a2006007980030
:10526000710798000e0990009e0990000e089000aa
:105270009e089000d7ef0700000178000100780039
:1052800082047800000478002e099000be09900086
:105290002e089000be089000ceef070000017800b5
:1052a0000100780082017800000178000300780096
:1052b000820078000001be000900780088007800b4
:1052c0000000be00ffed070000017800010078003b
:1052d00082017800000178000300780082007800e5
:1052e0000000be002bf507000084880011848800b0
:1052f0000084800011848000d27b23006358230047
:105300008ded07000000e00009003d006000b800de
:10531000008fbe006000b800200798003107980099
:105320006000b80040079800510798000f00370050
:1053300000848000118480000001be000e089000ef
:105340009e089000c4ee0700008fbe00008480001d
:10535000118480000001be002e089000be0890005d
:10536000bdee070020079800310798006011b800d3
:105370006e009000fe00900071ed07000000e0005c
:105380000600350000848000118480006011b800a0
:105390006bed07000000e0000c003d006011b8005c
:1053a0006e009000fe00900063ed07000000e0003a
:1053b00032003c0000848000118480006011b8003d
:1053c0005ded07000000e0002c003c000084800040
:1053d000118480000002be0005f0a1006e00900064
:1053e000fe00900001f0a1000001be000400be001c
:1053f00053ed07000000e000200035000800200009
:1054000009fc2300d4cc2c00c5f42300f026210095
:1054100031b023000001be000400be006def0700a4
:105420000001780001007800820278000002780014
:10543000c0838000d18380000001be000500780099
:10544000840078000000be009eed07000001780097
:105450000100780082027800000278000801be0096
:1054600005007800840078000000be00af09070046
:10547000c0838800d18388001d003700c883800066
:10548000d9838000d4cc2c00c5f42300f026210061
:1054900031b023000001be000400be004def070044
:1054a0000001780001007800820178000001780096
:1054b00003007800820078000001be000800be00f2
:1054c00077ed070000017800010078008202780083
:1054d000000278006011b8000500780084007800b0
:1054e0000000be007a090700c0838800d1838800cd
:1054f00000848000118480000002be0005f0a1003d
:105500004e009000de00900001f0a1000001be00fe
:105510000400be0008ed07000000e00004003d00ac
:10552000028480001384800042079800530798008b
:1055300078568100895681004e019000de0190006e
:105540001e0078009e00900022ef07000001780006
:1055500001007800820178000001780003007800e3
:10556000820078000001be000800be0055ed070073
:105570008001780001017800030078008200780043
:105580000000be007056890081568900985681003f
:10559000a95681004e019000de0190002e0090007f
:1055a000be0090000bef07000001780001007800ba
:1055b0008201780000017800030078008200780002
:1055c0000001be000800be003eed0700800178002b
:1055d0000101780003007800820078000000be001e
:1055e00090568900a1568900c0838000d183800035
:1055f0006011b800d0ec07000000e00011003a0094
:105600000084800011848000a2702d0033c223002a
:10561000c9ec07000000e0000a003d00a08e220057
:10562000a18e220061aa9100f1aa910001b391001c
:1056300091b3910024b0990035b0990046b099001b
:1056400057b09900c0838000d1838000b055890095
:10565000c1558900000000004f04be000080fa0020
:10566000000006001c00fa0060079800710798000f
:10567000020f9800130f9800240f9800350f980020
:10568000460f9800570f98002e0a9000be0a90000f
:105690006e009000fe0090000001be000400be00fd
:1056a000ffec0700008fbe004e0a9000de0a90005b
:1056b0000e0890009e0890000001be000400be008d
:1056c000f7ec070020079800310798001e017800ca
:1056d0009e0190002e009000be009000cdf00700cb
:1056e00040079800510798004e009000de0090009f
