:020000040000fa
:080000000002040000000000f2
:020000040000fa
:0400080034040000bc
:020000040000fa
:04000c0034040000b8
:020000040000fa
:0400100034040000b4
:020000040000fa
:0400140034040000b0
:020000040000fa
:0400180034040000ac
:020000040000fa
:04001c0034040000a8
:020000040000fa
:0400200034040000a4
:020000040000fa
:0400240034040000a0
:020000040000fa
:04002800340400009c
:020000040000fa
:04002c003404000098
:020000040000fa
:040030003404000094
:020000040000fa
:04003400fa020000cc
:020000040000fa
:04003800340400008c
:020000040000fa
:04003c003404000088
:020000040000fa
:040040003404000084
:020000040000fa
:040044003404000080
:020000040000fa
:04004800360300007b
:020000040000fa
:04004c003404000078
:020000040000fa
:040050003404000074
:020000040000fa
:04005400ec030000b9
:020000040000fa
:04005800c0030000e1
:020000040000fa
:04005c009a03000003
:020000040000fa
:040060003404000064
:020000040000fa
:040064003404000060
:020000040000fa
:04006800340400005c
:020000040000fa
:04006c003404000058
:020000040000fa
:040070003404000054
:020000040000fa
:040074003404000050
:020000040000fa
:04007800340400004c
:020000040000fa
:04007c003404000048
:020000040000fa
:040080003404000044
:020000040000fa
:040084003404000040
:020000040000fa
:04008800340400003c
:020000040000fa
:04008c003404000038
:020000040000fa
:040090003404000034
:020000040000fa
:040094004003000025
:020000040000fa
:04009800340400002c
:020000040000fa
:04009c003404000028
:020000040000fa
:0400a0003404000024
:020000040000fa
:0400a4003404000020
:020000040000fa
:0400a800340400001c
:020000040000fa
:0400ac003404000018
:020000040000fa
:0400b0003404000014
:020000040000fa
:0400b4003404000010
:020000040000fa
:0400b800340400000c
:020000040000fa
:0400bc003404000008
:020000040000fa
:0400c0003404000004
:020000040000fa
:0400c4003404000000
:020000040000fa
:0400c80034040000fc
:020000040000fa
:0400cc0034040000f8
:020000040000fa
:0400d00034040000f4
:020000040000fa
:0400d40034040000f0
:020000040000fa
:0400d80034040000ec
:020000040000fa
:0400dc0034040000e8
:020000040000fa
:0400e00034040000e4
:020000040000fa
:0400e40034040000e0
:020000040000fa
:0400e80034040000dc
:020000040000fa
:0400ec0034040000d8
:020000040000fa
:0400f00034040000d4
:020000040000fa
:0400f40034040000d0
:020000040000fa
:0400f80034040000cc
:020000040000fa
:0400fc0034040000c8
:020000040000fa
:0401000034040000c3
:020000040000fa
:0401040034040000bf
:020000040000fa
:0401080034040000bb
:020000040000fa
:04010c0034040000b7
:020000040000fa
:0401100034040000b3
:020000040000fa
:0401140034040000af
:020000040000fa
:0401180034040000ab
:020000040000fa
:04011c0034040000a7
:020000040000fa
:0401200034040000a3
:020000040000fa
:04012400340400009f
:020000040000fa
:04012800340400009b
:020000040000fa
:04012c003404000097
:020000040000fa
:040130003404000093
:020000040000fa
:04013400340400008f
:020000040000fa
:04013800340400008b
:020000040000fa
:04013c003404000087
:020000040000fa
:040140003404000083
:020000040000fa
:04014400340400007f
:020000040000fa
:04014800340400007b
:020000040000fa
:04014c003404000077
:020000040000fa
:040150003404000073
:020000040000fa
:04015400340400006f
:020000040000fa
:04015800340400006b
:020000040000fa
:04015c003404000067
:020000040000fa
:040160003404000063
:020000040000fa
:04016400340400005f
:020000040000fa
:04016800340400005b
:020000040000fa
:04016c003404000057
:020000040000fa
:040170003404000053
:020000040000fa
:04017400340400004f
:020000040000fa
:04017800340400004b
:020000040000fa
:04017c003404000047
:020000040000fa
:040180003404000043
:020000040000fa
:04018400340400003f
:020000040000fa
:04018800340400003b
:020000040000fa
:04018c003404000037
:020000040000fa
:040190003404000033
:020000040000fa
:04019400340400002f
:020000040000fa
:04019800340400002b
:020000040000fa
:04019c003404000027
:020000040000fa
:0401a0003404000023
:020000040000fa
:0401a400340400001f
:020000040000fa
:0401a800340400001b
:020000040000fa
:0401ac003404000017
:020000040000fa
:0401b0003404000013
:020000040000fa
:0401b400340400000f
:020000040000fa
:0401b800340400000b
:020000040000fa
:0401bc003404000007
:020000040000fa
:0401c0003404000003
:020000040000fa
:0401c40034040000ff
:020000040000fa
:0401c80034040000fb
:020000040000fa
:0401cc0034040000f7
:020000040000fa
:0401d00034040000f3
:020000040000fa
:0401d40034040000ef
:020000040000fa
:0401d80034040000eb
:020000040000fa
:0401dc0034040000e7
:020000040000fa
:0401e00034040000e3
:020000040000fa
:0401e40034040000df
:020000040000fa
:0401e80034040000db
:020000040000fa
:0401ec0034040000d7
:020000040000fa
:0401f00034040000d3
:020000040000fa
:0401f40034040000cf
:020000040000fa
:0401f80034040000cb
:020000040000fa
:0401fc0034040000c7
:020000040000fa
:0402000034040000c2
:020000040000fa
:0402040034040000be
:020000040000fa
:0402080034040000ba
:020000040000fa
:04020c0034040000b6
:020000040000fa
:0402100034040000b2
:020000040000fa
:0402140034040000ae
:020000040000fa
:0402180034040000aa
:020000040000fa
:04021c0034040000a6
:020000040000fa
:0402200034040000a2
:020000040000fa
:04022400340400009e
:020000040000fa
:04022800340400009a
:020000040000fa
:04022c003404000096
:020000040000fa
:040230003404000092
:020000040000fa
:04023400340400008e
:020000040000fa
:04023800340400008a
:020000040000fa
:04023c003404000086
:020000040000fa
:040240003404000082
:020000040000fa
:04024400340400007e
:020000040000fa
:04024800340400007a
:020000040000fa
:04024c003404000076
:020000040000fa
:040250003404000072
:020000040000fa
:04025400340400006e
:020000040000fa
:04025800340400006a
:020000040000fa
:04025c003404000066
:020000040000fa
:040260003404000062
:020000040000fa
:04026400340400005e
:020000040000fa
:10040000efb721000eff27000e018800000000005a
:10041000000020000000e000020032000001200087
:100420002002880014000700110107000000e0000e
:1004300003003a0000d7230001002000020037002b
:100440000000200001002000810f70000100320038
:100450000f000700000020000000e0000200320052
:100460000000020000000000701d020000000000fb
:100470000040da000000fe00c00120000000e000a3
:1004800002003200002020009001880000000600d9
:10049000a1028800800478000000eb001f003700f4
:1004a000e284440054a0b4009905ba00e2844400f8
:1004b00054a0b4009906ba00e284440054a0b400e9
:1004c0000006eb00476fde00fd07b200ae018800ba
:1004d000636ce10003003a000ad801000000eb0061
:1004e0000e003700606ce10008003a00004deb00a0
:1004f0000a05e800020039003420ec000af0a000f0
:100500008b05e900f9ff3e00040037006168e10057
:10051000010032000086eb000b00070019c7ba008b
:100520000e04e0001905ba0003003a000a00e000da
:10053000dbff3a0000000600fe07b200ae028800b2
:100540008a047800f5ff37000cd0a300e20f4d00bd
:100550001c003b0089027800354dba000a05e8000e
:10056000020039003420ec000af0a0008b05e900fd
:100570000f003200254dba000a05e80002003900dc
:100580003420ec000af0a0008b05e90008003200de
:100590000c00e0000600320015cdba000a05e800a4
:1005a000020039003420ec000af0a0008b05e900bd
:1005b0008984e80054a0b4000b00e000e2ff3a0098
:1005c000000006009902ba00055d78008b05e9007d
:1005d000f7ff3200c82ade00055d78008b05e900d0
:1005e000f3ff32000c00e000f1ff320019ddba0029
:1005f000eeff37003600f800809fbe00829fbe00ed
:10060000849fbe00869fbe000000fa000068a9001b
:100610003d1e07007f1a0700e41807007c1607003c
:10062000b08480000000e800b0848800f610070065
:10063000a6110700221a0700b0848000f90f5000ad
:1006400002003400891607009630ef000000000019
:100650000080fa004f03be004f02be004f01be00f3
:100660004f00be003600f900004006000000fa000e
:100670000108a900000000000080fa000040060008
:100680003600f800809fbe00829fbe00849fbe009f
:10069000869fbe000000fa000368a90082848000e3
:1006a0009384800010002000010020000200400020
:1006b000838048008084880091848800c184800001
:1006c0000100e800c0848800703e2000808f500048
:1006d000030034009830ef0010c0b3009af0b70068
:1006e000f0c680000000e00001003200a90a070007
:1006f000530b070082848000938480001000200048
:1007000001002000020040008380480080848800af
:1007100091848800000000000080fa004f03be00b2
:100720004f02be004f01be004f00be003600f90070
:1007300000400600801f78000000fa0001a8a90010
:100740000018800050db88001018800060db8800f3
:100750002018800070db88003018800080db880063
:100760004018800090db880010c0b300b5f0b700df
:10077000000000000080fa004f00780000400600f2
:100780003600f800809fbe00829fbe00849fbe009e
:10079000869fbe000000fa000188a9003185800014
:1007a00020858000808f500002003200741d0700f9
:1007b00001003700a870ef00000000000080fa0080
:1007c0004f03be004f02be004f01be004f00be00ef
:1007d0003600f900004006003600f800809fbe0099
:1007e000829fbe00849fbe00869fbe000000fa006c
:1007f0000168a900101180004200de006140600025
:10080000e14f500001003a002242a900101180007f
:100810000000d10061406000e14f500005003a0047
:100820002222a90003003700301180000040780028
:10083000601e0700101180000040780061406000d9
:10084000e14f5000f8ff3200000000000080fa0085
:100850004f03be004f02be004f01be004f00be005e
:100860003600f900004006000040da000000fe00fb
:100870000000050014002000ad033700f4ff2f0036
:10088000ab0337000001be003f0007000470a70063
:1008900003f0a1006509b100160032000d0035001b
:1008a0006828e10006003500f0ff2f00f1ff270067
:1008b0000300e00013003b000100280000000500d9
:1008c00000004000818048008502e900fcff3a00fa
:1008d00008003700f88f420002003c008000eb0067
:1008e000000005008100d1000080d3008502e800ef
:1008f000fcff3a000300e00002003b006000100033
:10090000e0801800000006000001be001e00070085
:100910000470a70003f0a10003f8a30013003a003d
:100920006509b10010003200090035006928e100b6
:100930000200350001002800000005000000400012
:10094000818048008502e900fcff3a0000000600b3
:10095000f88f4200050035008100d1000080d300ef
:100960008502e800fcff3a00000006008000eb0072
:10097000000005004f89de00820178008703370000
:100980006011b80095033700c70ade00f107b20016
:10099000f50fb20008003200e1cf42000200320041
:1009a0000170a00024000500810f700001003200da
:1009b0000408050044000500810f700002003a00a1
:1009c000140005008502e9000000400081c04800d5
:1009d000fcff3b000170a0002400050007f8270081
:1009e000078361000638e10004003a00f7072000a1
:1009f000878361008703710001003a0003f0a200c1
:100a0000889fbe008a9fbe008c9fbe00470ade0002
:100a10000480a100c71ade000580a100070028009d
:100a20000785600087856100f70f20000720e1003f
:100a30009e0032000728e1009c0032000106780089
:100a40000400e000b4003200f70720008780600057
:100a50000170a0000500e000c0003200f707200090
:100a6000878161000370a000050652000f003a0064
:100a70000b50e1000b0032000308e10002003a00d5
:100a80000200e1007e00320002045000838458001e
:100a9000040031000001fd008101fd008402fd0021
:100aa0008a05fd006044b800210037000520e10000
:100ab00005003d000001fd008101fd008402fd00f4
:100ac0008a05fd00050652007a60e1000500350048
:100ad0000170a1004722dd00848070008a807000d0
:100ae000630037006044b800ef02660007ff2f0084
:100af000070666000500e00006003400f0831200df
:100b00008714dd000511de00071bdd000601710002
:100b10008519de007060e1000500350009047800e9
:100b200082047800030178008001eb007006560013
:100b30000b50e10003003a000200400083804800af
:100b40000400370060041400e0841c000200580018
:100b5000838058000188a300060032008100d10084
:100b60000080d3008984d3000884d3000402e80005
:100b7000270037000178a30025003a000100e000bb
:100b8000030032008186cf00698656000a003700d4
:100b90008c0020000000e00004003a00090078000a
:100ba000880478000004eb00700252008086cf00b9
:100bb0000d0646000c06e9007060e10006003500f5
:100bc0008000780009007800880478000004eb00b9
:100bd00070065600700252000c00e0000c00340059
:100be0008c08dd00f00316000703de00868070002d
:100bf0000c00dd00074bde00060070008c4cdd00b1
:100c00000743de00868474000c44dd000c025200b1
:100c10006120e1002000350061016000070028002c
:100c200087816400f7ff270087836400070374004f
:100c30000300e0000600320082037300040032006b
:100c40000000e800e08048000188a3000e003a00a0
:100c5000f70f20000720e1004a003d000170a100cd
:100c60004722dd00810072008a8070000000be0013
:100c70004f06be004f05be004f04be000000060038
:100c80006000b800faff37008100d1000080d30077
:100c90000402e800eeff37000401780089017400c7
:100ca000a10107008a807000f1ff3700f7010700fb
:100cb000070278000001fd008101fd00f30107003b
:100cc00087027800850372000778a30004003200d1
:100cd0000001fd008101fd0006020700e4ff37006e
:100ce000850362000768a300080032000b50e10092
:100cf00003003200f0ff2f00f1ff2700dcff370078
:100d00000001fd008101fd00d9ff37000468a30048
:100d1000d7ff3200faff3700f8ff27008883600012
:100d20000b003a000000e00009003a008303640071
:100d300082837300020032000200be00ccff370045
:100d40000b50e100ceff3a000200be00c8ff3700a2
:100d500014002000810064003eff3700f8ff2700e8
:100d60008883610004003a000200e00002003a00bb
:100d70008c007800beff370015002000830164005e
:100d800039ff370001f827000000200081007500be
:100d9000b7ff3700889fbe008a9fbe008c9fbe00b1
:100da0001b0020000202be00058668000600280025
:100db000060666004709de00f20fb200820032002c
:100dc0000243e80080003200c729de00f30fb200c2
:100dd0007d0032000343e8007b003200f107b200df
:100de0000170a000f507b2000570a000c708dd0083
:100df0004903de00868070004700dd00c72add0061
:100e00004923de00868272004722dd00030551007f
:100e100004035000858358000300310000004000a7
:100e2000818048000a05e9008c1f78008a9fbe0077
:100e300004005000858058000402420085824a0068
:100e400000004000818048000005eb000004be0067
:100e50006033b8000406be000d48e10056003100c2
:100e6000110009004dccd8000c01b8000d02b800eb
:100e70008481410060824a008283530003045c0045
:100e800084845c0060055d000a00e00025003a00f3
:100e9000800578000d40e1004900310088007800ad
:100ea00007007800110009004d88d8000c01b80037
:100eb0000d02b8008481410060824a006003110085
:100ec00083835b0004045c00e0845c000900e000b4
:100ed00021003a004f01be000300e0002b00320069
:100ee000e3016000070673008c817100010032008d
:100ef000640070004200de004e5edd000c007000f9
:100f0000c258de0001e0a00083010700cf01780095
:100f1000818071004f06be004f05be004f04be0029
:100f2000000006008c8343000d044c00e0844c005c
:100f300060054d000000e9000a00e000d4ff320027
:100f40008c8343000d044c00e0844c0060054d0090
:100f50000000e900ceff37000c0343008d834b00f7
:100f600060044c00e0844c000000e9000900e0004f
:100f7000d8ff32000c0343008d834b0060044c000b
:100f8000e0844c000000e900d2ff37004200de00a0
:100f90004e5edd000c007000c258de0001e0a000d3
:100fa000cf0178000300e000daff3200600010009b
:100fb000e0801800d7ff3700f0ff2f00aaff3700ae
:100fc000f0ff2f00b9ff37000404be002f01070017
:100fd000870678000004fd008104fd002b01070056
:100fe000078366000678a300030032000960a700ab
:100ff0000800be002c0037000d78a300020032006c
:101000000800be00280037000778a30026003a0039
:1010100001f0a10009f0a1000668a300030032005e
:10102000f1ff2700f0ff2f00baff37000d68a30083
:10103000030032000800be008c807000b5ff37004e
:101040000768a30007003a000648a3000300320027
:10105000f1ff2700f0ff2f00aeff37000d48a3007f
:10106000030032006000b8008c807000a9ff3700d8
:101070000748a3000400320001f827000000200008
:101080008c807000a3ff3700760107000004fd008c
:101090008104fd0002057800720107000802be000d
:1010a0008a01780059ff37000160a0001202200079
:1010b000b285880097ff37000100e000120032007f
:1010c0000500e00010003200889fbe008a9fbe002d
:1010d0008c9fbe000006eb0001f8a3000300320065
:1010e00060001000e08018000cf0a00005f8a300dc
:1010f0000300320060021200e0821a000cf0a2002d
:101100008005eb0041ff37006000b80002000500d9
:10111000038368000700280007036300470ade0016
:101120000480a100c71ade000580a100f70f20008f
:101130000720e100420032000728e10040003200b1
:10114000889fbe008a9fbe008c1f7800f107b20006
:10115000f307b2000400e000640032000170a00058
:101160000500e000680032000370a0008505420021
:10117000eb07b1000204b8000302b8008484440005
:1011800060854a00020ab800848444000a854a0047
:10119000030ab80004054500040033000804d00029
:1011a0008984d2000a85d2008b05e9006158e100ec
:1011b0003d003500021020000901610003082000f5
:1011c00089816100f7072000878364000886730027
:1011d000c84cde00c853dd00878474004855de002b
:1011e0000300e000060032008203760004003200b3
:1011f0008904e80060054d000a88a3000c003a004d
:10120000f70f20000758e10044003d000a70a100dc
:10121000c75ddd000a8575008a007300090078004b
:101220004f0678004f05be004f04be0000000600c8
:101230000a05d1008984d3008b05e800f0ff370050
:10124000881f7800060478009000070007027800e5
:101250000001fd008101fd008c000700870278007d
:10126000850372000778a300050032000001fd002d
:101270008101fd009f0007004f0478000000060078
:10128000850372000748a30003003200f0ff2f001f
:10129000f1ff2700f8ff37000000200001f82700c9
:1012a00088807000f4ff3700880178004848dd002e
:1012b000808171004848de00c850dd0001007000e8
:1012c000c850de00060478000b0178001600070005
:1012d00088807000d2ff37000500e0000500320072
:1012e000170020003a0007009dff370081037000bf
:1012f000f9ff3a00860078004f0678004f05be00df
:101300004f04be000000050083037100f9ff3200a6
:10131000270020002e00070094ff370001f8270067
:1013200086807000f4ff37000100e00026003200e4
:10133000610111007810e10023003c006022b80038
:101340007010e10004003500800278000100780090
:101350008000eb00700151000200e0000900340041
:1013600070031100062add00822ade008603dd00fc
:10137000878272000200de00860bdd00070070002d
:101380008208de0084817100f4ff2700048262007d
:101390008481710004002800848262006102600080
:1013a00005f0a6000000060004827100070032006c
:1013b0000000e800e0804800000006000002be00d7
:1013c0006000b800efff37006000b80000000600c2
:1013d000889fbe000004eb006138e10016003a006f
:1013e0000100e00008003a00c800de004800dd000f
:1013f000880020000100e00003003a00c800de0081
:101400004800dd00680444008184cf00e984540072
:10141000060034008908dd00f08314008703de0035
:10142000878070000900dd00090444006102140097
:101430004f04be00000006000300e00008003a0070
:10144000c811de004811dd00880020000300e00024
:1014500003003a00c811de004811dd0068044400b2
:101460008384cf00e9845400060034008919dd002c
:10147000f08314008713de00878171000911dd00fd
:1014800009044400e1021400e9ff370027002000ae
:1014900001f0a70017002000470bde00f60fb20096
:1014a000040032000643e8000a0032004702b3009d
:1014b0000000060001037800f607b2000603700082
:1014c00002003a000703b300000006008702b300e1
:1014d0000000060001037800f607b2000603700062
:1014e000020032000770a000000006000760a000a4
:1014f000000006000478a300040032000578a30071
:10150000030032000168a30001003a000200be009f
:101510000160a00000000600810170002700320079
:101520008002eb0001f8a30003003200600010000d
:10153000e080180015002000f4072000020242009d
:1015400020003400f7032000870360000604200019
:101550000003630002082000000161004700de0074
:10156000c909dd0000807100c708de000600e00048
:101570000800320087037100060032001000b0003e
:101580000180b0000188a30002003200c108de0023
:101590000402e800f107b200f30f20000320e1008d
:1015a00003003d004722dd00810072002900370062
:1015b00001f827000000eb00260037006000b800ab
:1015c00000000600680212007f20e10002003400e3
:1015d0006000b8001f0037006011b8007020e10003
:1015e0000400350080017800010078008000eb00e5
:1015f000700252000400e00009003400f003120001
:101600000719dd008419de000703dd008681710003
:101610000400de00070bdd00060070008408de0019
:10162000f7ff27008383630087037100060028000b
:1016300003036300070032000700e00003003a00e4
:101640006101600002817300020032001000b000ee
:101650000180b0000500a6000000060001f0a00017
:10166000000006004f0ade004709de00f107b20065
:10167000f20fb2000b003200f207b1000170a000bf
:10168000c708dd00c901de00838070004700dd006f
:101690000400a6000000060060001000e0801800b2
:1016a00000000600810f700001003a0000000600f3
:1016b0008182cf000500e00010003e008082cf0054
:1016c000ee8242007028e1000400390007003e006d
:1016d000800078000000eb000e00370070831200dd
:1016e0008600de000500dd000a003700708352002e
:1016f0008600dd000000eb0006003700e2825200a9
:101700008508dd00708312000603de00868070000d
:101710000500dd007507b0000501ea000400a60021
:101720000000060060001000e080180000000600c5
:10173000889fbe008a9fbe00841f78007c0007003f
:101740004f00780011003300f0ff2f00838f6c00f2
:1017500006003b00040565000a00a70008003700ea
:1017600009f0a6001000200008003700820f540086
:10177000838f5c00030039001000200001003e0050
:101780000000200009f0a7000000ea004f05be009d
:101790004f04be000000e00000000600881f780033
:1017a000030478000300e00007003d006000100023
:1017b000e080180060011900e081190002003b0080
:1017c00001f02d00030037000400070008f0a70017
:1017d00001f0a0004f04780000000600889fbe00c2
:1017e0008a9fbe00008270000402710004827100b2
:1017f000260032000004be000200be006011b800e6
:101800006b092000950220000182cf000a003900f8
:101810000541b1000082cf00070039000541b10049
:101820000982cf00040039000541b1000882cf00d1
:10183000010039000541b10005425200120032009a
:101840000a003b0082817100610164008100d100c7
:101850000080d3008984d3000884d3008b05e8007e
:101860000442e800f7ff3a0007003700080444008c
:1018700089844c0000004800818048008b05e90005
:101880000442e900f9ff3a00030007004f05be00db
:101890004f04be000000060081002000618055005a
:1018a0000b003d000b00200061fe2f000100e10055
:1018b0001d00340082817100610164008904d1003f
:1018c0000884d3000000e800faff3a00710020000d
:1018d0006100640003007000020060000900320033
:1018e00061044400e0844c000988a5000500320032
:1018f0008b05e8006808e10002003a008904d10085
:101900000884d300f20f20000258e10005003d00da
:10191000c75ddd00f907b200898075000800780016
:10192000000006000bf827008b007800000005007f
:101930000004be0014fc07000003be000405be0046
:101940000200be0010fc0700844f75000000060076
:101950000400fa00889fbe008a9fbe008c9fbe00d4
:101960000205be000bf0a1000800200009f82700c6
:10197000880f5500898f5d0005003e000003be0002
:1019800007f0a100880f5300898f5b000600360026
:101990001bfc07004f06be004f05be004f04be00f3
:1019a0000080fa00000006000800200009f823006b
:1019b000880f5100898f590002003a0097000700f4
:1019c000f4ff37004e1cde000900200088bf9f0096
:1019d00099bf9f000fbe9700620466008004eb0071
:1019e0004f0ade00050020000404740085847400a2
:1019f000e00f5300e08f5b0009003a00e20f540053
:101a0000e08f5c007f003200e20f5400e08f5c004a
:101a1000e0ff3900e30f5400e08f5c005f0032000c
:101a2000e00f5500e08f5d0008003a00610064009f
:101a30008000eb00e00f5000e08f5800740032008f
:101a4000b0fd200091fc2b00d2ff370004002000e5
:101a500005f82700840f5500858f5d000f003a00c0
:101a60008a0f53008b8f5b0040003a00e10f540057
:101a7000e08f5c0058003200e00f5400e08f5c0003
:101a800058003200e20f5400e08f5c002b0032005f
:101a9000e30f5400e08f5c00310032000c002000a6
:101aa0000dd020000a0246008b824e00840f5300a6
:101ab000858f5b00ddff3e000400200005f8270055
:101ac000840f5300858f5b00d8ff320062026400f0
:101ad0008002eb00e00f5200e08f5a000500320058
:101ae0000606460087864e008c0f55008d8f5d00e0
:101af0002d003e00a7fc07008101070047000700fa
:101b0000e10f5400e08f5c0029003200e00f540028
:101b1000e08f5c009fff3200e20f5400e08f5c001a
:101b200025003200e2d22b00b33b2300b4fb0700b8
:101b3000b2fd20009304240025003700020020009d
:101b400003042400b0fd20009104240070fd070070
:101b50000200200003e823006dfd07008dff370021
:101b60000200200003042c00f6ff3700e10f5400b0
:101b7000e08f5c001e003200e00f5400e08f5c003c
:101b80001e003200e20f5400e08f5c001d003200a6
:101b9000e30f5400e08f5c00c0ff3a00b0fd20006e
:101ba00091042c007bff37006000b800d4ff3700a1
:101bb00001f0a20077ff3700e2d22b00b33b2300f5
:101bc0008ffb07000001be00b0fd2000910424003f
:101bd00082fb07006fff3700b0fd200091f42b005f
:101be0006cff3700b0fd200091f4230069ff37003f
:101bf000000020000100280066ff37006000b800e8
:101c000064ff3700b0fd20009104240061ff37001d
:101c1000b0fd200091fc23005eff3700ea874700fb
:101c2000889fbe008a9fbe008c9fbe008e1f7800da
:101c30000002be004f0dde000b0020000004780003
:101c40008504780009f0a100f0ff2f00f1c72400ff
:101c5000800f5400818f5c001000360000002000cf
:101c600001f82700800f5400818f5c0025003e00a2
:101c70000200200003382000a0fd200091fc23007a
:101c80005ffb07000002be00e00f5500e08f5d0023
:101c90001c00320005f0a2001a003700f0ff2f00f0
:101ca000f1ed2300800f5400818f5c001c003e008a
:101cb0000087eb00f0ff2f00f1972300800f540006
:101cc000818f5c0033003e006000b80003f82700fd
:101cd00085806100e00f5000e08f580009003a0055
:101ce0000401be000400be00f4b79f0085bf9f0042
:101cf00007fd0700d0b79f00e1b79f007fb29700b4
:101d00008fba97000400be004f0778004f06be0050
:101d10004f05be004f04be00af00b100000006003a
:101d20000400be00f60007000006be00f0ff2f0012
:101d300071f92300800f5400818f5c0055003e0034
:101d4000f0ff2f00f1f22300800f5400818f5c0020
:101d500041003e000c01be000c00be0028fb070045
:101d60000200200003f823001cfb07000004be0053
:101d700002002000030024000c00be0020fb07002e
:101d80000001be000800be0002fc07000002be0009
:101d90000007eb000401be000400be00f4b79f0082
:101da00085bf9f00dafc07000006be000001be00f0
:101db000d7fc07000004be0052c22a00c3d723008c
:101dc000d3fc0700d2502f0013e123000cfb0700c7
:101dd0000801be00cefc070092aa2a00a3ea230055
:101de00007fb07000c01be00c9fc07000006be008f
:101df00072242100a3dd2b000800be00c4fc0700f4
:101e000082a92c00c3e42300f4fa07000801be00f5
:101e1000bffc07000001be000c00be00f8fa07007e
:101e20007fb297008fba97000401be00b8fc07008c
:101e30000003be000e00e0007fb297008fba97004b
:101e400032003d000001be000400be00e3fa0700be
:101e50000002be00abff37000200200003f82300a1
:101e60000c00be00ddfa07000004be0002002000e6
:101e700003f823000c00be00e1fa07000001be00d9
:101e80000800be00c3fb07000002be001e002000c9
:101e9000c0ff3700f0ff2f00b1012400800f540075
:101ea000818f5c0012003e000200200003fc230032
:101eb0000c00be00c9fa07000004be0002002000aa
:101ec00003fc23000c00be0091fc07000200200070
:101ed00003f82300cafa07000001be000800be0094
:101ee000acfb07000002be002e002000a9ff370057
:101ef0000c01be000000200001f82b00a5fb07002c
:101f00000002be003e002000a2ff37004277dd0045
:101f1000c8b421000e044400c0b321000e074000e5
:101f20001e0178009e0190000600be00f4b79f00dd
:101f300085bf9f00a9fa07007fb297008fba97006c
:101f40000401be00a5fa07000001be0018007800d9
:101f500098009000a1fa07004aff37000400fa0039
:101f60000001be0003f0a100a4fd200095f42300b1
:101f7000840f5100858f59000e003e00f4ff2f00a2
:101f8000f5972300840f5100858f59003a003e00d9
:101f90000200200003b8270099fa0700e0bf9f0065
:101fa000f1bf9f000000200001f823000080fa002c
:101fb000000006004f0ade0005002000163d250047
:101fc000b7072400860f5100878f59001b003e0081
:101fd00036be2c0067012400860f5100878f590000
:101fe0000a003600b2fd2000930424000400e00043
:101ff0000400320082fa07004402070001f0a20048
:10200000eaff370075fa0700fbff37000400e00025
:1020100005003200b2fd200093fc230078fa07008f
:10202000c5020700e1ff37000001be00b0fd20003f
:1020300091fc230069fa0700f9ff3700561d2300c1
:10204000270e2400860f5100878f590014003e0090
:10205000f6dd2e00f70a2400860f5100878f590005
:1020600009003600b2fd2000930c24000400e000bb
:102070000300320062fa070024020700cbff37009a
:1020800056fa0700fcff37000400e00001003200b0
:1020900001f0a20042be2c0063092400e5ff3700d6
:1020a000f4ff2f00f5f72700840f5100858f5900aa
:1020b000040036000001be000200be0047fa07001f
:1020c000baff3700c2ff2f000f0141004302070093
:1020d000630160006fb89700ffb89700e10f5100ef
:1020e00005003200e20f5100c3ff32000200e000a1
:1020f000cbff3a00e0ff370001f0a200c8ff370035
:102100000101780002f0a1008200780000000600c2
:10211000889fbe008a9fbe0080047800010478007a
:10212000820578000305780001f0a100020020007c
:1021300003f82700820f5000838f580012003e00e2
:102140000b0078008a00780001f0a100820f500097
:10215000838f58000d003e00090278008802780045
:102160004fc1de00820178004fd0de008000780091
:10217000800f5100818f590009003200e00f52009a
:10218000e08f5a0001003d000a04be0009007800fb
:10219000880078004f05be004f04be000000060016
:1021a0000b0178008a017800090078008800780027
:1021b000b0f907000000e000f2ff3700889fbe0082
:1021c0008a9fbe00000578008104780082057800af
:1021d0000304780001f0a1000200200003f82700aa
:1021e000820f5000838f580014003e000b007800cf
:1021f0008800780001f0a100820f5000838f580002
:102200000c003e000a007800890078004fcade000a
:10221000840278004fc1de0082017800820f5200f4
:10222000838f5a000a003200e00f5000e08f580000
:1022300002003d008a057800090478000b00780050
:10224000880078004f05be004f04be000000060065
:102250000b0178008801780086f907000000e00093
:10226000f3ff37000400fa00889fbe008a9fbe007b
:102270000203410083834900e00f5300e08f5b00bd
:102280000f0032000202be0005f0a100080020008d
:1022900009f82700880f5200898f5a0008003e0075
:1022a000a0bf9f00b1bf9f00470dde000b002000c4
:1022b000f40f20000a056200840f550007003a0061
:1022c00093fb07000001be00b2fa07004f05be00f5
:1022d0004f04be000080fa0000000600000240002b
:1022e00081824800840f5300858f5b00060039000f
:1022f000840f5300858f5b00f4ff3a006011b80033
:1023000083fb0700f1ff37000a00e0004c003a00b1
:102310002fbb9700bfbb9700493add00c732de00f4
:10232000850272004932dd00e00f5200e08f5a0052
:102330003f003d00610215002fbb9700bfbb970017
:10234000040478000804e900030033000603430096
:1023500087834b00fbff37000602be00471bde00f1
:10236000070020000683fb000600e0003d003a0065
:10237000491cdd00c714de00890474004914dd0027
:10238000e00f5400e08f5c0032003d00e1031300d9
:102390000204be008703e900030033000804440080
:1023a00089844c00fbff37000801520089815a00e4
:1023b000860f55002f003c00e00f5100e08f5900c0
:1023c00004003500e00f5100e08f5900cbff3200d0
:1023d0000202be004728de0001002000e00f50008e
:1023e000e08f58002e0032000a00e0003000340078
:1023f0000000200001f82f00040240008582480000
:102400006150b900c700dd0000002000040070002a
:10241000858070006022b80002002800bfb99700d4
:10242000830261000000720081807200a7ff370004
:102430000a05e9000402420085824a00baff37001b
:102440002fba9700bfba9700f507b2000570a00039
:10245000c2ff37000603e9000804440089844c00e9
:10246000c7ff37000204be00f907b2000970a000e0
:10247000cdff3700e00f5100e08f59000400350018
:10248000e00f5100e08f59009cff32000202be00b5
:102490000402420085824a000a05e900c2ff3700b3
:1024a0000402420085824a000a05e900c9ff37009c
:1024b000610515000400be000a05e90003003300b1
:1024c0008100d1000080d300fbff3700d1ff37002f
:1024d0000400fa00889fbe000004be008900780056
:1024e00001f0a100a4fd200095f42300840f50000a
:1024f000858f58001e003e00f4ff2f00f597230043
:10250000840f5000858f580016003e006000b80010
:1025100003f8270089806100e00f5000e08f580029
:102520000b003a0002002000033820000800be0023
:10253000f7fa07000001be00c2bf9f00d3bf9f0093
:102540000800be004f04be000080fa000000060034
:102550000200200003b827000800be0028f9070089
:10256000f4ff37000800be007301070018003700b1
:102570004f49de0003002000143d2500b50724006c
:10258000840f5000858f58001d003e0034be2c0083
:1025900065012400840f5000858f58000e003e0016
:1025a0000800be000200e000b2fd200093fc230002
:1025b0000500320012f90700d40007000004be0035
:1025c00009f0a200deff370004f90700cf00070082
:1025d0000004be00daff37000800be000200e00081
:1025e000b2fd2000930424000300320004f9070028
:1025f00001f0a200dcff3700f8f80700fcff37000d
:10260000541d2300250e2400840f5000858f580090
:1026100017003e00f4dd2e00f50a2400840f500060
:10262000858f580009003e000800be000200e0004f
:1026300042be2c006309240002003200f0f80700bb
:10264000e2ff3700e5f80700dbff37000800be00b7
:102650000200e000b2fd2000930c240002003200d2
:10266000e7f80700c0ff3700dcf80700beff3700bf
:10267000f2ff2f00f3f72700820f5000838f5800de
:10268000050036000801be000800be00d3f80700b0
:102690000004be00aaff370082ff2f000f01410097
:1026a0000800be00cd000700630160004fb897002e
:1026b000dfb89700e10f5100c4ff3200e20f510074
:1026c000cbff32000200e000bbff3a00a6ff37005c
:1026d000889fbe008a9fbe008c1f78000004be0049
:1026e0000003be006055b80004f8270089056200a9
:1026f0000400200005f82700840f5500858f5d0039
:102700000b003a000001be0081fa07000001be0084
:102710000800be00baf807000004be000800be00b2
:102720004f0678004f05be004f04be0000000600b3
:10273000e00f5000e08f580010003c000002be0087
:1027400005f0a100e00f5200e08f5a00f3ff3200c5
:10275000e00f5000e08f580008003d0010022000fc
:10276000e0db88000801be000800be009bf80700ff
:102770000001be0087f90700e7ff370047bdde0014
:10278000cfbdde00e00f5500e08f5d000c003a0089
:102790000603430087834b0061004500e0804d0045
:1027a0000001eb00870178000308b200e00f510040
:1027b000e08f59004d00320060051500e0851d00d6
:1027c000fa07b1000b80b1000600be00f107b200ad
:1027d0000170a000610165008001eb00e00f510075
:1027e000e08f590002003200000040008180480064
:1027f0008b85d1000a85d30000004000818048000d
:102800009c01200002002000031020006044b8005a
:102810006033b8000602410087824900800f5200f1
:10282000818f5a0006003c00040341008583490063
:102830000400500085805800080441008984490044
:1028400000004000818048008301d1000281d30054
:102850000c06e9000c00e000eeff3a00e00f50002b
:10286000e08f5800160032000226240023da2000f0
:102870000000200001f8230058f8070002002000a3
:1028800003f82300fdf707000000e0000c0035000e
:102890000226240023da20000000200001f8230093
:1028a00057f807000200200003f82300f3f70700a1
:1028b0000000e0000f00340062044400e0844c009b
:1028c0008984d1000884d3000000200001f0230097
:1028d0000800400089804800c755dd000a0020003c
:1028e0000a0440008b8448008cff37000005be00be
:1028f000a7ff370061004400e0804c00000478002e
:102900000800a10081047800edff37000400fa0000
:10291000889fbe008a9fbe008c9fbe000001be0043
:10292000fbf907000004be000001be00f8f9070033
:102930000005be000200200003f02b000800be00ce
:10294000f3f907000200200003f823002cf8070029
:102950000006be00f2a92a00a3d223000a00be008e
:10296000ebf907000001be000c00be0024f80700d0
:102970000002be0072a12900c37c23000800be0033
:1029800084bf9f0095bf9f00e1f90700f24320003c
:1029900063ab230011f807000006be000a01be0069
:1029a0000800be00daf907000001be000c00be00fe
:1029b000d7f907000001be000fba97009fba970031
:1029c0000400be000ef807004f06be004f05be0013
:1029d0004f04be000080fa00000006000400fa0068
:1029e000889fbe008a9fbe008c9fbe0000067800b4
:1029f000810478008206780001f0a100a2fd200089
:102a000093dc2400820f5000838f580023003e0087
:102a100032982f0023f2230089007800bcf90700c8
:102a20000200200003b42400f5f707000200200094
:102a300003b42400e9f707000005be0091f7070082
:102a400000047800a2fd200093fc23000a00be00d1
:102a5000aff907000001be000c0078008900780083
:102a6000def707000002be00325a28008328230048
:102a70000a00be0084bf9f0095bf9f00a4f9070015
:102a80000001be000fba97009fba97000400be0075
:102a9000d2f70700808ebe000b003700f2ff2f0038
:102aa000f3f72700820f5000838f58000c00360088
:102ab000000178008901780089007800c7f70700d5
:102ac000808ebe000004eb00080078004f06be00b8
:102ad0004f05be004f04be000080fa000000060053
:102ae000890078004c0007000005be0032982f00d6
:102af00023f2230086f907000200200003f02300e0
:102b0000bff70700550007000004780023fb07000b
:102b100032982f0023f223009ef807000001be0028
:102b20000a00be00adf707006000b800a0069800dc
:102b3000b1069800d7ff37000400fa00889fbe0056
:102b40008a9fbe008c9fbe000006be000001be0032
:102b50006ff907000004be000001be000c00be00bb
:102b60006bf907000005be000801be000800be00aa
:102b700067f907000a01be0065f907000002be0000
:102b8000c2c32600636323000800be0084bf9f0009
:102b900095bf9f005ef90700f27c2000039523009b
:102ba0008ef707000001be000fba97009fba97008a
:102bb0000400be0056f907000002be00428828004b
:102bc00083c023000800be0084bf9f0095bf9f0004
:102bd0004ff90700b2aa2a00a3e223007ff70700fb
:102be0000a01be004af907000c01be0084f7070085
:102bf0000001be000fba97009fba97000400be0004
:102c00007ff707004f06be004f05be004f04be0011
:102c10000080fa00000006000400fa006011b8000d
:102c2000e2bf9f00f3bf9f006fbb9700ffbb970001
:102c30000002be00f0ff2f00f1ff2f00f2ff2f0077
:102c4000f3ff270000006200818062000201630040
:102c5000838163000080fa00000006000003be00cc
:102c600049f707006011b8000470a70007f0a10041
:102c70006509b1001b0032001200350086022000f9
:102c80000628e10008003500f3ff2700f2ff2f00bf
:102c90006110b9000700e00018003b0003002800a5
:102ca0006000b8000200050000004000818048007c
:102cb00002014900838149008502e900faff3a00d8
:102cc00008003700f88f420002003c008000eb0053
:102cd000000005008100d1000080d3008502e800db
:102ce000fcff3a000700e00004003b006000100019
:102cf000e080180060011900e08119000000060062
:020000040000fa
:102d0000cdcc00004c3f000000000000c03f0000a0
:102d10000ad70000233c000000000000c842000069
:102d20000000000096430000295c00000f3e0000f8
:082d3000295c00000f3e0000c9
:020000040000fa
:102d38002200fa00889fbe0070c6800081c680000d
:102d4800cef60700000f780050c6800061c68000ec
:102d5800caf607001007980090c68000a1c6800038
:102d6800c6f6070020079800b0c68000c1c68000dc
:102d7800c2f6070030079800d0c68000e1c6800080
:102d8800bef60700400798000e80e8009e00780015
:102d9800108040006100b900f4f60700020020002e
:102da80003002400f9f7070050079800610798000e
:102db800e600470068004700110178001000410054
:102dc8006100b900e9f607000200200003002400b2
:102dd800eef7070070079800010f98005e0090005a
:102de800ee0090000001be0003f707000001780024
:102df8000100780082047800000478002e0090001a
:102e08006100b900d9f607000001be00090078008a
:102e1800880078000000be00f7f60700000178007f
:102e28000100780082027800000278000200200089
:102e38000304240005007800840078000000be0028
:102e4800d2f70700100f9800210f98007e0090001d
:102e58008e0890000001be00e7f607000001780028
:102e68000100780082047800000478002e009000a9
:102e78006100b900bdf607000001be000900780036
:102e8800880078000000be00dbf60700000178002b
:102e98000100780082027800000278000200200019
:102ea8000304240005007800840078000000be00b8
:102eb800b6f70700300f9800410f98000000200077
:102ec800811b2400500f9800610f9800000020001b
:102ed80001142400700f98000117980002002000c8
:102ee800832c24001e089000ae089000a7f7070066
:102ef800000178000100780082047800000478005e
:102f08007e0990008e1190005e089000ee089000f7
:102f1800b0f607000001780001007800820178000f
:102f28000001780003007800820078000001be00ec
:102f380009007800880078000000be0072f80700d9
:102f48000001780001007800820278000002780011
:102f58007e0990008e1190000500780084007800aa
:102f68000000be00a4f60700000178000100780008
:102f78008201780000017800030078008200780060
:102f88000000be003df607007083880002002000a4
:102f9800832c24003e089000ce0890007bf70700a1
:102fa80000017800010078008204780000047800ad
:102fb8007e0990008e1190005e089000ee08900047
:102fc80084f607000001780001007800820178008b
:102fd8000001780003007800820078000001be003c
:102fe80009007800880078000000be0046f8070055
:102ff8000001780001007800820278000002780061
:103008007e0990008e1190000500780084007800f9
:103018000000be0078f60700000178000100780083
:1030280082017800000178000300780082007800af
:103038000000be0011f607006083880060838000ee
:10304800f70f500002003400040ea80001003700fa
:10305800040ea900000000004f04be000080fa0022
:10306800000006000400fa00008fbe0002002000e5
:10307800031f24001e0078009e009000fbf5070047
:103088000000e00002003d001000200001003700b1
:103098000000eb000080fa00000006000400fa00bf
:1030a800008fbe0002002000031f24001e007800cd
:1030b8009e009000edf507000000e00002003d00d2
:1030c80010002000010037000000eb000080fa002b
:1030d800000006000200fa000040eb00004f7800f4
:1030e80050c6800061c68000deff07000000e000d7
:1030f800030032001e4078000044a000004f780012
:1031080070c6800081c68000d6ff07000000e0007e
:10311800030032001e4078000034a000004f780001
:1031280090c68000a1c68000ceff07000000e00026
:10313800030032001e4078000024a000004f7800f1
:10314800b0c68000c1c68000c6ff07000000e000ce
:10315800030032001e4078000014a000004f7800e1
:10316800d0c68000e1c68000beff07000000e00076
:10317800030032001e4078000004a000004f7800d1
:103188001e4078000080fa00000006000000fa00e7
:1031980074d0bf000080fb006100b900f20020007d
:1031a80003002000820f5000838f58009c003e00cf
:1031b800000601000f003700180037002100370013
:1031c8003d0037003e0037004800370063003700f5
:1031d8006d003700470037005100370052003700b4
:1031e8005c0037006a003700790037007a00370042
:1031f800890037009030ef009230ef000041eb007b
:103208006000b8007f10070012c0b3006000b8006b
:103218007c10070010c0b30074f0b70082848000ef
:1032280093848000803e200001002000800f510020
:10323800818f59007c00360020c0b30074f0b700bd
:103248007900370090c68000a1c6800002002000e7
:10325800032a240087f507000000e0000500340079
:1032680090012000908388009001200080838800ce
:1032780004003700f000200090838800f000200050
:1032880080838800608380006100b900b7f507007b
:103298000041eb005b100700708380006100b900fb
:1032a800b2f5070012c0b3005610070030c0b300d3
:1032b80074f0b7005d0037006a0107005b00370053
:1032c8000041eb006000b8004e10070060838000ea
:1032d8006100b900a5f5070012c0b3004910070046
:1032e80050c0b30074f0b700500037005d0107000c
:1032f8004e0037000041eb006000b80041100700a5
:10330800608380006100b90098f5070012c0b3001f
:103318003c10070090c0b30074f0b70043003700ba
:103328005001070041003700708380006100b90038
:103338008ef507000041eb003210070012c0b30001
:103348006000b8002f100700b0c0b30074f0b700d9
:1033580036003700430107003400370070838000cf
:103368006100b90081f507000041eb002510070056
:1033780012c0b3006000b8002210070070c0b3008c
:1033880074f0b7002900370036010700270037001e
:10339800708380006f0040006100b90073f507007a
:1033a8000041eb00171007006183800010ff2f0019
:1033b800010050006100b9006cf5070012c0b300ad
:1033c80010100700d0c0b30074f0b7001700370022
:1033d80024010700150037007183800010ff2f00bb
:1033e800010050006100b90060f507000041eb00e2
:1033f80004100700608380006f0040006100b9007e
:103408005af5070012c0b300fe0f0700f0c0b30062
:1034180074f0b700050037001201070003003700f9
:103428007470ef0001003700000000000000000089
:103438000080fa00000006000600fa00b912070032
:103448000004e00004013200ba120700b1120700bc
:10345800200798002e009000100078008000eb00f4
:1034680045f50700323323003305240026f707000b
:1034780000017800010078008202780000027800dc
:10348800020020000358240005007800840078001a
:103498000000be003df60700008fbe0062662600f1
:1034a80063ea23001e0078009e009000eff40700f6
:1034b8000000e00003003d006066260061ea23008a
:1034c800008fbe001e0178009e01900000002000c1
:1034d800812024002df60700000178000100780003
:1034e800820278000002780002002000030a24000b
:1034f80005007800840078000000be0035f507005c
:1035080080017800010178000300780082007800cb
:103518000000be0050c6880061c6880064004700ed
:103528001080e800100078008000eb0012f507001a
:103538003233230033052400f3f607000001780036
:103548000100780082027800000278000200200062
:103558000358240005007800840078000000be00ad
:103568000af60700008fbe006266260063ea2300a1
:103578001e0078009e009000bcf407000000e000e8
:1035880003003d006066260061ea2300008fbe004c
:103598001e0178009e019000000020008120240078
:1035a800faf507000001780001007800820278002f
:1035b8000002780002002000030a240005007800b9
:1035c800840078000000be0002f507008001780042
:1035d8000101780003007800820078000000be0036
:1035e80070c6880081c6880064004700410020003a
:1035f80010804000100078008000eb00def4070027
:103608003233230033052400bff607000001780099
:103618000100780082027800000278000200200091
:103628000358240005007800840078000000be00dc
:10363800d6f50700008fbe006266260063ea230005
:103648001e0078009e00900088f407000000e0004b
:1036580003003d006066260061ea2300008fbe007b
:103668001e0178009e0190000000200081202400a7
:10367800c6f5070000017800010078008202780092
:103688000002780002002000030a240005007800e8
:10369800840078000000be00cef4070080017800a6
:1036a8000101780003007800820078000000be0065
:1036b80090c68800a1c68800640047006100200009
:1036c80010804000100078008000eb00aaf407008a
:1036d80032332300330524008bf6070000017800fd
:1036e80001007800820278000002780002002000c1
:1036f8000358240005007800840078000000be000c
:10370800a2f50700008fbe006266260063ea230068
:103718001e0078009e00900054f407000000e000ae
:1037280003003d006066260061ea2300008fbe00aa
:103738001e0178009e0190000000200081202400d6
:1037480092f50700000178000100780082027800f5
:103758000002780002002000030a24000500780017
:10376800840078000000be009af407008001780009
:103778000101780003007800820078000000be0094
:10378800b0c68800c1c688006400470081002000d8
:1037980010804000100078008000eb0076f40700ed
:1037a800323323003305240057f607000001780060
:1037b80001007800820278000002780002002000f0
:1037c8000358240005007800840078000000be003b
:1037d8006ef50700008fbe006266260063ea2300cc
:1037e8001e0078009e00900020f407000000e00012
:1037f80003003d006066260061ea2300008fbe00da
:103808001e0178009e019000000020008120240005
:103818005ef5070000017800010078008202780058
:103828000002780002002000030a24000500780046
:10383800840078000000be0066f40700800178006c
:103848000101780003007800820078000000be00c3
:10385800d0c68800e1c68800000000000080fa0099
:10386800000006000000fa001afe07000080fb00b6
:10387800b0838800b08380006100b900f2012000a5
:1038880003002000820f5000838f58007e003e0006
:10389800000601001f003700210037002300370011
:1038a8002500370027003700790037002800370047
:1038b8002a0037002c0037002e0037003000370070
:1038c8003200370034003700360037003800370040
:1038d8003a0037003c0037003e0037004000370010
:1038e80042003700440037004600370048003700e0
:1038f8004a0037004c0037004e00370050003700b0
:10390800520037005400370056003700580037007f
:103918005a00370020c0b3007cf0b7005d003700c4
:1039280040c0b3007cf0b7005a00370040c0b30075
:103938007cf0b7005700370040c0b3007cf0b700f8
:1039480054003700c0c0b3007cf0b7005100370006
:1039580040c0b3007cf0b7004e00370040c0b30051
:103968007cf0b7004b003700a0c0b3007cf0b70074
:1039780048003700a0c0b3007cf0b700450037000e
:10398800a0c0b3007cf0b70042003700a0c0b3006d
:103998007cf0b7003f003700a0c0b3007cf0b70050
:1039a8003c003700e0c0b3007cf0b70039003700b6
:1039b800e0c0b3007cf0b70036003700c0c0b300e9
:1039c8007cf0b70033003700a0c0b3007cf0b7002c
:1039d8003000370020c0b3007cf0b7002d0037005e
:1039e80040c0b3007cf0b7002a003700e0c0b30045
:1039f8007cf0b70027003700e0c0b3007cf0b700c8
:103a080024003700e0c0b3007cf0b7002100370085
:103a1800a0c0b3007cf0b7001e003700e0c0b300c0
:103a28007cf0b7001b003700a0c0b3007cf0b700e3
:103a380018003700a0c0b3007cf0b70015003700ad
:103a4800a0c0b3007cf0b70012003700a0c0b300dc
:103a58007cf0b7000f003700a0c0b3007cf0b700bf
:103a68000c003700e0c0b3007cf0b7000900370055
:103a7800e0c0b3007cf0b70006003700e0c0b30038
:103a88007cf0b70003003700000000000100370099
:103a9800000000007cd0bf000080fb00410721002f
:103aa800914078008180fb008100e900810f50007f
:103ab800060032007cd0bf0074f0b7004107210037
:103ac80091407800808b21000148780000000000b8
:103ad8000080fa00000006000800fa001a1107002a
:103ae8006611070084aea80084cea800848ea800c2
:103af800754ea800856ea8009a0b0700a10b070059
:103b0800080a0700fb090700200a0700230d070021
:103b1800be100700e811070000002000010824007b
:103b280060c8880071c8880000002000011f2400b8
:103b380080c8880091c888006000b800a0c88800c4
:103b4800b1c88800d0cc2c00c1002400e0c988008e
:103b5800f1c98800000020000119240000ca88006b
:103b680011ca8800f026210031a8230020ca880045
:103b780031ca880000002000812c240040ca880037
:103b880051ca880000002000812c240060ca8800e7
:103b980071ca880000002000812c240080ca880097
:103ba80091ca880000002000812c2400c0c8880029
:103bb800d1c8880000002000812c2400e0c88800bb
:103bc800f1c8880000002000812c240000c988006a
:103bd80011c98800a0c78000b1c780006011b80073
:103be80085f3070080017800010178000300780060
:103bf800820078000000be00a0c78800b1c7880016
:103c0800e0c78000f1c780006011b8007af30700b0
:103c180080017800010178000300780082007800b4
:103c28000000be00e0c78800f1c788006000b80047
:103c3800a0cf8800b1cf88006000b800c0cf88004e
:103c4800d1cf88006000b80080cc880091cc880073
:103c58006000b800a0cc8800b1cc88006000b80033
:103c6800c0cc8800d1cc88006000b80020cc880087
:103c780031cc88006000b80000ce880011ce8800e2
:103c88006000b80020ce880031ce88006000b800ff
:103c980040ce880051ce88006000b800a0cd8800d2
:103ca800b1cd880090c22500f1e02300a0cf8800a4
:103cb800b1cf880090c22500f1e02300c0cf880072
:103cc800d1cf880090c22500f1e02300a0c788006a
:103cd800b1c7880090c22500f1e02300e0c7880042
:103ce800f1c7880000002000812c2400809fbe00be
:103cf80000002000812c2400809fbe0000002000ce
:103d0800812c2400809fbe00f6282c0057d7230062
:103d18006022b8000200200003fc2300c0992100a3
:103d28004d070700ec87570000002000812c240075
:103d3800809fbe0000002000812c2400809fbe00d0
:103d480000002000812c2400809fbe00a6702d005a
:103d580037d223006022b800d2cc2c00c3f4230051
:103d6800c09621003c070700ec87570000002000a0
:103d780001042400008fbe0090c22500f1e023005a
:103d880020079800310798001e0078009e009000d8
:103d98002e019000be0190000803070002003700c2
:103da8001511070090040700221107000004e00025
:103db800fbff3a00907380000000d1006140600072
:103dc800e14f500002003a0010c0b30079f0b7008c
:103dd800d183800090858000808f500012003d00c4
:103de80079d0bf00e14f50000f003a0040828000b8
:103df8000000e0000c003a00d083800041b02100b0
:103e08004300dd00008040009000900020019000f9
:103e1800b001900010007800e8020700d08380000d
:103e28000000e800d083880070c6800081c680004a
:103e380002002000031a24008ef207000000e000b0
:103e48000200340084aea8000100370084aea90047
:103e580050c6800061c6800002002000031a2400ba
:103e680084f207000000e0000200340084cea800bd
:103e78000100370084cea90090c68000a1c680004a
:103e880002002000031a24007af207000000e00074
:103e980002003400848ea80001003700848ea90037
:103ea800d0c68000e1c6800002002000031a24006a
:103eb80070f207000000e00002003400754ea80010
:103ec800b1ff3700754ea900afff37000c00fa00ac
:103ed800889fbe008a9fbe0044cf800055cf8000d7
:103ee80020cf800031cf80000001be000400be005a
:103ef800b8f207000001780001007800820178001c
:103f08000001780003007800820078000000be00fd
:103f18008302070040079800510798003484800006
:103f28004584800030848000418480000001be0008
:103f38000400be0074f40700000178000100780056
:103f48008204780000047800d0cc2c00c1f423004f
:103f58000001be00a8f20700000178000100780007
:103f68008201780000017800030078008200780060
:103f78000001be0009007800880078000000be003b
:103f880082f30700008fbe003084800041848000e7
:103f98006011b80035f207000000e00004003d00a1
:103fa8001e0078009e00900001f0a200008fbe0065
:103fb8003484800045848000a0702d0031c2230025
:103fc8000001be000400be004ff40700200798005f
:103fd800310798006011b8001e0078009e0090001c
:103fe80024f207000000e000060035006011b80068
:103ff8004e009000de0090001ef207000000e00076
:104008000c003d006011b8001e0078009e00900072
:1040180016f207000000e0005a003c006011b800ea
:104028004e009000de00900010f207000000e00053
:1040380054003c004e009000de0090000002be00dc
:1040480005f0a1001e0078009e00900001f0a1007c
:104058000001be000400be0006f207000000e000f8
:10406800480035006011b8004e009000de00900056
:1040780000f207000000e0002000340008002000e3
:1040880009fc2300d4cc2c00c5f42300a0702d001b
:1040980031c223000001be000400be001af407006c
:1040a80000017800010078008202780000027800a0
:1040b80030848000418480000001be000500780043
:1040c800840078000000be004bf207000001780071
:1040d8000100780082027800000278000801be0022
:1040e80005007800840078000000be0031f8070061
:1040f800308488004184880069003700000020006f
:1041080001fc23000004be0009f0a2003a848000ec
:104118004b848000d4cc2c00c5f42300a0702d0063
:1041280031c223000001be000400be00f6f3070000
:104138000001780001007800820178000001780011
:1041480003007800820078000001be000a00be006b
:1041580020f2070000017800010078008202780050
:10416800000278000801be0005007800840078008d
:104178000000be00e4f7070030848800418488000e
:104188004700370030848000418480006011b80007
:10419800b8f107000000e0001e00340038848000f9
:1041a80049848000d4cc2c00c5f42300a0702d00d5
:1041b80031c223000001be000400be00d2f3070094
:1041c8000001780001007800820178000001780081
:1041d80003007800820078000001be000800be00dd
:1041e800fcf10700000178000100780082027800e5
:1041f800000278006011b80005007800840078009b
:104208000000be00c0f707003084880041848800a1
:104218002300370030848000418480006011b8009a
:1042280092f107000000e0001d003d00d4cc2c00f6
:10423800c5f42300a0702d0031c223000001be0088
:104248000400be00b0f30700000178000100780008
:104258008202780000027800308480004184800067
:104268000001be0005007800840078000000be0050
:10427800e1f107000001780001007800820278006f
:10428800000278006011b80005007800840078000a
:104298000000be00c7f7070030848800418488000a
:1042a8004e009000de0090000002be0005f0a10064
:1042b8002e009000be00900001f0a1000001be0099
:1042c8000400be0069f107000000e00004003d00a2
:1042d8004e019000de0190002207980033079800f5
:1042e80020cf800031cf80002e019000be019000c9
:1042f800c1f107008001780001017800030078000f
:10430800820078000000be0020cf880031cf8800ee
:1043180020cf800031cf80008101070020cf8800a6
:1043280031cf8800308480004184800000cf88002d
:1043380011cf88004e009000de00900001f0a1002f
:10434800a2702d0033c2230048f107000000e000ee
:10435800010035001300370030848000418480005c
:1043680001f0a100f226210033a823003ff1070045
:104378000000e000010035000a00370040cf80004f
:1043880051cf800020cf880031cf88006000b8006e
:1043980030848800418488006000b80000cf88001d
:1043a80011cf8800000000004f05be004f04be007a
:1043b8000080fa00000006001800fa00889fbe007e
:1043c80064cf800075cf8000a0cf8000b1cf80007f
:1043d8000001be000400be007ef10700000f980037
:1043e800110f980084cf800095cf8000c0cf800047
:1043f800d1cf80000001be000400be0075f10700a7
:10440800200f9800310f9800f48380000584800005
:10441800a0702d0031c223000001be000400be00c0
:1044280039f30700008fbe00f48380000584800004
:10443800f0838000018480000001be000400be00fb
:1044480031f3070000017800010078008204780049
:104458000004780000002000812c24000001be0028
:1044680065f10700000178000100780082017800fa
:104478000001780003007800820078000001be0087
:1044880009007800880078000000be003ff20700ad
:104498002007980031079800f0838000018480008d
:1044a8006011b800f1f007000000e00005003d00d1
:1044b8002e009000be00900001f0a2002007980096
:1044c800310798000e0990009e0990000e08900090
:1044d8009e0890000cf307000001780001007800a6
:1044e80082047800000478002e099000be0990002c
:1044f8002e089000be08900003f307000001780022
:10450800010078008201780000017800030078003b
:10451800820078000001be00090078008800780059
:104528000000be0034f107000001780001007800a7
:10453800820178000001780003007800820078008a
:104548000000be0060f807001084880021848800fd
:104558006000b80040079800510798006000b80054
:1045680060079800710798001084800021848000fb
:10457800d27b230063582300bef007000000e00050
:104588001000340010848000218480000001be00e7
:104598000e0890009e089000fcf107004007980064
:1045a8005107980010848000218480000001be001b
:1045b8002e089000be089000f4f1070060079800ec
:1045c8007107980010848000218480000002be00da
:1045d80005f0a1002e009000be00900001f0a1009f
:1045e8000001be000400be00a2f007000000e000c9
:1045f800200035000800200069392400040020004c
:10460800852c2400a0702d0031c223000001be00bb
:104618000400be00bcf20700000178000100780029
:104628008202780000027800f08380000184800014
:104638000001be0005007800840078000000be007c
:10464800edf0070000017800010078008202780090
:10465800000278000801be00050078008400780098
:104668000000be00ab0c0700f083880001848800be
:104678001d003700f88380000984800004002000b2
:10468800852c2400a0702d0031c223000001be003b
:104698000400be009cf207000001780001007800c9
:1046a8008201780000017800030078008200780019
:1046b8000001be000800be00c6f007000001780037
:1046c8000100780082027800000278006011b800ca
:1046d80005007800840078000000be00760c070012
:1046e800f083880001848800108480002184800081
:1046f8000002be0005f0a1001e0078009e00900098
:1047080001f0a1000001be000400be0057f0070040
:104718000000e00003003d00128480002384800034
:10472800028fbe00a8cf8000b9cf80001e0178009c
:104738009e0190004e009000de00900072f207008b
:1047480000017800010078008201780000017800fb
:1047580003007800820078000001be000800be0057
:10476800a5f00700800178000101780003007800b7
:10477800820078000000be00a0cf8800b1cf88007a
:10478800c8cf8000d9cf80001e0178009e0190001c
:104798006e009000fe0090005bf2070000017800b8
:1047a8000100780082017800000178000300780099
:1047b800820078000001be000800be008ef00700ed
:1047c80080017800010178000300780082007800f9
:1047d8000000be00c0cf8800d1cf8800f0838000e1
:1047e80001848000e0ce8800f1ce8800f08380004c
:1047f800018480006011b8001cf007000000e00090
:1048080001003200120037001084800021848000eb
:10481800a2702d0033c2230014f007000000e0004e
:10482800010035000a003700808b2100818b2100b0
:10483800211a9100b11a9100411b9100d11b9100de
:104848006418990075189900062099001720990096
:10485800000000004f04be000080fa0000000600bf
:104868001000fa00889fbe00009fbe000297be009d
:10487800440798005507980066079800770798003e
:104888004e029000de0290001e0078009e0090000c
:104898000001be000400be004ef0070000017800d1
:1048a8000100780082047800000478006e0290000d
:1048b800fe0290002e009000be0090000001be0095
:1048c8000400be0043f007000001780001007800f2
:1048d80082027800000278000900780088007800d9
:1048e8000001be0005007800840078000000be00ca
:1048f80015f407000a00070000017800010078009d
:1049080082017800000178000300780082007800b6
:104918000000be004f04be000080fa000000060040
:104928000400fa00008fbe0006003700b2fd200028
:10493800930c24001e0078009e00900025f00700cc
:10494800008fbe00b2fd2000930424001e007800f2
:104958009e009000c7ef07000000e000f3ff3c0056
:1049680006003700b2fd2000930c24001e007800da
:104978009e00900020f00700008fbe00b2fd2000ce
:1049880093042c001e0078009e009000b7ef0700eb
:104998000000e000f3ff35009e0078001e00900044
:1049a8008101780000017800030078008200780017
:1049b8000000be000080fa00000006000800fa00af
:1049c800009fbe000297be00808b21001e02780067
:1049d8009e0290002e039000be03900024189900b8
:1049e80035189900461899005718990010002000aa
:1049f80040828800000000000080fa0000000600e5
:104a08000000fa0050848000e10f50001b003200c3
:104a1800e20f5000330032000000e00041003a008d
:104a2800408280000000e0003d00320010002000bd
:104a380050848800818b2100808b2100211a9100ed
:104a4800b11a9100411b9100d11b9100f0189100ff
:104a580000219100902191006018910080ff0700cb
:104a6800608488007184880060848000718480007c
:104a780040cf880051cf88002900370013fd070078
:104a880024cf800035cf800060848000718480004e
:104a98000001be000400be00ceef07000001780050
:104aa8000100780082017800000178000300780096
:104ab800820078000000be0099ff070001f0a10005
:104ac800f226210033a8230068ef07000000e00069
:104ad80001003500130037002000200050848800b2
:104ae8001000370034fe0700108480002184800005
:104af800f226210033a823005cef07000000e00045
:104b080001003500070037006000b800f083880016
:104b1800018488004830ef008a30ef000100370038
:104b280000000000000000000080fa0000000600fd
:104b38001000fa00889fbe008a9fbe00009fbe003a
:104b48000297be004407980055079800660798002a
:104b5800770798001e0278009e0290004e00900091
:104b6800de0090000001be000400be0099ef0700bf
:104b780000017800010078008204780000047800c1
:104b88001e0278009e0290004e009000de00900009
:104b98000001be000400be008eef0700000178008f
:104ba8000100780082017800000178000300780095
:104bb800820078000001be000900780088007800b3
:104bc8000000be0050f107000001780001007800e5
:104bd80082047800000478002e029000be02900043
:104be8006e009000fe0090000001be000400be00b0
:104bf80078ef07000001780001007800820578004e
:104c0800000578002e029000be0290006e00900011
:104c1800fe0090000001be000400be006def07001a
:104c28000001780001007800820178000001780016
:104c380003007800820078000001be000b007800b5
:104c48008a0078000000be002ff1070000017800fc
:104c580001007800820178000001780003007800e4
:104c6800820078000001be00090078008800780002
:104c78000000be0060ef0700000178000100780026
:104c88008201780000017800030078008200780033
:104c98000000be008cf607000001780001007800d3
:104ca8008201780000017800030078008200780013
:104cb8000000be004f05be004f04be000080fa0091
:104cc800000006000000fa00a0cf8000b1cf8000ed
:104cd8000001be008000eb0020b62100890a070011
:104ce800c0cf8000d1cf80000001be00410020006d
:104cf80020b62100830a070022b62100a100200067
:104d0800100920004300070020cf800031cf800029
:104d18000001be008000eb00c0b52100790a070041
:104d2800c2b52100610020000009200039000700f9
:104d3800000000000080fa00000006000a00fa00e7
:104d48002007980031079800420798000040eb00c0
:104d5800004f78009e407800e0cfb30000c06800a4
:104d6800004f78002e0090004880de000040780058
:104d78009e40780000c06800004f78002e00900028
:104d8800004078009e40780000c06800004f78001e
:104d98003e0090004880de00004078009e40780089
:104da80000c06800004f78003e0090000040780086
:104db8009e40780000c06800004f78000000eb00bb
:104dc800100798000c0037001e009000e80047000c
:104dd80011004000104078009e40780000c0680034
:104de800004f78000e80e8008e80e8001108e80087
:104df80090007800110798009e0090003e009000f7
:104e0800808f5000f0ff35001e4078000080fa00c7
:104e1800000006000e00fa00889fbe008a1f780076
:104e28004007980051079800620798008f0478009f
:104e38000f007800000578006a0047006100200034
:104e4800108040008000e900210798000000e80079
:104e58000000d100800040000f00780081874700e3
:104e680060004000300798000000eb001007980031
:104e78009e0090000e80e8000108e800100178000c
:104e8800120798003e00900001004000e1cfb300f7
:104e9800014878004e009000c880de001e01900096
:104ea8000e80e8000208e8009001780013079800d7
:104eb800814078003e0090000200400001487800e0
:104ec8009e0090000e80e8000108e80010017800bc
:104ed800120798004e009000004178003e009000b4
:104ee80001004000024878005e009000c880de00a3
:104ef8001e0190000e80e8000208e800900178008a
:104f080013079800814078003e009000020040009e
:104f1800014878009e0090000e80e8000108e80033
:104f280010017800120798005e0090000041780098
:104f38003e00900001004000024878000000eb00ad
:104f4800000f78000d0037001e007800ec004700c5
:104f5800910040001e0190000e80e8000208e80061
:104f68009001780013079800914078003e00900067
:104f780002004000014878001e0fe8005e00900023
:104f88009e007800808f5000efff35001e049000cf
:104f98000e80e8000808e8009000780011079800e3
:104fa8006e019000de0090004e00900063ff070045
:104fb800804078003e0090000800400001487800da
:104fc8003e0090009e0090002d0b07008a07780095
:104fd80000000000890778004f0578004f04be00e4
:104fe8000080fa00000006000200fa00004f780076
:104ff80000808000e40f500023003200e40f5000ce
:1050080007003c00e20f500012003200e20f50008f
:1050180016003c000000e000080032005200370093
:10502800e60f500030003200e60f50001c0035003b
:10503800e70f5000390032004b0037001e4078005f
:10504800e24f40004a003a0020002000008088001b
:10505800470037001e80fb004800dd0010808800f4
:105068003000200000808800440037001e80fb00cc
:1050780011808000008070001080880040002000af
:10508800008088003d0037001e80fb004800dd00de
:1050980020808800500020000080880037003700fa
:1050a8001e80fb0020808800208080000000e00037
:1050b80003003a0070002000008088002f003700ad
:1050c80021808000f03f2000808f500004003c00c9
:1050d80060002000008088000630ef0027003700bd
:1050e8000030ef0025003700318080000100e80023
:1050f80030808800c0a12100010040001e487800cf
:105108003180800020808000808f50001a00350098
:105118007000200000808800170037002180800080
:1051280010808000c2a1210004ff070008f0b7002a
:105138001e417800910021008248780081002100fa
:105148009140780009d0bf0080cf500004003a0099
:105158002180800010808000c2a121000a00070081
:105168000030ef00050037000030ef000300370083
:1051780000000000010037000000000000000000ef
:105188000080fa00000006000600fa00000f780010
:105198001107980022079800300720009e00780029
:1051a800808f500073003200300720009e00780086
:1051b800808f500016003c00100520009e007800eb
:1051c800808f500020023200100520009e007800d9
:1051d800808f500005003c00000220009e007800ef
:1051e800808f5000ac0132001802370020052000e3
:1051f8009e007800808f50001600320020072000a3
:105208009e007800808f5000220032000f02370085
:10521800500720009e007800808f50009f003200c9
:10522800500720009e007800808f50000e00350047
:10523800600720009e007800808f50000a0132002d
:10524800000920009e007800808f50008501320000
:10525800fe0137002e009000104078000080fb000f
:105268004e0c0700f90137008000eb002e0090007b
:1052780000090700a0ce8800b1ce880041002000b8
:105288002e009000fb080700c0ce8800d1ce880011
:10529800ee0137006000b80080c9880091c9880015
:1052a8006000b800a0c98800b1c988006000b800d3
:1052b800c0c98800d1c988006000b80020c988002a
:1052c80031c988006000b80060ce880071ce8800bf
:1052d8006000b800a0ce8800b1ce88008000eb0046
:1052e8002e009000e3080700a0808800b1808800a5
:1052f800410020002e009000de080700c0808800d2
:10530800d1808800810020002e009000d908070075
:10531800e0808800f1808800e6808000f7808000c7
:10532800c4808000d5808000a2808000b380800087
:1053380000002000812c2400809fbe000000200077
:10534800812c2400809fbe0000002000812c2400b6
:10535800809fbe00c0902100bf010700ec87570066
:1053680042a02100c100200020072000a9fe07005c
:10537800b60137006000b80000cb880011cb880068
:105388006000b80020cb880031cb88006000b800ee
:1053980040cb880051cb88006000b800a0ca8800c4
:1053a800b1ca88006000b80080ce880091ce88001d
:1053b8006000b800c0ce8800d1ce88008000eb0025
:1053c8002e009000ab080700a0808800b1808800fc
:1053d800410020002e009000a6080700c080880029
:1053e800d1808800810020002e009000a1080700cd
:1053f800e0808800f1808800a0808000b180800073
:105408000001be008000eb0000a12100bd080700dc
:10541800c0808000d18080000001be0041002000d3
:1054280000a12100b7080700e0808000f18080001b
:105438000001be008100200000a12100b108070082
:10544800e6808000f7808000c4808000d5808000de
:10545800a2808000b380800000002000812c2400fe
:10546800809fbe0000002000812c2400809fbe0089
:1054780000002000812c2400809fbe00c0932100e2
:1054880075010700ec87570002a12100c100200028
:10549800300720005ffe07006c0137006000b8008d
:1054a80000cb880011cb88006000b80020cb8800b2
:1054b80031cb88006000b80040cb880051cb880011
:1054c8006000b800a0ca8800b1ca88006000b800af
:1054d80080c9880091c988006000b800a0c9880008
:1054e800b1c988006000b800c0c98800d1c9880067
:1054f8006000b80020c9880031c988006000b80081
:1055080080ce880091ce88006000b80060ce880008
:1055180071ce88006000b80080cc880091cc8800eb
:105528006000b800a0cc8800b1cc88006000b8004a
:10553800c0cc8800d1cc88006000b80020cc88009e
:1055480031cc88006000b80000ce880011ce8800f9
:105558006000b80020ce880031ce88006000b80016
:1055680040ce880051ce88006000b800a0cd8800e9
:10557800b1cd880000002000812c2400809fbe004f
:1055880000002000812c2400809fbe000000200025
:10559800812c2400809fbe006033b8006022b800d0
:1055a8006011b800c09321002b010700ec87570059
:1055b80000002000812c2400809fbe0000002000f5
:1055c800812c2400809fbe0000002000812c240034
:1055d800809fbe006033b8006022b8006011b80038
:1055e800c09021001c010700ec8757000000200034
:1055f800812c2400809fbe0000002000812c240004
:10560800809fbe0000002000812c2400809fbe00e7
:105618006033b8006022b8006011b800c09621005d
:105628000d010700ec87570000002000812c2400a2
:10563800809fbe0000002000812c2400809fbe00b7
:1056480000002000812c2400809fbe006033b80039
:105658006022b8006011b800c0992100fe00070060
:10566800ec875700f90037006000b80080cc88004c
:1056780091cc88006000b800a0cc8800b1cc88002c
:105688006000b800c0cc8800d1cc88006000b800a9
:1056980020cc880031cc88006000b80000ce88009b
:1056a80011ce88006000b80020ce880031ce880076
:1056b8006000b80040ce880051ce88006000b80075
:1056c800a0cd8800b1cd88008000eb002e009000ae
:1056d800e807070000818800118188004100200048
:1056e8002e009000e30707002081880031818800a0
